{
	"contracts/importantContracts/SimpleWallet2.sol": {
		"Simplewallet2": {
			"abi": [
				{
					"inputs": [
						{
							"internalType": "address",
							"name": "",
							"type": "address"
						}
					],
					"name": "balanceRecieved",
					"outputs": [
						{
							"internalType": "uint256",
							"name": "totalBalance",
							"type": "uint256"
						},
						{
							"internalType": "uint256",
							"name": "numsDeposites",
							"type": "uint256"
						},
						{
							"internalType": "uint256",
							"name": "numsWithdrawals",
							"type": "uint256"
						}
					],
					"stateMutability": "view",
					"type": "function"
				},
				{
					"inputs": [],
					"name": "depositeMoneyToSmartContract",
					"outputs": [],
					"stateMutability": "payable",
					"type": "function"
				},
				{
					"inputs": [
						{
							"internalType": "address",
							"name": "ContractAddress",
							"type": "address"
						}
					],
					"name": "getAccountBalance",
					"outputs": [
						{
							"internalType": "uint256",
							"name": "",
							"type": "uint256"
						}
					],
					"stateMutability": "view",
					"type": "function"
				},
				{
					"inputs": [],
					"name": "getBalanceofSmartContract",
					"outputs": [
						{
							"internalType": "uint256",
							"name": "",
							"type": "uint256"
						}
					],
					"stateMutability": "view",
					"type": "function"
				},
				{
					"inputs": [
						{
							"internalType": "address payable",
							"name": "_to",
							"type": "address"
						},
						{
							"internalType": "uint256",
							"name": "_amount",
							"type": "uint256"
						}
					],
					"name": "withdrawFromContractWallet",
					"outputs": [],
					"stateMutability": "nonpayable",
					"type": "function"
				}
			],
			"devdoc": {
				"kind": "dev",
				"methods": {},
				"version": 1
			},
			"evm": {
				"assembly": "    /* \"contracts/importantContracts/SimpleWallet2.sol\":58:2345  contract Simplewallet2{... */\n  mstore(0x40, 0x80)\n  callvalue\n  dup1\n  iszero\n  tag_1\n  jumpi\n  0x00\n  dup1\n  revert\ntag_1:\n  pop\n  dataSize(sub_0)\n  dup1\n  dataOffset(sub_0)\n  0x00\n  codecopy\n  0x00\n  return\nstop\n\nsub_0: assembly {\n        /* \"contracts/importantContracts/SimpleWallet2.sol\":58:2345  contract Simplewallet2{... */\n      mstore(0x40, 0x80)\n      jumpi(tag_1, lt(calldatasize, 0x04))\n      shr(0xe0, calldataload(0x00))\n      dup1\n      0x50bd6253\n      eq\n      tag_2\n      jumpi\n      dup1\n      0x5e41b5bd\n      eq\n      tag_3\n      jumpi\n      dup1\n      0x93423e9c\n      eq\n      tag_4\n      jumpi\n      dup1\n      0xd8d4f50d\n      eq\n      tag_5\n      jumpi\n      dup1\n      0xf429bcb6\n      eq\n      tag_6\n      jumpi\n    tag_1:\n      0x00\n      dup1\n      revert\n        /* \"contracts/importantContracts/SimpleWallet2.sol\":867:1885  function withdrawFromContractWallet(address payable _to, uint _amount) public{... */\n    tag_2:\n      callvalue\n      dup1\n      iszero\n      tag_7\n      jumpi\n      0x00\n      dup1\n      revert\n    tag_7:\n      pop\n      tag_8\n      0x04\n      dup1\n      calldatasize\n      sub\n      dup2\n      add\n      swap1\n      tag_9\n      swap2\n      swap1\n      tag_10\n      jump\t// in\n    tag_9:\n      tag_11\n      jump\t// in\n    tag_8:\n      stop\n        /* \"contracts/importantContracts/SimpleWallet2.sol\":2161:2340  function getBalanceofSmartContract() public view returns(uint){... */\n    tag_3:\n      callvalue\n      dup1\n      iszero\n      tag_12\n      jumpi\n      0x00\n      dup1\n      revert\n    tag_12:\n      pop\n      tag_13\n      tag_14\n      jump\t// in\n    tag_13:\n      mload(0x40)\n      tag_15\n      swap2\n      swap1\n      tag_16\n      jump\t// in\n    tag_15:\n      mload(0x40)\n      dup1\n      swap2\n      sub\n      swap1\n      return\n        /* \"contracts/importantContracts/SimpleWallet2.sol\":1960:2154  function getAccountBalance(address ContractAddress) public view returns(uint){... */\n    tag_4:\n      callvalue\n      dup1\n      iszero\n      tag_17\n      jumpi\n      0x00\n      dup1\n      revert\n    tag_17:\n      pop\n      tag_18\n      0x04\n      dup1\n      calldatasize\n      sub\n      dup2\n      add\n      swap1\n      tag_19\n      swap2\n      swap1\n      tag_20\n      jump\t// in\n    tag_19:\n      tag_21\n      jump\t// in\n    tag_18:\n      mload(0x40)\n      tag_22\n      swap2\n      swap1\n      tag_16\n      jump\t// in\n    tag_22:\n      mload(0x40)\n      dup1\n      swap2\n      sub\n      swap1\n      return\n        /* \"contracts/importantContracts/SimpleWallet2.sol\":394:457  mapping(address => BalanceDetailsStruct) public balanceRecieved */\n    tag_5:\n      callvalue\n      dup1\n      iszero\n      tag_23\n      jumpi\n      0x00\n      dup1\n      revert\n    tag_23:\n      pop\n      tag_24\n      0x04\n      dup1\n      calldatasize\n      sub\n      dup2\n      add\n      swap1\n      tag_25\n      swap2\n      swap1\n      tag_20\n      jump\t// in\n    tag_25:\n      tag_26\n      jump\t// in\n    tag_24:\n      mload(0x40)\n      tag_27\n      swap4\n      swap3\n      swap2\n      swap1\n      tag_28\n      jump\t// in\n    tag_27:\n      mload(0x40)\n      dup1\n      swap2\n      sub\n      swap1\n      return\n        /* \"contracts/importantContracts/SimpleWallet2.sol\":466:861  function depositeMoneyToSmartContract() public payable{... */\n    tag_6:\n      tag_29\n      tag_30\n      jump\t// in\n    tag_29:\n      stop\n        /* \"contracts/importantContracts/SimpleWallet2.sol\":867:1885  function withdrawFromContractWallet(address payable _to, uint _amount) public{... */\n    tag_11:\n        /* \"contracts/importantContracts/SimpleWallet2.sol\":978:993  balanceRecieved */\n      0x00\n        /* \"contracts/importantContracts/SimpleWallet2.sol\":978:1005  balanceRecieved[msg.sender] */\n      dup1\n        /* \"contracts/importantContracts/SimpleWallet2.sol\":994:1004  msg.sender */\n      caller\n        /* \"contracts/importantContracts/SimpleWallet2.sol\":978:1005  balanceRecieved[msg.sender] */\n      0xffffffffffffffffffffffffffffffffffffffff\n      and\n      0xffffffffffffffffffffffffffffffffffffffff\n      and\n      dup2\n      mstore\n      0x20\n      add\n      swap1\n      dup2\n      mstore\n      0x20\n      add\n      0x00\n      keccak256\n        /* \"contracts/importantContracts/SimpleWallet2.sol\":978:1018  balanceRecieved[msg.sender].totalBalance */\n      0x00\n      add\n      sload\n        /* \"contracts/importantContracts/SimpleWallet2.sol\":968:975  _amount */\n      dup2\n        /* \"contracts/importantContracts/SimpleWallet2.sol\":968:1018  _amount > balanceRecieved[msg.sender].totalBalance */\n      gt\n        /* \"contracts/importantContracts/SimpleWallet2.sol\":965:1854  if(_amount > balanceRecieved[msg.sender].totalBalance){... */\n      iszero\n      tag_32\n      jumpi\n        /* \"contracts/importantContracts/SimpleWallet2.sol\":1035:1079  Transaction memory thisWithdrawalTransaction */\n      0x00\n        /* \"contracts/importantContracts/SimpleWallet2.sol\":1082:1151  Transaction(balanceRecieved[msg.sender].totalBalance,block.timestamp) */\n      mload(0x40)\n      dup1\n      0x40\n      add\n      0x40\n      mstore\n      dup1\n        /* \"contracts/importantContracts/SimpleWallet2.sol\":1094:1109  balanceRecieved */\n      0x00\n        /* \"contracts/importantContracts/SimpleWallet2.sol\":1094:1121  balanceRecieved[msg.sender] */\n      dup1\n        /* \"contracts/importantContracts/SimpleWallet2.sol\":1110:1120  msg.sender */\n      caller\n        /* \"contracts/importantContracts/SimpleWallet2.sol\":1094:1121  balanceRecieved[msg.sender] */\n      0xffffffffffffffffffffffffffffffffffffffff\n      and\n      0xffffffffffffffffffffffffffffffffffffffff\n      and\n      dup2\n      mstore\n      0x20\n      add\n      swap1\n      dup2\n      mstore\n      0x20\n      add\n      0x00\n      keccak256\n        /* \"contracts/importantContracts/SimpleWallet2.sol\":1094:1134  balanceRecieved[msg.sender].totalBalance */\n      0x00\n      add\n      sload\n        /* \"contracts/importantContracts/SimpleWallet2.sol\":1082:1151  Transaction(balanceRecieved[msg.sender].totalBalance,block.timestamp) */\n      dup2\n      mstore\n      0x20\n      add\n        /* \"contracts/importantContracts/SimpleWallet2.sol\":1135:1150  block.timestamp */\n      timestamp\n        /* \"contracts/importantContracts/SimpleWallet2.sol\":1082:1151  Transaction(balanceRecieved[msg.sender].totalBalance,block.timestamp) */\n      dup2\n      mstore\n      pop\n        /* \"contracts/importantContracts/SimpleWallet2.sol\":1035:1151  Transaction memory thisWithdrawalTransaction = Transaction(balanceRecieved[msg.sender].totalBalance,block.timestamp) */\n      swap1\n      pop\n        /* \"contracts/importantContracts/SimpleWallet2.sol\":1167:1182  balanceRecieved */\n      0x00\n        /* \"contracts/importantContracts/SimpleWallet2.sol\":1167:1194  balanceRecieved[msg.sender] */\n      dup1\n        /* \"contracts/importantContracts/SimpleWallet2.sol\":1183:1193  msg.sender */\n      caller\n        /* \"contracts/importantContracts/SimpleWallet2.sol\":1167:1194  balanceRecieved[msg.sender] */\n      0xffffffffffffffffffffffffffffffffffffffff\n      and\n      0xffffffffffffffffffffffffffffffffffffffff\n      and\n      dup2\n      mstore\n      0x20\n      add\n      swap1\n      dup2\n      mstore\n      0x20\n      add\n      0x00\n      keccak256\n        /* \"contracts/importantContracts/SimpleWallet2.sol\":1167:1210  balanceRecieved[msg.sender].numsWithdrawals */\n      0x03\n      add\n      0x00\n        /* \"contracts/importantContracts/SimpleWallet2.sol\":1167:1212  balanceRecieved[msg.sender].numsWithdrawals++ */\n      dup2\n      sload\n      dup1\n      swap3\n      swap2\n      swap1\n      tag_33\n      swap1\n      tag_34\n      jump\t// in\n    tag_33:\n      swap2\n      swap1\n      pop\n      sstore\n      pop\n        /* \"contracts/importantContracts/SimpleWallet2.sol\":1315:1340  thisWithdrawalTransaction */\n      dup1\n        /* \"contracts/importantContracts/SimpleWallet2.sol\":1228:1243  balanceRecieved */\n      0x00\n        /* \"contracts/importantContracts/SimpleWallet2.sol\":1228:1255  balanceRecieved[msg.sender] */\n      dup1\n        /* \"contracts/importantContracts/SimpleWallet2.sol\":1244:1254  msg.sender */\n      caller\n        /* \"contracts/importantContracts/SimpleWallet2.sol\":1228:1255  balanceRecieved[msg.sender] */\n      0xffffffffffffffffffffffffffffffffffffffff\n      and\n      0xffffffffffffffffffffffffffffffffffffffff\n      and\n      dup2\n      mstore\n      0x20\n      add\n      swap1\n      dup2\n      mstore\n      0x20\n      add\n      0x00\n      keccak256\n        /* \"contracts/importantContracts/SimpleWallet2.sol\":1228:1267  balanceRecieved[msg.sender].withdrawals */\n      0x04\n      add\n        /* \"contracts/importantContracts/SimpleWallet2.sol\":1228:1312  balanceRecieved[msg.sender].withdrawals[balanceRecieved[msg.sender].numsWithdrawals] */\n      0x00\n        /* \"contracts/importantContracts/SimpleWallet2.sol\":1268:1283  balanceRecieved */\n      dup1\n        /* \"contracts/importantContracts/SimpleWallet2.sol\":1268:1295  balanceRecieved[msg.sender] */\n      0x00\n        /* \"contracts/importantContracts/SimpleWallet2.sol\":1284:1294  msg.sender */\n      caller\n        /* \"contracts/importantContracts/SimpleWallet2.sol\":1268:1295  balanceRecieved[msg.sender] */\n      0xffffffffffffffffffffffffffffffffffffffff\n      and\n      0xffffffffffffffffffffffffffffffffffffffff\n      and\n      dup2\n      mstore\n      0x20\n      add\n      swap1\n      dup2\n      mstore\n      0x20\n      add\n      0x00\n      keccak256\n        /* \"contracts/importantContracts/SimpleWallet2.sol\":1268:1311  balanceRecieved[msg.sender].numsWithdrawals */\n      0x03\n      add\n      sload\n        /* \"contracts/importantContracts/SimpleWallet2.sol\":1228:1312  balanceRecieved[msg.sender].withdrawals[balanceRecieved[msg.sender].numsWithdrawals] */\n      dup2\n      mstore\n      0x20\n      add\n      swap1\n      dup2\n      mstore\n      0x20\n      add\n      0x00\n      keccak256\n        /* \"contracts/importantContracts/SimpleWallet2.sol\":1228:1340  balanceRecieved[msg.sender].withdrawals[balanceRecieved[msg.sender].numsWithdrawals] = thisWithdrawalTransaction */\n      0x00\n      dup3\n      add\n      mload\n      dup2\n      0x00\n      add\n      sstore\n      0x20\n      dup3\n      add\n      mload\n      dup2\n      0x01\n      add\n      sstore\n      swap1\n      pop\n      pop\n        /* \"contracts/importantContracts/SimpleWallet2.sol\":1399:1400  0 */\n      0x00\n        /* \"contracts/importantContracts/SimpleWallet2.sol\":1356:1371  balanceRecieved */\n      dup1\n        /* \"contracts/importantContracts/SimpleWallet2.sol\":1356:1383  balanceRecieved[msg.sender] */\n      0x00\n        /* \"contracts/importantContracts/SimpleWallet2.sol\":1372:1382  msg.sender */\n      caller\n        /* \"contracts/importantContracts/SimpleWallet2.sol\":1356:1383  balanceRecieved[msg.sender] */\n      0xffffffffffffffffffffffffffffffffffffffff\n      and\n      0xffffffffffffffffffffffffffffffffffffffff\n      and\n      dup2\n      mstore\n      0x20\n      add\n      swap1\n      dup2\n      mstore\n      0x20\n      add\n      0x00\n      keccak256\n        /* \"contracts/importantContracts/SimpleWallet2.sol\":1356:1396  balanceRecieved[msg.sender].totalBalance */\n      0x00\n      add\n        /* \"contracts/importantContracts/SimpleWallet2.sol\":1356:1400  balanceRecieved[msg.sender].totalBalance = 0 */\n      dup2\n      swap1\n      sstore\n      pop\n        /* \"contracts/importantContracts/SimpleWallet2.sol\":1416:1419  _to */\n      dup3\n        /* \"contracts/importantContracts/SimpleWallet2.sol\":1416:1428  _to.transfer */\n      0xffffffffffffffffffffffffffffffffffffffff\n      and\n        /* \"contracts/importantContracts/SimpleWallet2.sol\":1416:1437  _to.transfer(_amount) */\n      0x08fc\n        /* \"contracts/importantContracts/SimpleWallet2.sol\":1429:1436  _amount */\n      dup4\n        /* \"contracts/importantContracts/SimpleWallet2.sol\":1416:1437  _to.transfer(_amount) */\n      swap1\n      dup2\n      iszero\n      mul\n      swap1\n      mload(0x40)\n      0x00\n      mload(0x40)\n      dup1\n      dup4\n      sub\n      dup2\n      dup6\n      dup9\n      dup9\n      call\n      swap4\n      pop\n      pop\n      pop\n      pop\n      iszero\n      dup1\n      iszero\n      tag_36\n      jumpi\n      returndatasize\n      0x00\n      dup1\n      returndatacopy\n      revert(0x00, returndatasize)\n    tag_36:\n      pop\n        /* \"contracts/importantContracts/SimpleWallet2.sol\":1019:1451  {... */\n      pop\n        /* \"contracts/importantContracts/SimpleWallet2.sol\":965:1854  if(_amount > balanceRecieved[msg.sender].totalBalance){... */\n      jump(tag_37)\n    tag_32:\n        /* \"contracts/importantContracts/SimpleWallet2.sol\":1470:1514  Transaction memory thisWithdrawalTransaction */\n      0x00\n        /* \"contracts/importantContracts/SimpleWallet2.sol\":1517:1553  Transaction(_amount,block.timestamp) */\n      mload(0x40)\n      dup1\n      0x40\n      add\n      0x40\n      mstore\n      dup1\n        /* \"contracts/importantContracts/SimpleWallet2.sol\":1529:1536  _amount */\n      dup4\n        /* \"contracts/importantContracts/SimpleWallet2.sol\":1517:1553  Transaction(_amount,block.timestamp) */\n      dup2\n      mstore\n      0x20\n      add\n        /* \"contracts/importantContracts/SimpleWallet2.sol\":1537:1552  block.timestamp */\n      timestamp\n        /* \"contracts/importantContracts/SimpleWallet2.sol\":1517:1553  Transaction(_amount,block.timestamp) */\n      dup2\n      mstore\n      pop\n        /* \"contracts/importantContracts/SimpleWallet2.sol\":1470:1553  Transaction memory thisWithdrawalTransaction = Transaction(_amount,block.timestamp) */\n      swap1\n      pop\n        /* \"contracts/importantContracts/SimpleWallet2.sol\":1568:1583  balanceRecieved */\n      0x00\n        /* \"contracts/importantContracts/SimpleWallet2.sol\":1568:1595  balanceRecieved[msg.sender] */\n      dup1\n        /* \"contracts/importantContracts/SimpleWallet2.sol\":1584:1594  msg.sender */\n      caller\n        /* \"contracts/importantContracts/SimpleWallet2.sol\":1568:1595  balanceRecieved[msg.sender] */\n      0xffffffffffffffffffffffffffffffffffffffff\n      and\n      0xffffffffffffffffffffffffffffffffffffffff\n      and\n      dup2\n      mstore\n      0x20\n      add\n      swap1\n      dup2\n      mstore\n      0x20\n      add\n      0x00\n      keccak256\n        /* \"contracts/importantContracts/SimpleWallet2.sol\":1568:1611  balanceRecieved[msg.sender].numsWithdrawals */\n      0x03\n      add\n      0x00\n        /* \"contracts/importantContracts/SimpleWallet2.sol\":1568:1613  balanceRecieved[msg.sender].numsWithdrawals++ */\n      dup2\n      sload\n      dup1\n      swap3\n      swap2\n      swap1\n      tag_38\n      swap1\n      tag_34\n      jump\t// in\n    tag_38:\n      swap2\n      swap1\n      pop\n      sstore\n      pop\n        /* \"contracts/importantContracts/SimpleWallet2.sol\":1715:1740  thisWithdrawalTransaction */\n      dup1\n        /* \"contracts/importantContracts/SimpleWallet2.sol\":1628:1643  balanceRecieved */\n      0x00\n        /* \"contracts/importantContracts/SimpleWallet2.sol\":1628:1655  balanceRecieved[msg.sender] */\n      dup1\n        /* \"contracts/importantContracts/SimpleWallet2.sol\":1644:1654  msg.sender */\n      caller\n        /* \"contracts/importantContracts/SimpleWallet2.sol\":1628:1655  balanceRecieved[msg.sender] */\n      0xffffffffffffffffffffffffffffffffffffffff\n      and\n      0xffffffffffffffffffffffffffffffffffffffff\n      and\n      dup2\n      mstore\n      0x20\n      add\n      swap1\n      dup2\n      mstore\n      0x20\n      add\n      0x00\n      keccak256\n        /* \"contracts/importantContracts/SimpleWallet2.sol\":1628:1667  balanceRecieved[msg.sender].withdrawals */\n      0x04\n      add\n        /* \"contracts/importantContracts/SimpleWallet2.sol\":1628:1712  balanceRecieved[msg.sender].withdrawals[balanceRecieved[msg.sender].numsWithdrawals] */\n      0x00\n        /* \"contracts/importantContracts/SimpleWallet2.sol\":1668:1683  balanceRecieved */\n      dup1\n        /* \"contracts/importantContracts/SimpleWallet2.sol\":1668:1695  balanceRecieved[msg.sender] */\n      0x00\n        /* \"contracts/importantContracts/SimpleWallet2.sol\":1684:1694  msg.sender */\n      caller\n        /* \"contracts/importantContracts/SimpleWallet2.sol\":1668:1695  balanceRecieved[msg.sender] */\n      0xffffffffffffffffffffffffffffffffffffffff\n      and\n      0xffffffffffffffffffffffffffffffffffffffff\n      and\n      dup2\n      mstore\n      0x20\n      add\n      swap1\n      dup2\n      mstore\n      0x20\n      add\n      0x00\n      keccak256\n        /* \"contracts/importantContracts/SimpleWallet2.sol\":1668:1711  balanceRecieved[msg.sender].numsWithdrawals */\n      0x03\n      add\n      sload\n        /* \"contracts/importantContracts/SimpleWallet2.sol\":1628:1712  balanceRecieved[msg.sender].withdrawals[balanceRecieved[msg.sender].numsWithdrawals] */\n      dup2\n      mstore\n      0x20\n      add\n      swap1\n      dup2\n      mstore\n      0x20\n      add\n      0x00\n      keccak256\n        /* \"contracts/importantContracts/SimpleWallet2.sol\":1628:1740  balanceRecieved[msg.sender].withdrawals[balanceRecieved[msg.sender].numsWithdrawals] = thisWithdrawalTransaction */\n      0x00\n      dup3\n      add\n      mload\n      dup2\n      0x00\n      add\n      sstore\n      0x20\n      dup3\n      add\n      mload\n      dup2\n      0x01\n      add\n      sstore\n      swap1\n      pop\n      pop\n        /* \"contracts/importantContracts/SimpleWallet2.sol\":1799:1806  _amount */\n      dup2\n        /* \"contracts/importantContracts/SimpleWallet2.sol\":1755:1770  balanceRecieved */\n      0x00\n        /* \"contracts/importantContracts/SimpleWallet2.sol\":1755:1782  balanceRecieved[msg.sender] */\n      dup1\n        /* \"contracts/importantContracts/SimpleWallet2.sol\":1771:1781  msg.sender */\n      caller\n        /* \"contracts/importantContracts/SimpleWallet2.sol\":1755:1782  balanceRecieved[msg.sender] */\n      0xffffffffffffffffffffffffffffffffffffffff\n      and\n      0xffffffffffffffffffffffffffffffffffffffff\n      and\n      dup2\n      mstore\n      0x20\n      add\n      swap1\n      dup2\n      mstore\n      0x20\n      add\n      0x00\n      keccak256\n        /* \"contracts/importantContracts/SimpleWallet2.sol\":1755:1795  balanceRecieved[msg.sender].totalBalance */\n      0x00\n      add\n      0x00\n        /* \"contracts/importantContracts/SimpleWallet2.sol\":1755:1806  balanceRecieved[msg.sender].totalBalance -= _amount */\n      dup3\n      dup3\n      sload\n      tag_39\n      swap2\n      swap1\n      tag_40\n      jump\t// in\n    tag_39:\n      swap3\n      pop\n      pop\n      dup2\n      swap1\n      sstore\n      pop\n        /* \"contracts/importantContracts/SimpleWallet2.sol\":1821:1824  _to */\n      dup3\n        /* \"contracts/importantContracts/SimpleWallet2.sol\":1821:1833  _to.transfer */\n      0xffffffffffffffffffffffffffffffffffffffff\n      and\n        /* \"contracts/importantContracts/SimpleWallet2.sol\":1821:1842  _to.transfer(_amount) */\n      0x08fc\n        /* \"contracts/importantContracts/SimpleWallet2.sol\":1834:1841  _amount */\n      dup4\n        /* \"contracts/importantContracts/SimpleWallet2.sol\":1821:1842  _to.transfer(_amount) */\n      swap1\n      dup2\n      iszero\n      mul\n      swap1\n      mload(0x40)\n      0x00\n      mload(0x40)\n      dup1\n      dup4\n      sub\n      dup2\n      dup6\n      dup9\n      dup9\n      call\n      swap4\n      pop\n      pop\n      pop\n      pop\n      iszero\n      dup1\n      iszero\n      tag_42\n      jumpi\n      returndatasize\n      0x00\n      dup1\n      returndatacopy\n      revert(0x00, returndatasize)\n    tag_42:\n      pop\n        /* \"contracts/importantContracts/SimpleWallet2.sol\":1455:1854  {... */\n      pop\n        /* \"contracts/importantContracts/SimpleWallet2.sol\":965:1854  if(_amount > balanceRecieved[msg.sender].totalBalance){... */\n    tag_37:\n        /* \"contracts/importantContracts/SimpleWallet2.sol\":867:1885  function withdrawFromContractWallet(address payable _to, uint _amount) public{... */\n      pop\n      pop\n      jump\t// out\n        /* \"contracts/importantContracts/SimpleWallet2.sol\":2161:2340  function getBalanceofSmartContract() public view returns(uint){... */\n    tag_14:\n        /* \"contracts/importantContracts/SimpleWallet2.sol\":2218:2222  uint */\n      0x00\n        /* \"contracts/importantContracts/SimpleWallet2.sol\":2241:2262  address(this).balance */\n      selfbalance\n        /* \"contracts/importantContracts/SimpleWallet2.sol\":2234:2263  return(address(this).balance) */\n      swap1\n      pop\n        /* \"contracts/importantContracts/SimpleWallet2.sol\":2161:2340  function getBalanceofSmartContract() public view returns(uint){... */\n      swap1\n      jump\t// out\n        /* \"contracts/importantContracts/SimpleWallet2.sol\":1960:2154  function getAccountBalance(address ContractAddress) public view returns(uint){... */\n    tag_21:\n        /* \"contracts/importantContracts/SimpleWallet2.sol\":2032:2036  uint */\n      0x00\n        /* \"contracts/importantContracts/SimpleWallet2.sol\":2055:2070  ContractAddress */\n      dup2\n        /* \"contracts/importantContracts/SimpleWallet2.sol\":2055:2078  ContractAddress.balance */\n      0xffffffffffffffffffffffffffffffffffffffff\n      and\n      balance\n        /* \"contracts/importantContracts/SimpleWallet2.sol\":2048:2078  return ContractAddress.balance */\n      swap1\n      pop\n        /* \"contracts/importantContracts/SimpleWallet2.sol\":1960:2154  function getAccountBalance(address ContractAddress) public view returns(uint){... */\n      swap2\n      swap1\n      pop\n      jump\t// out\n        /* \"contracts/importantContracts/SimpleWallet2.sol\":394:457  mapping(address => BalanceDetailsStruct) public balanceRecieved */\n    tag_26:\n      mstore(0x20, 0x00)\n      dup1\n      0x00\n      mstore\n      keccak256(0x00, 0x40)\n      0x00\n      swap2\n      pop\n      swap1\n      pop\n      dup1\n      0x00\n      add\n      sload\n      swap1\n      dup1\n      0x01\n      add\n      sload\n      swap1\n      dup1\n      0x03\n      add\n      sload\n      swap1\n      pop\n      dup4\n      jump\t// out\n        /* \"contracts/importantContracts/SimpleWallet2.sol\":466:861  function depositeMoneyToSmartContract() public payable{... */\n    tag_30:\n        /* \"contracts/importantContracts/SimpleWallet2.sol\":533:575  Transaction memory thisTransactionDeposite */\n      0x00\n        /* \"contracts/importantContracts/SimpleWallet2.sol\":578:616  Transaction(msg.value,block.timestamp) */\n      mload(0x40)\n      dup1\n      0x40\n      add\n      0x40\n      mstore\n      dup1\n        /* \"contracts/importantContracts/SimpleWallet2.sol\":590:599  msg.value */\n      callvalue\n        /* \"contracts/importantContracts/SimpleWallet2.sol\":578:616  Transaction(msg.value,block.timestamp) */\n      dup2\n      mstore\n      0x20\n      add\n        /* \"contracts/importantContracts/SimpleWallet2.sol\":600:615  block.timestamp */\n      timestamp\n        /* \"contracts/importantContracts/SimpleWallet2.sol\":578:616  Transaction(msg.value,block.timestamp) */\n      dup2\n      mstore\n      pop\n        /* \"contracts/importantContracts/SimpleWallet2.sol\":533:616  Transaction memory thisTransactionDeposite = Transaction(msg.value,block.timestamp) */\n      swap1\n      pop\n        /* \"contracts/importantContracts/SimpleWallet2.sol\":673:682  msg.value */\n      callvalue\n        /* \"contracts/importantContracts/SimpleWallet2.sol\":629:644  balanceRecieved */\n      0x00\n        /* \"contracts/importantContracts/SimpleWallet2.sol\":629:656  balanceRecieved[msg.sender] */\n      dup1\n        /* \"contracts/importantContracts/SimpleWallet2.sol\":645:655  msg.sender */\n      caller\n        /* \"contracts/importantContracts/SimpleWallet2.sol\":629:656  balanceRecieved[msg.sender] */\n      0xffffffffffffffffffffffffffffffffffffffff\n      and\n      0xffffffffffffffffffffffffffffffffffffffff\n      and\n      dup2\n      mstore\n      0x20\n      add\n      swap1\n      dup2\n      mstore\n      0x20\n      add\n      0x00\n      keccak256\n        /* \"contracts/importantContracts/SimpleWallet2.sol\":629:669  balanceRecieved[msg.sender].totalBalance */\n      0x00\n      add\n      0x00\n        /* \"contracts/importantContracts/SimpleWallet2.sol\":629:682  balanceRecieved[msg.sender].totalBalance += msg.value */\n      dup3\n      dup3\n      sload\n      tag_46\n      swap2\n      swap1\n      tag_47\n      jump\t// in\n    tag_46:\n      swap3\n      pop\n      pop\n      dup2\n      swap1\n      sstore\n      pop\n        /* \"contracts/importantContracts/SimpleWallet2.sol\":693:708  balanceRecieved */\n      0x00\n        /* \"contracts/importantContracts/SimpleWallet2.sol\":693:720  balanceRecieved[msg.sender] */\n      dup1\n        /* \"contracts/importantContracts/SimpleWallet2.sol\":709:719  msg.sender */\n      caller\n        /* \"contracts/importantContracts/SimpleWallet2.sol\":693:720  balanceRecieved[msg.sender] */\n      0xffffffffffffffffffffffffffffffffffffffff\n      and\n      0xffffffffffffffffffffffffffffffffffffffff\n      and\n      dup2\n      mstore\n      0x20\n      add\n      swap1\n      dup2\n      mstore\n      0x20\n      add\n      0x00\n      keccak256\n        /* \"contracts/importantContracts/SimpleWallet2.sol\":693:734  balanceRecieved[msg.sender].numsDeposites */\n      0x01\n      add\n      0x00\n        /* \"contracts/importantContracts/SimpleWallet2.sol\":693:736  balanceRecieved[msg.sender].numsDeposites++ */\n      dup2\n      sload\n      dup1\n      swap3\n      swap2\n      swap1\n      tag_48\n      swap1\n      tag_34\n      jump\t// in\n    tag_48:\n      swap2\n      swap1\n      pop\n      sstore\n      pop\n        /* \"contracts/importantContracts/SimpleWallet2.sol\":828:851  thisTransactionDeposite */\n      dup1\n        /* \"contracts/importantContracts/SimpleWallet2.sol\":747:762  balanceRecieved */\n      0x00\n        /* \"contracts/importantContracts/SimpleWallet2.sol\":747:774  balanceRecieved[msg.sender] */\n      dup1\n        /* \"contracts/importantContracts/SimpleWallet2.sol\":763:773  msg.sender */\n      caller\n        /* \"contracts/importantContracts/SimpleWallet2.sol\":747:774  balanceRecieved[msg.sender] */\n      0xffffffffffffffffffffffffffffffffffffffff\n      and\n      0xffffffffffffffffffffffffffffffffffffffff\n      and\n      dup2\n      mstore\n      0x20\n      add\n      swap1\n      dup2\n      mstore\n      0x20\n      add\n      0x00\n      keccak256\n        /* \"contracts/importantContracts/SimpleWallet2.sol\":747:784  balanceRecieved[msg.sender].deposites */\n      0x02\n      add\n        /* \"contracts/importantContracts/SimpleWallet2.sol\":747:827  balanceRecieved[msg.sender].deposites[balanceRecieved[msg.sender].numsDeposites] */\n      0x00\n        /* \"contracts/importantContracts/SimpleWallet2.sol\":785:800  balanceRecieved */\n      dup1\n        /* \"contracts/importantContracts/SimpleWallet2.sol\":785:812  balanceRecieved[msg.sender] */\n      0x00\n        /* \"contracts/importantContracts/SimpleWallet2.sol\":801:811  msg.sender */\n      caller\n        /* \"contracts/importantContracts/SimpleWallet2.sol\":785:812  balanceRecieved[msg.sender] */\n      0xffffffffffffffffffffffffffffffffffffffff\n      and\n      0xffffffffffffffffffffffffffffffffffffffff\n      and\n      dup2\n      mstore\n      0x20\n      add\n      swap1\n      dup2\n      mstore\n      0x20\n      add\n      0x00\n      keccak256\n        /* \"contracts/importantContracts/SimpleWallet2.sol\":785:826  balanceRecieved[msg.sender].numsDeposites */\n      0x01\n      add\n      sload\n        /* \"contracts/importantContracts/SimpleWallet2.sol\":747:827  balanceRecieved[msg.sender].deposites[balanceRecieved[msg.sender].numsDeposites] */\n      dup2\n      mstore\n      0x20\n      add\n      swap1\n      dup2\n      mstore\n      0x20\n      add\n      0x00\n      keccak256\n        /* \"contracts/importantContracts/SimpleWallet2.sol\":747:851  balanceRecieved[msg.sender].deposites[balanceRecieved[msg.sender].numsDeposites]=thisTransactionDeposite */\n      0x00\n      dup3\n      add\n      mload\n      dup2\n      0x00\n      add\n      sstore\n      0x20\n      dup3\n      add\n      mload\n      dup2\n      0x01\n      add\n      sstore\n      swap1\n      pop\n      pop\n        /* \"contracts/importantContracts/SimpleWallet2.sol\":520:861  {... */\n      pop\n        /* \"contracts/importantContracts/SimpleWallet2.sol\":466:861  function depositeMoneyToSmartContract() public payable{... */\n      jump\t// out\n        /* \"#utility.yul\":88:205   */\n    tag_50:\n        /* \"#utility.yul\":197:198   */\n      0x00\n        /* \"#utility.yul\":194:195   */\n      dup1\n        /* \"#utility.yul\":187:199   */\n      revert\n        /* \"#utility.yul\":334:460   */\n    tag_52:\n        /* \"#utility.yul\":371:378   */\n      0x00\n        /* \"#utility.yul\":411:453   */\n      0xffffffffffffffffffffffffffffffffffffffff\n        /* \"#utility.yul\":404:409   */\n      dup3\n        /* \"#utility.yul\":400:454   */\n      and\n        /* \"#utility.yul\":389:454   */\n      swap1\n      pop\n        /* \"#utility.yul\":334:460   */\n      swap2\n      swap1\n      pop\n      jump\t// out\n        /* \"#utility.yul\":466:570   */\n    tag_53:\n        /* \"#utility.yul\":511:518   */\n      0x00\n        /* \"#utility.yul\":540:564   */\n      tag_70\n        /* \"#utility.yul\":558:563   */\n      dup3\n        /* \"#utility.yul\":540:564   */\n      tag_52\n      jump\t// in\n    tag_70:\n        /* \"#utility.yul\":529:564   */\n      swap1\n      pop\n        /* \"#utility.yul\":466:570   */\n      swap2\n      swap1\n      pop\n      jump\t// out\n        /* \"#utility.yul\":576:714   */\n    tag_54:\n        /* \"#utility.yul\":657:689   */\n      tag_72\n        /* \"#utility.yul\":683:688   */\n      dup2\n        /* \"#utility.yul\":657:689   */\n      tag_53\n      jump\t// in\n    tag_72:\n        /* \"#utility.yul\":650:655   */\n      dup2\n        /* \"#utility.yul\":647:690   */\n      eq\n        /* \"#utility.yul\":637:708   */\n      tag_73\n      jumpi\n        /* \"#utility.yul\":704:705   */\n      0x00\n        /* \"#utility.yul\":701:702   */\n      dup1\n        /* \"#utility.yul\":694:706   */\n      revert\n        /* \"#utility.yul\":637:708   */\n    tag_73:\n        /* \"#utility.yul\":576:714   */\n      pop\n      jump\t// out\n        /* \"#utility.yul\":720:875   */\n    tag_55:\n        /* \"#utility.yul\":774:779   */\n      0x00\n        /* \"#utility.yul\":812:818   */\n      dup2\n        /* \"#utility.yul\":799:819   */\n      calldataload\n        /* \"#utility.yul\":790:819   */\n      swap1\n      pop\n        /* \"#utility.yul\":828:869   */\n      tag_75\n        /* \"#utility.yul\":863:868   */\n      dup2\n        /* \"#utility.yul\":828:869   */\n      tag_54\n      jump\t// in\n    tag_75:\n        /* \"#utility.yul\":720:875   */\n      swap3\n      swap2\n      pop\n      pop\n      jump\t// out\n        /* \"#utility.yul\":881:958   */\n    tag_56:\n        /* \"#utility.yul\":918:925   */\n      0x00\n        /* \"#utility.yul\":947:952   */\n      dup2\n        /* \"#utility.yul\":936:952   */\n      swap1\n      pop\n        /* \"#utility.yul\":881:958   */\n      swap2\n      swap1\n      pop\n      jump\t// out\n        /* \"#utility.yul\":964:1086   */\n    tag_57:\n        /* \"#utility.yul\":1037:1061   */\n      tag_78\n        /* \"#utility.yul\":1055:1060   */\n      dup2\n        /* \"#utility.yul\":1037:1061   */\n      tag_56\n      jump\t// in\n    tag_78:\n        /* \"#utility.yul\":1030:1035   */\n      dup2\n        /* \"#utility.yul\":1027:1062   */\n      eq\n        /* \"#utility.yul\":1017:1080   */\n      tag_79\n      jumpi\n        /* \"#utility.yul\":1076:1077   */\n      0x00\n        /* \"#utility.yul\":1073:1074   */\n      dup1\n        /* \"#utility.yul\":1066:1078   */\n      revert\n        /* \"#utility.yul\":1017:1080   */\n    tag_79:\n        /* \"#utility.yul\":964:1086   */\n      pop\n      jump\t// out\n        /* \"#utility.yul\":1092:1231   */\n    tag_58:\n        /* \"#utility.yul\":1138:1143   */\n      0x00\n        /* \"#utility.yul\":1176:1182   */\n      dup2\n        /* \"#utility.yul\":1163:1183   */\n      calldataload\n        /* \"#utility.yul\":1154:1183   */\n      swap1\n      pop\n        /* \"#utility.yul\":1192:1225   */\n      tag_81\n        /* \"#utility.yul\":1219:1224   */\n      dup2\n        /* \"#utility.yul\":1192:1225   */\n      tag_57\n      jump\t// in\n    tag_81:\n        /* \"#utility.yul\":1092:1231   */\n      swap3\n      swap2\n      pop\n      pop\n      jump\t// out\n        /* \"#utility.yul\":1237:1727   */\n    tag_10:\n        /* \"#utility.yul\":1313:1319   */\n      0x00\n        /* \"#utility.yul\":1321:1327   */\n      dup1\n        /* \"#utility.yul\":1370:1372   */\n      0x40\n        /* \"#utility.yul\":1358:1367   */\n      dup4\n        /* \"#utility.yul\":1349:1356   */\n      dup6\n        /* \"#utility.yul\":1345:1368   */\n      sub\n        /* \"#utility.yul\":1341:1373   */\n      slt\n        /* \"#utility.yul\":1338:1457   */\n      iszero\n      tag_83\n      jumpi\n        /* \"#utility.yul\":1376:1455   */\n      tag_84\n      tag_50\n      jump\t// in\n    tag_84:\n        /* \"#utility.yul\":1338:1457   */\n    tag_83:\n        /* \"#utility.yul\":1496:1497   */\n      0x00\n        /* \"#utility.yul\":1521:1582   */\n      tag_85\n        /* \"#utility.yul\":1574:1581   */\n      dup6\n        /* \"#utility.yul\":1565:1571   */\n      dup3\n        /* \"#utility.yul\":1554:1563   */\n      dup7\n        /* \"#utility.yul\":1550:1572   */\n      add\n        /* \"#utility.yul\":1521:1582   */\n      tag_55\n      jump\t// in\n    tag_85:\n        /* \"#utility.yul\":1511:1582   */\n      swap3\n      pop\n        /* \"#utility.yul\":1467:1592   */\n      pop\n        /* \"#utility.yul\":1631:1633   */\n      0x20\n        /* \"#utility.yul\":1657:1710   */\n      tag_86\n        /* \"#utility.yul\":1702:1709   */\n      dup6\n        /* \"#utility.yul\":1693:1699   */\n      dup3\n        /* \"#utility.yul\":1682:1691   */\n      dup7\n        /* \"#utility.yul\":1678:1700   */\n      add\n        /* \"#utility.yul\":1657:1710   */\n      tag_58\n      jump\t// in\n    tag_86:\n        /* \"#utility.yul\":1647:1710   */\n      swap2\n      pop\n        /* \"#utility.yul\":1602:1720   */\n      pop\n        /* \"#utility.yul\":1237:1727   */\n      swap3\n      pop\n      swap3\n      swap1\n      pop\n      jump\t// out\n        /* \"#utility.yul\":1733:1851   */\n    tag_59:\n        /* \"#utility.yul\":1820:1844   */\n      tag_88\n        /* \"#utility.yul\":1838:1843   */\n      dup2\n        /* \"#utility.yul\":1820:1844   */\n      tag_56\n      jump\t// in\n    tag_88:\n        /* \"#utility.yul\":1815:1818   */\n      dup3\n        /* \"#utility.yul\":1808:1845   */\n      mstore\n        /* \"#utility.yul\":1733:1851   */\n      pop\n      pop\n      jump\t// out\n        /* \"#utility.yul\":1857:2079   */\n    tag_16:\n        /* \"#utility.yul\":1950:1954   */\n      0x00\n        /* \"#utility.yul\":1988:1990   */\n      0x20\n        /* \"#utility.yul\":1977:1986   */\n      dup3\n        /* \"#utility.yul\":1973:1991   */\n      add\n        /* \"#utility.yul\":1965:1991   */\n      swap1\n      pop\n        /* \"#utility.yul\":2001:2072   */\n      tag_90\n        /* \"#utility.yul\":2069:2070   */\n      0x00\n        /* \"#utility.yul\":2058:2067   */\n      dup4\n        /* \"#utility.yul\":2054:2071   */\n      add\n        /* \"#utility.yul\":2045:2051   */\n      dup5\n        /* \"#utility.yul\":2001:2072   */\n      tag_59\n      jump\t// in\n    tag_90:\n        /* \"#utility.yul\":1857:2079   */\n      swap3\n      swap2\n      pop\n      pop\n      jump\t// out\n        /* \"#utility.yul\":2085:2181   */\n    tag_60:\n        /* \"#utility.yul\":2122:2129   */\n      0x00\n        /* \"#utility.yul\":2151:2175   */\n      tag_92\n        /* \"#utility.yul\":2169:2174   */\n      dup3\n        /* \"#utility.yul\":2151:2175   */\n      tag_52\n      jump\t// in\n    tag_92:\n        /* \"#utility.yul\":2140:2175   */\n      swap1\n      pop\n        /* \"#utility.yul\":2085:2181   */\n      swap2\n      swap1\n      pop\n      jump\t// out\n        /* \"#utility.yul\":2187:2309   */\n    tag_61:\n        /* \"#utility.yul\":2260:2284   */\n      tag_94\n        /* \"#utility.yul\":2278:2283   */\n      dup2\n        /* \"#utility.yul\":2260:2284   */\n      tag_60\n      jump\t// in\n    tag_94:\n        /* \"#utility.yul\":2253:2258   */\n      dup2\n        /* \"#utility.yul\":2250:2285   */\n      eq\n        /* \"#utility.yul\":2240:2303   */\n      tag_95\n      jumpi\n        /* \"#utility.yul\":2299:2300   */\n      0x00\n        /* \"#utility.yul\":2296:2297   */\n      dup1\n        /* \"#utility.yul\":2289:2301   */\n      revert\n        /* \"#utility.yul\":2240:2303   */\n    tag_95:\n        /* \"#utility.yul\":2187:2309   */\n      pop\n      jump\t// out\n        /* \"#utility.yul\":2315:2454   */\n    tag_62:\n        /* \"#utility.yul\":2361:2366   */\n      0x00\n        /* \"#utility.yul\":2399:2405   */\n      dup2\n        /* \"#utility.yul\":2386:2406   */\n      calldataload\n        /* \"#utility.yul\":2377:2406   */\n      swap1\n      pop\n        /* \"#utility.yul\":2415:2448   */\n      tag_97\n        /* \"#utility.yul\":2442:2447   */\n      dup2\n        /* \"#utility.yul\":2415:2448   */\n      tag_61\n      jump\t// in\n    tag_97:\n        /* \"#utility.yul\":2315:2454   */\n      swap3\n      swap2\n      pop\n      pop\n      jump\t// out\n        /* \"#utility.yul\":2460:2789   */\n    tag_20:\n        /* \"#utility.yul\":2519:2525   */\n      0x00\n        /* \"#utility.yul\":2568:2570   */\n      0x20\n        /* \"#utility.yul\":2556:2565   */\n      dup3\n        /* \"#utility.yul\":2547:2554   */\n      dup5\n        /* \"#utility.yul\":2543:2566   */\n      sub\n        /* \"#utility.yul\":2539:2571   */\n      slt\n        /* \"#utility.yul\":2536:2655   */\n      iszero\n      tag_99\n      jumpi\n        /* \"#utility.yul\":2574:2653   */\n      tag_100\n      tag_50\n      jump\t// in\n    tag_100:\n        /* \"#utility.yul\":2536:2655   */\n    tag_99:\n        /* \"#utility.yul\":2694:2695   */\n      0x00\n        /* \"#utility.yul\":2719:2772   */\n      tag_101\n        /* \"#utility.yul\":2764:2771   */\n      dup5\n        /* \"#utility.yul\":2755:2761   */\n      dup3\n        /* \"#utility.yul\":2744:2753   */\n      dup6\n        /* \"#utility.yul\":2740:2762   */\n      add\n        /* \"#utility.yul\":2719:2772   */\n      tag_62\n      jump\t// in\n    tag_101:\n        /* \"#utility.yul\":2709:2772   */\n      swap2\n      pop\n        /* \"#utility.yul\":2665:2782   */\n      pop\n        /* \"#utility.yul\":2460:2789   */\n      swap3\n      swap2\n      pop\n      pop\n      jump\t// out\n        /* \"#utility.yul\":2795:3237   */\n    tag_28:\n        /* \"#utility.yul\":2944:2948   */\n      0x00\n        /* \"#utility.yul\":2982:2984   */\n      0x60\n        /* \"#utility.yul\":2971:2980   */\n      dup3\n        /* \"#utility.yul\":2967:2985   */\n      add\n        /* \"#utility.yul\":2959:2985   */\n      swap1\n      pop\n        /* \"#utility.yul\":2995:3066   */\n      tag_103\n        /* \"#utility.yul\":3063:3064   */\n      0x00\n        /* \"#utility.yul\":3052:3061   */\n      dup4\n        /* \"#utility.yul\":3048:3065   */\n      add\n        /* \"#utility.yul\":3039:3045   */\n      dup7\n        /* \"#utility.yul\":2995:3066   */\n      tag_59\n      jump\t// in\n    tag_103:\n        /* \"#utility.yul\":3076:3148   */\n      tag_104\n        /* \"#utility.yul\":3144:3146   */\n      0x20\n        /* \"#utility.yul\":3133:3142   */\n      dup4\n        /* \"#utility.yul\":3129:3147   */\n      add\n        /* \"#utility.yul\":3120:3126   */\n      dup6\n        /* \"#utility.yul\":3076:3148   */\n      tag_59\n      jump\t// in\n    tag_104:\n        /* \"#utility.yul\":3158:3230   */\n      tag_105\n        /* \"#utility.yul\":3226:3228   */\n      0x40\n        /* \"#utility.yul\":3215:3224   */\n      dup4\n        /* \"#utility.yul\":3211:3229   */\n      add\n        /* \"#utility.yul\":3202:3208   */\n      dup5\n        /* \"#utility.yul\":3158:3230   */\n      tag_59\n      jump\t// in\n    tag_105:\n        /* \"#utility.yul\":2795:3237   */\n      swap5\n      swap4\n      pop\n      pop\n      pop\n      pop\n      jump\t// out\n        /* \"#utility.yul\":3243:3423   */\n    tag_63:\n        /* \"#utility.yul\":3291:3368   */\n      0x4e487b7100000000000000000000000000000000000000000000000000000000\n        /* \"#utility.yul\":3288:3289   */\n      0x00\n        /* \"#utility.yul\":3281:3369   */\n      mstore\n        /* \"#utility.yul\":3388:3392   */\n      0x11\n        /* \"#utility.yul\":3385:3386   */\n      0x04\n        /* \"#utility.yul\":3378:3393   */\n      mstore\n        /* \"#utility.yul\":3412:3416   */\n      0x24\n        /* \"#utility.yul\":3409:3410   */\n      0x00\n        /* \"#utility.yul\":3402:3417   */\n      revert\n        /* \"#utility.yul\":3429:3662   */\n    tag_34:\n        /* \"#utility.yul\":3468:3471   */\n      0x00\n        /* \"#utility.yul\":3491:3515   */\n      tag_108\n        /* \"#utility.yul\":3509:3514   */\n      dup3\n        /* \"#utility.yul\":3491:3515   */\n      tag_56\n      jump\t// in\n    tag_108:\n        /* \"#utility.yul\":3482:3515   */\n      swap2\n      pop\n        /* \"#utility.yul\":3537:3603   */\n      0xffffffffffffffffffffffffffffffffffffffffffffffffffffffffffffffff\n        /* \"#utility.yul\":3530:3535   */\n      dup3\n        /* \"#utility.yul\":3527:3604   */\n      sub\n        /* \"#utility.yul\":3524:3627   */\n      tag_109\n      jumpi\n        /* \"#utility.yul\":3607:3625   */\n      tag_110\n      tag_63\n      jump\t// in\n    tag_110:\n        /* \"#utility.yul\":3524:3627   */\n    tag_109:\n        /* \"#utility.yul\":3654:3655   */\n      0x01\n        /* \"#utility.yul\":3647:3652   */\n      dup3\n        /* \"#utility.yul\":3643:3656   */\n      add\n        /* \"#utility.yul\":3636:3656   */\n      swap1\n      pop\n        /* \"#utility.yul\":3429:3662   */\n      swap2\n      swap1\n      pop\n      jump\t// out\n        /* \"#utility.yul\":3668:3859   */\n    tag_40:\n        /* \"#utility.yul\":3708:3712   */\n      0x00\n        /* \"#utility.yul\":3728:3748   */\n      tag_112\n        /* \"#utility.yul\":3746:3747   */\n      dup3\n        /* \"#utility.yul\":3728:3748   */\n      tag_56\n      jump\t// in\n    tag_112:\n        /* \"#utility.yul\":3723:3748   */\n      swap2\n      pop\n        /* \"#utility.yul\":3762:3782   */\n      tag_113\n        /* \"#utility.yul\":3780:3781   */\n      dup4\n        /* \"#utility.yul\":3762:3782   */\n      tag_56\n      jump\t// in\n    tag_113:\n        /* \"#utility.yul\":3757:3782   */\n      swap3\n      pop\n        /* \"#utility.yul\":3801:3802   */\n      dup3\n        /* \"#utility.yul\":3798:3799   */\n      dup3\n        /* \"#utility.yul\":3795:3803   */\n      lt\n        /* \"#utility.yul\":3792:3826   */\n      iszero\n      tag_114\n      jumpi\n        /* \"#utility.yul\":3806:3824   */\n      tag_115\n      tag_63\n      jump\t// in\n    tag_115:\n        /* \"#utility.yul\":3792:3826   */\n    tag_114:\n        /* \"#utility.yul\":3851:3852   */\n      dup3\n        /* \"#utility.yul\":3848:3849   */\n      dup3\n        /* \"#utility.yul\":3844:3853   */\n      sub\n        /* \"#utility.yul\":3836:3853   */\n      swap1\n      pop\n        /* \"#utility.yul\":3668:3859   */\n      swap3\n      swap2\n      pop\n      pop\n      jump\t// out\n        /* \"#utility.yul\":3865:4170   */\n    tag_47:\n        /* \"#utility.yul\":3905:3908   */\n      0x00\n        /* \"#utility.yul\":3924:3944   */\n      tag_117\n        /* \"#utility.yul\":3942:3943   */\n      dup3\n        /* \"#utility.yul\":3924:3944   */\n      tag_56\n      jump\t// in\n    tag_117:\n        /* \"#utility.yul\":3919:3944   */\n      swap2\n      pop\n        /* \"#utility.yul\":3958:3978   */\n      tag_118\n        /* \"#utility.yul\":3976:3977   */\n      dup4\n        /* \"#utility.yul\":3958:3978   */\n      tag_56\n      jump\t// in\n    tag_118:\n        /* \"#utility.yul\":3953:3978   */\n      swap3\n      pop\n        /* \"#utility.yul\":4112:4113   */\n      dup3\n        /* \"#utility.yul\":4044:4110   */\n      0xffffffffffffffffffffffffffffffffffffffffffffffffffffffffffffffff\n        /* \"#utility.yul\":4040:4114   */\n      sub\n        /* \"#utility.yul\":4037:4038   */\n      dup3\n        /* \"#utility.yul\":4034:4115   */\n      gt\n        /* \"#utility.yul\":4031:4138   */\n      iszero\n      tag_119\n      jumpi\n        /* \"#utility.yul\":4118:4136   */\n      tag_120\n      tag_63\n      jump\t// in\n    tag_120:\n        /* \"#utility.yul\":4031:4138   */\n    tag_119:\n        /* \"#utility.yul\":4162:4163   */\n      dup3\n        /* \"#utility.yul\":4159:4160   */\n      dup3\n        /* \"#utility.yul\":4155:4164   */\n      add\n        /* \"#utility.yul\":4148:4164   */\n      swap1\n      pop\n        /* \"#utility.yul\":3865:4170   */\n      swap3\n      swap2\n      pop\n      pop\n      jump\t// out\n\n    auxdata: 0xa26469706673582212200555a53cb3b2744f10bd1ec25e56e6fae7d2127974d1a9277d9a10e2442e5cd764736f6c634300080f0033\n}\n",
				"bytecode": {
					"linkReferences": {},
					"object": "608060405234801561001057600080fd5b506109c7806100206000396000f3fe60806040526004361061004a5760003560e01c806350bd62531461004f5780635e41b5bd1461007857806393423e9c146100a3578063d8d4f50d146100e0578063f429bcb61461011f575b600080fd5b34801561005b57600080fd5b5061007660048036038101906100719190610784565b610129565b005b34801561008457600080fd5b5061008d610522565b60405161009a91906107d3565b60405180910390f35b3480156100af57600080fd5b506100ca60048036038101906100c5919061082c565b61052a565b6040516100d791906107d3565b60405180910390f35b3480156100ec57600080fd5b506101076004803603810190610102919061082c565b61054b565b60405161011693929190610859565b60405180910390f35b610127610575565b005b6000803373ffffffffffffffffffffffffffffffffffffffff1673ffffffffffffffffffffffffffffffffffffffff1681526020019081526020016000206000015481111561036257600060405180604001604052806000803373ffffffffffffffffffffffffffffffffffffffff1673ffffffffffffffffffffffffffffffffffffffff1681526020019081526020016000206000015481526020014281525090506000803373ffffffffffffffffffffffffffffffffffffffff1673ffffffffffffffffffffffffffffffffffffffff168152602001908152602001600020600301600081548092919061021e906108bf565b9190505550806000803373ffffffffffffffffffffffffffffffffffffffff1673ffffffffffffffffffffffffffffffffffffffff16815260200190815260200160002060040160008060003373ffffffffffffffffffffffffffffffffffffffff1673ffffffffffffffffffffffffffffffffffffffff168152602001908152602001600020600301548152602001908152602001600020600082015181600001556020820151816001015590505060008060003373ffffffffffffffffffffffffffffffffffffffff1673ffffffffffffffffffffffffffffffffffffffff168152602001908152602001600020600001819055508273ffffffffffffffffffffffffffffffffffffffff166108fc839081150290604051600060405180830381858888f1935050505015801561035b573d6000803e3d6000fd5b505061051e565b600060405180604001604052808381526020014281525090506000803373ffffffffffffffffffffffffffffffffffffffff1673ffffffffffffffffffffffffffffffffffffffff16815260200190815260200160002060030160008154809291906103cd906108bf565b9190505550806000803373ffffffffffffffffffffffffffffffffffffffff1673ffffffffffffffffffffffffffffffffffffffff16815260200190815260200160002060040160008060003373ffffffffffffffffffffffffffffffffffffffff1673ffffffffffffffffffffffffffffffffffffffff1681526020019081526020016000206003015481526020019081526020016000206000820151816000015560208201518160010155905050816000803373ffffffffffffffffffffffffffffffffffffffff1673ffffffffffffffffffffffffffffffffffffffff16815260200190815260200160002060000160008282546104ce9190610907565b925050819055508273ffffffffffffffffffffffffffffffffffffffff166108fc839081150290604051600060405180830381858888f1935050505015801561051b573d6000803e3d6000fd5b50505b5050565b600047905090565b60008173ffffffffffffffffffffffffffffffffffffffff16319050919050565b60006020528060005260406000206000915090508060000154908060010154908060030154905083565b60006040518060400160405280348152602001428152509050346000803373ffffffffffffffffffffffffffffffffffffffff1673ffffffffffffffffffffffffffffffffffffffff16815260200190815260200160002060000160008282546105df919061093b565b925050819055506000803373ffffffffffffffffffffffffffffffffffffffff1673ffffffffffffffffffffffffffffffffffffffff1681526020019081526020016000206001016000815480929190610638906108bf565b9190505550806000803373ffffffffffffffffffffffffffffffffffffffff1673ffffffffffffffffffffffffffffffffffffffff16815260200190815260200160002060020160008060003373ffffffffffffffffffffffffffffffffffffffff1673ffffffffffffffffffffffffffffffffffffffff168152602001908152602001600020600101548152602001908152602001600020600082015181600001556020820151816001015590505050565b600080fd5b600073ffffffffffffffffffffffffffffffffffffffff82169050919050565b600061071b826106f0565b9050919050565b61072b81610710565b811461073657600080fd5b50565b60008135905061074881610722565b92915050565b6000819050919050565b6107618161074e565b811461076c57600080fd5b50565b60008135905061077e81610758565b92915050565b6000806040838503121561079b5761079a6106eb565b5b60006107a985828601610739565b92505060206107ba8582860161076f565b9150509250929050565b6107cd8161074e565b82525050565b60006020820190506107e860008301846107c4565b92915050565b60006107f9826106f0565b9050919050565b610809816107ee565b811461081457600080fd5b50565b60008135905061082681610800565b92915050565b600060208284031215610842576108416106eb565b5b600061085084828501610817565b91505092915050565b600060608201905061086e60008301866107c4565b61087b60208301856107c4565b61088860408301846107c4565b949350505050565b7f4e487b7100000000000000000000000000000000000000000000000000000000600052601160045260246000fd5b60006108ca8261074e565b91507fffffffffffffffffffffffffffffffffffffffffffffffffffffffffffffffff82036108fc576108fb610890565b5b600182019050919050565b60006109128261074e565b915061091d8361074e565b9250828210156109305761092f610890565b5b828203905092915050565b60006109468261074e565b91506109518361074e565b9250827fffffffffffffffffffffffffffffffffffffffffffffffffffffffffffffffff0382111561098657610985610890565b5b82820190509291505056fea26469706673582212200555a53cb3b2744f10bd1ec25e56e6fae7d2127974d1a9277d9a10e2442e5cd764736f6c634300080f0033",
					"opcodes": "PUSH1 0x80 PUSH1 0x40 MSTORE CALLVALUE DUP1 ISZERO PUSH2 0x10 JUMPI PUSH1 0x0 DUP1 REVERT JUMPDEST POP PUSH2 0x9C7 DUP1 PUSH2 0x20 PUSH1 0x0 CODECOPY PUSH1 0x0 RETURN INVALID PUSH1 0x80 PUSH1 0x40 MSTORE PUSH1 0x4 CALLDATASIZE LT PUSH2 0x4A JUMPI PUSH1 0x0 CALLDATALOAD PUSH1 0xE0 SHR DUP1 PUSH4 0x50BD6253 EQ PUSH2 0x4F JUMPI DUP1 PUSH4 0x5E41B5BD EQ PUSH2 0x78 JUMPI DUP1 PUSH4 0x93423E9C EQ PUSH2 0xA3 JUMPI DUP1 PUSH4 0xD8D4F50D EQ PUSH2 0xE0 JUMPI DUP1 PUSH4 0xF429BCB6 EQ PUSH2 0x11F JUMPI JUMPDEST PUSH1 0x0 DUP1 REVERT JUMPDEST CALLVALUE DUP1 ISZERO PUSH2 0x5B JUMPI PUSH1 0x0 DUP1 REVERT JUMPDEST POP PUSH2 0x76 PUSH1 0x4 DUP1 CALLDATASIZE SUB DUP2 ADD SWAP1 PUSH2 0x71 SWAP2 SWAP1 PUSH2 0x784 JUMP JUMPDEST PUSH2 0x129 JUMP JUMPDEST STOP JUMPDEST CALLVALUE DUP1 ISZERO PUSH2 0x84 JUMPI PUSH1 0x0 DUP1 REVERT JUMPDEST POP PUSH2 0x8D PUSH2 0x522 JUMP JUMPDEST PUSH1 0x40 MLOAD PUSH2 0x9A SWAP2 SWAP1 PUSH2 0x7D3 JUMP JUMPDEST PUSH1 0x40 MLOAD DUP1 SWAP2 SUB SWAP1 RETURN JUMPDEST CALLVALUE DUP1 ISZERO PUSH2 0xAF JUMPI PUSH1 0x0 DUP1 REVERT JUMPDEST POP PUSH2 0xCA PUSH1 0x4 DUP1 CALLDATASIZE SUB DUP2 ADD SWAP1 PUSH2 0xC5 SWAP2 SWAP1 PUSH2 0x82C JUMP JUMPDEST PUSH2 0x52A JUMP JUMPDEST PUSH1 0x40 MLOAD PUSH2 0xD7 SWAP2 SWAP1 PUSH2 0x7D3 JUMP JUMPDEST PUSH1 0x40 MLOAD DUP1 SWAP2 SUB SWAP1 RETURN JUMPDEST CALLVALUE DUP1 ISZERO PUSH2 0xEC JUMPI PUSH1 0x0 DUP1 REVERT JUMPDEST POP PUSH2 0x107 PUSH1 0x4 DUP1 CALLDATASIZE SUB DUP2 ADD SWAP1 PUSH2 0x102 SWAP2 SWAP1 PUSH2 0x82C JUMP JUMPDEST PUSH2 0x54B JUMP JUMPDEST PUSH1 0x40 MLOAD PUSH2 0x116 SWAP4 SWAP3 SWAP2 SWAP1 PUSH2 0x859 JUMP JUMPDEST PUSH1 0x40 MLOAD DUP1 SWAP2 SUB SWAP1 RETURN JUMPDEST PUSH2 0x127 PUSH2 0x575 JUMP JUMPDEST STOP JUMPDEST PUSH1 0x0 DUP1 CALLER PUSH20 0xFFFFFFFFFFFFFFFFFFFFFFFFFFFFFFFFFFFFFFFF AND PUSH20 0xFFFFFFFFFFFFFFFFFFFFFFFFFFFFFFFFFFFFFFFF AND DUP2 MSTORE PUSH1 0x20 ADD SWAP1 DUP2 MSTORE PUSH1 0x20 ADD PUSH1 0x0 KECCAK256 PUSH1 0x0 ADD SLOAD DUP2 GT ISZERO PUSH2 0x362 JUMPI PUSH1 0x0 PUSH1 0x40 MLOAD DUP1 PUSH1 0x40 ADD PUSH1 0x40 MSTORE DUP1 PUSH1 0x0 DUP1 CALLER PUSH20 0xFFFFFFFFFFFFFFFFFFFFFFFFFFFFFFFFFFFFFFFF AND PUSH20 0xFFFFFFFFFFFFFFFFFFFFFFFFFFFFFFFFFFFFFFFF AND DUP2 MSTORE PUSH1 0x20 ADD SWAP1 DUP2 MSTORE PUSH1 0x20 ADD PUSH1 0x0 KECCAK256 PUSH1 0x0 ADD SLOAD DUP2 MSTORE PUSH1 0x20 ADD TIMESTAMP DUP2 MSTORE POP SWAP1 POP PUSH1 0x0 DUP1 CALLER PUSH20 0xFFFFFFFFFFFFFFFFFFFFFFFFFFFFFFFFFFFFFFFF AND PUSH20 0xFFFFFFFFFFFFFFFFFFFFFFFFFFFFFFFFFFFFFFFF AND DUP2 MSTORE PUSH1 0x20 ADD SWAP1 DUP2 MSTORE PUSH1 0x20 ADD PUSH1 0x0 KECCAK256 PUSH1 0x3 ADD PUSH1 0x0 DUP2 SLOAD DUP1 SWAP3 SWAP2 SWAP1 PUSH2 0x21E SWAP1 PUSH2 0x8BF JUMP JUMPDEST SWAP2 SWAP1 POP SSTORE POP DUP1 PUSH1 0x0 DUP1 CALLER PUSH20 0xFFFFFFFFFFFFFFFFFFFFFFFFFFFFFFFFFFFFFFFF AND PUSH20 0xFFFFFFFFFFFFFFFFFFFFFFFFFFFFFFFFFFFFFFFF AND DUP2 MSTORE PUSH1 0x20 ADD SWAP1 DUP2 MSTORE PUSH1 0x20 ADD PUSH1 0x0 KECCAK256 PUSH1 0x4 ADD PUSH1 0x0 DUP1 PUSH1 0x0 CALLER PUSH20 0xFFFFFFFFFFFFFFFFFFFFFFFFFFFFFFFFFFFFFFFF AND PUSH20 0xFFFFFFFFFFFFFFFFFFFFFFFFFFFFFFFFFFFFFFFF AND DUP2 MSTORE PUSH1 0x20 ADD SWAP1 DUP2 MSTORE PUSH1 0x20 ADD PUSH1 0x0 KECCAK256 PUSH1 0x3 ADD SLOAD DUP2 MSTORE PUSH1 0x20 ADD SWAP1 DUP2 MSTORE PUSH1 0x20 ADD PUSH1 0x0 KECCAK256 PUSH1 0x0 DUP3 ADD MLOAD DUP2 PUSH1 0x0 ADD SSTORE PUSH1 0x20 DUP3 ADD MLOAD DUP2 PUSH1 0x1 ADD SSTORE SWAP1 POP POP PUSH1 0x0 DUP1 PUSH1 0x0 CALLER PUSH20 0xFFFFFFFFFFFFFFFFFFFFFFFFFFFFFFFFFFFFFFFF AND PUSH20 0xFFFFFFFFFFFFFFFFFFFFFFFFFFFFFFFFFFFFFFFF AND DUP2 MSTORE PUSH1 0x20 ADD SWAP1 DUP2 MSTORE PUSH1 0x20 ADD PUSH1 0x0 KECCAK256 PUSH1 0x0 ADD DUP2 SWAP1 SSTORE POP DUP3 PUSH20 0xFFFFFFFFFFFFFFFFFFFFFFFFFFFFFFFFFFFFFFFF AND PUSH2 0x8FC DUP4 SWAP1 DUP2 ISZERO MUL SWAP1 PUSH1 0x40 MLOAD PUSH1 0x0 PUSH1 0x40 MLOAD DUP1 DUP4 SUB DUP2 DUP6 DUP9 DUP9 CALL SWAP4 POP POP POP POP ISZERO DUP1 ISZERO PUSH2 0x35B JUMPI RETURNDATASIZE PUSH1 0x0 DUP1 RETURNDATACOPY RETURNDATASIZE PUSH1 0x0 REVERT JUMPDEST POP POP PUSH2 0x51E JUMP JUMPDEST PUSH1 0x0 PUSH1 0x40 MLOAD DUP1 PUSH1 0x40 ADD PUSH1 0x40 MSTORE DUP1 DUP4 DUP2 MSTORE PUSH1 0x20 ADD TIMESTAMP DUP2 MSTORE POP SWAP1 POP PUSH1 0x0 DUP1 CALLER PUSH20 0xFFFFFFFFFFFFFFFFFFFFFFFFFFFFFFFFFFFFFFFF AND PUSH20 0xFFFFFFFFFFFFFFFFFFFFFFFFFFFFFFFFFFFFFFFF AND DUP2 MSTORE PUSH1 0x20 ADD SWAP1 DUP2 MSTORE PUSH1 0x20 ADD PUSH1 0x0 KECCAK256 PUSH1 0x3 ADD PUSH1 0x0 DUP2 SLOAD DUP1 SWAP3 SWAP2 SWAP1 PUSH2 0x3CD SWAP1 PUSH2 0x8BF JUMP JUMPDEST SWAP2 SWAP1 POP SSTORE POP DUP1 PUSH1 0x0 DUP1 CALLER PUSH20 0xFFFFFFFFFFFFFFFFFFFFFFFFFFFFFFFFFFFFFFFF AND PUSH20 0xFFFFFFFFFFFFFFFFFFFFFFFFFFFFFFFFFFFFFFFF AND DUP2 MSTORE PUSH1 0x20 ADD SWAP1 DUP2 MSTORE PUSH1 0x20 ADD PUSH1 0x0 KECCAK256 PUSH1 0x4 ADD PUSH1 0x0 DUP1 PUSH1 0x0 CALLER PUSH20 0xFFFFFFFFFFFFFFFFFFFFFFFFFFFFFFFFFFFFFFFF AND PUSH20 0xFFFFFFFFFFFFFFFFFFFFFFFFFFFFFFFFFFFFFFFF AND DUP2 MSTORE PUSH1 0x20 ADD SWAP1 DUP2 MSTORE PUSH1 0x20 ADD PUSH1 0x0 KECCAK256 PUSH1 0x3 ADD SLOAD DUP2 MSTORE PUSH1 0x20 ADD SWAP1 DUP2 MSTORE PUSH1 0x20 ADD PUSH1 0x0 KECCAK256 PUSH1 0x0 DUP3 ADD MLOAD DUP2 PUSH1 0x0 ADD SSTORE PUSH1 0x20 DUP3 ADD MLOAD DUP2 PUSH1 0x1 ADD SSTORE SWAP1 POP POP DUP2 PUSH1 0x0 DUP1 CALLER PUSH20 0xFFFFFFFFFFFFFFFFFFFFFFFFFFFFFFFFFFFFFFFF AND PUSH20 0xFFFFFFFFFFFFFFFFFFFFFFFFFFFFFFFFFFFFFFFF AND DUP2 MSTORE PUSH1 0x20 ADD SWAP1 DUP2 MSTORE PUSH1 0x20 ADD PUSH1 0x0 KECCAK256 PUSH1 0x0 ADD PUSH1 0x0 DUP3 DUP3 SLOAD PUSH2 0x4CE SWAP2 SWAP1 PUSH2 0x907 JUMP JUMPDEST SWAP3 POP POP DUP2 SWAP1 SSTORE POP DUP3 PUSH20 0xFFFFFFFFFFFFFFFFFFFFFFFFFFFFFFFFFFFFFFFF AND PUSH2 0x8FC DUP4 SWAP1 DUP2 ISZERO MUL SWAP1 PUSH1 0x40 MLOAD PUSH1 0x0 PUSH1 0x40 MLOAD DUP1 DUP4 SUB DUP2 DUP6 DUP9 DUP9 CALL SWAP4 POP POP POP POP ISZERO DUP1 ISZERO PUSH2 0x51B JUMPI RETURNDATASIZE PUSH1 0x0 DUP1 RETURNDATACOPY RETURNDATASIZE PUSH1 0x0 REVERT JUMPDEST POP POP JUMPDEST POP POP JUMP JUMPDEST PUSH1 0x0 SELFBALANCE SWAP1 POP SWAP1 JUMP JUMPDEST PUSH1 0x0 DUP2 PUSH20 0xFFFFFFFFFFFFFFFFFFFFFFFFFFFFFFFFFFFFFFFF AND BALANCE SWAP1 POP SWAP2 SWAP1 POP JUMP JUMPDEST PUSH1 0x0 PUSH1 0x20 MSTORE DUP1 PUSH1 0x0 MSTORE PUSH1 0x40 PUSH1 0x0 KECCAK256 PUSH1 0x0 SWAP2 POP SWAP1 POP DUP1 PUSH1 0x0 ADD SLOAD SWAP1 DUP1 PUSH1 0x1 ADD SLOAD SWAP1 DUP1 PUSH1 0x3 ADD SLOAD SWAP1 POP DUP4 JUMP JUMPDEST PUSH1 0x0 PUSH1 0x40 MLOAD DUP1 PUSH1 0x40 ADD PUSH1 0x40 MSTORE DUP1 CALLVALUE DUP2 MSTORE PUSH1 0x20 ADD TIMESTAMP DUP2 MSTORE POP SWAP1 POP CALLVALUE PUSH1 0x0 DUP1 CALLER PUSH20 0xFFFFFFFFFFFFFFFFFFFFFFFFFFFFFFFFFFFFFFFF AND PUSH20 0xFFFFFFFFFFFFFFFFFFFFFFFFFFFFFFFFFFFFFFFF AND DUP2 MSTORE PUSH1 0x20 ADD SWAP1 DUP2 MSTORE PUSH1 0x20 ADD PUSH1 0x0 KECCAK256 PUSH1 0x0 ADD PUSH1 0x0 DUP3 DUP3 SLOAD PUSH2 0x5DF SWAP2 SWAP1 PUSH2 0x93B JUMP JUMPDEST SWAP3 POP POP DUP2 SWAP1 SSTORE POP PUSH1 0x0 DUP1 CALLER PUSH20 0xFFFFFFFFFFFFFFFFFFFFFFFFFFFFFFFFFFFFFFFF AND PUSH20 0xFFFFFFFFFFFFFFFFFFFFFFFFFFFFFFFFFFFFFFFF AND DUP2 MSTORE PUSH1 0x20 ADD SWAP1 DUP2 MSTORE PUSH1 0x20 ADD PUSH1 0x0 KECCAK256 PUSH1 0x1 ADD PUSH1 0x0 DUP2 SLOAD DUP1 SWAP3 SWAP2 SWAP1 PUSH2 0x638 SWAP1 PUSH2 0x8BF JUMP JUMPDEST SWAP2 SWAP1 POP SSTORE POP DUP1 PUSH1 0x0 DUP1 CALLER PUSH20 0xFFFFFFFFFFFFFFFFFFFFFFFFFFFFFFFFFFFFFFFF AND PUSH20 0xFFFFFFFFFFFFFFFFFFFFFFFFFFFFFFFFFFFFFFFF AND DUP2 MSTORE PUSH1 0x20 ADD SWAP1 DUP2 MSTORE PUSH1 0x20 ADD PUSH1 0x0 KECCAK256 PUSH1 0x2 ADD PUSH1 0x0 DUP1 PUSH1 0x0 CALLER PUSH20 0xFFFFFFFFFFFFFFFFFFFFFFFFFFFFFFFFFFFFFFFF AND PUSH20 0xFFFFFFFFFFFFFFFFFFFFFFFFFFFFFFFFFFFFFFFF AND DUP2 MSTORE PUSH1 0x20 ADD SWAP1 DUP2 MSTORE PUSH1 0x20 ADD PUSH1 0x0 KECCAK256 PUSH1 0x1 ADD SLOAD DUP2 MSTORE PUSH1 0x20 ADD SWAP1 DUP2 MSTORE PUSH1 0x20 ADD PUSH1 0x0 KECCAK256 PUSH1 0x0 DUP3 ADD MLOAD DUP2 PUSH1 0x0 ADD SSTORE PUSH1 0x20 DUP3 ADD MLOAD DUP2 PUSH1 0x1 ADD SSTORE SWAP1 POP POP POP JUMP JUMPDEST PUSH1 0x0 DUP1 REVERT JUMPDEST PUSH1 0x0 PUSH20 0xFFFFFFFFFFFFFFFFFFFFFFFFFFFFFFFFFFFFFFFF DUP3 AND SWAP1 POP SWAP2 SWAP1 POP JUMP JUMPDEST PUSH1 0x0 PUSH2 0x71B DUP3 PUSH2 0x6F0 JUMP JUMPDEST SWAP1 POP SWAP2 SWAP1 POP JUMP JUMPDEST PUSH2 0x72B DUP2 PUSH2 0x710 JUMP JUMPDEST DUP2 EQ PUSH2 0x736 JUMPI PUSH1 0x0 DUP1 REVERT JUMPDEST POP JUMP JUMPDEST PUSH1 0x0 DUP2 CALLDATALOAD SWAP1 POP PUSH2 0x748 DUP2 PUSH2 0x722 JUMP JUMPDEST SWAP3 SWAP2 POP POP JUMP JUMPDEST PUSH1 0x0 DUP2 SWAP1 POP SWAP2 SWAP1 POP JUMP JUMPDEST PUSH2 0x761 DUP2 PUSH2 0x74E JUMP JUMPDEST DUP2 EQ PUSH2 0x76C JUMPI PUSH1 0x0 DUP1 REVERT JUMPDEST POP JUMP JUMPDEST PUSH1 0x0 DUP2 CALLDATALOAD SWAP1 POP PUSH2 0x77E DUP2 PUSH2 0x758 JUMP JUMPDEST SWAP3 SWAP2 POP POP JUMP JUMPDEST PUSH1 0x0 DUP1 PUSH1 0x40 DUP4 DUP6 SUB SLT ISZERO PUSH2 0x79B JUMPI PUSH2 0x79A PUSH2 0x6EB JUMP JUMPDEST JUMPDEST PUSH1 0x0 PUSH2 0x7A9 DUP6 DUP3 DUP7 ADD PUSH2 0x739 JUMP JUMPDEST SWAP3 POP POP PUSH1 0x20 PUSH2 0x7BA DUP6 DUP3 DUP7 ADD PUSH2 0x76F JUMP JUMPDEST SWAP2 POP POP SWAP3 POP SWAP3 SWAP1 POP JUMP JUMPDEST PUSH2 0x7CD DUP2 PUSH2 0x74E JUMP JUMPDEST DUP3 MSTORE POP POP JUMP JUMPDEST PUSH1 0x0 PUSH1 0x20 DUP3 ADD SWAP1 POP PUSH2 0x7E8 PUSH1 0x0 DUP4 ADD DUP5 PUSH2 0x7C4 JUMP JUMPDEST SWAP3 SWAP2 POP POP JUMP JUMPDEST PUSH1 0x0 PUSH2 0x7F9 DUP3 PUSH2 0x6F0 JUMP JUMPDEST SWAP1 POP SWAP2 SWAP1 POP JUMP JUMPDEST PUSH2 0x809 DUP2 PUSH2 0x7EE JUMP JUMPDEST DUP2 EQ PUSH2 0x814 JUMPI PUSH1 0x0 DUP1 REVERT JUMPDEST POP JUMP JUMPDEST PUSH1 0x0 DUP2 CALLDATALOAD SWAP1 POP PUSH2 0x826 DUP2 PUSH2 0x800 JUMP JUMPDEST SWAP3 SWAP2 POP POP JUMP JUMPDEST PUSH1 0x0 PUSH1 0x20 DUP3 DUP5 SUB SLT ISZERO PUSH2 0x842 JUMPI PUSH2 0x841 PUSH2 0x6EB JUMP JUMPDEST JUMPDEST PUSH1 0x0 PUSH2 0x850 DUP5 DUP3 DUP6 ADD PUSH2 0x817 JUMP JUMPDEST SWAP2 POP POP SWAP3 SWAP2 POP POP JUMP JUMPDEST PUSH1 0x0 PUSH1 0x60 DUP3 ADD SWAP1 POP PUSH2 0x86E PUSH1 0x0 DUP4 ADD DUP7 PUSH2 0x7C4 JUMP JUMPDEST PUSH2 0x87B PUSH1 0x20 DUP4 ADD DUP6 PUSH2 0x7C4 JUMP JUMPDEST PUSH2 0x888 PUSH1 0x40 DUP4 ADD DUP5 PUSH2 0x7C4 JUMP JUMPDEST SWAP5 SWAP4 POP POP POP POP JUMP JUMPDEST PUSH32 0x4E487B7100000000000000000000000000000000000000000000000000000000 PUSH1 0x0 MSTORE PUSH1 0x11 PUSH1 0x4 MSTORE PUSH1 0x24 PUSH1 0x0 REVERT JUMPDEST PUSH1 0x0 PUSH2 0x8CA DUP3 PUSH2 0x74E JUMP JUMPDEST SWAP2 POP PUSH32 0xFFFFFFFFFFFFFFFFFFFFFFFFFFFFFFFFFFFFFFFFFFFFFFFFFFFFFFFFFFFFFFFF DUP3 SUB PUSH2 0x8FC JUMPI PUSH2 0x8FB PUSH2 0x890 JUMP JUMPDEST JUMPDEST PUSH1 0x1 DUP3 ADD SWAP1 POP SWAP2 SWAP1 POP JUMP JUMPDEST PUSH1 0x0 PUSH2 0x912 DUP3 PUSH2 0x74E JUMP JUMPDEST SWAP2 POP PUSH2 0x91D DUP4 PUSH2 0x74E JUMP JUMPDEST SWAP3 POP DUP3 DUP3 LT ISZERO PUSH2 0x930 JUMPI PUSH2 0x92F PUSH2 0x890 JUMP JUMPDEST JUMPDEST DUP3 DUP3 SUB SWAP1 POP SWAP3 SWAP2 POP POP JUMP JUMPDEST PUSH1 0x0 PUSH2 0x946 DUP3 PUSH2 0x74E JUMP JUMPDEST SWAP2 POP PUSH2 0x951 DUP4 PUSH2 0x74E JUMP JUMPDEST SWAP3 POP DUP3 PUSH32 0xFFFFFFFFFFFFFFFFFFFFFFFFFFFFFFFFFFFFFFFFFFFFFFFFFFFFFFFFFFFFFFFF SUB DUP3 GT ISZERO PUSH2 0x986 JUMPI PUSH2 0x985 PUSH2 0x890 JUMP JUMPDEST JUMPDEST DUP3 DUP3 ADD SWAP1 POP SWAP3 SWAP2 POP POP JUMP INVALID LOG2 PUSH5 0x6970667358 0x22 SLT KECCAK256 SDIV SSTORE 0xA5 EXTCODECOPY 0xB3 0xB2 PUSH21 0x4F10BD1EC25E56E6FAE7D2127974D1A9277D9A10E2 DIFFICULTY 0x2E 0x5C 0xD7 PUSH5 0x736F6C6343 STOP ADDMOD 0xF STOP CALLER "
				},
				"gasEstimates": {
					"creation": {
						"codeDepositCost": "500600",
						"executionCost": "537",
						"totalCost": "501137"
					},
					"external": {
						"balanceRecieved(address)": "infinite",
						"depositeMoneyToSmartContract()": "infinite",
						"getAccountBalance(address)": "3279",
						"getBalanceofSmartContract()": "339",
						"withdrawFromContractWallet(address,uint256)": "infinite"
					}
				},
				"methodIdentifiers": {
					"balanceRecieved(address)": "d8d4f50d",
					"depositeMoneyToSmartContract()": "f429bcb6",
					"getAccountBalance(address)": "93423e9c",
					"getBalanceofSmartContract()": "5e41b5bd",
					"withdrawFromContractWallet(address,uint256)": "50bd6253"
				}
			},
			"storageLayout": {
				"storage": [
					{
						"astId": 28,
						"contract": "contracts/importantContracts/SimpleWallet2.sol:Simplewallet2",
						"label": "balanceRecieved",
						"offset": 0,
						"slot": "0",
						"type": "t_mapping(t_address,t_struct(BalanceDetailsStruct)23_storage)"
					}
				],
				"types": {
					"t_address": {
						"encoding": "inplace",
						"label": "address",
						"numberOfBytes": "20"
					},
					"t_mapping(t_address,t_struct(BalanceDetailsStruct)23_storage)": {
						"encoding": "mapping",
						"key": "t_address",
						"label": "mapping(address => struct Simplewallet2.BalanceDetailsStruct)",
						"numberOfBytes": "32",
						"value": "t_struct(BalanceDetailsStruct)23_storage"
					},
					"t_mapping(t_uint256,t_struct(Transaction)6_storage)": {
						"encoding": "mapping",
						"key": "t_uint256",
						"label": "mapping(uint256 => struct Simplewallet2.Transaction)",
						"numberOfBytes": "32",
						"value": "t_struct(Transaction)6_storage"
					},
					"t_struct(BalanceDetailsStruct)23_storage": {
						"encoding": "inplace",
						"label": "struct Simplewallet2.BalanceDetailsStruct",
						"members": [
							{
								"astId": 8,
								"contract": "contracts/importantContracts/SimpleWallet2.sol:Simplewallet2",
								"label": "totalBalance",
								"offset": 0,
								"slot": "0",
								"type": "t_uint256"
							},
							{
								"astId": 10,
								"contract": "contracts/importantContracts/SimpleWallet2.sol:Simplewallet2",
								"label": "numsDeposites",
								"offset": 0,
								"slot": "1",
								"type": "t_uint256"
							},
							{
								"astId": 15,
								"contract": "contracts/importantContracts/SimpleWallet2.sol:Simplewallet2",
								"label": "deposites",
								"offset": 0,
								"slot": "2",
								"type": "t_mapping(t_uint256,t_struct(Transaction)6_storage)"
							},
							{
								"astId": 17,
								"contract": "contracts/importantContracts/SimpleWallet2.sol:Simplewallet2",
								"label": "numsWithdrawals",
								"offset": 0,
								"slot": "3",
								"type": "t_uint256"
							},
							{
								"astId": 22,
								"contract": "contracts/importantContracts/SimpleWallet2.sol:Simplewallet2",
								"label": "withdrawals",
								"offset": 0,
								"slot": "4",
								"type": "t_mapping(t_uint256,t_struct(Transaction)6_storage)"
							}
						],
						"numberOfBytes": "160"
					},
					"t_struct(Transaction)6_storage": {
						"encoding": "inplace",
						"label": "struct Simplewallet2.Transaction",
						"members": [
							{
								"astId": 3,
								"contract": "contracts/importantContracts/SimpleWallet2.sol:Simplewallet2",
								"label": "amount",
								"offset": 0,
								"slot": "0",
								"type": "t_uint256"
							},
							{
								"astId": 5,
								"contract": "contracts/importantContracts/SimpleWallet2.sol:Simplewallet2",
								"label": "timeStamp",
								"offset": 0,
								"slot": "1",
								"type": "t_uint256"
							}
						],
						"numberOfBytes": "64"
					},
					"t_uint256": {
						"encoding": "inplace",
						"label": "uint256",
						"numberOfBytes": "32"
					}
				}
			},
			"userdoc": {
				"kind": "user",
				"methods": {},
				"version": 1
			}
		}
	}
}