{
	"contracts/importantContracts/WalletFinal.sol": {
		"WalletFinal": {
			"abi": [
				{
					"inputs": [],
					"stateMutability": "nonpayable",
					"type": "constructor"
				},
				{
					"inputs": [],
					"name": "owner",
					"outputs": [
						{
							"internalType": "address payable",
							"name": "",
							"type": "address"
						}
					],
					"stateMutability": "view",
					"type": "function"
				},
				{
					"inputs": [
						{
							"internalType": "address payable",
							"name": "_to",
							"type": "address"
						},
						{
							"internalType": "uint256",
							"name": "_amount",
							"type": "uint256"
						},
						{
							"internalType": "bytes",
							"name": "_payload",
							"type": "bytes"
						}
					],
					"name": "transfer",
					"outputs": [
						{
							"internalType": "bytes",
							"name": "",
							"type": "bytes"
						}
					],
					"stateMutability": "nonpayable",
					"type": "function"
				},
				{
					"stateMutability": "payable",
					"type": "receive"
				}
			],
			"devdoc": {
				"kind": "dev",
				"methods": {},
				"version": 1
			},
			"evm": {
				"assembly": "    /* \"contracts/importantContracts/WalletFinal.sol\":58:705  contract WalletFinal{... */\n  mstore(0x40, 0x80)\n    /* \"contracts/importantContracts/WalletFinal.sol\":146:206  constructor(){... */\n  callvalue\n  dup1\n  iszero\n  tag_1\n  jumpi\n  0x00\n  dup1\n  revert\ntag_1:\n  pop\n    /* \"contracts/importantContracts/WalletFinal.sol\":186:196  msg.sender */\n  caller\n    /* \"contracts/importantContracts/WalletFinal.sol\":170:175  owner */\n  0x00\n  dup1\n    /* \"contracts/importantContracts/WalletFinal.sol\":170:197  owner = payable(msg.sender) */\n  0x0100\n  exp\n  dup2\n  sload\n  dup2\n  0xffffffffffffffffffffffffffffffffffffffff\n  mul\n  not\n  and\n  swap1\n  dup4\n  0xffffffffffffffffffffffffffffffffffffffff\n  and\n  mul\n  or\n  swap1\n  sstore\n  pop\n    /* \"contracts/importantContracts/WalletFinal.sol\":58:705  contract WalletFinal{... */\n  dataSize(sub_0)\n  dup1\n  dataOffset(sub_0)\n  0x00\n  codecopy\n  0x00\n  return\nstop\n\nsub_0: assembly {\n        /* \"contracts/importantContracts/WalletFinal.sol\":58:705  contract WalletFinal{... */\n      mstore(0x40, 0x80)\n      jumpi(tag_1, lt(calldatasize, 0x04))\n      shr(0xe0, calldataload(0x00))\n      dup1\n      0x8da5cb5b\n      eq\n      tag_3\n      jumpi\n      dup1\n      0xbe45fd62\n      eq\n      tag_4\n      jumpi\n      jump(tag_2)\n    tag_1:\n      jumpi(tag_2, calldatasize)\n      stop\n    tag_2:\n      0x00\n      dup1\n      revert\n        /* \"contracts/importantContracts/WalletFinal.sol\":111:139  address payable public owner */\n    tag_3:\n      callvalue\n      dup1\n      iszero\n      tag_7\n      jumpi\n      0x00\n      dup1\n      revert\n    tag_7:\n      pop\n      tag_8\n      tag_9\n      jump\t// in\n    tag_8:\n      mload(0x40)\n      tag_10\n      swap2\n      swap1\n      tag_11\n      jump\t// in\n    tag_10:\n      mload(0x40)\n      dup1\n      swap2\n      sub\n      swap1\n      return\n        /* \"contracts/importantContracts/WalletFinal.sol\":236:645  function transfer(address payable _to, uint _amount, bytes memory _payload) public returns(bytes memory) { ... */\n    tag_4:\n      callvalue\n      dup1\n      iszero\n      tag_12\n      jumpi\n      0x00\n      dup1\n      revert\n    tag_12:\n      pop\n      tag_13\n      0x04\n      dup1\n      calldatasize\n      sub\n      dup2\n      add\n      swap1\n      tag_14\n      swap2\n      swap1\n      tag_15\n      jump\t// in\n    tag_14:\n      tag_16\n      jump\t// in\n    tag_13:\n      mload(0x40)\n      tag_17\n      swap2\n      swap1\n      tag_18\n      jump\t// in\n    tag_17:\n      mload(0x40)\n      dup1\n      swap2\n      sub\n      swap1\n      return\n        /* \"contracts/importantContracts/WalletFinal.sol\":111:139  address payable public owner */\n    tag_9:\n      0x00\n      dup1\n      sload\n      swap1\n      0x0100\n      exp\n      swap1\n      div\n      0xffffffffffffffffffffffffffffffffffffffff\n      and\n      dup2\n      jump\t// out\n        /* \"contracts/importantContracts/WalletFinal.sol\":236:645  function transfer(address payable _to, uint _amount, bytes memory _payload) public returns(bytes memory) { ... */\n    tag_16:\n        /* \"contracts/importantContracts/WalletFinal.sol\":327:339  bytes memory */\n      0x60\n        /* \"contracts/importantContracts/WalletFinal.sol\":375:380  owner */\n      0x00\n      dup1\n      sload\n      swap1\n      0x0100\n      exp\n      swap1\n      div\n      0xffffffffffffffffffffffffffffffffffffffff\n      and\n        /* \"contracts/importantContracts/WalletFinal.sol\":361:380  msg.sender == owner */\n      0xffffffffffffffffffffffffffffffffffffffff\n      and\n        /* \"contracts/importantContracts/WalletFinal.sol\":361:371  msg.sender */\n      caller\n        /* \"contracts/importantContracts/WalletFinal.sol\":361:380  msg.sender == owner */\n      0xffffffffffffffffffffffffffffffffffffffff\n      and\n      eq\n        /* \"contracts/importantContracts/WalletFinal.sol\":353:419  require(msg.sender == owner, \"Don't play around! Call the owner.\") */\n      tag_20\n      jumpi\n      mload(0x40)\n      0x08c379a000000000000000000000000000000000000000000000000000000000\n      dup2\n      mstore\n      0x04\n      add\n      tag_21\n      swap1\n      tag_22\n      jump\t// in\n    tag_21:\n      mload(0x40)\n      dup1\n      swap2\n      sub\n      swap1\n      revert\n    tag_20:\n        /* \"contracts/importantContracts/WalletFinal.sol\":469:481  bool success */\n      0x00\n        /* \"contracts/importantContracts/WalletFinal.sol\":483:506  bytes memory returnData */\n      dup1\n        /* \"contracts/importantContracts/WalletFinal.sol\":510:513  _to */\n      dup6\n        /* \"contracts/importantContracts/WalletFinal.sol\":510:518  _to.call */\n      0xffffffffffffffffffffffffffffffffffffffff\n      and\n        /* \"contracts/importantContracts/WalletFinal.sol\":526:533  _amount */\n      dup6\n        /* \"contracts/importantContracts/WalletFinal.sol\":535:543  _payload */\n      dup6\n        /* \"contracts/importantContracts/WalletFinal.sol\":510:544  _to.call{value: _amount}(_payload) */\n      mload(0x40)\n      tag_23\n      swap2\n      swap1\n      tag_24\n      jump\t// in\n    tag_23:\n      0x00\n      mload(0x40)\n      dup1\n      dup4\n      sub\n      dup2\n      dup6\n      dup8\n      gas\n      call\n      swap3\n      pop\n      pop\n      pop\n      returndatasize\n      dup1\n      0x00\n      dup2\n      eq\n      tag_27\n      jumpi\n      mload(0x40)\n      swap2\n      pop\n      and(add(returndatasize, 0x3f), not(0x1f))\n      dup3\n      add\n      0x40\n      mstore\n      returndatasize\n      dup3\n      mstore\n      returndatasize\n      0x00\n      0x20\n      dup5\n      add\n      returndatacopy\n      jump(tag_26)\n    tag_27:\n      0x60\n      swap2\n      pop\n    tag_26:\n      pop\n        /* \"contracts/importantContracts/WalletFinal.sol\":468:544  (bool success, bytes memory returnData) = _to.call{value: _amount}(_payload) */\n      swap2\n      pop\n      swap2\n      pop\n        /* \"contracts/importantContracts/WalletFinal.sol\":563:570  success */\n      dup2\n        /* \"contracts/importantContracts/WalletFinal.sol\":555:609  require(success, \"Aborting, call was not successful!\") */\n      tag_28\n      jumpi\n      mload(0x40)\n      0x08c379a000000000000000000000000000000000000000000000000000000000\n      dup2\n      mstore\n      0x04\n      add\n      tag_29\n      swap1\n      tag_30\n      jump\t// in\n    tag_29:\n      mload(0x40)\n      dup1\n      swap2\n      sub\n      swap1\n      revert\n    tag_28:\n        /* \"contracts/importantContracts/WalletFinal.sol\":627:637  returnData */\n      dup1\n        /* \"contracts/importantContracts/WalletFinal.sol\":620:637  return returnData */\n      swap3\n      pop\n      pop\n      pop\n        /* \"contracts/importantContracts/WalletFinal.sol\":236:645  function transfer(address payable _to, uint _amount, bytes memory _payload) public returns(bytes memory) { ... */\n      swap4\n      swap3\n      pop\n      pop\n      pop\n      jump\t// out\n        /* \"#utility.yul\":7:133   */\n    tag_31:\n        /* \"#utility.yul\":44:51   */\n      0x00\n        /* \"#utility.yul\":84:126   */\n      0xffffffffffffffffffffffffffffffffffffffff\n        /* \"#utility.yul\":77:82   */\n      dup3\n        /* \"#utility.yul\":73:127   */\n      and\n        /* \"#utility.yul\":62:127   */\n      swap1\n      pop\n        /* \"#utility.yul\":7:133   */\n      swap2\n      swap1\n      pop\n      jump\t// out\n        /* \"#utility.yul\":139:243   */\n    tag_32:\n        /* \"#utility.yul\":184:191   */\n      0x00\n        /* \"#utility.yul\":213:237   */\n      tag_66\n        /* \"#utility.yul\":231:236   */\n      dup3\n        /* \"#utility.yul\":213:237   */\n      tag_31\n      jump\t// in\n    tag_66:\n        /* \"#utility.yul\":202:237   */\n      swap1\n      pop\n        /* \"#utility.yul\":139:243   */\n      swap2\n      swap1\n      pop\n      jump\t// out\n        /* \"#utility.yul\":249:391   */\n    tag_33:\n        /* \"#utility.yul\":352:384   */\n      tag_68\n        /* \"#utility.yul\":378:383   */\n      dup2\n        /* \"#utility.yul\":352:384   */\n      tag_32\n      jump\t// in\n    tag_68:\n        /* \"#utility.yul\":347:350   */\n      dup3\n        /* \"#utility.yul\":340:385   */\n      mstore\n        /* \"#utility.yul\":249:391   */\n      pop\n      pop\n      jump\t// out\n        /* \"#utility.yul\":397:651   */\n    tag_11:\n        /* \"#utility.yul\":506:510   */\n      0x00\n        /* \"#utility.yul\":544:546   */\n      0x20\n        /* \"#utility.yul\":533:542   */\n      dup3\n        /* \"#utility.yul\":529:547   */\n      add\n        /* \"#utility.yul\":521:547   */\n      swap1\n      pop\n        /* \"#utility.yul\":557:644   */\n      tag_70\n        /* \"#utility.yul\":641:642   */\n      0x00\n        /* \"#utility.yul\":630:639   */\n      dup4\n        /* \"#utility.yul\":626:643   */\n      add\n        /* \"#utility.yul\":617:623   */\n      dup5\n        /* \"#utility.yul\":557:644   */\n      tag_33\n      jump\t// in\n    tag_70:\n        /* \"#utility.yul\":397:651   */\n      swap3\n      swap2\n      pop\n      pop\n      jump\t// out\n        /* \"#utility.yul\":657:732   */\n    tag_34:\n        /* \"#utility.yul\":690:696   */\n      0x00\n        /* \"#utility.yul\":723:725   */\n      0x40\n        /* \"#utility.yul\":717:726   */\n      mload\n        /* \"#utility.yul\":707:726   */\n      swap1\n      pop\n        /* \"#utility.yul\":657:732   */\n      swap1\n      jump\t// out\n        /* \"#utility.yul\":738:855   */\n    tag_35:\n        /* \"#utility.yul\":847:848   */\n      0x00\n        /* \"#utility.yul\":844:845   */\n      dup1\n        /* \"#utility.yul\":837:849   */\n      revert\n        /* \"#utility.yul\":861:978   */\n    tag_36:\n        /* \"#utility.yul\":970:971   */\n      0x00\n        /* \"#utility.yul\":967:968   */\n      dup1\n        /* \"#utility.yul\":960:972   */\n      revert\n        /* \"#utility.yul\":984:1122   */\n    tag_37:\n        /* \"#utility.yul\":1065:1097   */\n      tag_75\n        /* \"#utility.yul\":1091:1096   */\n      dup2\n        /* \"#utility.yul\":1065:1097   */\n      tag_32\n      jump\t// in\n    tag_75:\n        /* \"#utility.yul\":1058:1063   */\n      dup2\n        /* \"#utility.yul\":1055:1098   */\n      eq\n        /* \"#utility.yul\":1045:1116   */\n      tag_76\n      jumpi\n        /* \"#utility.yul\":1112:1113   */\n      0x00\n        /* \"#utility.yul\":1109:1110   */\n      dup1\n        /* \"#utility.yul\":1102:1114   */\n      revert\n        /* \"#utility.yul\":1045:1116   */\n    tag_76:\n        /* \"#utility.yul\":984:1122   */\n      pop\n      jump\t// out\n        /* \"#utility.yul\":1128:1283   */\n    tag_38:\n        /* \"#utility.yul\":1182:1187   */\n      0x00\n        /* \"#utility.yul\":1220:1226   */\n      dup2\n        /* \"#utility.yul\":1207:1227   */\n      calldataload\n        /* \"#utility.yul\":1198:1227   */\n      swap1\n      pop\n        /* \"#utility.yul\":1236:1277   */\n      tag_78\n        /* \"#utility.yul\":1271:1276   */\n      dup2\n        /* \"#utility.yul\":1236:1277   */\n      tag_37\n      jump\t// in\n    tag_78:\n        /* \"#utility.yul\":1128:1283   */\n      swap3\n      swap2\n      pop\n      pop\n      jump\t// out\n        /* \"#utility.yul\":1289:1366   */\n    tag_39:\n        /* \"#utility.yul\":1326:1333   */\n      0x00\n        /* \"#utility.yul\":1355:1360   */\n      dup2\n        /* \"#utility.yul\":1344:1360   */\n      swap1\n      pop\n        /* \"#utility.yul\":1289:1366   */\n      swap2\n      swap1\n      pop\n      jump\t// out\n        /* \"#utility.yul\":1372:1494   */\n    tag_40:\n        /* \"#utility.yul\":1445:1469   */\n      tag_81\n        /* \"#utility.yul\":1463:1468   */\n      dup2\n        /* \"#utility.yul\":1445:1469   */\n      tag_39\n      jump\t// in\n    tag_81:\n        /* \"#utility.yul\":1438:1443   */\n      dup2\n        /* \"#utility.yul\":1435:1470   */\n      eq\n        /* \"#utility.yul\":1425:1488   */\n      tag_82\n      jumpi\n        /* \"#utility.yul\":1484:1485   */\n      0x00\n        /* \"#utility.yul\":1481:1482   */\n      dup1\n        /* \"#utility.yul\":1474:1486   */\n      revert\n        /* \"#utility.yul\":1425:1488   */\n    tag_82:\n        /* \"#utility.yul\":1372:1494   */\n      pop\n      jump\t// out\n        /* \"#utility.yul\":1500:1639   */\n    tag_41:\n        /* \"#utility.yul\":1546:1551   */\n      0x00\n        /* \"#utility.yul\":1584:1590   */\n      dup2\n        /* \"#utility.yul\":1571:1591   */\n      calldataload\n        /* \"#utility.yul\":1562:1591   */\n      swap1\n      pop\n        /* \"#utility.yul\":1600:1633   */\n      tag_84\n        /* \"#utility.yul\":1627:1632   */\n      dup2\n        /* \"#utility.yul\":1600:1633   */\n      tag_40\n      jump\t// in\n    tag_84:\n        /* \"#utility.yul\":1500:1639   */\n      swap3\n      swap2\n      pop\n      pop\n      jump\t// out\n        /* \"#utility.yul\":1645:1762   */\n    tag_42:\n        /* \"#utility.yul\":1754:1755   */\n      0x00\n        /* \"#utility.yul\":1751:1752   */\n      dup1\n        /* \"#utility.yul\":1744:1756   */\n      revert\n        /* \"#utility.yul\":1768:1885   */\n    tag_43:\n        /* \"#utility.yul\":1877:1878   */\n      0x00\n        /* \"#utility.yul\":1874:1875   */\n      dup1\n        /* \"#utility.yul\":1867:1879   */\n      revert\n        /* \"#utility.yul\":1891:1993   */\n    tag_44:\n        /* \"#utility.yul\":1932:1938   */\n      0x00\n        /* \"#utility.yul\":1983:1985   */\n      0x1f\n        /* \"#utility.yul\":1979:1986   */\n      not\n        /* \"#utility.yul\":1974:1976   */\n      0x1f\n        /* \"#utility.yul\":1967:1972   */\n      dup4\n        /* \"#utility.yul\":1963:1977   */\n      add\n        /* \"#utility.yul\":1959:1987   */\n      and\n        /* \"#utility.yul\":1949:1987   */\n      swap1\n      pop\n        /* \"#utility.yul\":1891:1993   */\n      swap2\n      swap1\n      pop\n      jump\t// out\n        /* \"#utility.yul\":1999:2179   */\n    tag_45:\n        /* \"#utility.yul\":2047:2124   */\n      0x4e487b7100000000000000000000000000000000000000000000000000000000\n        /* \"#utility.yul\":2044:2045   */\n      0x00\n        /* \"#utility.yul\":2037:2125   */\n      mstore\n        /* \"#utility.yul\":2144:2148   */\n      0x41\n        /* \"#utility.yul\":2141:2142   */\n      0x04\n        /* \"#utility.yul\":2134:2149   */\n      mstore\n        /* \"#utility.yul\":2168:2172   */\n      0x24\n        /* \"#utility.yul\":2165:2166   */\n      0x00\n        /* \"#utility.yul\":2158:2173   */\n      revert\n        /* \"#utility.yul\":2185:2466   */\n    tag_46:\n        /* \"#utility.yul\":2268:2295   */\n      tag_90\n        /* \"#utility.yul\":2290:2294   */\n      dup3\n        /* \"#utility.yul\":2268:2295   */\n      tag_44\n      jump\t// in\n    tag_90:\n        /* \"#utility.yul\":2260:2266   */\n      dup2\n        /* \"#utility.yul\":2256:2296   */\n      add\n        /* \"#utility.yul\":2398:2404   */\n      dup2\n        /* \"#utility.yul\":2386:2396   */\n      dup2\n        /* \"#utility.yul\":2383:2405   */\n      lt\n        /* \"#utility.yul\":2362:2380   */\n      0xffffffffffffffff\n        /* \"#utility.yul\":2350:2360   */\n      dup3\n        /* \"#utility.yul\":2347:2381   */\n      gt\n        /* \"#utility.yul\":2344:2406   */\n      or\n        /* \"#utility.yul\":2341:2429   */\n      iszero\n      tag_91\n      jumpi\n        /* \"#utility.yul\":2409:2427   */\n      tag_92\n      tag_45\n      jump\t// in\n    tag_92:\n        /* \"#utility.yul\":2341:2429   */\n    tag_91:\n        /* \"#utility.yul\":2449:2459   */\n      dup1\n        /* \"#utility.yul\":2445:2447   */\n      0x40\n        /* \"#utility.yul\":2438:2460   */\n      mstore\n        /* \"#utility.yul\":2228:2466   */\n      pop\n        /* \"#utility.yul\":2185:2466   */\n      pop\n      pop\n      jump\t// out\n        /* \"#utility.yul\":2472:2601   */\n    tag_47:\n        /* \"#utility.yul\":2506:2512   */\n      0x00\n        /* \"#utility.yul\":2533:2553   */\n      tag_94\n      tag_34\n      jump\t// in\n    tag_94:\n        /* \"#utility.yul\":2523:2553   */\n      swap1\n      pop\n        /* \"#utility.yul\":2562:2595   */\n      tag_95\n        /* \"#utility.yul\":2590:2594   */\n      dup3\n        /* \"#utility.yul\":2582:2588   */\n      dup3\n        /* \"#utility.yul\":2562:2595   */\n      tag_46\n      jump\t// in\n    tag_95:\n        /* \"#utility.yul\":2472:2601   */\n      swap2\n      swap1\n      pop\n      jump\t// out\n        /* \"#utility.yul\":2607:2914   */\n    tag_48:\n        /* \"#utility.yul\":2668:2672   */\n      0x00\n        /* \"#utility.yul\":2758:2776   */\n      0xffffffffffffffff\n        /* \"#utility.yul\":2750:2756   */\n      dup3\n        /* \"#utility.yul\":2747:2777   */\n      gt\n        /* \"#utility.yul\":2744:2800   */\n      iszero\n      tag_97\n      jumpi\n        /* \"#utility.yul\":2780:2798   */\n      tag_98\n      tag_45\n      jump\t// in\n    tag_98:\n        /* \"#utility.yul\":2744:2800   */\n    tag_97:\n        /* \"#utility.yul\":2818:2847   */\n      tag_99\n        /* \"#utility.yul\":2840:2846   */\n      dup3\n        /* \"#utility.yul\":2818:2847   */\n      tag_44\n      jump\t// in\n    tag_99:\n        /* \"#utility.yul\":2810:2847   */\n      swap1\n      pop\n        /* \"#utility.yul\":2902:2906   */\n      0x20\n        /* \"#utility.yul\":2896:2900   */\n      dup2\n        /* \"#utility.yul\":2892:2907   */\n      add\n        /* \"#utility.yul\":2884:2907   */\n      swap1\n      pop\n        /* \"#utility.yul\":2607:2914   */\n      swap2\n      swap1\n      pop\n      jump\t// out\n        /* \"#utility.yul\":2920:3066   */\n    tag_49:\n        /* \"#utility.yul\":3017:3023   */\n      dup3\n        /* \"#utility.yul\":3012:3015   */\n      dup2\n        /* \"#utility.yul\":3007:3010   */\n      dup4\n        /* \"#utility.yul\":2994:3024   */\n      calldatacopy\n        /* \"#utility.yul\":3058:3059   */\n      0x00\n        /* \"#utility.yul\":3049:3055   */\n      dup4\n        /* \"#utility.yul\":3044:3047   */\n      dup4\n        /* \"#utility.yul\":3040:3056   */\n      add\n        /* \"#utility.yul\":3033:3060   */\n      mstore\n        /* \"#utility.yul\":2920:3066   */\n      pop\n      pop\n      pop\n      jump\t// out\n        /* \"#utility.yul\":3072:3495   */\n    tag_50:\n        /* \"#utility.yul\":3149:3154   */\n      0x00\n        /* \"#utility.yul\":3174:3239   */\n      tag_102\n        /* \"#utility.yul\":3190:3238   */\n      tag_103\n        /* \"#utility.yul\":3231:3237   */\n      dup5\n        /* \"#utility.yul\":3190:3238   */\n      tag_48\n      jump\t// in\n    tag_103:\n        /* \"#utility.yul\":3174:3239   */\n      tag_47\n      jump\t// in\n    tag_102:\n        /* \"#utility.yul\":3165:3239   */\n      swap1\n      pop\n        /* \"#utility.yul\":3262:3268   */\n      dup3\n        /* \"#utility.yul\":3255:3260   */\n      dup2\n        /* \"#utility.yul\":3248:3269   */\n      mstore\n        /* \"#utility.yul\":3300:3304   */\n      0x20\n        /* \"#utility.yul\":3293:3298   */\n      dup2\n        /* \"#utility.yul\":3289:3305   */\n      add\n        /* \"#utility.yul\":3338:3341   */\n      dup5\n        /* \"#utility.yul\":3329:3335   */\n      dup5\n        /* \"#utility.yul\":3324:3327   */\n      dup5\n        /* \"#utility.yul\":3320:3336   */\n      add\n        /* \"#utility.yul\":3317:3342   */\n      gt\n        /* \"#utility.yul\":3314:3426   */\n      iszero\n      tag_104\n      jumpi\n        /* \"#utility.yul\":3345:3424   */\n      tag_105\n      tag_43\n      jump\t// in\n    tag_105:\n        /* \"#utility.yul\":3314:3426   */\n    tag_104:\n        /* \"#utility.yul\":3435:3489   */\n      tag_106\n        /* \"#utility.yul\":3482:3488   */\n      dup5\n        /* \"#utility.yul\":3477:3480   */\n      dup3\n        /* \"#utility.yul\":3472:3475   */\n      dup6\n        /* \"#utility.yul\":3435:3489   */\n      tag_49\n      jump\t// in\n    tag_106:\n        /* \"#utility.yul\":3155:3495   */\n      pop\n        /* \"#utility.yul\":3072:3495   */\n      swap4\n      swap3\n      pop\n      pop\n      pop\n      jump\t// out\n        /* \"#utility.yul\":3514:3852   */\n    tag_51:\n        /* \"#utility.yul\":3569:3574   */\n      0x00\n        /* \"#utility.yul\":3618:3621   */\n      dup3\n        /* \"#utility.yul\":3611:3615   */\n      0x1f\n        /* \"#utility.yul\":3603:3609   */\n      dup4\n        /* \"#utility.yul\":3599:3616   */\n      add\n        /* \"#utility.yul\":3595:3622   */\n      slt\n        /* \"#utility.yul\":3585:3707   */\n      tag_108\n      jumpi\n        /* \"#utility.yul\":3626:3705   */\n      tag_109\n      tag_42\n      jump\t// in\n    tag_109:\n        /* \"#utility.yul\":3585:3707   */\n    tag_108:\n        /* \"#utility.yul\":3743:3749   */\n      dup2\n        /* \"#utility.yul\":3730:3750   */\n      calldataload\n        /* \"#utility.yul\":3768:3846   */\n      tag_110\n        /* \"#utility.yul\":3842:3845   */\n      dup5\n        /* \"#utility.yul\":3834:3840   */\n      dup3\n        /* \"#utility.yul\":3827:3831   */\n      0x20\n        /* \"#utility.yul\":3819:3825   */\n      dup7\n        /* \"#utility.yul\":3815:3832   */\n      add\n        /* \"#utility.yul\":3768:3846   */\n      tag_50\n      jump\t// in\n    tag_110:\n        /* \"#utility.yul\":3759:3846   */\n      swap2\n      pop\n        /* \"#utility.yul\":3575:3852   */\n      pop\n        /* \"#utility.yul\":3514:3852   */\n      swap3\n      swap2\n      pop\n      pop\n      jump\t// out\n        /* \"#utility.yul\":3858:4671   */\n    tag_15:\n        /* \"#utility.yul\":3952:3958   */\n      0x00\n        /* \"#utility.yul\":3960:3966   */\n      dup1\n        /* \"#utility.yul\":3968:3974   */\n      0x00\n        /* \"#utility.yul\":4017:4019   */\n      0x60\n        /* \"#utility.yul\":4005:4014   */\n      dup5\n        /* \"#utility.yul\":3996:4003   */\n      dup7\n        /* \"#utility.yul\":3992:4015   */\n      sub\n        /* \"#utility.yul\":3988:4020   */\n      slt\n        /* \"#utility.yul\":3985:4104   */\n      iszero\n      tag_112\n      jumpi\n        /* \"#utility.yul\":4023:4102   */\n      tag_113\n      tag_35\n      jump\t// in\n    tag_113:\n        /* \"#utility.yul\":3985:4104   */\n    tag_112:\n        /* \"#utility.yul\":4143:4144   */\n      0x00\n        /* \"#utility.yul\":4168:4229   */\n      tag_114\n        /* \"#utility.yul\":4221:4228   */\n      dup7\n        /* \"#utility.yul\":4212:4218   */\n      dup3\n        /* \"#utility.yul\":4201:4210   */\n      dup8\n        /* \"#utility.yul\":4197:4219   */\n      add\n        /* \"#utility.yul\":4168:4229   */\n      tag_38\n      jump\t// in\n    tag_114:\n        /* \"#utility.yul\":4158:4229   */\n      swap4\n      pop\n        /* \"#utility.yul\":4114:4239   */\n      pop\n        /* \"#utility.yul\":4278:4280   */\n      0x20\n        /* \"#utility.yul\":4304:4357   */\n      tag_115\n        /* \"#utility.yul\":4349:4356   */\n      dup7\n        /* \"#utility.yul\":4340:4346   */\n      dup3\n        /* \"#utility.yul\":4329:4338   */\n      dup8\n        /* \"#utility.yul\":4325:4347   */\n      add\n        /* \"#utility.yul\":4304:4357   */\n      tag_41\n      jump\t// in\n    tag_115:\n        /* \"#utility.yul\":4294:4357   */\n      swap3\n      pop\n        /* \"#utility.yul\":4249:4367   */\n      pop\n        /* \"#utility.yul\":4434:4436   */\n      0x40\n        /* \"#utility.yul\":4423:4432   */\n      dup5\n        /* \"#utility.yul\":4419:4437   */\n      add\n        /* \"#utility.yul\":4406:4438   */\n      calldataload\n        /* \"#utility.yul\":4465:4483   */\n      0xffffffffffffffff\n        /* \"#utility.yul\":4457:4463   */\n      dup2\n        /* \"#utility.yul\":4454:4484   */\n      gt\n        /* \"#utility.yul\":4451:4568   */\n      iszero\n      tag_116\n      jumpi\n        /* \"#utility.yul\":4487:4566   */\n      tag_117\n      tag_36\n      jump\t// in\n    tag_117:\n        /* \"#utility.yul\":4451:4568   */\n    tag_116:\n        /* \"#utility.yul\":4592:4654   */\n      tag_118\n        /* \"#utility.yul\":4646:4653   */\n      dup7\n        /* \"#utility.yul\":4637:4643   */\n      dup3\n        /* \"#utility.yul\":4626:4635   */\n      dup8\n        /* \"#utility.yul\":4622:4644   */\n      add\n        /* \"#utility.yul\":4592:4654   */\n      tag_51\n      jump\t// in\n    tag_118:\n        /* \"#utility.yul\":4582:4654   */\n      swap2\n      pop\n        /* \"#utility.yul\":4377:4664   */\n      pop\n        /* \"#utility.yul\":3858:4671   */\n      swap3\n      pop\n      swap3\n      pop\n      swap3\n      jump\t// out\n        /* \"#utility.yul\":4677:4775   */\n    tag_52:\n        /* \"#utility.yul\":4728:4734   */\n      0x00\n        /* \"#utility.yul\":4762:4767   */\n      dup2\n        /* \"#utility.yul\":4756:4768   */\n      mload\n        /* \"#utility.yul\":4746:4768   */\n      swap1\n      pop\n        /* \"#utility.yul\":4677:4775   */\n      swap2\n      swap1\n      pop\n      jump\t// out\n        /* \"#utility.yul\":4781:4949   */\n    tag_53:\n        /* \"#utility.yul\":4864:4875   */\n      0x00\n        /* \"#utility.yul\":4898:4904   */\n      dup3\n        /* \"#utility.yul\":4893:4896   */\n      dup3\n        /* \"#utility.yul\":4886:4905   */\n      mstore\n        /* \"#utility.yul\":4938:4942   */\n      0x20\n        /* \"#utility.yul\":4933:4936   */\n      dup3\n        /* \"#utility.yul\":4929:4943   */\n      add\n        /* \"#utility.yul\":4914:4943   */\n      swap1\n      pop\n        /* \"#utility.yul\":4781:4949   */\n      swap3\n      swap2\n      pop\n      pop\n      jump\t// out\n        /* \"#utility.yul\":4955:5201   */\n    tag_54:\n        /* \"#utility.yul\":5036:5037   */\n      0x00\n        /* \"#utility.yul\":5046:5159   */\n    tag_122:\n        /* \"#utility.yul\":5060:5066   */\n      dup4\n        /* \"#utility.yul\":5057:5058   */\n      dup2\n        /* \"#utility.yul\":5054:5067   */\n      lt\n        /* \"#utility.yul\":5046:5159   */\n      iszero\n      tag_124\n      jumpi\n        /* \"#utility.yul\":5145:5146   */\n      dup1\n        /* \"#utility.yul\":5140:5143   */\n      dup3\n        /* \"#utility.yul\":5136:5147   */\n      add\n        /* \"#utility.yul\":5130:5148   */\n      mload\n        /* \"#utility.yul\":5126:5127   */\n      dup2\n        /* \"#utility.yul\":5121:5124   */\n      dup5\n        /* \"#utility.yul\":5117:5128   */\n      add\n        /* \"#utility.yul\":5110:5149   */\n      mstore\n        /* \"#utility.yul\":5082:5084   */\n      0x20\n        /* \"#utility.yul\":5079:5080   */\n      dup2\n        /* \"#utility.yul\":5075:5085   */\n      add\n        /* \"#utility.yul\":5070:5085   */\n      swap1\n      pop\n        /* \"#utility.yul\":5046:5159   */\n      jump(tag_122)\n    tag_124:\n        /* \"#utility.yul\":5193:5194   */\n      0x00\n        /* \"#utility.yul\":5184:5190   */\n      dup5\n        /* \"#utility.yul\":5179:5182   */\n      dup5\n        /* \"#utility.yul\":5175:5191   */\n      add\n        /* \"#utility.yul\":5168:5195   */\n      mstore\n        /* \"#utility.yul\":5017:5201   */\n      pop\n        /* \"#utility.yul\":4955:5201   */\n      pop\n      pop\n      pop\n      jump\t// out\n        /* \"#utility.yul\":5207:5580   */\n    tag_55:\n        /* \"#utility.yul\":5293:5296   */\n      0x00\n        /* \"#utility.yul\":5321:5359   */\n      tag_126\n        /* \"#utility.yul\":5353:5358   */\n      dup3\n        /* \"#utility.yul\":5321:5359   */\n      tag_52\n      jump\t// in\n    tag_126:\n        /* \"#utility.yul\":5375:5445   */\n      tag_127\n        /* \"#utility.yul\":5438:5444   */\n      dup2\n        /* \"#utility.yul\":5433:5436   */\n      dup6\n        /* \"#utility.yul\":5375:5445   */\n      tag_53\n      jump\t// in\n    tag_127:\n        /* \"#utility.yul\":5368:5445   */\n      swap4\n      pop\n        /* \"#utility.yul\":5454:5519   */\n      tag_128\n        /* \"#utility.yul\":5512:5518   */\n      dup2\n        /* \"#utility.yul\":5507:5510   */\n      dup6\n        /* \"#utility.yul\":5500:5504   */\n      0x20\n        /* \"#utility.yul\":5493:5498   */\n      dup7\n        /* \"#utility.yul\":5489:5505   */\n      add\n        /* \"#utility.yul\":5454:5519   */\n      tag_54\n      jump\t// in\n    tag_128:\n        /* \"#utility.yul\":5544:5573   */\n      tag_129\n        /* \"#utility.yul\":5566:5572   */\n      dup2\n        /* \"#utility.yul\":5544:5573   */\n      tag_44\n      jump\t// in\n    tag_129:\n        /* \"#utility.yul\":5539:5542   */\n      dup5\n        /* \"#utility.yul\":5535:5574   */\n      add\n        /* \"#utility.yul\":5528:5574   */\n      swap2\n      pop\n        /* \"#utility.yul\":5297:5580   */\n      pop\n        /* \"#utility.yul\":5207:5580   */\n      swap3\n      swap2\n      pop\n      pop\n      jump\t// out\n        /* \"#utility.yul\":5586:5895   */\n    tag_18:\n        /* \"#utility.yul\":5697:5701   */\n      0x00\n        /* \"#utility.yul\":5735:5737   */\n      0x20\n        /* \"#utility.yul\":5724:5733   */\n      dup3\n        /* \"#utility.yul\":5720:5738   */\n      add\n        /* \"#utility.yul\":5712:5738   */\n      swap1\n      pop\n        /* \"#utility.yul\":5784:5793   */\n      dup2\n        /* \"#utility.yul\":5778:5782   */\n      dup2\n        /* \"#utility.yul\":5774:5794   */\n      sub\n        /* \"#utility.yul\":5770:5771   */\n      0x00\n        /* \"#utility.yul\":5759:5768   */\n      dup4\n        /* \"#utility.yul\":5755:5772   */\n      add\n        /* \"#utility.yul\":5748:5795   */\n      mstore\n        /* \"#utility.yul\":5812:5888   */\n      tag_131\n        /* \"#utility.yul\":5883:5887   */\n      dup2\n        /* \"#utility.yul\":5874:5880   */\n      dup5\n        /* \"#utility.yul\":5812:5888   */\n      tag_55\n      jump\t// in\n    tag_131:\n        /* \"#utility.yul\":5804:5888   */\n      swap1\n      pop\n        /* \"#utility.yul\":5586:5895   */\n      swap3\n      swap2\n      pop\n      pop\n      jump\t// out\n        /* \"#utility.yul\":5901:6070   */\n    tag_56:\n        /* \"#utility.yul\":5985:5996   */\n      0x00\n        /* \"#utility.yul\":6019:6025   */\n      dup3\n        /* \"#utility.yul\":6014:6017   */\n      dup3\n        /* \"#utility.yul\":6007:6026   */\n      mstore\n        /* \"#utility.yul\":6059:6063   */\n      0x20\n        /* \"#utility.yul\":6054:6057   */\n      dup3\n        /* \"#utility.yul\":6050:6064   */\n      add\n        /* \"#utility.yul\":6035:6064   */\n      swap1\n      pop\n        /* \"#utility.yul\":5901:6070   */\n      swap3\n      swap2\n      pop\n      pop\n      jump\t// out\n        /* \"#utility.yul\":6076:6297   */\n    tag_57:\n        /* \"#utility.yul\":6216:6250   */\n      0x446f6e277420706c61792061726f756e64212043616c6c20746865206f776e65\n        /* \"#utility.yul\":6212:6213   */\n      0x00\n        /* \"#utility.yul\":6204:6210   */\n      dup3\n        /* \"#utility.yul\":6200:6214   */\n      add\n        /* \"#utility.yul\":6193:6251   */\n      mstore\n        /* \"#utility.yul\":6285:6289   */\n      0x722e000000000000000000000000000000000000000000000000000000000000\n        /* \"#utility.yul\":6280:6282   */\n      0x20\n        /* \"#utility.yul\":6272:6278   */\n      dup3\n        /* \"#utility.yul\":6268:6283   */\n      add\n        /* \"#utility.yul\":6261:6290   */\n      mstore\n        /* \"#utility.yul\":6076:6297   */\n      pop\n      jump\t// out\n        /* \"#utility.yul\":6303:6669   */\n    tag_58:\n        /* \"#utility.yul\":6445:6448   */\n      0x00\n        /* \"#utility.yul\":6466:6533   */\n      tag_135\n        /* \"#utility.yul\":6530:6532   */\n      0x22\n        /* \"#utility.yul\":6525:6528   */\n      dup4\n        /* \"#utility.yul\":6466:6533   */\n      tag_56\n      jump\t// in\n    tag_135:\n        /* \"#utility.yul\":6459:6533   */\n      swap2\n      pop\n        /* \"#utility.yul\":6542:6635   */\n      tag_136\n        /* \"#utility.yul\":6631:6634   */\n      dup3\n        /* \"#utility.yul\":6542:6635   */\n      tag_57\n      jump\t// in\n    tag_136:\n        /* \"#utility.yul\":6660:6662   */\n      0x40\n        /* \"#utility.yul\":6655:6658   */\n      dup3\n        /* \"#utility.yul\":6651:6663   */\n      add\n        /* \"#utility.yul\":6644:6663   */\n      swap1\n      pop\n        /* \"#utility.yul\":6303:6669   */\n      swap2\n      swap1\n      pop\n      jump\t// out\n        /* \"#utility.yul\":6675:7094   */\n    tag_22:\n        /* \"#utility.yul\":6841:6845   */\n      0x00\n        /* \"#utility.yul\":6879:6881   */\n      0x20\n        /* \"#utility.yul\":6868:6877   */\n      dup3\n        /* \"#utility.yul\":6864:6882   */\n      add\n        /* \"#utility.yul\":6856:6882   */\n      swap1\n      pop\n        /* \"#utility.yul\":6928:6937   */\n      dup2\n        /* \"#utility.yul\":6922:6926   */\n      dup2\n        /* \"#utility.yul\":6918:6938   */\n      sub\n        /* \"#utility.yul\":6914:6915   */\n      0x00\n        /* \"#utility.yul\":6903:6912   */\n      dup4\n        /* \"#utility.yul\":6899:6916   */\n      add\n        /* \"#utility.yul\":6892:6939   */\n      mstore\n        /* \"#utility.yul\":6956:7087   */\n      tag_138\n        /* \"#utility.yul\":7082:7086   */\n      dup2\n        /* \"#utility.yul\":6956:7087   */\n      tag_58\n      jump\t// in\n    tag_138:\n        /* \"#utility.yul\":6948:7087   */\n      swap1\n      pop\n        /* \"#utility.yul\":6675:7094   */\n      swap2\n      swap1\n      pop\n      jump\t// out\n        /* \"#utility.yul\":7100:7247   */\n    tag_59:\n        /* \"#utility.yul\":7201:7212   */\n      0x00\n        /* \"#utility.yul\":7238:7241   */\n      dup2\n        /* \"#utility.yul\":7223:7241   */\n      swap1\n      pop\n        /* \"#utility.yul\":7100:7247   */\n      swap3\n      swap2\n      pop\n      pop\n      jump\t// out\n        /* \"#utility.yul\":7253:7639   */\n    tag_60:\n        /* \"#utility.yul\":7357:7360   */\n      0x00\n        /* \"#utility.yul\":7385:7423   */\n      tag_141\n        /* \"#utility.yul\":7417:7422   */\n      dup3\n        /* \"#utility.yul\":7385:7423   */\n      tag_52\n      jump\t// in\n    tag_141:\n        /* \"#utility.yul\":7439:7527   */\n      tag_142\n        /* \"#utility.yul\":7520:7526   */\n      dup2\n        /* \"#utility.yul\":7515:7518   */\n      dup6\n        /* \"#utility.yul\":7439:7527   */\n      tag_59\n      jump\t// in\n    tag_142:\n        /* \"#utility.yul\":7432:7527   */\n      swap4\n      pop\n        /* \"#utility.yul\":7536:7601   */\n      tag_143\n        /* \"#utility.yul\":7594:7600   */\n      dup2\n        /* \"#utility.yul\":7589:7592   */\n      dup6\n        /* \"#utility.yul\":7582:7586   */\n      0x20\n        /* \"#utility.yul\":7575:7580   */\n      dup7\n        /* \"#utility.yul\":7571:7587   */\n      add\n        /* \"#utility.yul\":7536:7601   */\n      tag_54\n      jump\t// in\n    tag_143:\n        /* \"#utility.yul\":7626:7632   */\n      dup1\n        /* \"#utility.yul\":7621:7624   */\n      dup5\n        /* \"#utility.yul\":7617:7633   */\n      add\n        /* \"#utility.yul\":7610:7633   */\n      swap2\n      pop\n        /* \"#utility.yul\":7361:7639   */\n      pop\n        /* \"#utility.yul\":7253:7639   */\n      swap3\n      swap2\n      pop\n      pop\n      jump\t// out\n        /* \"#utility.yul\":7645:7916   */\n    tag_24:\n        /* \"#utility.yul\":7775:7778   */\n      0x00\n        /* \"#utility.yul\":7797:7890   */\n      tag_145\n        /* \"#utility.yul\":7886:7889   */\n      dup3\n        /* \"#utility.yul\":7877:7883   */\n      dup5\n        /* \"#utility.yul\":7797:7890   */\n      tag_60\n      jump\t// in\n    tag_145:\n        /* \"#utility.yul\":7790:7890   */\n      swap2\n      pop\n        /* \"#utility.yul\":7907:7910   */\n      dup2\n        /* \"#utility.yul\":7900:7910   */\n      swap1\n      pop\n        /* \"#utility.yul\":7645:7916   */\n      swap3\n      swap2\n      pop\n      pop\n      jump\t// out\n        /* \"#utility.yul\":7922:8143   */\n    tag_61:\n        /* \"#utility.yul\":8062:8096   */\n      0x41626f7274696e672c2063616c6c20776173206e6f7420737563636573736675\n        /* \"#utility.yul\":8058:8059   */\n      0x00\n        /* \"#utility.yul\":8050:8056   */\n      dup3\n        /* \"#utility.yul\":8046:8060   */\n      add\n        /* \"#utility.yul\":8039:8097   */\n      mstore\n        /* \"#utility.yul\":8131:8135   */\n      0x6c21000000000000000000000000000000000000000000000000000000000000\n        /* \"#utility.yul\":8126:8128   */\n      0x20\n        /* \"#utility.yul\":8118:8124   */\n      dup3\n        /* \"#utility.yul\":8114:8129   */\n      add\n        /* \"#utility.yul\":8107:8136   */\n      mstore\n        /* \"#utility.yul\":7922:8143   */\n      pop\n      jump\t// out\n        /* \"#utility.yul\":8149:8515   */\n    tag_62:\n        /* \"#utility.yul\":8291:8294   */\n      0x00\n        /* \"#utility.yul\":8312:8379   */\n      tag_148\n        /* \"#utility.yul\":8376:8378   */\n      0x22\n        /* \"#utility.yul\":8371:8374   */\n      dup4\n        /* \"#utility.yul\":8312:8379   */\n      tag_56\n      jump\t// in\n    tag_148:\n        /* \"#utility.yul\":8305:8379   */\n      swap2\n      pop\n        /* \"#utility.yul\":8388:8481   */\n      tag_149\n        /* \"#utility.yul\":8477:8480   */\n      dup3\n        /* \"#utility.yul\":8388:8481   */\n      tag_61\n      jump\t// in\n    tag_149:\n        /* \"#utility.yul\":8506:8508   */\n      0x40\n        /* \"#utility.yul\":8501:8504   */\n      dup3\n        /* \"#utility.yul\":8497:8509   */\n      add\n        /* \"#utility.yul\":8490:8509   */\n      swap1\n      pop\n        /* \"#utility.yul\":8149:8515   */\n      swap2\n      swap1\n      pop\n      jump\t// out\n        /* \"#utility.yul\":8521:8940   */\n    tag_30:\n        /* \"#utility.yul\":8687:8691   */\n      0x00\n        /* \"#utility.yul\":8725:8727   */\n      0x20\n        /* \"#utility.yul\":8714:8723   */\n      dup3\n        /* \"#utility.yul\":8710:8728   */\n      add\n        /* \"#utility.yul\":8702:8728   */\n      swap1\n      pop\n        /* \"#utility.yul\":8774:8783   */\n      dup2\n        /* \"#utility.yul\":8768:8772   */\n      dup2\n        /* \"#utility.yul\":8764:8784   */\n      sub\n        /* \"#utility.yul\":8760:8761   */\n      0x00\n        /* \"#utility.yul\":8749:8758   */\n      dup4\n        /* \"#utility.yul\":8745:8762   */\n      add\n        /* \"#utility.yul\":8738:8785   */\n      mstore\n        /* \"#utility.yul\":8802:8933   */\n      tag_151\n        /* \"#utility.yul\":8928:8932   */\n      dup2\n        /* \"#utility.yul\":8802:8933   */\n      tag_62\n      jump\t// in\n    tag_151:\n        /* \"#utility.yul\":8794:8933   */\n      swap1\n      pop\n        /* \"#utility.yul\":8521:8940   */\n      swap2\n      swap1\n      pop\n      jump\t// out\n\n    auxdata: 0xa2646970667358221220e3734a7b3922adf4af2f835e309281a2e084430b9b9d04c6d97e1b37ef1f1d5d64736f6c63430008100033\n}\n",
				"bytecode": {
					"linkReferences": {},
					"object": "608060405234801561001057600080fd5b50336000806101000a81548173ffffffffffffffffffffffffffffffffffffffff021916908373ffffffffffffffffffffffffffffffffffffffff1602179055506106f7806100606000396000f3fe60806040526004361061002d5760003560e01c80638da5cb5b14610039578063be45fd621461006457610034565b3661003457005b600080fd5b34801561004557600080fd5b5061004e6100a1565b60405161005b9190610252565b60405180910390f35b34801561007057600080fd5b5061008b60048036038101906100869190610429565b6100c5565b6040516100989190610517565b60405180910390f35b60008054906101000a900473ffffffffffffffffffffffffffffffffffffffff1681565b606060008054906101000a900473ffffffffffffffffffffffffffffffffffffffff1673ffffffffffffffffffffffffffffffffffffffff163373ffffffffffffffffffffffffffffffffffffffff1614610155576040517f08c379a000000000000000000000000000000000000000000000000000000000815260040161014c906105bc565b60405180910390fd5b6000808573ffffffffffffffffffffffffffffffffffffffff16858560405161017e9190610618565b60006040518083038185875af1925050503d80600081146101bb576040519150601f19603f3d011682016040523d82523d6000602084013e6101c0565b606091505b509150915081610205576040517f08c379a00000000000000000000000000000000000000000000000000000000081526004016101fc906106a1565b60405180910390fd5b80925050509392505050565b600073ffffffffffffffffffffffffffffffffffffffff82169050919050565b600061023c82610211565b9050919050565b61024c81610231565b82525050565b60006020820190506102676000830184610243565b92915050565b6000604051905090565b600080fd5b600080fd5b61028a81610231565b811461029557600080fd5b50565b6000813590506102a781610281565b92915050565b6000819050919050565b6102c0816102ad565b81146102cb57600080fd5b50565b6000813590506102dd816102b7565b92915050565b600080fd5b600080fd5b6000601f19601f8301169050919050565b7f4e487b7100000000000000000000000000000000000000000000000000000000600052604160045260246000fd5b610336826102ed565b810181811067ffffffffffffffff82111715610355576103546102fe565b5b80604052505050565b600061036861026d565b9050610374828261032d565b919050565b600067ffffffffffffffff821115610394576103936102fe565b5b61039d826102ed565b9050602081019050919050565b82818337600083830152505050565b60006103cc6103c784610379565b61035e565b9050828152602081018484840111156103e8576103e76102e8565b5b6103f38482856103aa565b509392505050565b600082601f8301126104105761040f6102e3565b5b81356104208482602086016103b9565b91505092915050565b60008060006060848603121561044257610441610277565b5b600061045086828701610298565b9350506020610461868287016102ce565b925050604084013567ffffffffffffffff8111156104825761048161027c565b5b61048e868287016103fb565b9150509250925092565b600081519050919050565b600082825260208201905092915050565b60005b838110156104d25780820151818401526020810190506104b7565b60008484015250505050565b60006104e982610498565b6104f381856104a3565b93506105038185602086016104b4565b61050c816102ed565b840191505092915050565b6000602082019050818103600083015261053181846104de565b905092915050565b600082825260208201905092915050565b7f446f6e277420706c61792061726f756e64212043616c6c20746865206f776e6560008201527f722e000000000000000000000000000000000000000000000000000000000000602082015250565b60006105a6602283610539565b91506105b18261054a565b604082019050919050565b600060208201905081810360008301526105d581610599565b9050919050565b600081905092915050565b60006105f282610498565b6105fc81856105dc565b935061060c8185602086016104b4565b80840191505092915050565b600061062482846105e7565b915081905092915050565b7f41626f7274696e672c2063616c6c20776173206e6f742073756363657373667560008201527f6c21000000000000000000000000000000000000000000000000000000000000602082015250565b600061068b602283610539565b91506106968261062f565b604082019050919050565b600060208201905081810360008301526106ba8161067e565b905091905056fea2646970667358221220e3734a7b3922adf4af2f835e309281a2e084430b9b9d04c6d97e1b37ef1f1d5d64736f6c63430008100033",
					"opcodes": "PUSH1 0x80 PUSH1 0x40 MSTORE CALLVALUE DUP1 ISZERO PUSH2 0x10 JUMPI PUSH1 0x0 DUP1 REVERT JUMPDEST POP CALLER PUSH1 0x0 DUP1 PUSH2 0x100 EXP DUP2 SLOAD DUP2 PUSH20 0xFFFFFFFFFFFFFFFFFFFFFFFFFFFFFFFFFFFFFFFF MUL NOT AND SWAP1 DUP4 PUSH20 0xFFFFFFFFFFFFFFFFFFFFFFFFFFFFFFFFFFFFFFFF AND MUL OR SWAP1 SSTORE POP PUSH2 0x6F7 DUP1 PUSH2 0x60 PUSH1 0x0 CODECOPY PUSH1 0x0 RETURN INVALID PUSH1 0x80 PUSH1 0x40 MSTORE PUSH1 0x4 CALLDATASIZE LT PUSH2 0x2D JUMPI PUSH1 0x0 CALLDATALOAD PUSH1 0xE0 SHR DUP1 PUSH4 0x8DA5CB5B EQ PUSH2 0x39 JUMPI DUP1 PUSH4 0xBE45FD62 EQ PUSH2 0x64 JUMPI PUSH2 0x34 JUMP JUMPDEST CALLDATASIZE PUSH2 0x34 JUMPI STOP JUMPDEST PUSH1 0x0 DUP1 REVERT JUMPDEST CALLVALUE DUP1 ISZERO PUSH2 0x45 JUMPI PUSH1 0x0 DUP1 REVERT JUMPDEST POP PUSH2 0x4E PUSH2 0xA1 JUMP JUMPDEST PUSH1 0x40 MLOAD PUSH2 0x5B SWAP2 SWAP1 PUSH2 0x252 JUMP JUMPDEST PUSH1 0x40 MLOAD DUP1 SWAP2 SUB SWAP1 RETURN JUMPDEST CALLVALUE DUP1 ISZERO PUSH2 0x70 JUMPI PUSH1 0x0 DUP1 REVERT JUMPDEST POP PUSH2 0x8B PUSH1 0x4 DUP1 CALLDATASIZE SUB DUP2 ADD SWAP1 PUSH2 0x86 SWAP2 SWAP1 PUSH2 0x429 JUMP JUMPDEST PUSH2 0xC5 JUMP JUMPDEST PUSH1 0x40 MLOAD PUSH2 0x98 SWAP2 SWAP1 PUSH2 0x517 JUMP JUMPDEST PUSH1 0x40 MLOAD DUP1 SWAP2 SUB SWAP1 RETURN JUMPDEST PUSH1 0x0 DUP1 SLOAD SWAP1 PUSH2 0x100 EXP SWAP1 DIV PUSH20 0xFFFFFFFFFFFFFFFFFFFFFFFFFFFFFFFFFFFFFFFF AND DUP2 JUMP JUMPDEST PUSH1 0x60 PUSH1 0x0 DUP1 SLOAD SWAP1 PUSH2 0x100 EXP SWAP1 DIV PUSH20 0xFFFFFFFFFFFFFFFFFFFFFFFFFFFFFFFFFFFFFFFF AND PUSH20 0xFFFFFFFFFFFFFFFFFFFFFFFFFFFFFFFFFFFFFFFF AND CALLER PUSH20 0xFFFFFFFFFFFFFFFFFFFFFFFFFFFFFFFFFFFFFFFF AND EQ PUSH2 0x155 JUMPI PUSH1 0x40 MLOAD PUSH32 0x8C379A000000000000000000000000000000000000000000000000000000000 DUP2 MSTORE PUSH1 0x4 ADD PUSH2 0x14C SWAP1 PUSH2 0x5BC JUMP JUMPDEST PUSH1 0x40 MLOAD DUP1 SWAP2 SUB SWAP1 REVERT JUMPDEST PUSH1 0x0 DUP1 DUP6 PUSH20 0xFFFFFFFFFFFFFFFFFFFFFFFFFFFFFFFFFFFFFFFF AND DUP6 DUP6 PUSH1 0x40 MLOAD PUSH2 0x17E SWAP2 SWAP1 PUSH2 0x618 JUMP JUMPDEST PUSH1 0x0 PUSH1 0x40 MLOAD DUP1 DUP4 SUB DUP2 DUP6 DUP8 GAS CALL SWAP3 POP POP POP RETURNDATASIZE DUP1 PUSH1 0x0 DUP2 EQ PUSH2 0x1BB JUMPI PUSH1 0x40 MLOAD SWAP2 POP PUSH1 0x1F NOT PUSH1 0x3F RETURNDATASIZE ADD AND DUP3 ADD PUSH1 0x40 MSTORE RETURNDATASIZE DUP3 MSTORE RETURNDATASIZE PUSH1 0x0 PUSH1 0x20 DUP5 ADD RETURNDATACOPY PUSH2 0x1C0 JUMP JUMPDEST PUSH1 0x60 SWAP2 POP JUMPDEST POP SWAP2 POP SWAP2 POP DUP2 PUSH2 0x205 JUMPI PUSH1 0x40 MLOAD PUSH32 0x8C379A000000000000000000000000000000000000000000000000000000000 DUP2 MSTORE PUSH1 0x4 ADD PUSH2 0x1FC SWAP1 PUSH2 0x6A1 JUMP JUMPDEST PUSH1 0x40 MLOAD DUP1 SWAP2 SUB SWAP1 REVERT JUMPDEST DUP1 SWAP3 POP POP POP SWAP4 SWAP3 POP POP POP JUMP JUMPDEST PUSH1 0x0 PUSH20 0xFFFFFFFFFFFFFFFFFFFFFFFFFFFFFFFFFFFFFFFF DUP3 AND SWAP1 POP SWAP2 SWAP1 POP JUMP JUMPDEST PUSH1 0x0 PUSH2 0x23C DUP3 PUSH2 0x211 JUMP JUMPDEST SWAP1 POP SWAP2 SWAP1 POP JUMP JUMPDEST PUSH2 0x24C DUP2 PUSH2 0x231 JUMP JUMPDEST DUP3 MSTORE POP POP JUMP JUMPDEST PUSH1 0x0 PUSH1 0x20 DUP3 ADD SWAP1 POP PUSH2 0x267 PUSH1 0x0 DUP4 ADD DUP5 PUSH2 0x243 JUMP JUMPDEST SWAP3 SWAP2 POP POP JUMP JUMPDEST PUSH1 0x0 PUSH1 0x40 MLOAD SWAP1 POP SWAP1 JUMP JUMPDEST PUSH1 0x0 DUP1 REVERT JUMPDEST PUSH1 0x0 DUP1 REVERT JUMPDEST PUSH2 0x28A DUP2 PUSH2 0x231 JUMP JUMPDEST DUP2 EQ PUSH2 0x295 JUMPI PUSH1 0x0 DUP1 REVERT JUMPDEST POP JUMP JUMPDEST PUSH1 0x0 DUP2 CALLDATALOAD SWAP1 POP PUSH2 0x2A7 DUP2 PUSH2 0x281 JUMP JUMPDEST SWAP3 SWAP2 POP POP JUMP JUMPDEST PUSH1 0x0 DUP2 SWAP1 POP SWAP2 SWAP1 POP JUMP JUMPDEST PUSH2 0x2C0 DUP2 PUSH2 0x2AD JUMP JUMPDEST DUP2 EQ PUSH2 0x2CB JUMPI PUSH1 0x0 DUP1 REVERT JUMPDEST POP JUMP JUMPDEST PUSH1 0x0 DUP2 CALLDATALOAD SWAP1 POP PUSH2 0x2DD DUP2 PUSH2 0x2B7 JUMP JUMPDEST SWAP3 SWAP2 POP POP JUMP JUMPDEST PUSH1 0x0 DUP1 REVERT JUMPDEST PUSH1 0x0 DUP1 REVERT JUMPDEST PUSH1 0x0 PUSH1 0x1F NOT PUSH1 0x1F DUP4 ADD AND SWAP1 POP SWAP2 SWAP1 POP JUMP JUMPDEST PUSH32 0x4E487B7100000000000000000000000000000000000000000000000000000000 PUSH1 0x0 MSTORE PUSH1 0x41 PUSH1 0x4 MSTORE PUSH1 0x24 PUSH1 0x0 REVERT JUMPDEST PUSH2 0x336 DUP3 PUSH2 0x2ED JUMP JUMPDEST DUP2 ADD DUP2 DUP2 LT PUSH8 0xFFFFFFFFFFFFFFFF DUP3 GT OR ISZERO PUSH2 0x355 JUMPI PUSH2 0x354 PUSH2 0x2FE JUMP JUMPDEST JUMPDEST DUP1 PUSH1 0x40 MSTORE POP POP POP JUMP JUMPDEST PUSH1 0x0 PUSH2 0x368 PUSH2 0x26D JUMP JUMPDEST SWAP1 POP PUSH2 0x374 DUP3 DUP3 PUSH2 0x32D JUMP JUMPDEST SWAP2 SWAP1 POP JUMP JUMPDEST PUSH1 0x0 PUSH8 0xFFFFFFFFFFFFFFFF DUP3 GT ISZERO PUSH2 0x394 JUMPI PUSH2 0x393 PUSH2 0x2FE JUMP JUMPDEST JUMPDEST PUSH2 0x39D DUP3 PUSH2 0x2ED JUMP JUMPDEST SWAP1 POP PUSH1 0x20 DUP2 ADD SWAP1 POP SWAP2 SWAP1 POP JUMP JUMPDEST DUP3 DUP2 DUP4 CALLDATACOPY PUSH1 0x0 DUP4 DUP4 ADD MSTORE POP POP POP JUMP JUMPDEST PUSH1 0x0 PUSH2 0x3CC PUSH2 0x3C7 DUP5 PUSH2 0x379 JUMP JUMPDEST PUSH2 0x35E JUMP JUMPDEST SWAP1 POP DUP3 DUP2 MSTORE PUSH1 0x20 DUP2 ADD DUP5 DUP5 DUP5 ADD GT ISZERO PUSH2 0x3E8 JUMPI PUSH2 0x3E7 PUSH2 0x2E8 JUMP JUMPDEST JUMPDEST PUSH2 0x3F3 DUP5 DUP3 DUP6 PUSH2 0x3AA JUMP JUMPDEST POP SWAP4 SWAP3 POP POP POP JUMP JUMPDEST PUSH1 0x0 DUP3 PUSH1 0x1F DUP4 ADD SLT PUSH2 0x410 JUMPI PUSH2 0x40F PUSH2 0x2E3 JUMP JUMPDEST JUMPDEST DUP2 CALLDATALOAD PUSH2 0x420 DUP5 DUP3 PUSH1 0x20 DUP7 ADD PUSH2 0x3B9 JUMP JUMPDEST SWAP2 POP POP SWAP3 SWAP2 POP POP JUMP JUMPDEST PUSH1 0x0 DUP1 PUSH1 0x0 PUSH1 0x60 DUP5 DUP7 SUB SLT ISZERO PUSH2 0x442 JUMPI PUSH2 0x441 PUSH2 0x277 JUMP JUMPDEST JUMPDEST PUSH1 0x0 PUSH2 0x450 DUP7 DUP3 DUP8 ADD PUSH2 0x298 JUMP JUMPDEST SWAP4 POP POP PUSH1 0x20 PUSH2 0x461 DUP7 DUP3 DUP8 ADD PUSH2 0x2CE JUMP JUMPDEST SWAP3 POP POP PUSH1 0x40 DUP5 ADD CALLDATALOAD PUSH8 0xFFFFFFFFFFFFFFFF DUP2 GT ISZERO PUSH2 0x482 JUMPI PUSH2 0x481 PUSH2 0x27C JUMP JUMPDEST JUMPDEST PUSH2 0x48E DUP7 DUP3 DUP8 ADD PUSH2 0x3FB JUMP JUMPDEST SWAP2 POP POP SWAP3 POP SWAP3 POP SWAP3 JUMP JUMPDEST PUSH1 0x0 DUP2 MLOAD SWAP1 POP SWAP2 SWAP1 POP JUMP JUMPDEST PUSH1 0x0 DUP3 DUP3 MSTORE PUSH1 0x20 DUP3 ADD SWAP1 POP SWAP3 SWAP2 POP POP JUMP JUMPDEST PUSH1 0x0 JUMPDEST DUP4 DUP2 LT ISZERO PUSH2 0x4D2 JUMPI DUP1 DUP3 ADD MLOAD DUP2 DUP5 ADD MSTORE PUSH1 0x20 DUP2 ADD SWAP1 POP PUSH2 0x4B7 JUMP JUMPDEST PUSH1 0x0 DUP5 DUP5 ADD MSTORE POP POP POP POP JUMP JUMPDEST PUSH1 0x0 PUSH2 0x4E9 DUP3 PUSH2 0x498 JUMP JUMPDEST PUSH2 0x4F3 DUP2 DUP6 PUSH2 0x4A3 JUMP JUMPDEST SWAP4 POP PUSH2 0x503 DUP2 DUP6 PUSH1 0x20 DUP7 ADD PUSH2 0x4B4 JUMP JUMPDEST PUSH2 0x50C DUP2 PUSH2 0x2ED JUMP JUMPDEST DUP5 ADD SWAP2 POP POP SWAP3 SWAP2 POP POP JUMP JUMPDEST PUSH1 0x0 PUSH1 0x20 DUP3 ADD SWAP1 POP DUP2 DUP2 SUB PUSH1 0x0 DUP4 ADD MSTORE PUSH2 0x531 DUP2 DUP5 PUSH2 0x4DE JUMP JUMPDEST SWAP1 POP SWAP3 SWAP2 POP POP JUMP JUMPDEST PUSH1 0x0 DUP3 DUP3 MSTORE PUSH1 0x20 DUP3 ADD SWAP1 POP SWAP3 SWAP2 POP POP JUMP JUMPDEST PUSH32 0x446F6E277420706C61792061726F756E64212043616C6C20746865206F776E65 PUSH1 0x0 DUP3 ADD MSTORE PUSH32 0x722E000000000000000000000000000000000000000000000000000000000000 PUSH1 0x20 DUP3 ADD MSTORE POP JUMP JUMPDEST PUSH1 0x0 PUSH2 0x5A6 PUSH1 0x22 DUP4 PUSH2 0x539 JUMP JUMPDEST SWAP2 POP PUSH2 0x5B1 DUP3 PUSH2 0x54A JUMP JUMPDEST PUSH1 0x40 DUP3 ADD SWAP1 POP SWAP2 SWAP1 POP JUMP JUMPDEST PUSH1 0x0 PUSH1 0x20 DUP3 ADD SWAP1 POP DUP2 DUP2 SUB PUSH1 0x0 DUP4 ADD MSTORE PUSH2 0x5D5 DUP2 PUSH2 0x599 JUMP JUMPDEST SWAP1 POP SWAP2 SWAP1 POP JUMP JUMPDEST PUSH1 0x0 DUP2 SWAP1 POP SWAP3 SWAP2 POP POP JUMP JUMPDEST PUSH1 0x0 PUSH2 0x5F2 DUP3 PUSH2 0x498 JUMP JUMPDEST PUSH2 0x5FC DUP2 DUP6 PUSH2 0x5DC JUMP JUMPDEST SWAP4 POP PUSH2 0x60C DUP2 DUP6 PUSH1 0x20 DUP7 ADD PUSH2 0x4B4 JUMP JUMPDEST DUP1 DUP5 ADD SWAP2 POP POP SWAP3 SWAP2 POP POP JUMP JUMPDEST PUSH1 0x0 PUSH2 0x624 DUP3 DUP5 PUSH2 0x5E7 JUMP JUMPDEST SWAP2 POP DUP2 SWAP1 POP SWAP3 SWAP2 POP POP JUMP JUMPDEST PUSH32 0x41626F7274696E672C2063616C6C20776173206E6F7420737563636573736675 PUSH1 0x0 DUP3 ADD MSTORE PUSH32 0x6C21000000000000000000000000000000000000000000000000000000000000 PUSH1 0x20 DUP3 ADD MSTORE POP JUMP JUMPDEST PUSH1 0x0 PUSH2 0x68B PUSH1 0x22 DUP4 PUSH2 0x539 JUMP JUMPDEST SWAP2 POP PUSH2 0x696 DUP3 PUSH2 0x62F JUMP JUMPDEST PUSH1 0x40 DUP3 ADD SWAP1 POP SWAP2 SWAP1 POP JUMP JUMPDEST PUSH1 0x0 PUSH1 0x20 DUP3 ADD SWAP1 POP DUP2 DUP2 SUB PUSH1 0x0 DUP4 ADD MSTORE PUSH2 0x6BA DUP2 PUSH2 0x67E JUMP JUMPDEST SWAP1 POP SWAP2 SWAP1 POP JUMP INVALID LOG2 PUSH5 0x6970667358 0x22 SLT KECCAK256 0xE3 PUSH20 0x4A7B3922ADF4AF2F835E309281A2E084430B9B9D DIV 0xC6 0xD9 PUSH31 0x1B37EF1F1D5D64736F6C634300081000330000000000000000000000000000 "
				},
				"gasEstimates": {
					"creation": {
						"codeDepositCost": "356600",
						"executionCost": "24659",
						"totalCost": "381259"
					},
					"external": {
						"owner()": "2489",
						"transfer(address,uint256,bytes)": "infinite"
					}
				},
				"methodIdentifiers": {
					"owner()": "8da5cb5b",
					"transfer(address,uint256,bytes)": "be45fd62"
				}
			},
			"storageLayout": {
				"storage": [
					{
						"astId": 3,
						"contract": "contracts/importantContracts/WalletFinal.sol:WalletFinal",
						"label": "owner",
						"offset": 0,
						"slot": "0",
						"type": "t_address_payable"
					}
				],
				"types": {
					"t_address_payable": {
						"encoding": "inplace",
						"label": "address payable",
						"numberOfBytes": "20"
					}
				}
			},
			"userdoc": {
				"kind": "user",
				"methods": {},
				"version": 1
			}
		}
	}
}