{
	"contracts/importantContracts/SimpleWallet2.sol": {
		"Simplewallet2": {
			"abi": [
				{
					"inputs": [
						{
							"internalType": "address",
							"name": "",
							"type": "address"
						}
					],
					"name": "balanceRecieved",
					"outputs": [
						{
							"internalType": "uint256",
							"name": "totalBalance",
							"type": "uint256"
						},
						{
							"internalType": "uint256",
							"name": "numsDeposites",
							"type": "uint256"
						},
						{
							"internalType": "uint256",
							"name": "numsWithdrawals",
							"type": "uint256"
						}
					],
					"stateMutability": "view",
					"type": "function"
				},
				{
					"inputs": [],
					"name": "depositeMoneyToSmartContract",
					"outputs": [],
					"stateMutability": "payable",
					"type": "function"
				},
				{
					"inputs": [
						{
							"internalType": "address",
							"name": "_from",
							"type": "address"
						},
						{
							"internalType": "uint256",
							"name": "_depositNum",
							"type": "uint256"
						}
					],
					"name": "showThisDepositDetails",
					"outputs": [
						{
							"components": [
								{
									"internalType": "uint256",
									"name": "amount",
									"type": "uint256"
								},
								{
									"internalType": "uint256",
									"name": "timeStamp",
									"type": "uint256"
								}
							],
							"internalType": "struct Simplewallet2.Transaction",
							"name": "",
							"type": "tuple"
						}
					],
					"stateMutability": "view",
					"type": "function"
				},
				{
					"inputs": [
						{
							"internalType": "address",
							"name": "_from",
							"type": "address"
						},
						{
							"internalType": "uint256",
							"name": "_withdrawalNum",
							"type": "uint256"
						}
					],
					"name": "showThisWithdrawalDetails",
					"outputs": [
						{
							"components": [
								{
									"internalType": "uint256",
									"name": "amount",
									"type": "uint256"
								},
								{
									"internalType": "uint256",
									"name": "timeStamp",
									"type": "uint256"
								}
							],
							"internalType": "struct Simplewallet2.Transaction",
							"name": "",
							"type": "tuple"
						}
					],
					"stateMutability": "view",
					"type": "function"
				},
				{
					"inputs": [
						{
							"internalType": "address payable",
							"name": "_to",
							"type": "address"
						},
						{
							"internalType": "uint256",
							"name": "_amount",
							"type": "uint256"
						}
					],
					"name": "withdrawFromContractWallet",
					"outputs": [],
					"stateMutability": "nonpayable",
					"type": "function"
				}
			],
			"devdoc": {
				"kind": "dev",
				"methods": {},
				"version": 1
			},
			"evm": {
				"assembly": "    /* \"contracts/importantContracts/SimpleWallet2.sol\":58:2404  contract Simplewallet2{... */\n  mstore(0x40, 0x80)\n  callvalue\n  dup1\n  iszero\n  tag_1\n  jumpi\n  0x00\n  dup1\n  revert\ntag_1:\n  pop\n  dataSize(sub_0)\n  dup1\n  dataOffset(sub_0)\n  0x00\n  codecopy\n  0x00\n  return\nstop\n\nsub_0: assembly {\n        /* \"contracts/importantContracts/SimpleWallet2.sol\":58:2404  contract Simplewallet2{... */\n      mstore(0x40, 0x80)\n      jumpi(tag_1, lt(calldatasize, 0x04))\n      shr(0xe0, calldataload(0x00))\n      dup1\n      0x50bd6253\n      eq\n      tag_2\n      jumpi\n      dup1\n      0x715efeb7\n      eq\n      tag_3\n      jumpi\n      dup1\n      0x9359e359\n      eq\n      tag_4\n      jumpi\n      dup1\n      0xd8d4f50d\n      eq\n      tag_5\n      jumpi\n      dup1\n      0xf429bcb6\n      eq\n      tag_6\n      jumpi\n    tag_1:\n      0x00\n      dup1\n      revert\n        /* \"contracts/importantContracts/SimpleWallet2.sol\":1340:1923  function withdrawFromContractWallet(address payable _to, uint _amount) public{... */\n    tag_2:\n      callvalue\n      dup1\n      iszero\n      tag_7\n      jumpi\n      0x00\n      dup1\n      revert\n    tag_7:\n      pop\n      tag_8\n      0x04\n      dup1\n      calldatasize\n      sub\n      dup2\n      add\n      swap1\n      tag_9\n      swap2\n      swap1\n      tag_10\n      jump\t// in\n    tag_9:\n      tag_11\n      jump\t// in\n    tag_8:\n      stop\n        /* \"contracts/importantContracts/SimpleWallet2.sol\":466:641  function showThisDepositDetails(address _from, uint _depositNum) public view returns(Transaction memory){... */\n    tag_3:\n      callvalue\n      dup1\n      iszero\n      tag_12\n      jumpi\n      0x00\n      dup1\n      revert\n    tag_12:\n      pop\n      tag_13\n      0x04\n      dup1\n      calldatasize\n      sub\n      dup2\n      add\n      swap1\n      tag_14\n      swap2\n      swap1\n      tag_15\n      jump\t// in\n    tag_14:\n      tag_16\n      jump\t// in\n    tag_13:\n      mload(0x40)\n      tag_17\n      swap2\n      swap1\n      tag_18\n      jump\t// in\n    tag_17:\n      mload(0x40)\n      dup1\n      swap2\n      sub\n      swap1\n      return\n        /* \"contracts/importantContracts/SimpleWallet2.sol\":647:833  function showThisWithdrawalDetails(address _from, uint _withdrawalNum) public view returns(Transaction memory){... */\n    tag_4:\n      callvalue\n      dup1\n      iszero\n      tag_19\n      jumpi\n      0x00\n      dup1\n      revert\n    tag_19:\n      pop\n      tag_20\n      0x04\n      dup1\n      calldatasize\n      sub\n      dup2\n      add\n      swap1\n      tag_21\n      swap2\n      swap1\n      tag_15\n      jump\t// in\n    tag_21:\n      tag_22\n      jump\t// in\n    tag_20:\n      mload(0x40)\n      tag_23\n      swap2\n      swap1\n      tag_18\n      jump\t// in\n    tag_23:\n      mload(0x40)\n      dup1\n      swap2\n      sub\n      swap1\n      return\n        /* \"contracts/importantContracts/SimpleWallet2.sol\":394:457  mapping(address => BalanceDetailsStruct) public balanceRecieved */\n    tag_5:\n      callvalue\n      dup1\n      iszero\n      tag_24\n      jumpi\n      0x00\n      dup1\n      revert\n    tag_24:\n      pop\n      tag_25\n      0x04\n      dup1\n      calldatasize\n      sub\n      dup2\n      add\n      swap1\n      tag_26\n      swap2\n      swap1\n      tag_27\n      jump\t// in\n    tag_26:\n      tag_28\n      jump\t// in\n    tag_25:\n      mload(0x40)\n      tag_29\n      swap4\n      swap3\n      swap2\n      swap1\n      tag_30\n      jump\t// in\n    tag_29:\n      mload(0x40)\n      dup1\n      swap2\n      sub\n      swap1\n      return\n        /* \"contracts/importantContracts/SimpleWallet2.sol\":896:1291  function depositeMoneyToSmartContract() public payable{... */\n    tag_6:\n      tag_31\n      tag_32\n      jump\t// in\n    tag_31:\n      stop\n        /* \"contracts/importantContracts/SimpleWallet2.sol\":1340:1923  function withdrawFromContractWallet(address payable _to, uint _amount) public{... */\n    tag_11:\n        /* \"contracts/importantContracts/SimpleWallet2.sol\":1452:1467  balanceRecieved */\n      0x00\n        /* \"contracts/importantContracts/SimpleWallet2.sol\":1452:1479  balanceRecieved[msg.sender] */\n      dup1\n        /* \"contracts/importantContracts/SimpleWallet2.sol\":1468:1478  msg.sender */\n      caller\n        /* \"contracts/importantContracts/SimpleWallet2.sol\":1452:1479  balanceRecieved[msg.sender] */\n      0xffffffffffffffffffffffffffffffffffffffff\n      and\n      0xffffffffffffffffffffffffffffffffffffffff\n      and\n      dup2\n      mstore\n      0x20\n      add\n      swap1\n      dup2\n      mstore\n      0x20\n      add\n      0x00\n      keccak256\n        /* \"contracts/importantContracts/SimpleWallet2.sol\":1452:1492  balanceRecieved[msg.sender].totalBalance */\n      0x00\n      add\n      sload\n        /* \"contracts/importantContracts/SimpleWallet2.sol\":1441:1448  _amount */\n      dup2\n        /* \"contracts/importantContracts/SimpleWallet2.sol\":1441:1492  _amount <= balanceRecieved[msg.sender].totalBalance */\n      gt\n        /* \"contracts/importantContracts/SimpleWallet2.sol\":1438:1892  if(_amount <= balanceRecieved[msg.sender].totalBalance){... */\n      tag_34\n      jumpi\n        /* \"contracts/importantContracts/SimpleWallet2.sol\":1508:1552  Transaction memory thisWithdrawalTransaction */\n      0x00\n        /* \"contracts/importantContracts/SimpleWallet2.sol\":1555:1591  Transaction(_amount,block.timestamp) */\n      mload(0x40)\n      dup1\n      0x40\n      add\n      0x40\n      mstore\n      dup1\n        /* \"contracts/importantContracts/SimpleWallet2.sol\":1567:1574  _amount */\n      dup4\n        /* \"contracts/importantContracts/SimpleWallet2.sol\":1555:1591  Transaction(_amount,block.timestamp) */\n      dup2\n      mstore\n      0x20\n      add\n        /* \"contracts/importantContracts/SimpleWallet2.sol\":1575:1590  block.timestamp */\n      timestamp\n        /* \"contracts/importantContracts/SimpleWallet2.sol\":1555:1591  Transaction(_amount,block.timestamp) */\n      dup2\n      mstore\n      pop\n        /* \"contracts/importantContracts/SimpleWallet2.sol\":1508:1591  Transaction memory thisWithdrawalTransaction = Transaction(_amount,block.timestamp) */\n      swap1\n      pop\n        /* \"contracts/importantContracts/SimpleWallet2.sol\":1606:1621  balanceRecieved */\n      0x00\n        /* \"contracts/importantContracts/SimpleWallet2.sol\":1606:1633  balanceRecieved[msg.sender] */\n      dup1\n        /* \"contracts/importantContracts/SimpleWallet2.sol\":1622:1632  msg.sender */\n      caller\n        /* \"contracts/importantContracts/SimpleWallet2.sol\":1606:1633  balanceRecieved[msg.sender] */\n      0xffffffffffffffffffffffffffffffffffffffff\n      and\n      0xffffffffffffffffffffffffffffffffffffffff\n      and\n      dup2\n      mstore\n      0x20\n      add\n      swap1\n      dup2\n      mstore\n      0x20\n      add\n      0x00\n      keccak256\n        /* \"contracts/importantContracts/SimpleWallet2.sol\":1606:1649  balanceRecieved[msg.sender].numsWithdrawals */\n      0x03\n      add\n      0x00\n        /* \"contracts/importantContracts/SimpleWallet2.sol\":1606:1651  balanceRecieved[msg.sender].numsWithdrawals++ */\n      dup2\n      sload\n      dup1\n      swap3\n      swap2\n      swap1\n      tag_35\n      swap1\n      tag_36\n      jump\t// in\n    tag_35:\n      swap2\n      swap1\n      pop\n      sstore\n      pop\n        /* \"contracts/importantContracts/SimpleWallet2.sol\":1753:1778  thisWithdrawalTransaction */\n      dup1\n        /* \"contracts/importantContracts/SimpleWallet2.sol\":1666:1681  balanceRecieved */\n      0x00\n        /* \"contracts/importantContracts/SimpleWallet2.sol\":1666:1693  balanceRecieved[msg.sender] */\n      dup1\n        /* \"contracts/importantContracts/SimpleWallet2.sol\":1682:1692  msg.sender */\n      caller\n        /* \"contracts/importantContracts/SimpleWallet2.sol\":1666:1693  balanceRecieved[msg.sender] */\n      0xffffffffffffffffffffffffffffffffffffffff\n      and\n      0xffffffffffffffffffffffffffffffffffffffff\n      and\n      dup2\n      mstore\n      0x20\n      add\n      swap1\n      dup2\n      mstore\n      0x20\n      add\n      0x00\n      keccak256\n        /* \"contracts/importantContracts/SimpleWallet2.sol\":1666:1705  balanceRecieved[msg.sender].withdrawals */\n      0x04\n      add\n        /* \"contracts/importantContracts/SimpleWallet2.sol\":1666:1750  balanceRecieved[msg.sender].withdrawals[balanceRecieved[msg.sender].numsWithdrawals] */\n      0x00\n        /* \"contracts/importantContracts/SimpleWallet2.sol\":1706:1721  balanceRecieved */\n      dup1\n        /* \"contracts/importantContracts/SimpleWallet2.sol\":1706:1733  balanceRecieved[msg.sender] */\n      0x00\n        /* \"contracts/importantContracts/SimpleWallet2.sol\":1722:1732  msg.sender */\n      caller\n        /* \"contracts/importantContracts/SimpleWallet2.sol\":1706:1733  balanceRecieved[msg.sender] */\n      0xffffffffffffffffffffffffffffffffffffffff\n      and\n      0xffffffffffffffffffffffffffffffffffffffff\n      and\n      dup2\n      mstore\n      0x20\n      add\n      swap1\n      dup2\n      mstore\n      0x20\n      add\n      0x00\n      keccak256\n        /* \"contracts/importantContracts/SimpleWallet2.sol\":1706:1749  balanceRecieved[msg.sender].numsWithdrawals */\n      0x03\n      add\n      sload\n        /* \"contracts/importantContracts/SimpleWallet2.sol\":1666:1750  balanceRecieved[msg.sender].withdrawals[balanceRecieved[msg.sender].numsWithdrawals] */\n      dup2\n      mstore\n      0x20\n      add\n      swap1\n      dup2\n      mstore\n      0x20\n      add\n      0x00\n      keccak256\n        /* \"contracts/importantContracts/SimpleWallet2.sol\":1666:1778  balanceRecieved[msg.sender].withdrawals[balanceRecieved[msg.sender].numsWithdrawals] = thisWithdrawalTransaction */\n      0x00\n      dup3\n      add\n      mload\n      dup2\n      0x00\n      add\n      sstore\n      0x20\n      dup3\n      add\n      mload\n      dup2\n      0x01\n      add\n      sstore\n      swap1\n      pop\n      pop\n        /* \"contracts/importantContracts/SimpleWallet2.sol\":1837:1844  _amount */\n      dup2\n        /* \"contracts/importantContracts/SimpleWallet2.sol\":1793:1808  balanceRecieved */\n      0x00\n        /* \"contracts/importantContracts/SimpleWallet2.sol\":1793:1820  balanceRecieved[msg.sender] */\n      dup1\n        /* \"contracts/importantContracts/SimpleWallet2.sol\":1809:1819  msg.sender */\n      caller\n        /* \"contracts/importantContracts/SimpleWallet2.sol\":1793:1820  balanceRecieved[msg.sender] */\n      0xffffffffffffffffffffffffffffffffffffffff\n      and\n      0xffffffffffffffffffffffffffffffffffffffff\n      and\n      dup2\n      mstore\n      0x20\n      add\n      swap1\n      dup2\n      mstore\n      0x20\n      add\n      0x00\n      keccak256\n        /* \"contracts/importantContracts/SimpleWallet2.sol\":1793:1833  balanceRecieved[msg.sender].totalBalance */\n      0x00\n      add\n      0x00\n        /* \"contracts/importantContracts/SimpleWallet2.sol\":1793:1844  balanceRecieved[msg.sender].totalBalance -= _amount */\n      dup3\n      dup3\n      sload\n      tag_37\n      swap2\n      swap1\n      tag_38\n      jump\t// in\n    tag_37:\n      swap3\n      pop\n      pop\n      dup2\n      swap1\n      sstore\n      pop\n        /* \"contracts/importantContracts/SimpleWallet2.sol\":1859:1862  _to */\n      dup3\n        /* \"contracts/importantContracts/SimpleWallet2.sol\":1859:1871  _to.transfer */\n      0xffffffffffffffffffffffffffffffffffffffff\n      and\n        /* \"contracts/importantContracts/SimpleWallet2.sol\":1859:1880  _to.transfer(_amount) */\n      0x08fc\n        /* \"contracts/importantContracts/SimpleWallet2.sol\":1872:1879  _amount */\n      dup4\n        /* \"contracts/importantContracts/SimpleWallet2.sol\":1859:1880  _to.transfer(_amount) */\n      swap1\n      dup2\n      iszero\n      mul\n      swap1\n      mload(0x40)\n      0x00\n      mload(0x40)\n      dup1\n      dup4\n      sub\n      dup2\n      dup6\n      dup9\n      dup9\n      call\n      swap4\n      pop\n      pop\n      pop\n      pop\n      iszero\n      dup1\n      iszero\n      tag_40\n      jumpi\n      returndatasize\n      0x00\n      dup1\n      returndatacopy\n      revert(0x00, returndatasize)\n    tag_40:\n      pop\n        /* \"contracts/importantContracts/SimpleWallet2.sol\":1493:1892  {... */\n      pop\n        /* \"contracts/importantContracts/SimpleWallet2.sol\":1438:1892  if(_amount <= balanceRecieved[msg.sender].totalBalance){... */\n    tag_34:\n        /* \"contracts/importantContracts/SimpleWallet2.sol\":1340:1923  function withdrawFromContractWallet(address payable _to, uint _amount) public{... */\n      pop\n      pop\n      jump\t// out\n        /* \"contracts/importantContracts/SimpleWallet2.sol\":466:641  function showThisDepositDetails(address _from, uint _depositNum) public view returns(Transaction memory){... */\n    tag_16:\n        /* \"contracts/importantContracts/SimpleWallet2.sol\":551:569  Transaction memory */\n      tag_41\n      tag_42\n      jump\t// in\n    tag_41:\n        /* \"contracts/importantContracts/SimpleWallet2.sol\":588:603  balanceRecieved */\n      0x00\n        /* \"contracts/importantContracts/SimpleWallet2.sol\":588:610  balanceRecieved[_from] */\n      dup1\n        /* \"contracts/importantContracts/SimpleWallet2.sol\":604:609  _from */\n      dup5\n        /* \"contracts/importantContracts/SimpleWallet2.sol\":588:610  balanceRecieved[_from] */\n      0xffffffffffffffffffffffffffffffffffffffff\n      and\n      0xffffffffffffffffffffffffffffffffffffffff\n      and\n      dup2\n      mstore\n      0x20\n      add\n      swap1\n      dup2\n      mstore\n      0x20\n      add\n      0x00\n      keccak256\n        /* \"contracts/importantContracts/SimpleWallet2.sol\":588:620  balanceRecieved[_from].deposites */\n      0x02\n      add\n        /* \"contracts/importantContracts/SimpleWallet2.sol\":588:633  balanceRecieved[_from].deposites[_depositNum] */\n      0x00\n        /* \"contracts/importantContracts/SimpleWallet2.sol\":621:632  _depositNum */\n      dup4\n        /* \"contracts/importantContracts/SimpleWallet2.sol\":588:633  balanceRecieved[_from].deposites[_depositNum] */\n      dup2\n      mstore\n      0x20\n      add\n      swap1\n      dup2\n      mstore\n      0x20\n      add\n      0x00\n      keccak256\n        /* \"contracts/importantContracts/SimpleWallet2.sol\":581:633  return balanceRecieved[_from].deposites[_depositNum] */\n      mload(0x40)\n      dup1\n      0x40\n      add\n      0x40\n      mstore\n      swap1\n      dup2\n      0x00\n      dup3\n      add\n      sload\n      dup2\n      mstore\n      0x20\n      add\n      0x01\n      dup3\n      add\n      sload\n      dup2\n      mstore\n      pop\n      pop\n      swap1\n      pop\n        /* \"contracts/importantContracts/SimpleWallet2.sol\":466:641  function showThisDepositDetails(address _from, uint _depositNum) public view returns(Transaction memory){... */\n      swap3\n      swap2\n      pop\n      pop\n      jump\t// out\n        /* \"contracts/importantContracts/SimpleWallet2.sol\":647:833  function showThisWithdrawalDetails(address _from, uint _withdrawalNum) public view returns(Transaction memory){... */\n    tag_22:\n        /* \"contracts/importantContracts/SimpleWallet2.sol\":738:756  Transaction memory */\n      tag_44\n      tag_42\n      jump\t// in\n    tag_44:\n        /* \"contracts/importantContracts/SimpleWallet2.sol\":775:790  balanceRecieved */\n      0x00\n        /* \"contracts/importantContracts/SimpleWallet2.sol\":775:797  balanceRecieved[_from] */\n      dup1\n        /* \"contracts/importantContracts/SimpleWallet2.sol\":791:796  _from */\n      dup5\n        /* \"contracts/importantContracts/SimpleWallet2.sol\":775:797  balanceRecieved[_from] */\n      0xffffffffffffffffffffffffffffffffffffffff\n      and\n      0xffffffffffffffffffffffffffffffffffffffff\n      and\n      dup2\n      mstore\n      0x20\n      add\n      swap1\n      dup2\n      mstore\n      0x20\n      add\n      0x00\n      keccak256\n        /* \"contracts/importantContracts/SimpleWallet2.sol\":775:809  balanceRecieved[_from].withdrawals */\n      0x04\n      add\n        /* \"contracts/importantContracts/SimpleWallet2.sol\":775:825  balanceRecieved[_from].withdrawals[_withdrawalNum] */\n      0x00\n        /* \"contracts/importantContracts/SimpleWallet2.sol\":810:824  _withdrawalNum */\n      dup4\n        /* \"contracts/importantContracts/SimpleWallet2.sol\":775:825  balanceRecieved[_from].withdrawals[_withdrawalNum] */\n      dup2\n      mstore\n      0x20\n      add\n      swap1\n      dup2\n      mstore\n      0x20\n      add\n      0x00\n      keccak256\n        /* \"contracts/importantContracts/SimpleWallet2.sol\":768:825  return balanceRecieved[_from].withdrawals[_withdrawalNum] */\n      mload(0x40)\n      dup1\n      0x40\n      add\n      0x40\n      mstore\n      swap1\n      dup2\n      0x00\n      dup3\n      add\n      sload\n      dup2\n      mstore\n      0x20\n      add\n      0x01\n      dup3\n      add\n      sload\n      dup2\n      mstore\n      pop\n      pop\n      swap1\n      pop\n        /* \"contracts/importantContracts/SimpleWallet2.sol\":647:833  function showThisWithdrawalDetails(address _from, uint _withdrawalNum) public view returns(Transaction memory){... */\n      swap3\n      swap2\n      pop\n      pop\n      jump\t// out\n        /* \"contracts/importantContracts/SimpleWallet2.sol\":394:457  mapping(address => BalanceDetailsStruct) public balanceRecieved */\n    tag_28:\n      mstore(0x20, 0x00)\n      dup1\n      0x00\n      mstore\n      keccak256(0x00, 0x40)\n      0x00\n      swap2\n      pop\n      swap1\n      pop\n      dup1\n      0x00\n      add\n      sload\n      swap1\n      dup1\n      0x01\n      add\n      sload\n      swap1\n      dup1\n      0x03\n      add\n      sload\n      swap1\n      pop\n      dup4\n      jump\t// out\n        /* \"contracts/importantContracts/SimpleWallet2.sol\":896:1291  function depositeMoneyToSmartContract() public payable{... */\n    tag_32:\n        /* \"contracts/importantContracts/SimpleWallet2.sol\":963:1005  Transaction memory thisTransactionDeposite */\n      0x00\n        /* \"contracts/importantContracts/SimpleWallet2.sol\":1008:1046  Transaction(msg.value,block.timestamp) */\n      mload(0x40)\n      dup1\n      0x40\n      add\n      0x40\n      mstore\n      dup1\n        /* \"contracts/importantContracts/SimpleWallet2.sol\":1020:1029  msg.value */\n      callvalue\n        /* \"contracts/importantContracts/SimpleWallet2.sol\":1008:1046  Transaction(msg.value,block.timestamp) */\n      dup2\n      mstore\n      0x20\n      add\n        /* \"contracts/importantContracts/SimpleWallet2.sol\":1030:1045  block.timestamp */\n      timestamp\n        /* \"contracts/importantContracts/SimpleWallet2.sol\":1008:1046  Transaction(msg.value,block.timestamp) */\n      dup2\n      mstore\n      pop\n        /* \"contracts/importantContracts/SimpleWallet2.sol\":963:1046  Transaction memory thisTransactionDeposite = Transaction(msg.value,block.timestamp) */\n      swap1\n      pop\n        /* \"contracts/importantContracts/SimpleWallet2.sol\":1103:1112  msg.value */\n      callvalue\n        /* \"contracts/importantContracts/SimpleWallet2.sol\":1059:1074  balanceRecieved */\n      0x00\n        /* \"contracts/importantContracts/SimpleWallet2.sol\":1059:1086  balanceRecieved[msg.sender] */\n      dup1\n        /* \"contracts/importantContracts/SimpleWallet2.sol\":1075:1085  msg.sender */\n      caller\n        /* \"contracts/importantContracts/SimpleWallet2.sol\":1059:1086  balanceRecieved[msg.sender] */\n      0xffffffffffffffffffffffffffffffffffffffff\n      and\n      0xffffffffffffffffffffffffffffffffffffffff\n      and\n      dup2\n      mstore\n      0x20\n      add\n      swap1\n      dup2\n      mstore\n      0x20\n      add\n      0x00\n      keccak256\n        /* \"contracts/importantContracts/SimpleWallet2.sol\":1059:1099  balanceRecieved[msg.sender].totalBalance */\n      0x00\n      add\n      0x00\n        /* \"contracts/importantContracts/SimpleWallet2.sol\":1059:1112  balanceRecieved[msg.sender].totalBalance += msg.value */\n      dup3\n      dup3\n      sload\n      tag_47\n      swap2\n      swap1\n      tag_48\n      jump\t// in\n    tag_47:\n      swap3\n      pop\n      pop\n      dup2\n      swap1\n      sstore\n      pop\n        /* \"contracts/importantContracts/SimpleWallet2.sol\":1123:1138  balanceRecieved */\n      0x00\n        /* \"contracts/importantContracts/SimpleWallet2.sol\":1123:1150  balanceRecieved[msg.sender] */\n      dup1\n        /* \"contracts/importantContracts/SimpleWallet2.sol\":1139:1149  msg.sender */\n      caller\n        /* \"contracts/importantContracts/SimpleWallet2.sol\":1123:1150  balanceRecieved[msg.sender] */\n      0xffffffffffffffffffffffffffffffffffffffff\n      and\n      0xffffffffffffffffffffffffffffffffffffffff\n      and\n      dup2\n      mstore\n      0x20\n      add\n      swap1\n      dup2\n      mstore\n      0x20\n      add\n      0x00\n      keccak256\n        /* \"contracts/importantContracts/SimpleWallet2.sol\":1123:1164  balanceRecieved[msg.sender].numsDeposites */\n      0x01\n      add\n      0x00\n        /* \"contracts/importantContracts/SimpleWallet2.sol\":1123:1166  balanceRecieved[msg.sender].numsDeposites++ */\n      dup2\n      sload\n      dup1\n      swap3\n      swap2\n      swap1\n      tag_49\n      swap1\n      tag_36\n      jump\t// in\n    tag_49:\n      swap2\n      swap1\n      pop\n      sstore\n      pop\n        /* \"contracts/importantContracts/SimpleWallet2.sol\":1258:1281  thisTransactionDeposite */\n      dup1\n        /* \"contracts/importantContracts/SimpleWallet2.sol\":1177:1192  balanceRecieved */\n      0x00\n        /* \"contracts/importantContracts/SimpleWallet2.sol\":1177:1204  balanceRecieved[msg.sender] */\n      dup1\n        /* \"contracts/importantContracts/SimpleWallet2.sol\":1193:1203  msg.sender */\n      caller\n        /* \"contracts/importantContracts/SimpleWallet2.sol\":1177:1204  balanceRecieved[msg.sender] */\n      0xffffffffffffffffffffffffffffffffffffffff\n      and\n      0xffffffffffffffffffffffffffffffffffffffff\n      and\n      dup2\n      mstore\n      0x20\n      add\n      swap1\n      dup2\n      mstore\n      0x20\n      add\n      0x00\n      keccak256\n        /* \"contracts/importantContracts/SimpleWallet2.sol\":1177:1214  balanceRecieved[msg.sender].deposites */\n      0x02\n      add\n        /* \"contracts/importantContracts/SimpleWallet2.sol\":1177:1257  balanceRecieved[msg.sender].deposites[balanceRecieved[msg.sender].numsDeposites] */\n      0x00\n        /* \"contracts/importantContracts/SimpleWallet2.sol\":1215:1230  balanceRecieved */\n      dup1\n        /* \"contracts/importantContracts/SimpleWallet2.sol\":1215:1242  balanceRecieved[msg.sender] */\n      0x00\n        /* \"contracts/importantContracts/SimpleWallet2.sol\":1231:1241  msg.sender */\n      caller\n        /* \"contracts/importantContracts/SimpleWallet2.sol\":1215:1242  balanceRecieved[msg.sender] */\n      0xffffffffffffffffffffffffffffffffffffffff\n      and\n      0xffffffffffffffffffffffffffffffffffffffff\n      and\n      dup2\n      mstore\n      0x20\n      add\n      swap1\n      dup2\n      mstore\n      0x20\n      add\n      0x00\n      keccak256\n        /* \"contracts/importantContracts/SimpleWallet2.sol\":1215:1256  balanceRecieved[msg.sender].numsDeposites */\n      0x01\n      add\n      sload\n        /* \"contracts/importantContracts/SimpleWallet2.sol\":1177:1257  balanceRecieved[msg.sender].deposites[balanceRecieved[msg.sender].numsDeposites] */\n      dup2\n      mstore\n      0x20\n      add\n      swap1\n      dup2\n      mstore\n      0x20\n      add\n      0x00\n      keccak256\n        /* \"contracts/importantContracts/SimpleWallet2.sol\":1177:1281  balanceRecieved[msg.sender].deposites[balanceRecieved[msg.sender].numsDeposites]=thisTransactionDeposite */\n      0x00\n      dup3\n      add\n      mload\n      dup2\n      0x00\n      add\n      sstore\n      0x20\n      dup3\n      add\n      mload\n      dup2\n      0x01\n      add\n      sstore\n      swap1\n      pop\n      pop\n        /* \"contracts/importantContracts/SimpleWallet2.sol\":950:1291  {... */\n      pop\n        /* \"contracts/importantContracts/SimpleWallet2.sol\":896:1291  function depositeMoneyToSmartContract() public payable{... */\n      jump\t// out\n    tag_42:\n      mload(0x40)\n      dup1\n      0x40\n      add\n      0x40\n      mstore\n      dup1\n      0x00\n      dup2\n      mstore\n      0x20\n      add\n      0x00\n      dup2\n      mstore\n      pop\n      swap1\n      jump\t// out\n        /* \"#utility.yul\":88:205   */\n    tag_51:\n        /* \"#utility.yul\":197:198   */\n      0x00\n        /* \"#utility.yul\":194:195   */\n      dup1\n        /* \"#utility.yul\":187:199   */\n      revert\n        /* \"#utility.yul\":334:460   */\n    tag_53:\n        /* \"#utility.yul\":371:378   */\n      0x00\n        /* \"#utility.yul\":411:453   */\n      0xffffffffffffffffffffffffffffffffffffffff\n        /* \"#utility.yul\":404:409   */\n      dup3\n        /* \"#utility.yul\":400:454   */\n      and\n        /* \"#utility.yul\":389:454   */\n      swap1\n      pop\n        /* \"#utility.yul\":334:460   */\n      swap2\n      swap1\n      pop\n      jump\t// out\n        /* \"#utility.yul\":466:570   */\n    tag_54:\n        /* \"#utility.yul\":511:518   */\n      0x00\n        /* \"#utility.yul\":540:564   */\n      tag_73\n        /* \"#utility.yul\":558:563   */\n      dup3\n        /* \"#utility.yul\":540:564   */\n      tag_53\n      jump\t// in\n    tag_73:\n        /* \"#utility.yul\":529:564   */\n      swap1\n      pop\n        /* \"#utility.yul\":466:570   */\n      swap2\n      swap1\n      pop\n      jump\t// out\n        /* \"#utility.yul\":576:714   */\n    tag_55:\n        /* \"#utility.yul\":657:689   */\n      tag_75\n        /* \"#utility.yul\":683:688   */\n      dup2\n        /* \"#utility.yul\":657:689   */\n      tag_54\n      jump\t// in\n    tag_75:\n        /* \"#utility.yul\":650:655   */\n      dup2\n        /* \"#utility.yul\":647:690   */\n      eq\n        /* \"#utility.yul\":637:708   */\n      tag_76\n      jumpi\n        /* \"#utility.yul\":704:705   */\n      0x00\n        /* \"#utility.yul\":701:702   */\n      dup1\n        /* \"#utility.yul\":694:706   */\n      revert\n        /* \"#utility.yul\":637:708   */\n    tag_76:\n        /* \"#utility.yul\":576:714   */\n      pop\n      jump\t// out\n        /* \"#utility.yul\":720:875   */\n    tag_56:\n        /* \"#utility.yul\":774:779   */\n      0x00\n        /* \"#utility.yul\":812:818   */\n      dup2\n        /* \"#utility.yul\":799:819   */\n      calldataload\n        /* \"#utility.yul\":790:819   */\n      swap1\n      pop\n        /* \"#utility.yul\":828:869   */\n      tag_78\n        /* \"#utility.yul\":863:868   */\n      dup2\n        /* \"#utility.yul\":828:869   */\n      tag_55\n      jump\t// in\n    tag_78:\n        /* \"#utility.yul\":720:875   */\n      swap3\n      swap2\n      pop\n      pop\n      jump\t// out\n        /* \"#utility.yul\":881:958   */\n    tag_57:\n        /* \"#utility.yul\":918:925   */\n      0x00\n        /* \"#utility.yul\":947:952   */\n      dup2\n        /* \"#utility.yul\":936:952   */\n      swap1\n      pop\n        /* \"#utility.yul\":881:958   */\n      swap2\n      swap1\n      pop\n      jump\t// out\n        /* \"#utility.yul\":964:1086   */\n    tag_58:\n        /* \"#utility.yul\":1037:1061   */\n      tag_81\n        /* \"#utility.yul\":1055:1060   */\n      dup2\n        /* \"#utility.yul\":1037:1061   */\n      tag_57\n      jump\t// in\n    tag_81:\n        /* \"#utility.yul\":1030:1035   */\n      dup2\n        /* \"#utility.yul\":1027:1062   */\n      eq\n        /* \"#utility.yul\":1017:1080   */\n      tag_82\n      jumpi\n        /* \"#utility.yul\":1076:1077   */\n      0x00\n        /* \"#utility.yul\":1073:1074   */\n      dup1\n        /* \"#utility.yul\":1066:1078   */\n      revert\n        /* \"#utility.yul\":1017:1080   */\n    tag_82:\n        /* \"#utility.yul\":964:1086   */\n      pop\n      jump\t// out\n        /* \"#utility.yul\":1092:1231   */\n    tag_59:\n        /* \"#utility.yul\":1138:1143   */\n      0x00\n        /* \"#utility.yul\":1176:1182   */\n      dup2\n        /* \"#utility.yul\":1163:1183   */\n      calldataload\n        /* \"#utility.yul\":1154:1183   */\n      swap1\n      pop\n        /* \"#utility.yul\":1192:1225   */\n      tag_84\n        /* \"#utility.yul\":1219:1224   */\n      dup2\n        /* \"#utility.yul\":1192:1225   */\n      tag_58\n      jump\t// in\n    tag_84:\n        /* \"#utility.yul\":1092:1231   */\n      swap3\n      swap2\n      pop\n      pop\n      jump\t// out\n        /* \"#utility.yul\":1237:1727   */\n    tag_10:\n        /* \"#utility.yul\":1313:1319   */\n      0x00\n        /* \"#utility.yul\":1321:1327   */\n      dup1\n        /* \"#utility.yul\":1370:1372   */\n      0x40\n        /* \"#utility.yul\":1358:1367   */\n      dup4\n        /* \"#utility.yul\":1349:1356   */\n      dup6\n        /* \"#utility.yul\":1345:1368   */\n      sub\n        /* \"#utility.yul\":1341:1373   */\n      slt\n        /* \"#utility.yul\":1338:1457   */\n      iszero\n      tag_86\n      jumpi\n        /* \"#utility.yul\":1376:1455   */\n      tag_87\n      tag_51\n      jump\t// in\n    tag_87:\n        /* \"#utility.yul\":1338:1457   */\n    tag_86:\n        /* \"#utility.yul\":1496:1497   */\n      0x00\n        /* \"#utility.yul\":1521:1582   */\n      tag_88\n        /* \"#utility.yul\":1574:1581   */\n      dup6\n        /* \"#utility.yul\":1565:1571   */\n      dup3\n        /* \"#utility.yul\":1554:1563   */\n      dup7\n        /* \"#utility.yul\":1550:1572   */\n      add\n        /* \"#utility.yul\":1521:1582   */\n      tag_56\n      jump\t// in\n    tag_88:\n        /* \"#utility.yul\":1511:1582   */\n      swap3\n      pop\n        /* \"#utility.yul\":1467:1592   */\n      pop\n        /* \"#utility.yul\":1631:1633   */\n      0x20\n        /* \"#utility.yul\":1657:1710   */\n      tag_89\n        /* \"#utility.yul\":1702:1709   */\n      dup6\n        /* \"#utility.yul\":1693:1699   */\n      dup3\n        /* \"#utility.yul\":1682:1691   */\n      dup7\n        /* \"#utility.yul\":1678:1700   */\n      add\n        /* \"#utility.yul\":1657:1710   */\n      tag_59\n      jump\t// in\n    tag_89:\n        /* \"#utility.yul\":1647:1710   */\n      swap2\n      pop\n        /* \"#utility.yul\":1602:1720   */\n      pop\n        /* \"#utility.yul\":1237:1727   */\n      swap3\n      pop\n      swap3\n      swap1\n      pop\n      jump\t// out\n        /* \"#utility.yul\":1733:1829   */\n    tag_60:\n        /* \"#utility.yul\":1770:1777   */\n      0x00\n        /* \"#utility.yul\":1799:1823   */\n      tag_91\n        /* \"#utility.yul\":1817:1822   */\n      dup3\n        /* \"#utility.yul\":1799:1823   */\n      tag_53\n      jump\t// in\n    tag_91:\n        /* \"#utility.yul\":1788:1823   */\n      swap1\n      pop\n        /* \"#utility.yul\":1733:1829   */\n      swap2\n      swap1\n      pop\n      jump\t// out\n        /* \"#utility.yul\":1835:1957   */\n    tag_61:\n        /* \"#utility.yul\":1908:1932   */\n      tag_93\n        /* \"#utility.yul\":1926:1931   */\n      dup2\n        /* \"#utility.yul\":1908:1932   */\n      tag_60\n      jump\t// in\n    tag_93:\n        /* \"#utility.yul\":1901:1906   */\n      dup2\n        /* \"#utility.yul\":1898:1933   */\n      eq\n        /* \"#utility.yul\":1888:1951   */\n      tag_94\n      jumpi\n        /* \"#utility.yul\":1947:1948   */\n      0x00\n        /* \"#utility.yul\":1944:1945   */\n      dup1\n        /* \"#utility.yul\":1937:1949   */\n      revert\n        /* \"#utility.yul\":1888:1951   */\n    tag_94:\n        /* \"#utility.yul\":1835:1957   */\n      pop\n      jump\t// out\n        /* \"#utility.yul\":1963:2102   */\n    tag_62:\n        /* \"#utility.yul\":2009:2014   */\n      0x00\n        /* \"#utility.yul\":2047:2053   */\n      dup2\n        /* \"#utility.yul\":2034:2054   */\n      calldataload\n        /* \"#utility.yul\":2025:2054   */\n      swap1\n      pop\n        /* \"#utility.yul\":2063:2096   */\n      tag_96\n        /* \"#utility.yul\":2090:2095   */\n      dup2\n        /* \"#utility.yul\":2063:2096   */\n      tag_61\n      jump\t// in\n    tag_96:\n        /* \"#utility.yul\":1963:2102   */\n      swap3\n      swap2\n      pop\n      pop\n      jump\t// out\n        /* \"#utility.yul\":2108:2582   */\n    tag_15:\n        /* \"#utility.yul\":2176:2182   */\n      0x00\n        /* \"#utility.yul\":2184:2190   */\n      dup1\n        /* \"#utility.yul\":2233:2235   */\n      0x40\n        /* \"#utility.yul\":2221:2230   */\n      dup4\n        /* \"#utility.yul\":2212:2219   */\n      dup6\n        /* \"#utility.yul\":2208:2231   */\n      sub\n        /* \"#utility.yul\":2204:2236   */\n      slt\n        /* \"#utility.yul\":2201:2320   */\n      iszero\n      tag_98\n      jumpi\n        /* \"#utility.yul\":2239:2318   */\n      tag_99\n      tag_51\n      jump\t// in\n    tag_99:\n        /* \"#utility.yul\":2201:2320   */\n    tag_98:\n        /* \"#utility.yul\":2359:2360   */\n      0x00\n        /* \"#utility.yul\":2384:2437   */\n      tag_100\n        /* \"#utility.yul\":2429:2436   */\n      dup6\n        /* \"#utility.yul\":2420:2426   */\n      dup3\n        /* \"#utility.yul\":2409:2418   */\n      dup7\n        /* \"#utility.yul\":2405:2427   */\n      add\n        /* \"#utility.yul\":2384:2437   */\n      tag_62\n      jump\t// in\n    tag_100:\n        /* \"#utility.yul\":2374:2437   */\n      swap3\n      pop\n        /* \"#utility.yul\":2330:2447   */\n      pop\n        /* \"#utility.yul\":2486:2488   */\n      0x20\n        /* \"#utility.yul\":2512:2565   */\n      tag_101\n        /* \"#utility.yul\":2557:2564   */\n      dup6\n        /* \"#utility.yul\":2548:2554   */\n      dup3\n        /* \"#utility.yul\":2537:2546   */\n      dup7\n        /* \"#utility.yul\":2533:2555   */\n      add\n        /* \"#utility.yul\":2512:2565   */\n      tag_59\n      jump\t// in\n    tag_101:\n        /* \"#utility.yul\":2502:2565   */\n      swap2\n      pop\n        /* \"#utility.yul\":2457:2575   */\n      pop\n        /* \"#utility.yul\":2108:2582   */\n      swap3\n      pop\n      swap3\n      swap1\n      pop\n      jump\t// out\n        /* \"#utility.yul\":2588:2696   */\n    tag_63:\n        /* \"#utility.yul\":2665:2689   */\n      tag_103\n        /* \"#utility.yul\":2683:2688   */\n      dup2\n        /* \"#utility.yul\":2665:2689   */\n      tag_57\n      jump\t// in\n    tag_103:\n        /* \"#utility.yul\":2660:2663   */\n      dup3\n        /* \"#utility.yul\":2653:2690   */\n      mstore\n        /* \"#utility.yul\":2588:2696   */\n      pop\n      pop\n      jump\t// out\n        /* \"#utility.yul\":2778:3294   */\n    tag_64:\n        /* \"#utility.yul\":2927:2931   */\n      0x40\n        /* \"#utility.yul\":2922:2925   */\n      dup3\n        /* \"#utility.yul\":2918:2932   */\n      add\n        /* \"#utility.yul\":3016:3020   */\n      0x00\n        /* \"#utility.yul\":3009:3014   */\n      dup3\n        /* \"#utility.yul\":3005:3021   */\n      add\n        /* \"#utility.yul\":2999:3022   */\n      mload\n        /* \"#utility.yul\":3035:3098   */\n      tag_105\n        /* \"#utility.yul\":3092:3096   */\n      0x00\n        /* \"#utility.yul\":3087:3090   */\n      dup6\n        /* \"#utility.yul\":3083:3097   */\n      add\n        /* \"#utility.yul\":3069:3081   */\n      dup3\n        /* \"#utility.yul\":3035:3098   */\n      tag_63\n      jump\t// in\n    tag_105:\n        /* \"#utility.yul\":2942:3108   */\n      pop\n        /* \"#utility.yul\":3195:3199   */\n      0x20\n        /* \"#utility.yul\":3188:3193   */\n      dup3\n        /* \"#utility.yul\":3184:3200   */\n      add\n        /* \"#utility.yul\":3178:3201   */\n      mload\n        /* \"#utility.yul\":3214:3277   */\n      tag_106\n        /* \"#utility.yul\":3271:3275   */\n      0x20\n        /* \"#utility.yul\":3266:3269   */\n      dup6\n        /* \"#utility.yul\":3262:3276   */\n      add\n        /* \"#utility.yul\":3248:3260   */\n      dup3\n        /* \"#utility.yul\":3214:3277   */\n      tag_63\n      jump\t// in\n    tag_106:\n        /* \"#utility.yul\":3118:3287   */\n      pop\n        /* \"#utility.yul\":2896:3294   */\n      pop\n        /* \"#utility.yul\":2778:3294   */\n      pop\n      pop\n      jump\t// out\n        /* \"#utility.yul\":3300:3626   */\n    tag_18:\n        /* \"#utility.yul\":3445:3449   */\n      0x00\n        /* \"#utility.yul\":3483:3485   */\n      0x40\n        /* \"#utility.yul\":3472:3481   */\n      dup3\n        /* \"#utility.yul\":3468:3486   */\n      add\n        /* \"#utility.yul\":3460:3486   */\n      swap1\n      pop\n        /* \"#utility.yul\":3496:3619   */\n      tag_108\n        /* \"#utility.yul\":3616:3617   */\n      0x00\n        /* \"#utility.yul\":3605:3614   */\n      dup4\n        /* \"#utility.yul\":3601:3618   */\n      add\n        /* \"#utility.yul\":3592:3598   */\n      dup5\n        /* \"#utility.yul\":3496:3619   */\n      tag_64\n      jump\t// in\n    tag_108:\n        /* \"#utility.yul\":3300:3626   */\n      swap3\n      swap2\n      pop\n      pop\n      jump\t// out\n        /* \"#utility.yul\":3632:3961   */\n    tag_27:\n        /* \"#utility.yul\":3691:3697   */\n      0x00\n        /* \"#utility.yul\":3740:3742   */\n      0x20\n        /* \"#utility.yul\":3728:3737   */\n      dup3\n        /* \"#utility.yul\":3719:3726   */\n      dup5\n        /* \"#utility.yul\":3715:3738   */\n      sub\n        /* \"#utility.yul\":3711:3743   */\n      slt\n        /* \"#utility.yul\":3708:3827   */\n      iszero\n      tag_110\n      jumpi\n        /* \"#utility.yul\":3746:3825   */\n      tag_111\n      tag_51\n      jump\t// in\n    tag_111:\n        /* \"#utility.yul\":3708:3827   */\n    tag_110:\n        /* \"#utility.yul\":3866:3867   */\n      0x00\n        /* \"#utility.yul\":3891:3944   */\n      tag_112\n        /* \"#utility.yul\":3936:3943   */\n      dup5\n        /* \"#utility.yul\":3927:3933   */\n      dup3\n        /* \"#utility.yul\":3916:3925   */\n      dup6\n        /* \"#utility.yul\":3912:3934   */\n      add\n        /* \"#utility.yul\":3891:3944   */\n      tag_62\n      jump\t// in\n    tag_112:\n        /* \"#utility.yul\":3881:3944   */\n      swap2\n      pop\n        /* \"#utility.yul\":3837:3954   */\n      pop\n        /* \"#utility.yul\":3632:3961   */\n      swap3\n      swap2\n      pop\n      pop\n      jump\t// out\n        /* \"#utility.yul\":3967:4085   */\n    tag_65:\n        /* \"#utility.yul\":4054:4078   */\n      tag_114\n        /* \"#utility.yul\":4072:4077   */\n      dup2\n        /* \"#utility.yul\":4054:4078   */\n      tag_57\n      jump\t// in\n    tag_114:\n        /* \"#utility.yul\":4049:4052   */\n      dup3\n        /* \"#utility.yul\":4042:4079   */\n      mstore\n        /* \"#utility.yul\":3967:4085   */\n      pop\n      pop\n      jump\t// out\n        /* \"#utility.yul\":4091:4533   */\n    tag_30:\n        /* \"#utility.yul\":4240:4244   */\n      0x00\n        /* \"#utility.yul\":4278:4280   */\n      0x60\n        /* \"#utility.yul\":4267:4276   */\n      dup3\n        /* \"#utility.yul\":4263:4281   */\n      add\n        /* \"#utility.yul\":4255:4281   */\n      swap1\n      pop\n        /* \"#utility.yul\":4291:4362   */\n      tag_116\n        /* \"#utility.yul\":4359:4360   */\n      0x00\n        /* \"#utility.yul\":4348:4357   */\n      dup4\n        /* \"#utility.yul\":4344:4361   */\n      add\n        /* \"#utility.yul\":4335:4341   */\n      dup7\n        /* \"#utility.yul\":4291:4362   */\n      tag_65\n      jump\t// in\n    tag_116:\n        /* \"#utility.yul\":4372:4444   */\n      tag_117\n        /* \"#utility.yul\":4440:4442   */\n      0x20\n        /* \"#utility.yul\":4429:4438   */\n      dup4\n        /* \"#utility.yul\":4425:4443   */\n      add\n        /* \"#utility.yul\":4416:4422   */\n      dup6\n        /* \"#utility.yul\":4372:4444   */\n      tag_65\n      jump\t// in\n    tag_117:\n        /* \"#utility.yul\":4454:4526   */\n      tag_118\n        /* \"#utility.yul\":4522:4524   */\n      0x40\n        /* \"#utility.yul\":4511:4520   */\n      dup4\n        /* \"#utility.yul\":4507:4525   */\n      add\n        /* \"#utility.yul\":4498:4504   */\n      dup5\n        /* \"#utility.yul\":4454:4526   */\n      tag_65\n      jump\t// in\n    tag_118:\n        /* \"#utility.yul\":4091:4533   */\n      swap5\n      swap4\n      pop\n      pop\n      pop\n      pop\n      jump\t// out\n        /* \"#utility.yul\":4539:4719   */\n    tag_66:\n        /* \"#utility.yul\":4587:4664   */\n      0x4e487b7100000000000000000000000000000000000000000000000000000000\n        /* \"#utility.yul\":4584:4585   */\n      0x00\n        /* \"#utility.yul\":4577:4665   */\n      mstore\n        /* \"#utility.yul\":4684:4688   */\n      0x11\n        /* \"#utility.yul\":4681:4682   */\n      0x04\n        /* \"#utility.yul\":4674:4689   */\n      mstore\n        /* \"#utility.yul\":4708:4712   */\n      0x24\n        /* \"#utility.yul\":4705:4706   */\n      0x00\n        /* \"#utility.yul\":4698:4713   */\n      revert\n        /* \"#utility.yul\":4725:4958   */\n    tag_36:\n        /* \"#utility.yul\":4764:4767   */\n      0x00\n        /* \"#utility.yul\":4787:4811   */\n      tag_121\n        /* \"#utility.yul\":4805:4810   */\n      dup3\n        /* \"#utility.yul\":4787:4811   */\n      tag_57\n      jump\t// in\n    tag_121:\n        /* \"#utility.yul\":4778:4811   */\n      swap2\n      pop\n        /* \"#utility.yul\":4833:4899   */\n      0xffffffffffffffffffffffffffffffffffffffffffffffffffffffffffffffff\n        /* \"#utility.yul\":4826:4831   */\n      dup3\n        /* \"#utility.yul\":4823:4900   */\n      sub\n        /* \"#utility.yul\":4820:4923   */\n      tag_122\n      jumpi\n        /* \"#utility.yul\":4903:4921   */\n      tag_123\n      tag_66\n      jump\t// in\n    tag_123:\n        /* \"#utility.yul\":4820:4923   */\n    tag_122:\n        /* \"#utility.yul\":4950:4951   */\n      0x01\n        /* \"#utility.yul\":4943:4948   */\n      dup3\n        /* \"#utility.yul\":4939:4952   */\n      add\n        /* \"#utility.yul\":4932:4952   */\n      swap1\n      pop\n        /* \"#utility.yul\":4725:4958   */\n      swap2\n      swap1\n      pop\n      jump\t// out\n        /* \"#utility.yul\":4964:5155   */\n    tag_38:\n        /* \"#utility.yul\":5004:5008   */\n      0x00\n        /* \"#utility.yul\":5024:5044   */\n      tag_125\n        /* \"#utility.yul\":5042:5043   */\n      dup3\n        /* \"#utility.yul\":5024:5044   */\n      tag_57\n      jump\t// in\n    tag_125:\n        /* \"#utility.yul\":5019:5044   */\n      swap2\n      pop\n        /* \"#utility.yul\":5058:5078   */\n      tag_126\n        /* \"#utility.yul\":5076:5077   */\n      dup4\n        /* \"#utility.yul\":5058:5078   */\n      tag_57\n      jump\t// in\n    tag_126:\n        /* \"#utility.yul\":5053:5078   */\n      swap3\n      pop\n        /* \"#utility.yul\":5097:5098   */\n      dup3\n        /* \"#utility.yul\":5094:5095   */\n      dup3\n        /* \"#utility.yul\":5091:5099   */\n      lt\n        /* \"#utility.yul\":5088:5122   */\n      iszero\n      tag_127\n      jumpi\n        /* \"#utility.yul\":5102:5120   */\n      tag_128\n      tag_66\n      jump\t// in\n    tag_128:\n        /* \"#utility.yul\":5088:5122   */\n    tag_127:\n        /* \"#utility.yul\":5147:5148   */\n      dup3\n        /* \"#utility.yul\":5144:5145   */\n      dup3\n        /* \"#utility.yul\":5140:5149   */\n      sub\n        /* \"#utility.yul\":5132:5149   */\n      swap1\n      pop\n        /* \"#utility.yul\":4964:5155   */\n      swap3\n      swap2\n      pop\n      pop\n      jump\t// out\n        /* \"#utility.yul\":5161:5466   */\n    tag_48:\n        /* \"#utility.yul\":5201:5204   */\n      0x00\n        /* \"#utility.yul\":5220:5240   */\n      tag_130\n        /* \"#utility.yul\":5238:5239   */\n      dup3\n        /* \"#utility.yul\":5220:5240   */\n      tag_57\n      jump\t// in\n    tag_130:\n        /* \"#utility.yul\":5215:5240   */\n      swap2\n      pop\n        /* \"#utility.yul\":5254:5274   */\n      tag_131\n        /* \"#utility.yul\":5272:5273   */\n      dup4\n        /* \"#utility.yul\":5254:5274   */\n      tag_57\n      jump\t// in\n    tag_131:\n        /* \"#utility.yul\":5249:5274   */\n      swap3\n      pop\n        /* \"#utility.yul\":5408:5409   */\n      dup3\n        /* \"#utility.yul\":5340:5406   */\n      0xffffffffffffffffffffffffffffffffffffffffffffffffffffffffffffffff\n        /* \"#utility.yul\":5336:5410   */\n      sub\n        /* \"#utility.yul\":5333:5334   */\n      dup3\n        /* \"#utility.yul\":5330:5411   */\n      gt\n        /* \"#utility.yul\":5327:5434   */\n      iszero\n      tag_132\n      jumpi\n        /* \"#utility.yul\":5414:5432   */\n      tag_133\n      tag_66\n      jump\t// in\n    tag_133:\n        /* \"#utility.yul\":5327:5434   */\n    tag_132:\n        /* \"#utility.yul\":5458:5459   */\n      dup3\n        /* \"#utility.yul\":5455:5456   */\n      dup3\n        /* \"#utility.yul\":5451:5460   */\n      add\n        /* \"#utility.yul\":5444:5460   */\n      swap1\n      pop\n        /* \"#utility.yul\":5161:5466   */\n      swap3\n      swap2\n      pop\n      pop\n      jump\t// out\n\n    auxdata: 0xa2646970667358221220056056ea29442330629e76108ffc2e12a6f73c671e23cdb083d4eb348926f7c064736f6c634300080f0033\n}\n",
				"bytecode": {
					"linkReferences": {},
					"object": "608060405234801561001057600080fd5b50610959806100206000396000f3fe60806040526004361061004a5760003560e01c806350bd62531461004f578063715efeb7146100785780639359e359146100b5578063d8d4f50d146100f2578063f429bcb614610131575b600080fd5b34801561005b57600080fd5b5061007660048036038101906100719190610698565b61013b565b005b34801561008457600080fd5b5061009f600480360381019061009a9190610716565b610343565b6040516100ac9190610794565b60405180910390f35b3480156100c157600080fd5b506100dc60048036038101906100d79190610716565b6103c4565b6040516100e99190610794565b60405180910390f35b3480156100fe57600080fd5b50610119600480360381019061011491906107af565b610445565b604051610128939291906107eb565b60405180910390f35b61013961046f565b005b6000803373ffffffffffffffffffffffffffffffffffffffff1673ffffffffffffffffffffffffffffffffffffffff16815260200190815260200160002060000154811161033f57600060405180604001604052808381526020014281525090506000803373ffffffffffffffffffffffffffffffffffffffff1673ffffffffffffffffffffffffffffffffffffffff16815260200190815260200160002060030160008154809291906101ee90610851565b9190505550806000803373ffffffffffffffffffffffffffffffffffffffff1673ffffffffffffffffffffffffffffffffffffffff16815260200190815260200160002060040160008060003373ffffffffffffffffffffffffffffffffffffffff1673ffffffffffffffffffffffffffffffffffffffff1681526020019081526020016000206003015481526020019081526020016000206000820151816000015560208201518160010155905050816000803373ffffffffffffffffffffffffffffffffffffffff1673ffffffffffffffffffffffffffffffffffffffff16815260200190815260200160002060000160008282546102ef9190610899565b925050819055508273ffffffffffffffffffffffffffffffffffffffff166108fc839081150290604051600060405180830381858888f1935050505015801561033c573d6000803e3d6000fd5b50505b5050565b61034b6105e5565b6000808473ffffffffffffffffffffffffffffffffffffffff1673ffffffffffffffffffffffffffffffffffffffff168152602001908152602001600020600201600083815260200190815260200160002060405180604001604052908160008201548152602001600182015481525050905092915050565b6103cc6105e5565b6000808473ffffffffffffffffffffffffffffffffffffffff1673ffffffffffffffffffffffffffffffffffffffff168152602001908152602001600020600401600083815260200190815260200160002060405180604001604052908160008201548152602001600182015481525050905092915050565b60006020528060005260406000206000915090508060000154908060010154908060030154905083565b60006040518060400160405280348152602001428152509050346000803373ffffffffffffffffffffffffffffffffffffffff1673ffffffffffffffffffffffffffffffffffffffff16815260200190815260200160002060000160008282546104d991906108cd565b925050819055506000803373ffffffffffffffffffffffffffffffffffffffff1673ffffffffffffffffffffffffffffffffffffffff168152602001908152602001600020600101600081548092919061053290610851565b9190505550806000803373ffffffffffffffffffffffffffffffffffffffff1673ffffffffffffffffffffffffffffffffffffffff16815260200190815260200160002060020160008060003373ffffffffffffffffffffffffffffffffffffffff1673ffffffffffffffffffffffffffffffffffffffff168152602001908152602001600020600101548152602001908152602001600020600082015181600001556020820151816001015590505050565b604051806040016040528060008152602001600081525090565b600080fd5b600073ffffffffffffffffffffffffffffffffffffffff82169050919050565b600061062f82610604565b9050919050565b61063f81610624565b811461064a57600080fd5b50565b60008135905061065c81610636565b92915050565b6000819050919050565b61067581610662565b811461068057600080fd5b50565b6000813590506106928161066c565b92915050565b600080604083850312156106af576106ae6105ff565b5b60006106bd8582860161064d565b92505060206106ce85828601610683565b9150509250929050565b60006106e382610604565b9050919050565b6106f3816106d8565b81146106fe57600080fd5b50565b600081359050610710816106ea565b92915050565b6000806040838503121561072d5761072c6105ff565b5b600061073b85828601610701565b925050602061074c85828601610683565b9150509250929050565b61075f81610662565b82525050565b60408201600082015161077b6000850182610756565b50602082015161078e6020850182610756565b50505050565b60006040820190506107a96000830184610765565b92915050565b6000602082840312156107c5576107c46105ff565b5b60006107d384828501610701565b91505092915050565b6107e581610662565b82525050565b600060608201905061080060008301866107dc565b61080d60208301856107dc565b61081a60408301846107dc565b949350505050565b7f4e487b7100000000000000000000000000000000000000000000000000000000600052601160045260246000fd5b600061085c82610662565b91507fffffffffffffffffffffffffffffffffffffffffffffffffffffffffffffffff820361088e5761088d610822565b5b600182019050919050565b60006108a482610662565b91506108af83610662565b9250828210156108c2576108c1610822565b5b828203905092915050565b60006108d882610662565b91506108e383610662565b9250827fffffffffffffffffffffffffffffffffffffffffffffffffffffffffffffffff0382111561091857610917610822565b5b82820190509291505056fea2646970667358221220056056ea29442330629e76108ffc2e12a6f73c671e23cdb083d4eb348926f7c064736f6c634300080f0033",
					"opcodes": "PUSH1 0x80 PUSH1 0x40 MSTORE CALLVALUE DUP1 ISZERO PUSH2 0x10 JUMPI PUSH1 0x0 DUP1 REVERT JUMPDEST POP PUSH2 0x959 DUP1 PUSH2 0x20 PUSH1 0x0 CODECOPY PUSH1 0x0 RETURN INVALID PUSH1 0x80 PUSH1 0x40 MSTORE PUSH1 0x4 CALLDATASIZE LT PUSH2 0x4A JUMPI PUSH1 0x0 CALLDATALOAD PUSH1 0xE0 SHR DUP1 PUSH4 0x50BD6253 EQ PUSH2 0x4F JUMPI DUP1 PUSH4 0x715EFEB7 EQ PUSH2 0x78 JUMPI DUP1 PUSH4 0x9359E359 EQ PUSH2 0xB5 JUMPI DUP1 PUSH4 0xD8D4F50D EQ PUSH2 0xF2 JUMPI DUP1 PUSH4 0xF429BCB6 EQ PUSH2 0x131 JUMPI JUMPDEST PUSH1 0x0 DUP1 REVERT JUMPDEST CALLVALUE DUP1 ISZERO PUSH2 0x5B JUMPI PUSH1 0x0 DUP1 REVERT JUMPDEST POP PUSH2 0x76 PUSH1 0x4 DUP1 CALLDATASIZE SUB DUP2 ADD SWAP1 PUSH2 0x71 SWAP2 SWAP1 PUSH2 0x698 JUMP JUMPDEST PUSH2 0x13B JUMP JUMPDEST STOP JUMPDEST CALLVALUE DUP1 ISZERO PUSH2 0x84 JUMPI PUSH1 0x0 DUP1 REVERT JUMPDEST POP PUSH2 0x9F PUSH1 0x4 DUP1 CALLDATASIZE SUB DUP2 ADD SWAP1 PUSH2 0x9A SWAP2 SWAP1 PUSH2 0x716 JUMP JUMPDEST PUSH2 0x343 JUMP JUMPDEST PUSH1 0x40 MLOAD PUSH2 0xAC SWAP2 SWAP1 PUSH2 0x794 JUMP JUMPDEST PUSH1 0x40 MLOAD DUP1 SWAP2 SUB SWAP1 RETURN JUMPDEST CALLVALUE DUP1 ISZERO PUSH2 0xC1 JUMPI PUSH1 0x0 DUP1 REVERT JUMPDEST POP PUSH2 0xDC PUSH1 0x4 DUP1 CALLDATASIZE SUB DUP2 ADD SWAP1 PUSH2 0xD7 SWAP2 SWAP1 PUSH2 0x716 JUMP JUMPDEST PUSH2 0x3C4 JUMP JUMPDEST PUSH1 0x40 MLOAD PUSH2 0xE9 SWAP2 SWAP1 PUSH2 0x794 JUMP JUMPDEST PUSH1 0x40 MLOAD DUP1 SWAP2 SUB SWAP1 RETURN JUMPDEST CALLVALUE DUP1 ISZERO PUSH2 0xFE JUMPI PUSH1 0x0 DUP1 REVERT JUMPDEST POP PUSH2 0x119 PUSH1 0x4 DUP1 CALLDATASIZE SUB DUP2 ADD SWAP1 PUSH2 0x114 SWAP2 SWAP1 PUSH2 0x7AF JUMP JUMPDEST PUSH2 0x445 JUMP JUMPDEST PUSH1 0x40 MLOAD PUSH2 0x128 SWAP4 SWAP3 SWAP2 SWAP1 PUSH2 0x7EB JUMP JUMPDEST PUSH1 0x40 MLOAD DUP1 SWAP2 SUB SWAP1 RETURN JUMPDEST PUSH2 0x139 PUSH2 0x46F JUMP JUMPDEST STOP JUMPDEST PUSH1 0x0 DUP1 CALLER PUSH20 0xFFFFFFFFFFFFFFFFFFFFFFFFFFFFFFFFFFFFFFFF AND PUSH20 0xFFFFFFFFFFFFFFFFFFFFFFFFFFFFFFFFFFFFFFFF AND DUP2 MSTORE PUSH1 0x20 ADD SWAP1 DUP2 MSTORE PUSH1 0x20 ADD PUSH1 0x0 KECCAK256 PUSH1 0x0 ADD SLOAD DUP2 GT PUSH2 0x33F JUMPI PUSH1 0x0 PUSH1 0x40 MLOAD DUP1 PUSH1 0x40 ADD PUSH1 0x40 MSTORE DUP1 DUP4 DUP2 MSTORE PUSH1 0x20 ADD TIMESTAMP DUP2 MSTORE POP SWAP1 POP PUSH1 0x0 DUP1 CALLER PUSH20 0xFFFFFFFFFFFFFFFFFFFFFFFFFFFFFFFFFFFFFFFF AND PUSH20 0xFFFFFFFFFFFFFFFFFFFFFFFFFFFFFFFFFFFFFFFF AND DUP2 MSTORE PUSH1 0x20 ADD SWAP1 DUP2 MSTORE PUSH1 0x20 ADD PUSH1 0x0 KECCAK256 PUSH1 0x3 ADD PUSH1 0x0 DUP2 SLOAD DUP1 SWAP3 SWAP2 SWAP1 PUSH2 0x1EE SWAP1 PUSH2 0x851 JUMP JUMPDEST SWAP2 SWAP1 POP SSTORE POP DUP1 PUSH1 0x0 DUP1 CALLER PUSH20 0xFFFFFFFFFFFFFFFFFFFFFFFFFFFFFFFFFFFFFFFF AND PUSH20 0xFFFFFFFFFFFFFFFFFFFFFFFFFFFFFFFFFFFFFFFF AND DUP2 MSTORE PUSH1 0x20 ADD SWAP1 DUP2 MSTORE PUSH1 0x20 ADD PUSH1 0x0 KECCAK256 PUSH1 0x4 ADD PUSH1 0x0 DUP1 PUSH1 0x0 CALLER PUSH20 0xFFFFFFFFFFFFFFFFFFFFFFFFFFFFFFFFFFFFFFFF AND PUSH20 0xFFFFFFFFFFFFFFFFFFFFFFFFFFFFFFFFFFFFFFFF AND DUP2 MSTORE PUSH1 0x20 ADD SWAP1 DUP2 MSTORE PUSH1 0x20 ADD PUSH1 0x0 KECCAK256 PUSH1 0x3 ADD SLOAD DUP2 MSTORE PUSH1 0x20 ADD SWAP1 DUP2 MSTORE PUSH1 0x20 ADD PUSH1 0x0 KECCAK256 PUSH1 0x0 DUP3 ADD MLOAD DUP2 PUSH1 0x0 ADD SSTORE PUSH1 0x20 DUP3 ADD MLOAD DUP2 PUSH1 0x1 ADD SSTORE SWAP1 POP POP DUP2 PUSH1 0x0 DUP1 CALLER PUSH20 0xFFFFFFFFFFFFFFFFFFFFFFFFFFFFFFFFFFFFFFFF AND PUSH20 0xFFFFFFFFFFFFFFFFFFFFFFFFFFFFFFFFFFFFFFFF AND DUP2 MSTORE PUSH1 0x20 ADD SWAP1 DUP2 MSTORE PUSH1 0x20 ADD PUSH1 0x0 KECCAK256 PUSH1 0x0 ADD PUSH1 0x0 DUP3 DUP3 SLOAD PUSH2 0x2EF SWAP2 SWAP1 PUSH2 0x899 JUMP JUMPDEST SWAP3 POP POP DUP2 SWAP1 SSTORE POP DUP3 PUSH20 0xFFFFFFFFFFFFFFFFFFFFFFFFFFFFFFFFFFFFFFFF AND PUSH2 0x8FC DUP4 SWAP1 DUP2 ISZERO MUL SWAP1 PUSH1 0x40 MLOAD PUSH1 0x0 PUSH1 0x40 MLOAD DUP1 DUP4 SUB DUP2 DUP6 DUP9 DUP9 CALL SWAP4 POP POP POP POP ISZERO DUP1 ISZERO PUSH2 0x33C JUMPI RETURNDATASIZE PUSH1 0x0 DUP1 RETURNDATACOPY RETURNDATASIZE PUSH1 0x0 REVERT JUMPDEST POP POP JUMPDEST POP POP JUMP JUMPDEST PUSH2 0x34B PUSH2 0x5E5 JUMP JUMPDEST PUSH1 0x0 DUP1 DUP5 PUSH20 0xFFFFFFFFFFFFFFFFFFFFFFFFFFFFFFFFFFFFFFFF AND PUSH20 0xFFFFFFFFFFFFFFFFFFFFFFFFFFFFFFFFFFFFFFFF AND DUP2 MSTORE PUSH1 0x20 ADD SWAP1 DUP2 MSTORE PUSH1 0x20 ADD PUSH1 0x0 KECCAK256 PUSH1 0x2 ADD PUSH1 0x0 DUP4 DUP2 MSTORE PUSH1 0x20 ADD SWAP1 DUP2 MSTORE PUSH1 0x20 ADD PUSH1 0x0 KECCAK256 PUSH1 0x40 MLOAD DUP1 PUSH1 0x40 ADD PUSH1 0x40 MSTORE SWAP1 DUP2 PUSH1 0x0 DUP3 ADD SLOAD DUP2 MSTORE PUSH1 0x20 ADD PUSH1 0x1 DUP3 ADD SLOAD DUP2 MSTORE POP POP SWAP1 POP SWAP3 SWAP2 POP POP JUMP JUMPDEST PUSH2 0x3CC PUSH2 0x5E5 JUMP JUMPDEST PUSH1 0x0 DUP1 DUP5 PUSH20 0xFFFFFFFFFFFFFFFFFFFFFFFFFFFFFFFFFFFFFFFF AND PUSH20 0xFFFFFFFFFFFFFFFFFFFFFFFFFFFFFFFFFFFFFFFF AND DUP2 MSTORE PUSH1 0x20 ADD SWAP1 DUP2 MSTORE PUSH1 0x20 ADD PUSH1 0x0 KECCAK256 PUSH1 0x4 ADD PUSH1 0x0 DUP4 DUP2 MSTORE PUSH1 0x20 ADD SWAP1 DUP2 MSTORE PUSH1 0x20 ADD PUSH1 0x0 KECCAK256 PUSH1 0x40 MLOAD DUP1 PUSH1 0x40 ADD PUSH1 0x40 MSTORE SWAP1 DUP2 PUSH1 0x0 DUP3 ADD SLOAD DUP2 MSTORE PUSH1 0x20 ADD PUSH1 0x1 DUP3 ADD SLOAD DUP2 MSTORE POP POP SWAP1 POP SWAP3 SWAP2 POP POP JUMP JUMPDEST PUSH1 0x0 PUSH1 0x20 MSTORE DUP1 PUSH1 0x0 MSTORE PUSH1 0x40 PUSH1 0x0 KECCAK256 PUSH1 0x0 SWAP2 POP SWAP1 POP DUP1 PUSH1 0x0 ADD SLOAD SWAP1 DUP1 PUSH1 0x1 ADD SLOAD SWAP1 DUP1 PUSH1 0x3 ADD SLOAD SWAP1 POP DUP4 JUMP JUMPDEST PUSH1 0x0 PUSH1 0x40 MLOAD DUP1 PUSH1 0x40 ADD PUSH1 0x40 MSTORE DUP1 CALLVALUE DUP2 MSTORE PUSH1 0x20 ADD TIMESTAMP DUP2 MSTORE POP SWAP1 POP CALLVALUE PUSH1 0x0 DUP1 CALLER PUSH20 0xFFFFFFFFFFFFFFFFFFFFFFFFFFFFFFFFFFFFFFFF AND PUSH20 0xFFFFFFFFFFFFFFFFFFFFFFFFFFFFFFFFFFFFFFFF AND DUP2 MSTORE PUSH1 0x20 ADD SWAP1 DUP2 MSTORE PUSH1 0x20 ADD PUSH1 0x0 KECCAK256 PUSH1 0x0 ADD PUSH1 0x0 DUP3 DUP3 SLOAD PUSH2 0x4D9 SWAP2 SWAP1 PUSH2 0x8CD JUMP JUMPDEST SWAP3 POP POP DUP2 SWAP1 SSTORE POP PUSH1 0x0 DUP1 CALLER PUSH20 0xFFFFFFFFFFFFFFFFFFFFFFFFFFFFFFFFFFFFFFFF AND PUSH20 0xFFFFFFFFFFFFFFFFFFFFFFFFFFFFFFFFFFFFFFFF AND DUP2 MSTORE PUSH1 0x20 ADD SWAP1 DUP2 MSTORE PUSH1 0x20 ADD PUSH1 0x0 KECCAK256 PUSH1 0x1 ADD PUSH1 0x0 DUP2 SLOAD DUP1 SWAP3 SWAP2 SWAP1 PUSH2 0x532 SWAP1 PUSH2 0x851 JUMP JUMPDEST SWAP2 SWAP1 POP SSTORE POP DUP1 PUSH1 0x0 DUP1 CALLER PUSH20 0xFFFFFFFFFFFFFFFFFFFFFFFFFFFFFFFFFFFFFFFF AND PUSH20 0xFFFFFFFFFFFFFFFFFFFFFFFFFFFFFFFFFFFFFFFF AND DUP2 MSTORE PUSH1 0x20 ADD SWAP1 DUP2 MSTORE PUSH1 0x20 ADD PUSH1 0x0 KECCAK256 PUSH1 0x2 ADD PUSH1 0x0 DUP1 PUSH1 0x0 CALLER PUSH20 0xFFFFFFFFFFFFFFFFFFFFFFFFFFFFFFFFFFFFFFFF AND PUSH20 0xFFFFFFFFFFFFFFFFFFFFFFFFFFFFFFFFFFFFFFFF AND DUP2 MSTORE PUSH1 0x20 ADD SWAP1 DUP2 MSTORE PUSH1 0x20 ADD PUSH1 0x0 KECCAK256 PUSH1 0x1 ADD SLOAD DUP2 MSTORE PUSH1 0x20 ADD SWAP1 DUP2 MSTORE PUSH1 0x20 ADD PUSH1 0x0 KECCAK256 PUSH1 0x0 DUP3 ADD MLOAD DUP2 PUSH1 0x0 ADD SSTORE PUSH1 0x20 DUP3 ADD MLOAD DUP2 PUSH1 0x1 ADD SSTORE SWAP1 POP POP POP JUMP JUMPDEST PUSH1 0x40 MLOAD DUP1 PUSH1 0x40 ADD PUSH1 0x40 MSTORE DUP1 PUSH1 0x0 DUP2 MSTORE PUSH1 0x20 ADD PUSH1 0x0 DUP2 MSTORE POP SWAP1 JUMP JUMPDEST PUSH1 0x0 DUP1 REVERT JUMPDEST PUSH1 0x0 PUSH20 0xFFFFFFFFFFFFFFFFFFFFFFFFFFFFFFFFFFFFFFFF DUP3 AND SWAP1 POP SWAP2 SWAP1 POP JUMP JUMPDEST PUSH1 0x0 PUSH2 0x62F DUP3 PUSH2 0x604 JUMP JUMPDEST SWAP1 POP SWAP2 SWAP1 POP JUMP JUMPDEST PUSH2 0x63F DUP2 PUSH2 0x624 JUMP JUMPDEST DUP2 EQ PUSH2 0x64A JUMPI PUSH1 0x0 DUP1 REVERT JUMPDEST POP JUMP JUMPDEST PUSH1 0x0 DUP2 CALLDATALOAD SWAP1 POP PUSH2 0x65C DUP2 PUSH2 0x636 JUMP JUMPDEST SWAP3 SWAP2 POP POP JUMP JUMPDEST PUSH1 0x0 DUP2 SWAP1 POP SWAP2 SWAP1 POP JUMP JUMPDEST PUSH2 0x675 DUP2 PUSH2 0x662 JUMP JUMPDEST DUP2 EQ PUSH2 0x680 JUMPI PUSH1 0x0 DUP1 REVERT JUMPDEST POP JUMP JUMPDEST PUSH1 0x0 DUP2 CALLDATALOAD SWAP1 POP PUSH2 0x692 DUP2 PUSH2 0x66C JUMP JUMPDEST SWAP3 SWAP2 POP POP JUMP JUMPDEST PUSH1 0x0 DUP1 PUSH1 0x40 DUP4 DUP6 SUB SLT ISZERO PUSH2 0x6AF JUMPI PUSH2 0x6AE PUSH2 0x5FF JUMP JUMPDEST JUMPDEST PUSH1 0x0 PUSH2 0x6BD DUP6 DUP3 DUP7 ADD PUSH2 0x64D JUMP JUMPDEST SWAP3 POP POP PUSH1 0x20 PUSH2 0x6CE DUP6 DUP3 DUP7 ADD PUSH2 0x683 JUMP JUMPDEST SWAP2 POP POP SWAP3 POP SWAP3 SWAP1 POP JUMP JUMPDEST PUSH1 0x0 PUSH2 0x6E3 DUP3 PUSH2 0x604 JUMP JUMPDEST SWAP1 POP SWAP2 SWAP1 POP JUMP JUMPDEST PUSH2 0x6F3 DUP2 PUSH2 0x6D8 JUMP JUMPDEST DUP2 EQ PUSH2 0x6FE JUMPI PUSH1 0x0 DUP1 REVERT JUMPDEST POP JUMP JUMPDEST PUSH1 0x0 DUP2 CALLDATALOAD SWAP1 POP PUSH2 0x710 DUP2 PUSH2 0x6EA JUMP JUMPDEST SWAP3 SWAP2 POP POP JUMP JUMPDEST PUSH1 0x0 DUP1 PUSH1 0x40 DUP4 DUP6 SUB SLT ISZERO PUSH2 0x72D JUMPI PUSH2 0x72C PUSH2 0x5FF JUMP JUMPDEST JUMPDEST PUSH1 0x0 PUSH2 0x73B DUP6 DUP3 DUP7 ADD PUSH2 0x701 JUMP JUMPDEST SWAP3 POP POP PUSH1 0x20 PUSH2 0x74C DUP6 DUP3 DUP7 ADD PUSH2 0x683 JUMP JUMPDEST SWAP2 POP POP SWAP3 POP SWAP3 SWAP1 POP JUMP JUMPDEST PUSH2 0x75F DUP2 PUSH2 0x662 JUMP JUMPDEST DUP3 MSTORE POP POP JUMP JUMPDEST PUSH1 0x40 DUP3 ADD PUSH1 0x0 DUP3 ADD MLOAD PUSH2 0x77B PUSH1 0x0 DUP6 ADD DUP3 PUSH2 0x756 JUMP JUMPDEST POP PUSH1 0x20 DUP3 ADD MLOAD PUSH2 0x78E PUSH1 0x20 DUP6 ADD DUP3 PUSH2 0x756 JUMP JUMPDEST POP POP POP POP JUMP JUMPDEST PUSH1 0x0 PUSH1 0x40 DUP3 ADD SWAP1 POP PUSH2 0x7A9 PUSH1 0x0 DUP4 ADD DUP5 PUSH2 0x765 JUMP JUMPDEST SWAP3 SWAP2 POP POP JUMP JUMPDEST PUSH1 0x0 PUSH1 0x20 DUP3 DUP5 SUB SLT ISZERO PUSH2 0x7C5 JUMPI PUSH2 0x7C4 PUSH2 0x5FF JUMP JUMPDEST JUMPDEST PUSH1 0x0 PUSH2 0x7D3 DUP5 DUP3 DUP6 ADD PUSH2 0x701 JUMP JUMPDEST SWAP2 POP POP SWAP3 SWAP2 POP POP JUMP JUMPDEST PUSH2 0x7E5 DUP2 PUSH2 0x662 JUMP JUMPDEST DUP3 MSTORE POP POP JUMP JUMPDEST PUSH1 0x0 PUSH1 0x60 DUP3 ADD SWAP1 POP PUSH2 0x800 PUSH1 0x0 DUP4 ADD DUP7 PUSH2 0x7DC JUMP JUMPDEST PUSH2 0x80D PUSH1 0x20 DUP4 ADD DUP6 PUSH2 0x7DC JUMP JUMPDEST PUSH2 0x81A PUSH1 0x40 DUP4 ADD DUP5 PUSH2 0x7DC JUMP JUMPDEST SWAP5 SWAP4 POP POP POP POP JUMP JUMPDEST PUSH32 0x4E487B7100000000000000000000000000000000000000000000000000000000 PUSH1 0x0 MSTORE PUSH1 0x11 PUSH1 0x4 MSTORE PUSH1 0x24 PUSH1 0x0 REVERT JUMPDEST PUSH1 0x0 PUSH2 0x85C DUP3 PUSH2 0x662 JUMP JUMPDEST SWAP2 POP PUSH32 0xFFFFFFFFFFFFFFFFFFFFFFFFFFFFFFFFFFFFFFFFFFFFFFFFFFFFFFFFFFFFFFFF DUP3 SUB PUSH2 0x88E JUMPI PUSH2 0x88D PUSH2 0x822 JUMP JUMPDEST JUMPDEST PUSH1 0x1 DUP3 ADD SWAP1 POP SWAP2 SWAP1 POP JUMP JUMPDEST PUSH1 0x0 PUSH2 0x8A4 DUP3 PUSH2 0x662 JUMP JUMPDEST SWAP2 POP PUSH2 0x8AF DUP4 PUSH2 0x662 JUMP JUMPDEST SWAP3 POP DUP3 DUP3 LT ISZERO PUSH2 0x8C2 JUMPI PUSH2 0x8C1 PUSH2 0x822 JUMP JUMPDEST JUMPDEST DUP3 DUP3 SUB SWAP1 POP SWAP3 SWAP2 POP POP JUMP JUMPDEST PUSH1 0x0 PUSH2 0x8D8 DUP3 PUSH2 0x662 JUMP JUMPDEST SWAP2 POP PUSH2 0x8E3 DUP4 PUSH2 0x662 JUMP JUMPDEST SWAP3 POP DUP3 PUSH32 0xFFFFFFFFFFFFFFFFFFFFFFFFFFFFFFFFFFFFFFFFFFFFFFFFFFFFFFFFFFFFFFFF SUB DUP3 GT ISZERO PUSH2 0x918 JUMPI PUSH2 0x917 PUSH2 0x822 JUMP JUMPDEST JUMPDEST DUP3 DUP3 ADD SWAP1 POP SWAP3 SWAP2 POP POP JUMP INVALID LOG2 PUSH5 0x6970667358 0x22 SLT KECCAK256 SDIV PUSH1 0x56 0xEA 0x29 DIFFICULTY 0x23 ADDRESS PUSH3 0x9E7610 DUP16 0xFC 0x2E SLT 0xA6 0xF7 EXTCODECOPY PUSH8 0x1E23CDB083D4EB34 DUP10 0x26 0xF7 0xC0 PUSH5 0x736F6C6343 STOP ADDMOD 0xF STOP CALLER "
				},
				"gasEstimates": {
					"creation": {
						"codeDepositCost": "478600",
						"executionCost": "511",
						"totalCost": "479111"
					},
					"external": {
						"balanceRecieved(address)": "infinite",
						"depositeMoneyToSmartContract()": "infinite",
						"showThisDepositDetails(address,uint256)": "infinite",
						"showThisWithdrawalDetails(address,uint256)": "infinite",
						"withdrawFromContractWallet(address,uint256)": "infinite"
					}
				},
				"methodIdentifiers": {
					"balanceRecieved(address)": "d8d4f50d",
					"depositeMoneyToSmartContract()": "f429bcb6",
					"showThisDepositDetails(address,uint256)": "715efeb7",
					"showThisWithdrawalDetails(address,uint256)": "9359e359",
					"withdrawFromContractWallet(address,uint256)": "50bd6253"
				}
			},
			"storageLayout": {
				"storage": [
					{
						"astId": 28,
						"contract": "contracts/importantContracts/SimpleWallet2.sol:Simplewallet2",
						"label": "balanceRecieved",
						"offset": 0,
						"slot": "0",
						"type": "t_mapping(t_address,t_struct(BalanceDetailsStruct)23_storage)"
					}
				],
				"types": {
					"t_address": {
						"encoding": "inplace",
						"label": "address",
						"numberOfBytes": "20"
					},
					"t_mapping(t_address,t_struct(BalanceDetailsStruct)23_storage)": {
						"encoding": "mapping",
						"key": "t_address",
						"label": "mapping(address => struct Simplewallet2.BalanceDetailsStruct)",
						"numberOfBytes": "32",
						"value": "t_struct(BalanceDetailsStruct)23_storage"
					},
					"t_mapping(t_uint256,t_struct(Transaction)6_storage)": {
						"encoding": "mapping",
						"key": "t_uint256",
						"label": "mapping(uint256 => struct Simplewallet2.Transaction)",
						"numberOfBytes": "32",
						"value": "t_struct(Transaction)6_storage"
					},
					"t_struct(BalanceDetailsStruct)23_storage": {
						"encoding": "inplace",
						"label": "struct Simplewallet2.BalanceDetailsStruct",
						"members": [
							{
								"astId": 8,
								"contract": "contracts/importantContracts/SimpleWallet2.sol:Simplewallet2",
								"label": "totalBalance",
								"offset": 0,
								"slot": "0",
								"type": "t_uint256"
							},
							{
								"astId": 10,
								"contract": "contracts/importantContracts/SimpleWallet2.sol:Simplewallet2",
								"label": "numsDeposites",
								"offset": 0,
								"slot": "1",
								"type": "t_uint256"
							},
							{
								"astId": 15,
								"contract": "contracts/importantContracts/SimpleWallet2.sol:Simplewallet2",
								"label": "deposites",
								"offset": 0,
								"slot": "2",
								"type": "t_mapping(t_uint256,t_struct(Transaction)6_storage)"
							},
							{
								"astId": 17,
								"contract": "contracts/importantContracts/SimpleWallet2.sol:Simplewallet2",
								"label": "numsWithdrawals",
								"offset": 0,
								"slot": "3",
								"type": "t_uint256"
							},
							{
								"astId": 22,
								"contract": "contracts/importantContracts/SimpleWallet2.sol:Simplewallet2",
								"label": "withdrawals",
								"offset": 0,
								"slot": "4",
								"type": "t_mapping(t_uint256,t_struct(Transaction)6_storage)"
							}
						],
						"numberOfBytes": "160"
					},
					"t_struct(Transaction)6_storage": {
						"encoding": "inplace",
						"label": "struct Simplewallet2.Transaction",
						"members": [
							{
								"astId": 3,
								"contract": "contracts/importantContracts/SimpleWallet2.sol:Simplewallet2",
								"label": "amount",
								"offset": 0,
								"slot": "0",
								"type": "t_uint256"
							},
							{
								"astId": 5,
								"contract": "contracts/importantContracts/SimpleWallet2.sol:Simplewallet2",
								"label": "timeStamp",
								"offset": 0,
								"slot": "1",
								"type": "t_uint256"
							}
						],
						"numberOfBytes": "64"
					},
					"t_uint256": {
						"encoding": "inplace",
						"label": "uint256",
						"numberOfBytes": "32"
					}
				}
			},
			"userdoc": {
				"kind": "user",
				"methods": {},
				"version": 1
			}
		}
	}
}