{
	"contracts/importantContracts/WalletFinal.sol": {
		"WalletFinal": {
			"abi": [
				{
					"inputs": [],
					"stateMutability": "nonpayable",
					"type": "constructor"
				},
				{
					"inputs": [
						{
							"internalType": "address",
							"name": "",
							"type": "address"
						}
					],
					"name": "allowance",
					"outputs": [
						{
							"internalType": "uint256",
							"name": "",
							"type": "uint256"
						}
					],
					"stateMutability": "view",
					"type": "function"
				},
				{
					"inputs": [
						{
							"internalType": "address",
							"name": "_from",
							"type": "address"
						}
					],
					"name": "denySending",
					"outputs": [],
					"stateMutability": "nonpayable",
					"type": "function"
				},
				{
					"inputs": [
						{
							"internalType": "address",
							"name": "",
							"type": "address"
						}
					],
					"name": "isAllowedToSend",
					"outputs": [
						{
							"internalType": "bool",
							"name": "",
							"type": "bool"
						}
					],
					"stateMutability": "view",
					"type": "function"
				},
				{
					"inputs": [
						{
							"internalType": "address",
							"name": "",
							"type": "address"
						}
					],
					"name": "isGuardian",
					"outputs": [
						{
							"internalType": "bool",
							"name": "",
							"type": "bool"
						}
					],
					"stateMutability": "view",
					"type": "function"
				},
				{
					"inputs": [
						{
							"internalType": "address",
							"name": "",
							"type": "address"
						},
						{
							"internalType": "address",
							"name": "",
							"type": "address"
						}
					],
					"name": "isVotedAlready",
					"outputs": [
						{
							"internalType": "bool",
							"name": "",
							"type": "bool"
						}
					],
					"stateMutability": "view",
					"type": "function"
				},
				{
					"inputs": [
						{
							"internalType": "address payable",
							"name": "_newOwnerAddress",
							"type": "address"
						}
					],
					"name": "newOwnerVoting",
					"outputs": [],
					"stateMutability": "nonpayable",
					"type": "function"
				},
				{
					"inputs": [],
					"name": "nextOwner",
					"outputs": [
						{
							"internalType": "address payable",
							"name": "",
							"type": "address"
						}
					],
					"stateMutability": "view",
					"type": "function"
				},
				{
					"inputs": [],
					"name": "owner",
					"outputs": [
						{
							"internalType": "address payable",
							"name": "",
							"type": "address"
						}
					],
					"stateMutability": "view",
					"type": "function"
				},
				{
					"inputs": [
						{
							"internalType": "address",
							"name": "_from",
							"type": "address"
						},
						{
							"internalType": "uint256",
							"name": "_amount",
							"type": "uint256"
						}
					],
					"name": "setAllowance",
					"outputs": [],
					"stateMutability": "nonpayable",
					"type": "function"
				},
				{
					"inputs": [
						{
							"internalType": "address",
							"name": "_guardAddress",
							"type": "address"
						},
						{
							"internalType": "bool",
							"name": "_isGuardian",
							"type": "bool"
						}
					],
					"name": "setGuardian",
					"outputs": [],
					"stateMutability": "nonpayable",
					"type": "function"
				},
				{
					"inputs": [
						{
							"internalType": "address payable",
							"name": "_to",
							"type": "address"
						},
						{
							"internalType": "uint256",
							"name": "_amount",
							"type": "uint256"
						},
						{
							"internalType": "bytes",
							"name": "_payload",
							"type": "bytes"
						}
					],
					"name": "transfer",
					"outputs": [
						{
							"internalType": "bytes",
							"name": "",
							"type": "bytes"
						}
					],
					"stateMutability": "nonpayable",
					"type": "function"
				},
				{
					"inputs": [],
					"name": "votesNeededForNewOwner",
					"outputs": [
						{
							"internalType": "uint256",
							"name": "",
							"type": "uint256"
						}
					],
					"stateMutability": "view",
					"type": "function"
				},
				{
					"inputs": [],
					"name": "votesRecieved",
					"outputs": [
						{
							"internalType": "uint256",
							"name": "",
							"type": "uint256"
						}
					],
					"stateMutability": "view",
					"type": "function"
				},
				{
					"inputs": [],
					"name": "walletBalance",
					"outputs": [
						{
							"internalType": "uint256",
							"name": "",
							"type": "uint256"
						}
					],
					"stateMutability": "view",
					"type": "function"
				},
				{
					"stateMutability": "payable",
					"type": "receive"
				}
			],
			"devdoc": {
				"kind": "dev",
				"methods": {},
				"version": 1
			},
			"evm": {
				"assembly": "    /* \"contracts/importantContracts/WalletFinal.sol\":231:3031  contract WalletFinal{... */\n  mstore(0x40, 0x80)\n    /* \"contracts/importantContracts/WalletFinal.sol\":669:729  constructor(){... */\n  callvalue\n  dup1\n  iszero\n  tag_1\n  jumpi\n  0x00\n  dup1\n  revert\ntag_1:\n  pop\n    /* \"contracts/importantContracts/WalletFinal.sol\":709:719  msg.sender */\n  caller\n    /* \"contracts/importantContracts/WalletFinal.sol\":693:698  owner */\n  0x00\n  dup1\n    /* \"contracts/importantContracts/WalletFinal.sol\":693:720  owner = payable(msg.sender) */\n  0x0100\n  exp\n  dup2\n  sload\n  dup2\n  0xffffffffffffffffffffffffffffffffffffffff\n  mul\n  not\n  and\n  swap1\n  dup4\n  0xffffffffffffffffffffffffffffffffffffffff\n  and\n  mul\n  or\n  swap1\n  sstore\n  pop\n    /* \"contracts/importantContracts/WalletFinal.sol\":231:3031  contract WalletFinal{... */\n  dataSize(sub_0)\n  dup1\n  dataOffset(sub_0)\n  0x00\n  codecopy\n  0x00\n  return\nstop\n\nsub_0: assembly {\n        /* \"contracts/importantContracts/WalletFinal.sol\":231:3031  contract WalletFinal{... */\n      mstore(0x40, 0x80)\n      jumpi(tag_1, lt(calldatasize, 0x04))\n      shr(0xe0, calldataload(0x00))\n      dup1\n      0x69f3331d\n      gt\n      tag_17\n      jumpi\n      dup1\n      0xa349d754\n      gt\n      tag_18\n      jumpi\n      dup1\n      0xa349d754\n      eq\n      tag_13\n      jumpi\n      dup1\n      0xbe45fd62\n      eq\n      tag_14\n      jumpi\n      dup1\n      0xcd0a314b\n      eq\n      tag_15\n      jumpi\n      dup1\n      0xf30b4db2\n      eq\n      tag_16\n      jumpi\n      jump(tag_2)\n    tag_18:\n      dup1\n      0x69f3331d\n      eq\n      tag_10\n      jumpi\n      dup1\n      0x7673de53\n      eq\n      tag_11\n      jumpi\n      dup1\n      0x8da5cb5b\n      eq\n      tag_12\n      jumpi\n      jump(tag_2)\n    tag_17:\n      dup1\n      0x2b8a1c5a\n      gt\n      tag_19\n      jumpi\n      dup1\n      0x2b8a1c5a\n      eq\n      tag_6\n      jumpi\n      dup1\n      0x310ec4a7\n      eq\n      tag_7\n      jumpi\n      dup1\n      0x383777df\n      eq\n      tag_8\n      jumpi\n      dup1\n      0x3e5beab9\n      eq\n      tag_9\n      jumpi\n      jump(tag_2)\n    tag_19:\n      dup1\n      0x0bc605ad\n      eq\n      tag_3\n      jumpi\n      dup1\n      0x0c68ba21\n      eq\n      tag_4\n      jumpi\n      dup1\n      0x1710e428\n      eq\n      tag_5\n      jumpi\n      jump(tag_2)\n    tag_1:\n      jumpi(tag_2, calldatasize)\n      stop\n    tag_2:\n      0x00\n      dup1\n      revert\n        /* \"contracts/importantContracts/WalletFinal.sol\":319:366  mapping(address => bool) public isAllowedToSend */\n    tag_3:\n      callvalue\n      dup1\n      iszero\n      tag_22\n      jumpi\n      0x00\n      dup1\n      revert\n    tag_22:\n      pop\n      tag_23\n      0x04\n      dup1\n      calldatasize\n      sub\n      dup2\n      add\n      swap1\n      tag_24\n      swap2\n      swap1\n      tag_25\n      jump\t// in\n    tag_24:\n      tag_26\n      jump\t// in\n    tag_23:\n      mload(0x40)\n      tag_27\n      swap2\n      swap1\n      tag_28\n      jump\t// in\n    tag_27:\n      mload(0x40)\n      dup1\n      swap2\n      sub\n      swap1\n      return\n        /* \"contracts/importantContracts/WalletFinal.sol\":421:463  mapping(address => bool) public isGuardian */\n    tag_4:\n      callvalue\n      dup1\n      iszero\n      tag_29\n      jumpi\n      0x00\n      dup1\n      revert\n    tag_29:\n      pop\n      tag_30\n      0x04\n      dup1\n      calldatasize\n      sub\n      dup2\n      add\n      swap1\n      tag_31\n      swap2\n      swap1\n      tag_25\n      jump\t// in\n    tag_31:\n      tag_32\n      jump\t// in\n    tag_30:\n      mload(0x40)\n      tag_33\n      swap2\n      swap1\n      tag_28\n      jump\t// in\n    tag_33:\n      mload(0x40)\n      dup1\n      swap2\n      sub\n      swap1\n      return\n        /* \"contracts/importantContracts/WalletFinal.sol\":637:662  uint public votesRecieved */\n    tag_5:\n      callvalue\n      dup1\n      iszero\n      tag_34\n      jumpi\n      0x00\n      dup1\n      revert\n    tag_34:\n      pop\n      tag_35\n      tag_36\n      jump\t// in\n    tag_35:\n      mload(0x40)\n      tag_37\n      swap2\n      swap1\n      tag_38\n      jump\t// in\n    tag_37:\n      mload(0x40)\n      dup1\n      swap2\n      sub\n      swap1\n      return\n        /* \"contracts/importantContracts/WalletFinal.sol\":1396:1603  function setGuardian(address _guardAddress, bool _isGuardian) public {... */\n    tag_6:\n      callvalue\n      dup1\n      iszero\n      tag_39\n      jumpi\n      0x00\n      dup1\n      revert\n    tag_39:\n      pop\n      tag_40\n      0x04\n      dup1\n      calldatasize\n      sub\n      dup2\n      add\n      swap1\n      tag_41\n      swap2\n      swap1\n      tag_42\n      jump\t// in\n    tag_41:\n      tag_43\n      jump\t// in\n    tag_40:\n      stop\n        /* \"contracts/importantContracts/WalletFinal.sol\":1628:1851  function setAllowance(address _from, uint _amount) public {... */\n    tag_7:\n      callvalue\n      dup1\n      iszero\n      tag_44\n      jumpi\n      0x00\n      dup1\n      revert\n    tag_44:\n      pop\n      tag_45\n      0x04\n      dup1\n      calldatasize\n      sub\n      dup2\n      add\n      swap1\n      tag_46\n      swap2\n      swap1\n      tag_47\n      jump\t// in\n    tag_46:\n      tag_48\n      jump\t// in\n    tag_45:\n      stop\n        /* \"contracts/importantContracts/WalletFinal.sol\":582:629  uint public constant votesNeededForNewOwner = 3 */\n    tag_8:\n      callvalue\n      dup1\n      iszero\n      tag_49\n      jumpi\n      0x00\n      dup1\n      revert\n    tag_49:\n      pop\n      tag_50\n      tag_51\n      jump\t// in\n    tag_50:\n      mload(0x40)\n      tag_52\n      swap2\n      swap1\n      tag_38\n      jump\t// in\n    tag_52:\n      mload(0x40)\n      dup1\n      swap2\n      sub\n      swap1\n      return\n        /* \"contracts/importantContracts/WalletFinal.sol\":373:414  mapping(address => uint) public allowance */\n    tag_9:\n      callvalue\n      dup1\n      iszero\n      tag_53\n      jumpi\n      0x00\n      dup1\n      revert\n    tag_53:\n      pop\n      tag_54\n      0x04\n      dup1\n      calldatasize\n      sub\n      dup2\n      add\n      swap1\n      tag_55\n      swap2\n      swap1\n      tag_25\n      jump\t// in\n    tag_55:\n      tag_56\n      jump\t// in\n    tag_54:\n      mload(0x40)\n      tag_57\n      swap2\n      swap1\n      tag_38\n      jump\t// in\n    tag_57:\n      mload(0x40)\n      dup1\n      swap2\n      sub\n      swap1\n      return\n        /* \"contracts/importantContracts/WalletFinal.sol\":543:575  address payable public nextOwner */\n    tag_10:\n      callvalue\n      dup1\n      iszero\n      tag_58\n      jumpi\n      0x00\n      dup1\n      revert\n    tag_58:\n      pop\n      tag_59\n      tag_60\n      jump\t// in\n    tag_59:\n      mload(0x40)\n      tag_61\n      swap2\n      swap1\n      tag_62\n      jump\t// in\n    tag_61:\n      mload(0x40)\n      dup1\n      swap2\n      sub\n      swap1\n      return\n        /* \"contracts/importantContracts/WalletFinal.sol\":1857:2039  function denySending(address _from) public {... */\n    tag_11:\n      callvalue\n      dup1\n      iszero\n      tag_63\n      jumpi\n      0x00\n      dup1\n      revert\n    tag_63:\n      pop\n      tag_64\n      0x04\n      dup1\n      calldatasize\n      sub\n      dup2\n      add\n      swap1\n      tag_65\n      swap2\n      swap1\n      tag_25\n      jump\t// in\n    tag_65:\n      tag_66\n      jump\t// in\n    tag_64:\n      stop\n        /* \"contracts/importantContracts/WalletFinal.sol\":284:312  address payable public owner */\n    tag_12:\n      callvalue\n      dup1\n      iszero\n      tag_67\n      jumpi\n      0x00\n      dup1\n      revert\n    tag_67:\n      pop\n      tag_68\n      tag_69\n      jump\t// in\n    tag_68:\n      mload(0x40)\n      tag_70\n      swap2\n      swap1\n      tag_62\n      jump\t// in\n    tag_70:\n      mload(0x40)\n      dup1\n      swap2\n      sub\n      swap1\n      return\n        /* \"contracts/importantContracts/WalletFinal.sol\":470:536  mapping(address => mapping(address => bool)) public isVotedAlready */\n    tag_13:\n      callvalue\n      dup1\n      iszero\n      tag_71\n      jumpi\n      0x00\n      dup1\n      revert\n    tag_71:\n      pop\n      tag_72\n      0x04\n      dup1\n      calldatasize\n      sub\n      dup2\n      add\n      swap1\n      tag_73\n      swap2\n      swap1\n      tag_74\n      jump\t// in\n    tag_73:\n      tag_75\n      jump\t// in\n    tag_72:\n      mload(0x40)\n      tag_76\n      swap2\n      swap1\n      tag_28\n      jump\t// in\n    tag_76:\n      mload(0x40)\n      dup1\n      swap2\n      sub\n      swap1\n      return\n        /* \"contracts/importantContracts/WalletFinal.sol\":2070:2862  function transfer(address payable _to, uint _amount, bytes memory _payload) public returns(bytes memory) { ... */\n    tag_14:\n      callvalue\n      dup1\n      iszero\n      tag_77\n      jumpi\n      0x00\n      dup1\n      revert\n    tag_77:\n      pop\n      tag_78\n      0x04\n      dup1\n      calldatasize\n      sub\n      dup2\n      add\n      swap1\n      tag_79\n      swap2\n      swap1\n      tag_80\n      jump\t// in\n    tag_79:\n      tag_81\n      jump\t// in\n    tag_78:\n      mload(0x40)\n      tag_82\n      swap2\n      swap1\n      tag_83\n      jump\t// in\n    tag_82:\n      mload(0x40)\n      dup1\n      swap2\n      sub\n      swap1\n      return\n        /* \"contracts/importantContracts/WalletFinal.sol\":2870:2969  function walletBalance() public view returns(uint) {... */\n    tag_15:\n      callvalue\n      dup1\n      iszero\n      tag_84\n      jumpi\n      0x00\n      dup1\n      revert\n    tag_84:\n      pop\n      tag_85\n      tag_86\n      jump\t// in\n    tag_85:\n      mload(0x40)\n      tag_87\n      swap2\n      swap1\n      tag_38\n      jump\t// in\n    tag_87:\n      mload(0x40)\n      dup1\n      swap2\n      sub\n      swap1\n      return\n        /* \"contracts/importantContracts/WalletFinal.sol\":756:1390  function newOwnerVoting(address payable _newOwnerAddress) public {... */\n    tag_16:\n      callvalue\n      dup1\n      iszero\n      tag_88\n      jumpi\n      0x00\n      dup1\n      revert\n    tag_88:\n      pop\n      tag_89\n      0x04\n      dup1\n      calldatasize\n      sub\n      dup2\n      add\n      swap1\n      tag_90\n      swap2\n      swap1\n      tag_91\n      jump\t// in\n    tag_90:\n      tag_92\n      jump\t// in\n    tag_89:\n      stop\n        /* \"contracts/importantContracts/WalletFinal.sol\":319:366  mapping(address => bool) public isAllowedToSend */\n    tag_26:\n      mstore(0x20, 0x01)\n      dup1\n      0x00\n      mstore\n      keccak256(0x00, 0x40)\n      0x00\n      swap2\n      pop\n      sload\n      swap1\n      0x0100\n      exp\n      swap1\n      div\n      0xff\n      and\n      dup2\n      jump\t// out\n        /* \"contracts/importantContracts/WalletFinal.sol\":421:463  mapping(address => bool) public isGuardian */\n    tag_32:\n      mstore(0x20, 0x03)\n      dup1\n      0x00\n      mstore\n      keccak256(0x00, 0x40)\n      0x00\n      swap2\n      pop\n      sload\n      swap1\n      0x0100\n      exp\n      swap1\n      div\n      0xff\n      and\n      dup2\n      jump\t// out\n        /* \"contracts/importantContracts/WalletFinal.sol\":637:662  uint public votesRecieved */\n    tag_36:\n      sload(0x06)\n      dup2\n      jump\t// out\n        /* \"contracts/importantContracts/WalletFinal.sol\":1396:1603  function setGuardian(address _guardAddress, bool _isGuardian) public {... */\n    tag_43:\n        /* \"contracts/importantContracts/WalletFinal.sol\":1498:1503  owner */\n      0x00\n      dup1\n      sload\n      swap1\n      0x0100\n      exp\n      swap1\n      div\n      0xffffffffffffffffffffffffffffffffffffffff\n      and\n        /* \"contracts/importantContracts/WalletFinal.sol\":1484:1503  msg.sender == owner */\n      0xffffffffffffffffffffffffffffffffffffffff\n      and\n        /* \"contracts/importantContracts/WalletFinal.sol\":1484:1494  msg.sender */\n      caller\n        /* \"contracts/importantContracts/WalletFinal.sol\":1484:1503  msg.sender == owner */\n      0xffffffffffffffffffffffffffffffffffffffff\n      and\n      eq\n        /* \"contracts/importantContracts/WalletFinal.sol\":1476:1545  require(msg.sender == owner, \"You are not allowed to set guardians.\") */\n      tag_94\n      jumpi\n      mload(0x40)\n      0x08c379a000000000000000000000000000000000000000000000000000000000\n      dup2\n      mstore\n      0x04\n      add\n      tag_95\n      swap1\n      tag_96\n      jump\t// in\n    tag_95:\n      mload(0x40)\n      dup1\n      swap2\n      sub\n      swap1\n      revert\n    tag_94:\n        /* \"contracts/importantContracts/WalletFinal.sol\":1584:1595  _isGuardian */\n      dup1\n        /* \"contracts/importantContracts/WalletFinal.sol\":1556:1566  isGuardian */\n      0x03\n        /* \"contracts/importantContracts/WalletFinal.sol\":1556:1581  isGuardian[_guardAddress] */\n      0x00\n        /* \"contracts/importantContracts/WalletFinal.sol\":1567:1580  _guardAddress */\n      dup5\n        /* \"contracts/importantContracts/WalletFinal.sol\":1556:1581  isGuardian[_guardAddress] */\n      0xffffffffffffffffffffffffffffffffffffffff\n      and\n      0xffffffffffffffffffffffffffffffffffffffff\n      and\n      dup2\n      mstore\n      0x20\n      add\n      swap1\n      dup2\n      mstore\n      0x20\n      add\n      0x00\n      keccak256\n      0x00\n        /* \"contracts/importantContracts/WalletFinal.sol\":1556:1595  isGuardian[_guardAddress] = _isGuardian */\n      0x0100\n      exp\n      dup2\n      sload\n      dup2\n      0xff\n      mul\n      not\n      and\n      swap1\n      dup4\n      iszero\n      iszero\n      mul\n      or\n      swap1\n      sstore\n      pop\n        /* \"contracts/importantContracts/WalletFinal.sol\":1396:1603  function setGuardian(address _guardAddress, bool _isGuardian) public {... */\n      pop\n      pop\n      jump\t// out\n        /* \"contracts/importantContracts/WalletFinal.sol\":1628:1851  function setAllowance(address _from, uint _amount) public {... */\n    tag_48:\n        /* \"contracts/importantContracts/WalletFinal.sol\":1719:1724  owner */\n      0x00\n      dup1\n      sload\n      swap1\n      0x0100\n      exp\n      swap1\n      div\n      0xffffffffffffffffffffffffffffffffffffffff\n      and\n        /* \"contracts/importantContracts/WalletFinal.sol\":1705:1724  msg.sender == owner */\n      0xffffffffffffffffffffffffffffffffffffffff\n      and\n        /* \"contracts/importantContracts/WalletFinal.sol\":1705:1715  msg.sender */\n      caller\n        /* \"contracts/importantContracts/WalletFinal.sol\":1705:1724  msg.sender == owner */\n      0xffffffffffffffffffffffffffffffffffffffff\n      and\n      eq\n        /* \"contracts/importantContracts/WalletFinal.sol\":1697:1766  require(msg.sender == owner, \"You are not allowed to set allowance.\") */\n      tag_98\n      jumpi\n      mload(0x40)\n      0x08c379a000000000000000000000000000000000000000000000000000000000\n      dup2\n      mstore\n      0x04\n      add\n      tag_99\n      swap1\n      tag_100\n      jump\t// in\n    tag_99:\n      mload(0x40)\n      dup1\n      swap2\n      sub\n      swap1\n      revert\n    tag_98:\n        /* \"contracts/importantContracts/WalletFinal.sol\":1796:1803  _amount */\n      dup1\n        /* \"contracts/importantContracts/WalletFinal.sol\":1777:1786  allowance */\n      0x02\n        /* \"contracts/importantContracts/WalletFinal.sol\":1777:1793  allowance[_from] */\n      0x00\n        /* \"contracts/importantContracts/WalletFinal.sol\":1787:1792  _from */\n      dup5\n        /* \"contracts/importantContracts/WalletFinal.sol\":1777:1793  allowance[_from] */\n      0xffffffffffffffffffffffffffffffffffffffff\n      and\n      0xffffffffffffffffffffffffffffffffffffffff\n      and\n      dup2\n      mstore\n      0x20\n      add\n      swap1\n      dup2\n      mstore\n      0x20\n      add\n      0x00\n      keccak256\n        /* \"contracts/importantContracts/WalletFinal.sol\":1777:1803  allowance[_from] = _amount */\n      dup2\n      swap1\n      sstore\n      pop\n        /* \"contracts/importantContracts/WalletFinal.sol\":1839:1843  true */\n      0x01\n        /* \"contracts/importantContracts/WalletFinal.sol\":1814:1829  isAllowedToSend */\n      dup1\n        /* \"contracts/importantContracts/WalletFinal.sol\":1814:1836  isAllowedToSend[_from] */\n      0x00\n        /* \"contracts/importantContracts/WalletFinal.sol\":1830:1835  _from */\n      dup5\n        /* \"contracts/importantContracts/WalletFinal.sol\":1814:1836  isAllowedToSend[_from] */\n      0xffffffffffffffffffffffffffffffffffffffff\n      and\n      0xffffffffffffffffffffffffffffffffffffffff\n      and\n      dup2\n      mstore\n      0x20\n      add\n      swap1\n      dup2\n      mstore\n      0x20\n      add\n      0x00\n      keccak256\n      0x00\n        /* \"contracts/importantContracts/WalletFinal.sol\":1814:1843  isAllowedToSend[_from] = true */\n      0x0100\n      exp\n      dup2\n      sload\n      dup2\n      0xff\n      mul\n      not\n      and\n      swap1\n      dup4\n      iszero\n      iszero\n      mul\n      or\n      swap1\n      sstore\n      pop\n        /* \"contracts/importantContracts/WalletFinal.sol\":1628:1851  function setAllowance(address _from, uint _amount) public {... */\n      pop\n      pop\n      jump\t// out\n        /* \"contracts/importantContracts/WalletFinal.sol\":582:629  uint public constant votesNeededForNewOwner = 3 */\n    tag_51:\n        /* \"contracts/importantContracts/WalletFinal.sol\":628:629  3 */\n      0x03\n        /* \"contracts/importantContracts/WalletFinal.sol\":582:629  uint public constant votesNeededForNewOwner = 3 */\n      dup2\n      jump\t// out\n        /* \"contracts/importantContracts/WalletFinal.sol\":373:414  mapping(address => uint) public allowance */\n    tag_56:\n      mstore(0x20, 0x02)\n      dup1\n      0x00\n      mstore\n      keccak256(0x00, 0x40)\n      0x00\n      swap2\n      pop\n      swap1\n      pop\n      sload\n      dup2\n      jump\t// out\n        /* \"contracts/importantContracts/WalletFinal.sol\":543:575  address payable public nextOwner */\n    tag_60:\n      0x05\n      0x00\n      swap1\n      sload\n      swap1\n      0x0100\n      exp\n      swap1\n      div\n      0xffffffffffffffffffffffffffffffffffffffff\n      and\n      dup2\n      jump\t// out\n        /* \"contracts/importantContracts/WalletFinal.sol\":1857:2039  function denySending(address _from) public {... */\n    tag_66:\n        /* \"contracts/importantContracts/WalletFinal.sol\":1933:1938  owner */\n      0x00\n      dup1\n      sload\n      swap1\n      0x0100\n      exp\n      swap1\n      div\n      0xffffffffffffffffffffffffffffffffffffffff\n      and\n        /* \"contracts/importantContracts/WalletFinal.sol\":1919:1938  msg.sender == owner */\n      0xffffffffffffffffffffffffffffffffffffffff\n      and\n        /* \"contracts/importantContracts/WalletFinal.sol\":1919:1929  msg.sender */\n      caller\n        /* \"contracts/importantContracts/WalletFinal.sol\":1919:1938  msg.sender == owner */\n      0xffffffffffffffffffffffffffffffffffffffff\n      and\n      eq\n        /* \"contracts/importantContracts/WalletFinal.sol\":1911:1989  require(msg.sender == owner, \"You are not allowed to deny any functionality.\") */\n      tag_102\n      jumpi\n      mload(0x40)\n      0x08c379a000000000000000000000000000000000000000000000000000000000\n      dup2\n      mstore\n      0x04\n      add\n      tag_103\n      swap1\n      tag_104\n      jump\t// in\n    tag_103:\n      mload(0x40)\n      dup1\n      swap2\n      sub\n      swap1\n      revert\n    tag_102:\n        /* \"contracts/importantContracts/WalletFinal.sol\":2025:2030  false */\n      0x00\n        /* \"contracts/importantContracts/WalletFinal.sol\":2000:2015  isAllowedToSend */\n      0x01\n        /* \"contracts/importantContracts/WalletFinal.sol\":2000:2022  isAllowedToSend[_from] */\n      0x00\n        /* \"contracts/importantContracts/WalletFinal.sol\":2016:2021  _from */\n      dup4\n        /* \"contracts/importantContracts/WalletFinal.sol\":2000:2022  isAllowedToSend[_from] */\n      0xffffffffffffffffffffffffffffffffffffffff\n      and\n      0xffffffffffffffffffffffffffffffffffffffff\n      and\n      dup2\n      mstore\n      0x20\n      add\n      swap1\n      dup2\n      mstore\n      0x20\n      add\n      0x00\n      keccak256\n      0x00\n        /* \"contracts/importantContracts/WalletFinal.sol\":2000:2030  isAllowedToSend[_from] = false */\n      0x0100\n      exp\n      dup2\n      sload\n      dup2\n      0xff\n      mul\n      not\n      and\n      swap1\n      dup4\n      iszero\n      iszero\n      mul\n      or\n      swap1\n      sstore\n      pop\n        /* \"contracts/importantContracts/WalletFinal.sol\":1857:2039  function denySending(address _from) public {... */\n      pop\n      jump\t// out\n        /* \"contracts/importantContracts/WalletFinal.sol\":284:312  address payable public owner */\n    tag_69:\n      0x00\n      dup1\n      sload\n      swap1\n      0x0100\n      exp\n      swap1\n      div\n      0xffffffffffffffffffffffffffffffffffffffff\n      and\n      dup2\n      jump\t// out\n        /* \"contracts/importantContracts/WalletFinal.sol\":470:536  mapping(address => mapping(address => bool)) public isVotedAlready */\n    tag_75:\n      mstore(0x20, 0x04)\n      dup2\n      0x00\n      mstore\n      mstore(0x20, keccak256(0x00, 0x40))\n      dup1\n      0x00\n      mstore\n      keccak256(0x00, 0x40)\n      0x00\n      swap2\n      pop\n      swap2\n      pop\n      swap1\n      sload\n      swap1\n      0x0100\n      exp\n      swap1\n      div\n      0xff\n      and\n      dup2\n      jump\t// out\n        /* \"contracts/importantContracts/WalletFinal.sol\":2070:2862  function transfer(address payable _to, uint _amount, bytes memory _payload) public returns(bytes memory) { ... */\n    tag_81:\n        /* \"contracts/importantContracts/WalletFinal.sol\":2161:2173  bytes memory */\n      0x60\n        /* \"contracts/importantContracts/WalletFinal.sol\":2206:2227  address(this).balance */\n      selfbalance\n        /* \"contracts/importantContracts/WalletFinal.sol\":2195:2202  _amount */\n      dup4\n        /* \"contracts/importantContracts/WalletFinal.sol\":2195:2227  _amount <= address(this).balance */\n      gt\n      iszero\n        /* \"contracts/importantContracts/WalletFinal.sol\":2187:2272  require(_amount <= address(this).balance, \"Can't send more than stored in contract.\") */\n      tag_106\n      jumpi\n      mload(0x40)\n      0x08c379a000000000000000000000000000000000000000000000000000000000\n      dup2\n      mstore\n      0x04\n      add\n      tag_107\n      swap1\n      tag_108\n      jump\t// in\n    tag_107:\n      mload(0x40)\n      dup1\n      swap2\n      sub\n      swap1\n      revert\n    tag_106:\n        /* \"contracts/importantContracts/WalletFinal.sol\":2419:2424  owner */\n      0x00\n      dup1\n      sload\n      swap1\n      0x0100\n      exp\n      swap1\n      div\n      0xffffffffffffffffffffffffffffffffffffffff\n      and\n        /* \"contracts/importantContracts/WalletFinal.sol\":2405:2424  msg.sender != owner */\n      0xffffffffffffffffffffffffffffffffffffffff\n      and\n        /* \"contracts/importantContracts/WalletFinal.sol\":2405:2415  msg.sender */\n      caller\n        /* \"contracts/importantContracts/WalletFinal.sol\":2405:2424  msg.sender != owner */\n      0xffffffffffffffffffffffffffffffffffffffff\n      and\n      eq\n        /* \"contracts/importantContracts/WalletFinal.sol\":2402:2674  if(msg.sender != owner){... */\n      tag_109\n      jumpi\n        /* \"contracts/importantContracts/WalletFinal.sol\":2448:2463  isAllowedToSend */\n      0x01\n        /* \"contracts/importantContracts/WalletFinal.sol\":2448:2475  isAllowedToSend[msg.sender] */\n      0x00\n        /* \"contracts/importantContracts/WalletFinal.sol\":2464:2474  msg.sender */\n      caller\n        /* \"contracts/importantContracts/WalletFinal.sol\":2448:2475  isAllowedToSend[msg.sender] */\n      0xffffffffffffffffffffffffffffffffffffffff\n      and\n      0xffffffffffffffffffffffffffffffffffffffff\n      and\n      dup2\n      mstore\n      0x20\n      add\n      swap1\n      dup2\n      mstore\n      0x20\n      add\n      0x00\n      keccak256\n      0x00\n      swap1\n      sload\n      swap1\n      0x0100\n      exp\n      swap1\n      div\n      0xff\n      and\n        /* \"contracts/importantContracts/WalletFinal.sol\":2440:2508  require(isAllowedToSend[msg.sender], \"You are not allowed to send.\") */\n      tag_110\n      jumpi\n      mload(0x40)\n      0x08c379a000000000000000000000000000000000000000000000000000000000\n      dup2\n      mstore\n      0x04\n      add\n      tag_111\n      swap1\n      tag_112\n      jump\t// in\n    tag_111:\n      mload(0x40)\n      dup1\n      swap2\n      sub\n      swap1\n      revert\n    tag_110:\n        /* \"contracts/importantContracts/WalletFinal.sol\":2556:2563  _amount */\n      dup3\n        /* \"contracts/importantContracts/WalletFinal.sol\":2531:2540  allowance */\n      0x02\n        /* \"contracts/importantContracts/WalletFinal.sol\":2531:2552  allowance[msg.sender] */\n      0x00\n        /* \"contracts/importantContracts/WalletFinal.sol\":2541:2551  msg.sender */\n      caller\n        /* \"contracts/importantContracts/WalletFinal.sol\":2531:2552  allowance[msg.sender] */\n      0xffffffffffffffffffffffffffffffffffffffff\n      and\n      0xffffffffffffffffffffffffffffffffffffffff\n      and\n      dup2\n      mstore\n      0x20\n      add\n      swap1\n      dup2\n      mstore\n      0x20\n      add\n      0x00\n      keccak256\n      sload\n        /* \"contracts/importantContracts/WalletFinal.sol\":2531:2563  allowance[msg.sender] >= _amount */\n      lt\n      iszero\n        /* \"contracts/importantContracts/WalletFinal.sol\":2523:2617  require(allowance[msg.sender] >= _amount, \"You are trying to send more than you are allowed.\") */\n      tag_113\n      jumpi\n      mload(0x40)\n      0x08c379a000000000000000000000000000000000000000000000000000000000\n      dup2\n      mstore\n      0x04\n      add\n      tag_114\n      swap1\n      tag_115\n      jump\t// in\n    tag_114:\n      mload(0x40)\n      dup1\n      swap2\n      sub\n      swap1\n      revert\n    tag_113:\n        /* \"contracts/importantContracts/WalletFinal.sol\":2655:2662  _amount */\n      dup3\n        /* \"contracts/importantContracts/WalletFinal.sol\":2632:2641  allowance */\n      0x02\n        /* \"contracts/importantContracts/WalletFinal.sol\":2632:2653  allowance[msg.sender] */\n      0x00\n        /* \"contracts/importantContracts/WalletFinal.sol\":2642:2652  msg.sender */\n      caller\n        /* \"contracts/importantContracts/WalletFinal.sol\":2632:2653  allowance[msg.sender] */\n      0xffffffffffffffffffffffffffffffffffffffff\n      and\n      0xffffffffffffffffffffffffffffffffffffffff\n      and\n      dup2\n      mstore\n      0x20\n      add\n      swap1\n      dup2\n      mstore\n      0x20\n      add\n      0x00\n      keccak256\n      0x00\n        /* \"contracts/importantContracts/WalletFinal.sol\":2632:2662  allowance[msg.sender]-=_amount */\n      dup3\n      dup3\n      sload\n      tag_116\n      swap2\n      swap1\n      tag_117\n      jump\t// in\n    tag_116:\n      swap3\n      pop\n      pop\n      dup2\n      swap1\n      sstore\n      pop\n        /* \"contracts/importantContracts/WalletFinal.sol\":2402:2674  if(msg.sender != owner){... */\n    tag_109:\n        /* \"contracts/importantContracts/WalletFinal.sol\":2685:2697  bool success */\n      0x00\n        /* \"contracts/importantContracts/WalletFinal.sol\":2699:2722  bytes memory returnData */\n      dup1\n        /* \"contracts/importantContracts/WalletFinal.sol\":2726:2729  _to */\n      dup6\n        /* \"contracts/importantContracts/WalletFinal.sol\":2726:2734  _to.call */\n      0xffffffffffffffffffffffffffffffffffffffff\n      and\n        /* \"contracts/importantContracts/WalletFinal.sol\":2742:2749  _amount */\n      dup6\n        /* \"contracts/importantContracts/WalletFinal.sol\":2751:2759  _payload */\n      dup6\n        /* \"contracts/importantContracts/WalletFinal.sol\":2726:2760  _to.call{value: _amount}(_payload) */\n      mload(0x40)\n      tag_118\n      swap2\n      swap1\n      tag_119\n      jump\t// in\n    tag_118:\n      0x00\n      mload(0x40)\n      dup1\n      dup4\n      sub\n      dup2\n      dup6\n      dup8\n      gas\n      call\n      swap3\n      pop\n      pop\n      pop\n      returndatasize\n      dup1\n      0x00\n      dup2\n      eq\n      tag_122\n      jumpi\n      mload(0x40)\n      swap2\n      pop\n      and(add(returndatasize, 0x3f), not(0x1f))\n      dup3\n      add\n      0x40\n      mstore\n      returndatasize\n      dup3\n      mstore\n      returndatasize\n      0x00\n      0x20\n      dup5\n      add\n      returndatacopy\n      jump(tag_121)\n    tag_122:\n      0x60\n      swap2\n      pop\n    tag_121:\n      pop\n        /* \"contracts/importantContracts/WalletFinal.sol\":2684:2760  (bool success, bytes memory returnData) = _to.call{value: _amount}(_payload) */\n      swap2\n      pop\n      swap2\n      pop\n        /* \"contracts/importantContracts/WalletFinal.sol\":2779:2786  success */\n      dup2\n        /* \"contracts/importantContracts/WalletFinal.sol\":2771:2825  require(success, \"Aborting, call was not successful!\") */\n      tag_123\n      jumpi\n      mload(0x40)\n      0x08c379a000000000000000000000000000000000000000000000000000000000\n      dup2\n      mstore\n      0x04\n      add\n      tag_124\n      swap1\n      tag_125\n      jump\t// in\n    tag_124:\n      mload(0x40)\n      dup1\n      swap2\n      sub\n      swap1\n      revert\n    tag_123:\n        /* \"contracts/importantContracts/WalletFinal.sol\":2843:2853  returnData */\n      dup1\n        /* \"contracts/importantContracts/WalletFinal.sol\":2836:2853  return returnData */\n      swap3\n      pop\n      pop\n      pop\n        /* \"contracts/importantContracts/WalletFinal.sol\":2070:2862  function transfer(address payable _to, uint _amount, bytes memory _payload) public returns(bytes memory) { ... */\n      swap4\n      swap3\n      pop\n      pop\n      pop\n      jump\t// out\n        /* \"contracts/importantContracts/WalletFinal.sol\":2870:2969  function walletBalance() public view returns(uint) {... */\n    tag_86:\n        /* \"contracts/importantContracts/WalletFinal.sol\":2915:2919  uint */\n      0x00\n        /* \"contracts/importantContracts/WalletFinal.sol\":2939:2960  address(this).balance */\n      selfbalance\n        /* \"contracts/importantContracts/WalletFinal.sol\":2932:2960  return address(this).balance */\n      swap1\n      pop\n        /* \"contracts/importantContracts/WalletFinal.sol\":2870:2969  function walletBalance() public view returns(uint) {... */\n      swap1\n      jump\t// out\n        /* \"contracts/importantContracts/WalletFinal.sol\":756:1390  function newOwnerVoting(address payable _newOwnerAddress) public {... */\n    tag_92:\n        /* \"contracts/importantContracts/WalletFinal.sol\":840:850  isGuardian */\n      0x03\n        /* \"contracts/importantContracts/WalletFinal.sol\":840:862  isGuardian[msg.sender] */\n      0x00\n        /* \"contracts/importantContracts/WalletFinal.sol\":851:861  msg.sender */\n      caller\n        /* \"contracts/importantContracts/WalletFinal.sol\":840:862  isGuardian[msg.sender] */\n      0xffffffffffffffffffffffffffffffffffffffff\n      and\n      0xffffffffffffffffffffffffffffffffffffffff\n      and\n      dup2\n      mstore\n      0x20\n      add\n      swap1\n      dup2\n      mstore\n      0x20\n      add\n      0x00\n      keccak256\n      0x00\n      swap1\n      sload\n      swap1\n      0x0100\n      exp\n      swap1\n      div\n      0xff\n      and\n        /* \"contracts/importantContracts/WalletFinal.sol\":832:910  require(isGuardian[msg.sender],\"You are not a guardian! Not allowed to vote.\") */\n      tag_128\n      jumpi\n      mload(0x40)\n      0x08c379a000000000000000000000000000000000000000000000000000000000\n      dup2\n      mstore\n      0x04\n      add\n      tag_129\n      swap1\n      tag_130\n      jump\t// in\n    tag_129:\n      mload(0x40)\n      dup1\n      swap2\n      sub\n      swap1\n      revert\n    tag_128:\n        /* \"contracts/importantContracts/WalletFinal.sol\":930:944  isVotedAlready */\n      0x04\n        /* \"contracts/importantContracts/WalletFinal.sol\":930:962  isVotedAlready[_newOwnerAddress] */\n      0x00\n        /* \"contracts/importantContracts/WalletFinal.sol\":945:961  _newOwnerAddress */\n      dup3\n        /* \"contracts/importantContracts/WalletFinal.sol\":930:962  isVotedAlready[_newOwnerAddress] */\n      0xffffffffffffffffffffffffffffffffffffffff\n      and\n      0xffffffffffffffffffffffffffffffffffffffff\n      and\n      dup2\n      mstore\n      0x20\n      add\n      swap1\n      dup2\n      mstore\n      0x20\n      add\n      0x00\n      keccak256\n        /* \"contracts/importantContracts/WalletFinal.sol\":930:974  isVotedAlready[_newOwnerAddress][msg.sender] */\n      0x00\n        /* \"contracts/importantContracts/WalletFinal.sol\":963:973  msg.sender */\n      caller\n        /* \"contracts/importantContracts/WalletFinal.sol\":930:974  isVotedAlready[_newOwnerAddress][msg.sender] */\n      0xffffffffffffffffffffffffffffffffffffffff\n      and\n      0xffffffffffffffffffffffffffffffffffffffff\n      and\n      dup2\n      mstore\n      0x20\n      add\n      swap1\n      dup2\n      mstore\n      0x20\n      add\n      0x00\n      keccak256\n      0x00\n      swap1\n      sload\n      swap1\n      0x0100\n      exp\n      swap1\n      div\n      0xff\n      and\n        /* \"contracts/importantContracts/WalletFinal.sol\":929:974  !isVotedAlready[_newOwnerAddress][msg.sender] */\n      iszero\n        /* \"contracts/importantContracts/WalletFinal.sol\":921:996  require(!isVotedAlready[_newOwnerAddress][msg.sender],\"You already voted!\") */\n      tag_131\n      jumpi\n      mload(0x40)\n      0x08c379a000000000000000000000000000000000000000000000000000000000\n      dup2\n      mstore\n      0x04\n      add\n      tag_132\n      swap1\n      tag_133\n      jump\t// in\n    tag_132:\n      mload(0x40)\n      dup1\n      swap2\n      sub\n      swap1\n      revert\n    tag_131:\n        /* \"contracts/importantContracts/WalletFinal.sol\":1023:1039  _newOwnerAddress */\n      dup1\n        /* \"contracts/importantContracts/WalletFinal.sol\":1010:1039  nextOwner != _newOwnerAddress */\n      0xffffffffffffffffffffffffffffffffffffffff\n      and\n        /* \"contracts/importantContracts/WalletFinal.sol\":1010:1019  nextOwner */\n      0x05\n      0x00\n      swap1\n      sload\n      swap1\n      0x0100\n      exp\n      swap1\n      div\n      0xffffffffffffffffffffffffffffffffffffffff\n      and\n        /* \"contracts/importantContracts/WalletFinal.sol\":1010:1039  nextOwner != _newOwnerAddress */\n      0xffffffffffffffffffffffffffffffffffffffff\n      and\n      eq\n        /* \"contracts/importantContracts/WalletFinal.sol\":1007:1127  if(nextOwner != _newOwnerAddress){... */\n      tag_134\n      jumpi\n        /* \"contracts/importantContracts/WalletFinal.sol\":1067:1083  _newOwnerAddress */\n      dup1\n        /* \"contracts/importantContracts/WalletFinal.sol\":1055:1064  nextOwner */\n      0x05\n      0x00\n        /* \"contracts/importantContracts/WalletFinal.sol\":1055:1083  nextOwner = _newOwnerAddress */\n      0x0100\n      exp\n      dup2\n      sload\n      dup2\n      0xffffffffffffffffffffffffffffffffffffffff\n      mul\n      not\n      and\n      swap1\n      dup4\n      0xffffffffffffffffffffffffffffffffffffffff\n      and\n      mul\n      or\n      swap1\n      sstore\n      pop\n        /* \"contracts/importantContracts/WalletFinal.sol\":1114:1115  0 */\n      0x00\n        /* \"contracts/importantContracts/WalletFinal.sol\":1098:1111  votesRecieved */\n      0x06\n        /* \"contracts/importantContracts/WalletFinal.sol\":1098:1115  votesRecieved = 0 */\n      dup2\n      swap1\n      sstore\n      pop\n        /* \"contracts/importantContracts/WalletFinal.sol\":1007:1127  if(nextOwner != _newOwnerAddress){... */\n    tag_134:\n        /* \"contracts/importantContracts/WalletFinal.sol\":1137:1150  votesRecieved */\n      0x06\n      0x00\n        /* \"contracts/importantContracts/WalletFinal.sol\":1137:1152  votesRecieved++ */\n      dup2\n      sload\n      dup1\n      swap3\n      swap2\n      swap1\n      tag_135\n      swap1\n      tag_136\n      jump\t// in\n    tag_135:\n      swap2\n      swap1\n      pop\n      sstore\n      pop\n        /* \"contracts/importantContracts/WalletFinal.sol\":1210:1214  true */\n      0x01\n        /* \"contracts/importantContracts/WalletFinal.sol\":1163:1177  isVotedAlready */\n      0x04\n        /* \"contracts/importantContracts/WalletFinal.sol\":1163:1195  isVotedAlready[_newOwnerAddress] */\n      0x00\n        /* \"contracts/importantContracts/WalletFinal.sol\":1178:1194  _newOwnerAddress */\n      dup4\n        /* \"contracts/importantContracts/WalletFinal.sol\":1163:1195  isVotedAlready[_newOwnerAddress] */\n      0xffffffffffffffffffffffffffffffffffffffff\n      and\n      0xffffffffffffffffffffffffffffffffffffffff\n      and\n      dup2\n      mstore\n      0x20\n      add\n      swap1\n      dup2\n      mstore\n      0x20\n      add\n      0x00\n      keccak256\n        /* \"contracts/importantContracts/WalletFinal.sol\":1163:1207  isVotedAlready[_newOwnerAddress][msg.sender] */\n      0x00\n        /* \"contracts/importantContracts/WalletFinal.sol\":1196:1206  msg.sender */\n      caller\n        /* \"contracts/importantContracts/WalletFinal.sol\":1163:1207  isVotedAlready[_newOwnerAddress][msg.sender] */\n      0xffffffffffffffffffffffffffffffffffffffff\n      and\n      0xffffffffffffffffffffffffffffffffffffffff\n      and\n      dup2\n      mstore\n      0x20\n      add\n      swap1\n      dup2\n      mstore\n      0x20\n      add\n      0x00\n      keccak256\n      0x00\n        /* \"contracts/importantContracts/WalletFinal.sol\":1163:1214  isVotedAlready[_newOwnerAddress][msg.sender] = true */\n      0x0100\n      exp\n      dup2\n      sload\n      dup2\n      0xff\n      mul\n      not\n      and\n      swap1\n      dup4\n      iszero\n      iszero\n      mul\n      or\n      swap1\n      sstore\n      pop\n        /* \"contracts/importantContracts/WalletFinal.sol\":628:629  3 */\n      0x03\n        /* \"contracts/importantContracts/WalletFinal.sol\":1228:1241  votesRecieved */\n      sload(0x06)\n        /* \"contracts/importantContracts/WalletFinal.sol\":1228:1267  votesRecieved >= votesNeededForNewOwner */\n      lt\n        /* \"contracts/importantContracts/WalletFinal.sol\":1225:1373  if(votesRecieved >= votesNeededForNewOwner){... */\n      tag_137\n      jumpi\n        /* \"contracts/importantContracts/WalletFinal.sol\":1291:1300  nextOwner */\n      0x05\n      0x00\n      swap1\n      sload\n      swap1\n      0x0100\n      exp\n      swap1\n      div\n      0xffffffffffffffffffffffffffffffffffffffff\n      and\n        /* \"contracts/importantContracts/WalletFinal.sol\":1283:1288  owner */\n      0x00\n      dup1\n        /* \"contracts/importantContracts/WalletFinal.sol\":1283:1300  owner = nextOwner */\n      0x0100\n      exp\n      dup2\n      sload\n      dup2\n      0xffffffffffffffffffffffffffffffffffffffff\n      mul\n      not\n      and\n      swap1\n      dup4\n      0xffffffffffffffffffffffffffffffffffffffff\n      and\n      mul\n      or\n      swap1\n      sstore\n      pop\n        /* \"contracts/importantContracts/WalletFinal.sol\":1343:1344  0 */\n      0x00\n        /* \"contracts/importantContracts/WalletFinal.sol\":1315:1324  nextOwner */\n      0x05\n      0x00\n        /* \"contracts/importantContracts/WalletFinal.sol\":1315:1346  nextOwner = payable(address(0)) */\n      0x0100\n      exp\n      dup2\n      sload\n      dup2\n      0xffffffffffffffffffffffffffffffffffffffff\n      mul\n      not\n      and\n      swap1\n      dup4\n      0xffffffffffffffffffffffffffffffffffffffff\n      and\n      mul\n      or\n      swap1\n      sstore\n      pop\n        /* \"contracts/importantContracts/WalletFinal.sol\":1225:1373  if(votesRecieved >= votesNeededForNewOwner){... */\n    tag_137:\n        /* \"contracts/importantContracts/WalletFinal.sol\":756:1390  function newOwnerVoting(address payable _newOwnerAddress) public {... */\n      pop\n      jump\t// out\n        /* \"#utility.yul\":7:82   */\n    tag_138:\n        /* \"#utility.yul\":40:46   */\n      0x00\n        /* \"#utility.yul\":73:75   */\n      0x40\n        /* \"#utility.yul\":67:76   */\n      mload\n        /* \"#utility.yul\":57:76   */\n      swap1\n      pop\n        /* \"#utility.yul\":7:82   */\n      swap1\n      jump\t// out\n        /* \"#utility.yul\":88:205   */\n    tag_139:\n        /* \"#utility.yul\":197:198   */\n      0x00\n        /* \"#utility.yul\":194:195   */\n      dup1\n        /* \"#utility.yul\":187:199   */\n      revert\n        /* \"#utility.yul\":211:328   */\n    tag_140:\n        /* \"#utility.yul\":320:321   */\n      0x00\n        /* \"#utility.yul\":317:318   */\n      dup1\n        /* \"#utility.yul\":310:322   */\n      revert\n        /* \"#utility.yul\":334:460   */\n    tag_141:\n        /* \"#utility.yul\":371:378   */\n      0x00\n        /* \"#utility.yul\":411:453   */\n      0xffffffffffffffffffffffffffffffffffffffff\n        /* \"#utility.yul\":404:409   */\n      dup3\n        /* \"#utility.yul\":400:454   */\n      and\n        /* \"#utility.yul\":389:454   */\n      swap1\n      pop\n        /* \"#utility.yul\":334:460   */\n      swap2\n      swap1\n      pop\n      jump\t// out\n        /* \"#utility.yul\":466:562   */\n    tag_142:\n        /* \"#utility.yul\":503:510   */\n      0x00\n        /* \"#utility.yul\":532:556   */\n      tag_199\n        /* \"#utility.yul\":550:555   */\n      dup3\n        /* \"#utility.yul\":532:556   */\n      tag_141\n      jump\t// in\n    tag_199:\n        /* \"#utility.yul\":521:556   */\n      swap1\n      pop\n        /* \"#utility.yul\":466:562   */\n      swap2\n      swap1\n      pop\n      jump\t// out\n        /* \"#utility.yul\":568:690   */\n    tag_143:\n        /* \"#utility.yul\":641:665   */\n      tag_201\n        /* \"#utility.yul\":659:664   */\n      dup2\n        /* \"#utility.yul\":641:665   */\n      tag_142\n      jump\t// in\n    tag_201:\n        /* \"#utility.yul\":634:639   */\n      dup2\n        /* \"#utility.yul\":631:666   */\n      eq\n        /* \"#utility.yul\":621:684   */\n      tag_202\n      jumpi\n        /* \"#utility.yul\":680:681   */\n      0x00\n        /* \"#utility.yul\":677:678   */\n      dup1\n        /* \"#utility.yul\":670:682   */\n      revert\n        /* \"#utility.yul\":621:684   */\n    tag_202:\n        /* \"#utility.yul\":568:690   */\n      pop\n      jump\t// out\n        /* \"#utility.yul\":696:835   */\n    tag_144:\n        /* \"#utility.yul\":742:747   */\n      0x00\n        /* \"#utility.yul\":780:786   */\n      dup2\n        /* \"#utility.yul\":767:787   */\n      calldataload\n        /* \"#utility.yul\":758:787   */\n      swap1\n      pop\n        /* \"#utility.yul\":796:829   */\n      tag_204\n        /* \"#utility.yul\":823:828   */\n      dup2\n        /* \"#utility.yul\":796:829   */\n      tag_143\n      jump\t// in\n    tag_204:\n        /* \"#utility.yul\":696:835   */\n      swap3\n      swap2\n      pop\n      pop\n      jump\t// out\n        /* \"#utility.yul\":841:1170   */\n    tag_25:\n        /* \"#utility.yul\":900:906   */\n      0x00\n        /* \"#utility.yul\":949:951   */\n      0x20\n        /* \"#utility.yul\":937:946   */\n      dup3\n        /* \"#utility.yul\":928:935   */\n      dup5\n        /* \"#utility.yul\":924:947   */\n      sub\n        /* \"#utility.yul\":920:952   */\n      slt\n        /* \"#utility.yul\":917:1036   */\n      iszero\n      tag_206\n      jumpi\n        /* \"#utility.yul\":955:1034   */\n      tag_207\n      tag_139\n      jump\t// in\n    tag_207:\n        /* \"#utility.yul\":917:1036   */\n    tag_206:\n        /* \"#utility.yul\":1075:1076   */\n      0x00\n        /* \"#utility.yul\":1100:1153   */\n      tag_208\n        /* \"#utility.yul\":1145:1152   */\n      dup5\n        /* \"#utility.yul\":1136:1142   */\n      dup3\n        /* \"#utility.yul\":1125:1134   */\n      dup6\n        /* \"#utility.yul\":1121:1143   */\n      add\n        /* \"#utility.yul\":1100:1153   */\n      tag_144\n      jump\t// in\n    tag_208:\n        /* \"#utility.yul\":1090:1153   */\n      swap2\n      pop\n        /* \"#utility.yul\":1046:1163   */\n      pop\n        /* \"#utility.yul\":841:1170   */\n      swap3\n      swap2\n      pop\n      pop\n      jump\t// out\n        /* \"#utility.yul\":1176:1266   */\n    tag_145:\n        /* \"#utility.yul\":1210:1217   */\n      0x00\n        /* \"#utility.yul\":1253:1258   */\n      dup2\n        /* \"#utility.yul\":1246:1259   */\n      iszero\n        /* \"#utility.yul\":1239:1260   */\n      iszero\n        /* \"#utility.yul\":1228:1260   */\n      swap1\n      pop\n        /* \"#utility.yul\":1176:1266   */\n      swap2\n      swap1\n      pop\n      jump\t// out\n        /* \"#utility.yul\":1272:1381   */\n    tag_146:\n        /* \"#utility.yul\":1353:1374   */\n      tag_211\n        /* \"#utility.yul\":1368:1373   */\n      dup2\n        /* \"#utility.yul\":1353:1374   */\n      tag_145\n      jump\t// in\n    tag_211:\n        /* \"#utility.yul\":1348:1351   */\n      dup3\n        /* \"#utility.yul\":1341:1375   */\n      mstore\n        /* \"#utility.yul\":1272:1381   */\n      pop\n      pop\n      jump\t// out\n        /* \"#utility.yul\":1387:1597   */\n    tag_28:\n        /* \"#utility.yul\":1474:1478   */\n      0x00\n        /* \"#utility.yul\":1512:1514   */\n      0x20\n        /* \"#utility.yul\":1501:1510   */\n      dup3\n        /* \"#utility.yul\":1497:1515   */\n      add\n        /* \"#utility.yul\":1489:1515   */\n      swap1\n      pop\n        /* \"#utility.yul\":1525:1590   */\n      tag_213\n        /* \"#utility.yul\":1587:1588   */\n      0x00\n        /* \"#utility.yul\":1576:1585   */\n      dup4\n        /* \"#utility.yul\":1572:1589   */\n      add\n        /* \"#utility.yul\":1563:1569   */\n      dup5\n        /* \"#utility.yul\":1525:1590   */\n      tag_146\n      jump\t// in\n    tag_213:\n        /* \"#utility.yul\":1387:1597   */\n      swap3\n      swap2\n      pop\n      pop\n      jump\t// out\n        /* \"#utility.yul\":1603:1680   */\n    tag_147:\n        /* \"#utility.yul\":1640:1647   */\n      0x00\n        /* \"#utility.yul\":1669:1674   */\n      dup2\n        /* \"#utility.yul\":1658:1674   */\n      swap1\n      pop\n        /* \"#utility.yul\":1603:1680   */\n      swap2\n      swap1\n      pop\n      jump\t// out\n        /* \"#utility.yul\":1686:1804   */\n    tag_148:\n        /* \"#utility.yul\":1773:1797   */\n      tag_216\n        /* \"#utility.yul\":1791:1796   */\n      dup2\n        /* \"#utility.yul\":1773:1797   */\n      tag_147\n      jump\t// in\n    tag_216:\n        /* \"#utility.yul\":1768:1771   */\n      dup3\n        /* \"#utility.yul\":1761:1798   */\n      mstore\n        /* \"#utility.yul\":1686:1804   */\n      pop\n      pop\n      jump\t// out\n        /* \"#utility.yul\":1810:2032   */\n    tag_38:\n        /* \"#utility.yul\":1903:1907   */\n      0x00\n        /* \"#utility.yul\":1941:1943   */\n      0x20\n        /* \"#utility.yul\":1930:1939   */\n      dup3\n        /* \"#utility.yul\":1926:1944   */\n      add\n        /* \"#utility.yul\":1918:1944   */\n      swap1\n      pop\n        /* \"#utility.yul\":1954:2025   */\n      tag_218\n        /* \"#utility.yul\":2022:2023   */\n      0x00\n        /* \"#utility.yul\":2011:2020   */\n      dup4\n        /* \"#utility.yul\":2007:2024   */\n      add\n        /* \"#utility.yul\":1998:2004   */\n      dup5\n        /* \"#utility.yul\":1954:2025   */\n      tag_148\n      jump\t// in\n    tag_218:\n        /* \"#utility.yul\":1810:2032   */\n      swap3\n      swap2\n      pop\n      pop\n      jump\t// out\n        /* \"#utility.yul\":2038:2154   */\n    tag_149:\n        /* \"#utility.yul\":2108:2129   */\n      tag_220\n        /* \"#utility.yul\":2123:2128   */\n      dup2\n        /* \"#utility.yul\":2108:2129   */\n      tag_145\n      jump\t// in\n    tag_220:\n        /* \"#utility.yul\":2101:2106   */\n      dup2\n        /* \"#utility.yul\":2098:2130   */\n      eq\n        /* \"#utility.yul\":2088:2148   */\n      tag_221\n      jumpi\n        /* \"#utility.yul\":2144:2145   */\n      0x00\n        /* \"#utility.yul\":2141:2142   */\n      dup1\n        /* \"#utility.yul\":2134:2146   */\n      revert\n        /* \"#utility.yul\":2088:2148   */\n    tag_221:\n        /* \"#utility.yul\":2038:2154   */\n      pop\n      jump\t// out\n        /* \"#utility.yul\":2160:2293   */\n    tag_150:\n        /* \"#utility.yul\":2203:2208   */\n      0x00\n        /* \"#utility.yul\":2241:2247   */\n      dup2\n        /* \"#utility.yul\":2228:2248   */\n      calldataload\n        /* \"#utility.yul\":2219:2248   */\n      swap1\n      pop\n        /* \"#utility.yul\":2257:2287   */\n      tag_223\n        /* \"#utility.yul\":2281:2286   */\n      dup2\n        /* \"#utility.yul\":2257:2287   */\n      tag_149\n      jump\t// in\n    tag_223:\n        /* \"#utility.yul\":2160:2293   */\n      swap3\n      swap2\n      pop\n      pop\n      jump\t// out\n        /* \"#utility.yul\":2299:2767   */\n    tag_42:\n        /* \"#utility.yul\":2364:2370   */\n      0x00\n        /* \"#utility.yul\":2372:2378   */\n      dup1\n        /* \"#utility.yul\":2421:2423   */\n      0x40\n        /* \"#utility.yul\":2409:2418   */\n      dup4\n        /* \"#utility.yul\":2400:2407   */\n      dup6\n        /* \"#utility.yul\":2396:2419   */\n      sub\n        /* \"#utility.yul\":2392:2424   */\n      slt\n        /* \"#utility.yul\":2389:2508   */\n      iszero\n      tag_225\n      jumpi\n        /* \"#utility.yul\":2427:2506   */\n      tag_226\n      tag_139\n      jump\t// in\n    tag_226:\n        /* \"#utility.yul\":2389:2508   */\n    tag_225:\n        /* \"#utility.yul\":2547:2548   */\n      0x00\n        /* \"#utility.yul\":2572:2625   */\n      tag_227\n        /* \"#utility.yul\":2617:2624   */\n      dup6\n        /* \"#utility.yul\":2608:2614   */\n      dup3\n        /* \"#utility.yul\":2597:2606   */\n      dup7\n        /* \"#utility.yul\":2593:2615   */\n      add\n        /* \"#utility.yul\":2572:2625   */\n      tag_144\n      jump\t// in\n    tag_227:\n        /* \"#utility.yul\":2562:2625   */\n      swap3\n      pop\n        /* \"#utility.yul\":2518:2635   */\n      pop\n        /* \"#utility.yul\":2674:2676   */\n      0x20\n        /* \"#utility.yul\":2700:2750   */\n      tag_228\n        /* \"#utility.yul\":2742:2749   */\n      dup6\n        /* \"#utility.yul\":2733:2739   */\n      dup3\n        /* \"#utility.yul\":2722:2731   */\n      dup7\n        /* \"#utility.yul\":2718:2740   */\n      add\n        /* \"#utility.yul\":2700:2750   */\n      tag_150\n      jump\t// in\n    tag_228:\n        /* \"#utility.yul\":2690:2750   */\n      swap2\n      pop\n        /* \"#utility.yul\":2645:2760   */\n      pop\n        /* \"#utility.yul\":2299:2767   */\n      swap3\n      pop\n      swap3\n      swap1\n      pop\n      jump\t// out\n        /* \"#utility.yul\":2773:2895   */\n    tag_151:\n        /* \"#utility.yul\":2846:2870   */\n      tag_230\n        /* \"#utility.yul\":2864:2869   */\n      dup2\n        /* \"#utility.yul\":2846:2870   */\n      tag_147\n      jump\t// in\n    tag_230:\n        /* \"#utility.yul\":2839:2844   */\n      dup2\n        /* \"#utility.yul\":2836:2871   */\n      eq\n        /* \"#utility.yul\":2826:2889   */\n      tag_231\n      jumpi\n        /* \"#utility.yul\":2885:2886   */\n      0x00\n        /* \"#utility.yul\":2882:2883   */\n      dup1\n        /* \"#utility.yul\":2875:2887   */\n      revert\n        /* \"#utility.yul\":2826:2889   */\n    tag_231:\n        /* \"#utility.yul\":2773:2895   */\n      pop\n      jump\t// out\n        /* \"#utility.yul\":2901:3040   */\n    tag_152:\n        /* \"#utility.yul\":2947:2952   */\n      0x00\n        /* \"#utility.yul\":2985:2991   */\n      dup2\n        /* \"#utility.yul\":2972:2992   */\n      calldataload\n        /* \"#utility.yul\":2963:2992   */\n      swap1\n      pop\n        /* \"#utility.yul\":3001:3034   */\n      tag_233\n        /* \"#utility.yul\":3028:3033   */\n      dup2\n        /* \"#utility.yul\":3001:3034   */\n      tag_151\n      jump\t// in\n    tag_233:\n        /* \"#utility.yul\":2901:3040   */\n      swap3\n      swap2\n      pop\n      pop\n      jump\t// out\n        /* \"#utility.yul\":3046:3520   */\n    tag_47:\n        /* \"#utility.yul\":3114:3120   */\n      0x00\n        /* \"#utility.yul\":3122:3128   */\n      dup1\n        /* \"#utility.yul\":3171:3173   */\n      0x40\n        /* \"#utility.yul\":3159:3168   */\n      dup4\n        /* \"#utility.yul\":3150:3157   */\n      dup6\n        /* \"#utility.yul\":3146:3169   */\n      sub\n        /* \"#utility.yul\":3142:3174   */\n      slt\n        /* \"#utility.yul\":3139:3258   */\n      iszero\n      tag_235\n      jumpi\n        /* \"#utility.yul\":3177:3256   */\n      tag_236\n      tag_139\n      jump\t// in\n    tag_236:\n        /* \"#utility.yul\":3139:3258   */\n    tag_235:\n        /* \"#utility.yul\":3297:3298   */\n      0x00\n        /* \"#utility.yul\":3322:3375   */\n      tag_237\n        /* \"#utility.yul\":3367:3374   */\n      dup6\n        /* \"#utility.yul\":3358:3364   */\n      dup3\n        /* \"#utility.yul\":3347:3356   */\n      dup7\n        /* \"#utility.yul\":3343:3365   */\n      add\n        /* \"#utility.yul\":3322:3375   */\n      tag_144\n      jump\t// in\n    tag_237:\n        /* \"#utility.yul\":3312:3375   */\n      swap3\n      pop\n        /* \"#utility.yul\":3268:3385   */\n      pop\n        /* \"#utility.yul\":3424:3426   */\n      0x20\n        /* \"#utility.yul\":3450:3503   */\n      tag_238\n        /* \"#utility.yul\":3495:3502   */\n      dup6\n        /* \"#utility.yul\":3486:3492   */\n      dup3\n        /* \"#utility.yul\":3475:3484   */\n      dup7\n        /* \"#utility.yul\":3471:3493   */\n      add\n        /* \"#utility.yul\":3450:3503   */\n      tag_152\n      jump\t// in\n    tag_238:\n        /* \"#utility.yul\":3440:3503   */\n      swap2\n      pop\n        /* \"#utility.yul\":3395:3513   */\n      pop\n        /* \"#utility.yul\":3046:3520   */\n      swap3\n      pop\n      swap3\n      swap1\n      pop\n      jump\t// out\n        /* \"#utility.yul\":3526:3630   */\n    tag_153:\n        /* \"#utility.yul\":3571:3578   */\n      0x00\n        /* \"#utility.yul\":3600:3624   */\n      tag_240\n        /* \"#utility.yul\":3618:3623   */\n      dup3\n        /* \"#utility.yul\":3600:3624   */\n      tag_141\n      jump\t// in\n    tag_240:\n        /* \"#utility.yul\":3589:3624   */\n      swap1\n      pop\n        /* \"#utility.yul\":3526:3630   */\n      swap2\n      swap1\n      pop\n      jump\t// out\n        /* \"#utility.yul\":3636:3778   */\n    tag_154:\n        /* \"#utility.yul\":3739:3771   */\n      tag_242\n        /* \"#utility.yul\":3765:3770   */\n      dup2\n        /* \"#utility.yul\":3739:3771   */\n      tag_153\n      jump\t// in\n    tag_242:\n        /* \"#utility.yul\":3734:3737   */\n      dup3\n        /* \"#utility.yul\":3727:3772   */\n      mstore\n        /* \"#utility.yul\":3636:3778   */\n      pop\n      pop\n      jump\t// out\n        /* \"#utility.yul\":3784:4038   */\n    tag_62:\n        /* \"#utility.yul\":3893:3897   */\n      0x00\n        /* \"#utility.yul\":3931:3933   */\n      0x20\n        /* \"#utility.yul\":3920:3929   */\n      dup3\n        /* \"#utility.yul\":3916:3934   */\n      add\n        /* \"#utility.yul\":3908:3934   */\n      swap1\n      pop\n        /* \"#utility.yul\":3944:4031   */\n      tag_244\n        /* \"#utility.yul\":4028:4029   */\n      0x00\n        /* \"#utility.yul\":4017:4026   */\n      dup4\n        /* \"#utility.yul\":4013:4030   */\n      add\n        /* \"#utility.yul\":4004:4010   */\n      dup5\n        /* \"#utility.yul\":3944:4031   */\n      tag_154\n      jump\t// in\n    tag_244:\n        /* \"#utility.yul\":3784:4038   */\n      swap3\n      swap2\n      pop\n      pop\n      jump\t// out\n        /* \"#utility.yul\":4044:4518   */\n    tag_74:\n        /* \"#utility.yul\":4112:4118   */\n      0x00\n        /* \"#utility.yul\":4120:4126   */\n      dup1\n        /* \"#utility.yul\":4169:4171   */\n      0x40\n        /* \"#utility.yul\":4157:4166   */\n      dup4\n        /* \"#utility.yul\":4148:4155   */\n      dup6\n        /* \"#utility.yul\":4144:4167   */\n      sub\n        /* \"#utility.yul\":4140:4172   */\n      slt\n        /* \"#utility.yul\":4137:4256   */\n      iszero\n      tag_246\n      jumpi\n        /* \"#utility.yul\":4175:4254   */\n      tag_247\n      tag_139\n      jump\t// in\n    tag_247:\n        /* \"#utility.yul\":4137:4256   */\n    tag_246:\n        /* \"#utility.yul\":4295:4296   */\n      0x00\n        /* \"#utility.yul\":4320:4373   */\n      tag_248\n        /* \"#utility.yul\":4365:4372   */\n      dup6\n        /* \"#utility.yul\":4356:4362   */\n      dup3\n        /* \"#utility.yul\":4345:4354   */\n      dup7\n        /* \"#utility.yul\":4341:4363   */\n      add\n        /* \"#utility.yul\":4320:4373   */\n      tag_144\n      jump\t// in\n    tag_248:\n        /* \"#utility.yul\":4310:4373   */\n      swap3\n      pop\n        /* \"#utility.yul\":4266:4383   */\n      pop\n        /* \"#utility.yul\":4422:4424   */\n      0x20\n        /* \"#utility.yul\":4448:4501   */\n      tag_249\n        /* \"#utility.yul\":4493:4500   */\n      dup6\n        /* \"#utility.yul\":4484:4490   */\n      dup3\n        /* \"#utility.yul\":4473:4482   */\n      dup7\n        /* \"#utility.yul\":4469:4491   */\n      add\n        /* \"#utility.yul\":4448:4501   */\n      tag_144\n      jump\t// in\n    tag_249:\n        /* \"#utility.yul\":4438:4501   */\n      swap2\n      pop\n        /* \"#utility.yul\":4393:4511   */\n      pop\n        /* \"#utility.yul\":4044:4518   */\n      swap3\n      pop\n      swap3\n      swap1\n      pop\n      jump\t// out\n        /* \"#utility.yul\":4524:4662   */\n    tag_155:\n        /* \"#utility.yul\":4605:4637   */\n      tag_251\n        /* \"#utility.yul\":4631:4636   */\n      dup2\n        /* \"#utility.yul\":4605:4637   */\n      tag_153\n      jump\t// in\n    tag_251:\n        /* \"#utility.yul\":4598:4603   */\n      dup2\n        /* \"#utility.yul\":4595:4638   */\n      eq\n        /* \"#utility.yul\":4585:4656   */\n      tag_252\n      jumpi\n        /* \"#utility.yul\":4652:4653   */\n      0x00\n        /* \"#utility.yul\":4649:4650   */\n      dup1\n        /* \"#utility.yul\":4642:4654   */\n      revert\n        /* \"#utility.yul\":4585:4656   */\n    tag_252:\n        /* \"#utility.yul\":4524:4662   */\n      pop\n      jump\t// out\n        /* \"#utility.yul\":4668:4823   */\n    tag_156:\n        /* \"#utility.yul\":4722:4727   */\n      0x00\n        /* \"#utility.yul\":4760:4766   */\n      dup2\n        /* \"#utility.yul\":4747:4767   */\n      calldataload\n        /* \"#utility.yul\":4738:4767   */\n      swap1\n      pop\n        /* \"#utility.yul\":4776:4817   */\n      tag_254\n        /* \"#utility.yul\":4811:4816   */\n      dup2\n        /* \"#utility.yul\":4776:4817   */\n      tag_155\n      jump\t// in\n    tag_254:\n        /* \"#utility.yul\":4668:4823   */\n      swap3\n      swap2\n      pop\n      pop\n      jump\t// out\n        /* \"#utility.yul\":4829:4946   */\n    tag_157:\n        /* \"#utility.yul\":4938:4939   */\n      0x00\n        /* \"#utility.yul\":4935:4936   */\n      dup1\n        /* \"#utility.yul\":4928:4940   */\n      revert\n        /* \"#utility.yul\":4952:5069   */\n    tag_158:\n        /* \"#utility.yul\":5061:5062   */\n      0x00\n        /* \"#utility.yul\":5058:5059   */\n      dup1\n        /* \"#utility.yul\":5051:5063   */\n      revert\n        /* \"#utility.yul\":5075:5177   */\n    tag_159:\n        /* \"#utility.yul\":5116:5122   */\n      0x00\n        /* \"#utility.yul\":5167:5169   */\n      0x1f\n        /* \"#utility.yul\":5163:5170   */\n      not\n        /* \"#utility.yul\":5158:5160   */\n      0x1f\n        /* \"#utility.yul\":5151:5156   */\n      dup4\n        /* \"#utility.yul\":5147:5161   */\n      add\n        /* \"#utility.yul\":5143:5171   */\n      and\n        /* \"#utility.yul\":5133:5171   */\n      swap1\n      pop\n        /* \"#utility.yul\":5075:5177   */\n      swap2\n      swap1\n      pop\n      jump\t// out\n        /* \"#utility.yul\":5183:5363   */\n    tag_160:\n        /* \"#utility.yul\":5231:5308   */\n      0x4e487b7100000000000000000000000000000000000000000000000000000000\n        /* \"#utility.yul\":5228:5229   */\n      0x00\n        /* \"#utility.yul\":5221:5309   */\n      mstore\n        /* \"#utility.yul\":5328:5332   */\n      0x41\n        /* \"#utility.yul\":5325:5326   */\n      0x04\n        /* \"#utility.yul\":5318:5333   */\n      mstore\n        /* \"#utility.yul\":5352:5356   */\n      0x24\n        /* \"#utility.yul\":5349:5350   */\n      0x00\n        /* \"#utility.yul\":5342:5357   */\n      revert\n        /* \"#utility.yul\":5369:5650   */\n    tag_161:\n        /* \"#utility.yul\":5452:5479   */\n      tag_260\n        /* \"#utility.yul\":5474:5478   */\n      dup3\n        /* \"#utility.yul\":5452:5479   */\n      tag_159\n      jump\t// in\n    tag_260:\n        /* \"#utility.yul\":5444:5450   */\n      dup2\n        /* \"#utility.yul\":5440:5480   */\n      add\n        /* \"#utility.yul\":5582:5588   */\n      dup2\n        /* \"#utility.yul\":5570:5580   */\n      dup2\n        /* \"#utility.yul\":5567:5589   */\n      lt\n        /* \"#utility.yul\":5546:5564   */\n      0xffffffffffffffff\n        /* \"#utility.yul\":5534:5544   */\n      dup3\n        /* \"#utility.yul\":5531:5565   */\n      gt\n        /* \"#utility.yul\":5528:5590   */\n      or\n        /* \"#utility.yul\":5525:5613   */\n      iszero\n      tag_261\n      jumpi\n        /* \"#utility.yul\":5593:5611   */\n      tag_262\n      tag_160\n      jump\t// in\n    tag_262:\n        /* \"#utility.yul\":5525:5613   */\n    tag_261:\n        /* \"#utility.yul\":5633:5643   */\n      dup1\n        /* \"#utility.yul\":5629:5631   */\n      0x40\n        /* \"#utility.yul\":5622:5644   */\n      mstore\n        /* \"#utility.yul\":5412:5650   */\n      pop\n        /* \"#utility.yul\":5369:5650   */\n      pop\n      pop\n      jump\t// out\n        /* \"#utility.yul\":5656:5785   */\n    tag_162:\n        /* \"#utility.yul\":5690:5696   */\n      0x00\n        /* \"#utility.yul\":5717:5737   */\n      tag_264\n      tag_138\n      jump\t// in\n    tag_264:\n        /* \"#utility.yul\":5707:5737   */\n      swap1\n      pop\n        /* \"#utility.yul\":5746:5779   */\n      tag_265\n        /* \"#utility.yul\":5774:5778   */\n      dup3\n        /* \"#utility.yul\":5766:5772   */\n      dup3\n        /* \"#utility.yul\":5746:5779   */\n      tag_161\n      jump\t// in\n    tag_265:\n        /* \"#utility.yul\":5656:5785   */\n      swap2\n      swap1\n      pop\n      jump\t// out\n        /* \"#utility.yul\":5791:6098   */\n    tag_163:\n        /* \"#utility.yul\":5852:5856   */\n      0x00\n        /* \"#utility.yul\":5942:5960   */\n      0xffffffffffffffff\n        /* \"#utility.yul\":5934:5940   */\n      dup3\n        /* \"#utility.yul\":5931:5961   */\n      gt\n        /* \"#utility.yul\":5928:5984   */\n      iszero\n      tag_267\n      jumpi\n        /* \"#utility.yul\":5964:5982   */\n      tag_268\n      tag_160\n      jump\t// in\n    tag_268:\n        /* \"#utility.yul\":5928:5984   */\n    tag_267:\n        /* \"#utility.yul\":6002:6031   */\n      tag_269\n        /* \"#utility.yul\":6024:6030   */\n      dup3\n        /* \"#utility.yul\":6002:6031   */\n      tag_159\n      jump\t// in\n    tag_269:\n        /* \"#utility.yul\":5994:6031   */\n      swap1\n      pop\n        /* \"#utility.yul\":6086:6090   */\n      0x20\n        /* \"#utility.yul\":6080:6084   */\n      dup2\n        /* \"#utility.yul\":6076:6091   */\n      add\n        /* \"#utility.yul\":6068:6091   */\n      swap1\n      pop\n        /* \"#utility.yul\":5791:6098   */\n      swap2\n      swap1\n      pop\n      jump\t// out\n        /* \"#utility.yul\":6104:6250   */\n    tag_164:\n        /* \"#utility.yul\":6201:6207   */\n      dup3\n        /* \"#utility.yul\":6196:6199   */\n      dup2\n        /* \"#utility.yul\":6191:6194   */\n      dup4\n        /* \"#utility.yul\":6178:6208   */\n      calldatacopy\n        /* \"#utility.yul\":6242:6243   */\n      0x00\n        /* \"#utility.yul\":6233:6239   */\n      dup4\n        /* \"#utility.yul\":6228:6231   */\n      dup4\n        /* \"#utility.yul\":6224:6240   */\n      add\n        /* \"#utility.yul\":6217:6244   */\n      mstore\n        /* \"#utility.yul\":6104:6250   */\n      pop\n      pop\n      pop\n      jump\t// out\n        /* \"#utility.yul\":6256:6679   */\n    tag_165:\n        /* \"#utility.yul\":6333:6338   */\n      0x00\n        /* \"#utility.yul\":6358:6423   */\n      tag_272\n        /* \"#utility.yul\":6374:6422   */\n      tag_273\n        /* \"#utility.yul\":6415:6421   */\n      dup5\n        /* \"#utility.yul\":6374:6422   */\n      tag_163\n      jump\t// in\n    tag_273:\n        /* \"#utility.yul\":6358:6423   */\n      tag_162\n      jump\t// in\n    tag_272:\n        /* \"#utility.yul\":6349:6423   */\n      swap1\n      pop\n        /* \"#utility.yul\":6446:6452   */\n      dup3\n        /* \"#utility.yul\":6439:6444   */\n      dup2\n        /* \"#utility.yul\":6432:6453   */\n      mstore\n        /* \"#utility.yul\":6484:6488   */\n      0x20\n        /* \"#utility.yul\":6477:6482   */\n      dup2\n        /* \"#utility.yul\":6473:6489   */\n      add\n        /* \"#utility.yul\":6522:6525   */\n      dup5\n        /* \"#utility.yul\":6513:6519   */\n      dup5\n        /* \"#utility.yul\":6508:6511   */\n      dup5\n        /* \"#utility.yul\":6504:6520   */\n      add\n        /* \"#utility.yul\":6501:6526   */\n      gt\n        /* \"#utility.yul\":6498:6610   */\n      iszero\n      tag_274\n      jumpi\n        /* \"#utility.yul\":6529:6608   */\n      tag_275\n      tag_158\n      jump\t// in\n    tag_275:\n        /* \"#utility.yul\":6498:6610   */\n    tag_274:\n        /* \"#utility.yul\":6619:6673   */\n      tag_276\n        /* \"#utility.yul\":6666:6672   */\n      dup5\n        /* \"#utility.yul\":6661:6664   */\n      dup3\n        /* \"#utility.yul\":6656:6659   */\n      dup6\n        /* \"#utility.yul\":6619:6673   */\n      tag_164\n      jump\t// in\n    tag_276:\n        /* \"#utility.yul\":6339:6679   */\n      pop\n        /* \"#utility.yul\":6256:6679   */\n      swap4\n      swap3\n      pop\n      pop\n      pop\n      jump\t// out\n        /* \"#utility.yul\":6698:7036   */\n    tag_166:\n        /* \"#utility.yul\":6753:6758   */\n      0x00\n        /* \"#utility.yul\":6802:6805   */\n      dup3\n        /* \"#utility.yul\":6795:6799   */\n      0x1f\n        /* \"#utility.yul\":6787:6793   */\n      dup4\n        /* \"#utility.yul\":6783:6800   */\n      add\n        /* \"#utility.yul\":6779:6806   */\n      slt\n        /* \"#utility.yul\":6769:6891   */\n      tag_278\n      jumpi\n        /* \"#utility.yul\":6810:6889   */\n      tag_279\n      tag_157\n      jump\t// in\n    tag_279:\n        /* \"#utility.yul\":6769:6891   */\n    tag_278:\n        /* \"#utility.yul\":6927:6933   */\n      dup2\n        /* \"#utility.yul\":6914:6934   */\n      calldataload\n        /* \"#utility.yul\":6952:7030   */\n      tag_280\n        /* \"#utility.yul\":7026:7029   */\n      dup5\n        /* \"#utility.yul\":7018:7024   */\n      dup3\n        /* \"#utility.yul\":7011:7015   */\n      0x20\n        /* \"#utility.yul\":7003:7009   */\n      dup7\n        /* \"#utility.yul\":6999:7016   */\n      add\n        /* \"#utility.yul\":6952:7030   */\n      tag_165\n      jump\t// in\n    tag_280:\n        /* \"#utility.yul\":6943:7030   */\n      swap2\n      pop\n        /* \"#utility.yul\":6759:7036   */\n      pop\n        /* \"#utility.yul\":6698:7036   */\n      swap3\n      swap2\n      pop\n      pop\n      jump\t// out\n        /* \"#utility.yul\":7042:7855   */\n    tag_80:\n        /* \"#utility.yul\":7136:7142   */\n      0x00\n        /* \"#utility.yul\":7144:7150   */\n      dup1\n        /* \"#utility.yul\":7152:7158   */\n      0x00\n        /* \"#utility.yul\":7201:7203   */\n      0x60\n        /* \"#utility.yul\":7189:7198   */\n      dup5\n        /* \"#utility.yul\":7180:7187   */\n      dup7\n        /* \"#utility.yul\":7176:7199   */\n      sub\n        /* \"#utility.yul\":7172:7204   */\n      slt\n        /* \"#utility.yul\":7169:7288   */\n      iszero\n      tag_282\n      jumpi\n        /* \"#utility.yul\":7207:7286   */\n      tag_283\n      tag_139\n      jump\t// in\n    tag_283:\n        /* \"#utility.yul\":7169:7288   */\n    tag_282:\n        /* \"#utility.yul\":7327:7328   */\n      0x00\n        /* \"#utility.yul\":7352:7413   */\n      tag_284\n        /* \"#utility.yul\":7405:7412   */\n      dup7\n        /* \"#utility.yul\":7396:7402   */\n      dup3\n        /* \"#utility.yul\":7385:7394   */\n      dup8\n        /* \"#utility.yul\":7381:7403   */\n      add\n        /* \"#utility.yul\":7352:7413   */\n      tag_156\n      jump\t// in\n    tag_284:\n        /* \"#utility.yul\":7342:7413   */\n      swap4\n      pop\n        /* \"#utility.yul\":7298:7423   */\n      pop\n        /* \"#utility.yul\":7462:7464   */\n      0x20\n        /* \"#utility.yul\":7488:7541   */\n      tag_285\n        /* \"#utility.yul\":7533:7540   */\n      dup7\n        /* \"#utility.yul\":7524:7530   */\n      dup3\n        /* \"#utility.yul\":7513:7522   */\n      dup8\n        /* \"#utility.yul\":7509:7531   */\n      add\n        /* \"#utility.yul\":7488:7541   */\n      tag_152\n      jump\t// in\n    tag_285:\n        /* \"#utility.yul\":7478:7541   */\n      swap3\n      pop\n        /* \"#utility.yul\":7433:7551   */\n      pop\n        /* \"#utility.yul\":7618:7620   */\n      0x40\n        /* \"#utility.yul\":7607:7616   */\n      dup5\n        /* \"#utility.yul\":7603:7621   */\n      add\n        /* \"#utility.yul\":7590:7622   */\n      calldataload\n        /* \"#utility.yul\":7649:7667   */\n      0xffffffffffffffff\n        /* \"#utility.yul\":7641:7647   */\n      dup2\n        /* \"#utility.yul\":7638:7668   */\n      gt\n        /* \"#utility.yul\":7635:7752   */\n      iszero\n      tag_286\n      jumpi\n        /* \"#utility.yul\":7671:7750   */\n      tag_287\n      tag_140\n      jump\t// in\n    tag_287:\n        /* \"#utility.yul\":7635:7752   */\n    tag_286:\n        /* \"#utility.yul\":7776:7838   */\n      tag_288\n        /* \"#utility.yul\":7830:7837   */\n      dup7\n        /* \"#utility.yul\":7821:7827   */\n      dup3\n        /* \"#utility.yul\":7810:7819   */\n      dup8\n        /* \"#utility.yul\":7806:7828   */\n      add\n        /* \"#utility.yul\":7776:7838   */\n      tag_166\n      jump\t// in\n    tag_288:\n        /* \"#utility.yul\":7766:7838   */\n      swap2\n      pop\n        /* \"#utility.yul\":7561:7848   */\n      pop\n        /* \"#utility.yul\":7042:7855   */\n      swap3\n      pop\n      swap3\n      pop\n      swap3\n      jump\t// out\n        /* \"#utility.yul\":7861:7959   */\n    tag_167:\n        /* \"#utility.yul\":7912:7918   */\n      0x00\n        /* \"#utility.yul\":7946:7951   */\n      dup2\n        /* \"#utility.yul\":7940:7952   */\n      mload\n        /* \"#utility.yul\":7930:7952   */\n      swap1\n      pop\n        /* \"#utility.yul\":7861:7959   */\n      swap2\n      swap1\n      pop\n      jump\t// out\n        /* \"#utility.yul\":7965:8133   */\n    tag_168:\n        /* \"#utility.yul\":8048:8059   */\n      0x00\n        /* \"#utility.yul\":8082:8088   */\n      dup3\n        /* \"#utility.yul\":8077:8080   */\n      dup3\n        /* \"#utility.yul\":8070:8089   */\n      mstore\n        /* \"#utility.yul\":8122:8126   */\n      0x20\n        /* \"#utility.yul\":8117:8120   */\n      dup3\n        /* \"#utility.yul\":8113:8127   */\n      add\n        /* \"#utility.yul\":8098:8127   */\n      swap1\n      pop\n        /* \"#utility.yul\":7965:8133   */\n      swap3\n      swap2\n      pop\n      pop\n      jump\t// out\n        /* \"#utility.yul\":8139:8385   */\n    tag_169:\n        /* \"#utility.yul\":8220:8221   */\n      0x00\n        /* \"#utility.yul\":8230:8343   */\n    tag_292:\n        /* \"#utility.yul\":8244:8250   */\n      dup4\n        /* \"#utility.yul\":8241:8242   */\n      dup2\n        /* \"#utility.yul\":8238:8251   */\n      lt\n        /* \"#utility.yul\":8230:8343   */\n      iszero\n      tag_294\n      jumpi\n        /* \"#utility.yul\":8329:8330   */\n      dup1\n        /* \"#utility.yul\":8324:8327   */\n      dup3\n        /* \"#utility.yul\":8320:8331   */\n      add\n        /* \"#utility.yul\":8314:8332   */\n      mload\n        /* \"#utility.yul\":8310:8311   */\n      dup2\n        /* \"#utility.yul\":8305:8308   */\n      dup5\n        /* \"#utility.yul\":8301:8312   */\n      add\n        /* \"#utility.yul\":8294:8333   */\n      mstore\n        /* \"#utility.yul\":8266:8268   */\n      0x20\n        /* \"#utility.yul\":8263:8264   */\n      dup2\n        /* \"#utility.yul\":8259:8269   */\n      add\n        /* \"#utility.yul\":8254:8269   */\n      swap1\n      pop\n        /* \"#utility.yul\":8230:8343   */\n      jump(tag_292)\n    tag_294:\n        /* \"#utility.yul\":8377:8378   */\n      0x00\n        /* \"#utility.yul\":8368:8374   */\n      dup5\n        /* \"#utility.yul\":8363:8366   */\n      dup5\n        /* \"#utility.yul\":8359:8375   */\n      add\n        /* \"#utility.yul\":8352:8379   */\n      mstore\n        /* \"#utility.yul\":8201:8385   */\n      pop\n        /* \"#utility.yul\":8139:8385   */\n      pop\n      pop\n      pop\n      jump\t// out\n        /* \"#utility.yul\":8391:8764   */\n    tag_170:\n        /* \"#utility.yul\":8477:8480   */\n      0x00\n        /* \"#utility.yul\":8505:8543   */\n      tag_296\n        /* \"#utility.yul\":8537:8542   */\n      dup3\n        /* \"#utility.yul\":8505:8543   */\n      tag_167\n      jump\t// in\n    tag_296:\n        /* \"#utility.yul\":8559:8629   */\n      tag_297\n        /* \"#utility.yul\":8622:8628   */\n      dup2\n        /* \"#utility.yul\":8617:8620   */\n      dup6\n        /* \"#utility.yul\":8559:8629   */\n      tag_168\n      jump\t// in\n    tag_297:\n        /* \"#utility.yul\":8552:8629   */\n      swap4\n      pop\n        /* \"#utility.yul\":8638:8703   */\n      tag_298\n        /* \"#utility.yul\":8696:8702   */\n      dup2\n        /* \"#utility.yul\":8691:8694   */\n      dup6\n        /* \"#utility.yul\":8684:8688   */\n      0x20\n        /* \"#utility.yul\":8677:8682   */\n      dup7\n        /* \"#utility.yul\":8673:8689   */\n      add\n        /* \"#utility.yul\":8638:8703   */\n      tag_169\n      jump\t// in\n    tag_298:\n        /* \"#utility.yul\":8728:8757   */\n      tag_299\n        /* \"#utility.yul\":8750:8756   */\n      dup2\n        /* \"#utility.yul\":8728:8757   */\n      tag_159\n      jump\t// in\n    tag_299:\n        /* \"#utility.yul\":8723:8726   */\n      dup5\n        /* \"#utility.yul\":8719:8758   */\n      add\n        /* \"#utility.yul\":8712:8758   */\n      swap2\n      pop\n        /* \"#utility.yul\":8481:8764   */\n      pop\n        /* \"#utility.yul\":8391:8764   */\n      swap3\n      swap2\n      pop\n      pop\n      jump\t// out\n        /* \"#utility.yul\":8770:9079   */\n    tag_83:\n        /* \"#utility.yul\":8881:8885   */\n      0x00\n        /* \"#utility.yul\":8919:8921   */\n      0x20\n        /* \"#utility.yul\":8908:8917   */\n      dup3\n        /* \"#utility.yul\":8904:8922   */\n      add\n        /* \"#utility.yul\":8896:8922   */\n      swap1\n      pop\n        /* \"#utility.yul\":8968:8977   */\n      dup2\n        /* \"#utility.yul\":8962:8966   */\n      dup2\n        /* \"#utility.yul\":8958:8978   */\n      sub\n        /* \"#utility.yul\":8954:8955   */\n      0x00\n        /* \"#utility.yul\":8943:8952   */\n      dup4\n        /* \"#utility.yul\":8939:8956   */\n      add\n        /* \"#utility.yul\":8932:8979   */\n      mstore\n        /* \"#utility.yul\":8996:9072   */\n      tag_301\n        /* \"#utility.yul\":9067:9071   */\n      dup2\n        /* \"#utility.yul\":9058:9064   */\n      dup5\n        /* \"#utility.yul\":8996:9072   */\n      tag_170\n      jump\t// in\n    tag_301:\n        /* \"#utility.yul\":8988:9072   */\n      swap1\n      pop\n        /* \"#utility.yul\":8770:9079   */\n      swap3\n      swap2\n      pop\n      pop\n      jump\t// out\n        /* \"#utility.yul\":9085:9430   */\n    tag_91:\n        /* \"#utility.yul\":9152:9158   */\n      0x00\n        /* \"#utility.yul\":9201:9203   */\n      0x20\n        /* \"#utility.yul\":9189:9198   */\n      dup3\n        /* \"#utility.yul\":9180:9187   */\n      dup5\n        /* \"#utility.yul\":9176:9199   */\n      sub\n        /* \"#utility.yul\":9172:9204   */\n      slt\n        /* \"#utility.yul\":9169:9288   */\n      iszero\n      tag_303\n      jumpi\n        /* \"#utility.yul\":9207:9286   */\n      tag_304\n      tag_139\n      jump\t// in\n    tag_304:\n        /* \"#utility.yul\":9169:9288   */\n    tag_303:\n        /* \"#utility.yul\":9327:9328   */\n      0x00\n        /* \"#utility.yul\":9352:9413   */\n      tag_305\n        /* \"#utility.yul\":9405:9412   */\n      dup5\n        /* \"#utility.yul\":9396:9402   */\n      dup3\n        /* \"#utility.yul\":9385:9394   */\n      dup6\n        /* \"#utility.yul\":9381:9403   */\n      add\n        /* \"#utility.yul\":9352:9413   */\n      tag_156\n      jump\t// in\n    tag_305:\n        /* \"#utility.yul\":9342:9413   */\n      swap2\n      pop\n        /* \"#utility.yul\":9298:9423   */\n      pop\n        /* \"#utility.yul\":9085:9430   */\n      swap3\n      swap2\n      pop\n      pop\n      jump\t// out\n        /* \"#utility.yul\":9436:9605   */\n    tag_171:\n        /* \"#utility.yul\":9520:9531   */\n      0x00\n        /* \"#utility.yul\":9554:9560   */\n      dup3\n        /* \"#utility.yul\":9549:9552   */\n      dup3\n        /* \"#utility.yul\":9542:9561   */\n      mstore\n        /* \"#utility.yul\":9594:9598   */\n      0x20\n        /* \"#utility.yul\":9589:9592   */\n      dup3\n        /* \"#utility.yul\":9585:9599   */\n      add\n        /* \"#utility.yul\":9570:9599   */\n      swap1\n      pop\n        /* \"#utility.yul\":9436:9605   */\n      swap3\n      swap2\n      pop\n      pop\n      jump\t// out\n        /* \"#utility.yul\":9611:9835   */\n    tag_172:\n        /* \"#utility.yul\":9751:9785   */\n      0x596f7520617265206e6f7420616c6c6f77656420746f20736574206775617264\n        /* \"#utility.yul\":9747:9748   */\n      0x00\n        /* \"#utility.yul\":9739:9745   */\n      dup3\n        /* \"#utility.yul\":9735:9749   */\n      add\n        /* \"#utility.yul\":9728:9786   */\n      mstore\n        /* \"#utility.yul\":9820:9827   */\n      0x69616e732e000000000000000000000000000000000000000000000000000000\n        /* \"#utility.yul\":9815:9817   */\n      0x20\n        /* \"#utility.yul\":9807:9813   */\n      dup3\n        /* \"#utility.yul\":9803:9818   */\n      add\n        /* \"#utility.yul\":9796:9828   */\n      mstore\n        /* \"#utility.yul\":9611:9835   */\n      pop\n      jump\t// out\n        /* \"#utility.yul\":9841:10207   */\n    tag_173:\n        /* \"#utility.yul\":9983:9986   */\n      0x00\n        /* \"#utility.yul\":10004:10071   */\n      tag_309\n        /* \"#utility.yul\":10068:10070   */\n      0x25\n        /* \"#utility.yul\":10063:10066   */\n      dup4\n        /* \"#utility.yul\":10004:10071   */\n      tag_171\n      jump\t// in\n    tag_309:\n        /* \"#utility.yul\":9997:10071   */\n      swap2\n      pop\n        /* \"#utility.yul\":10080:10173   */\n      tag_310\n        /* \"#utility.yul\":10169:10172   */\n      dup3\n        /* \"#utility.yul\":10080:10173   */\n      tag_172\n      jump\t// in\n    tag_310:\n        /* \"#utility.yul\":10198:10200   */\n      0x40\n        /* \"#utility.yul\":10193:10196   */\n      dup3\n        /* \"#utility.yul\":10189:10201   */\n      add\n        /* \"#utility.yul\":10182:10201   */\n      swap1\n      pop\n        /* \"#utility.yul\":9841:10207   */\n      swap2\n      swap1\n      pop\n      jump\t// out\n        /* \"#utility.yul\":10213:10632   */\n    tag_96:\n        /* \"#utility.yul\":10379:10383   */\n      0x00\n        /* \"#utility.yul\":10417:10419   */\n      0x20\n        /* \"#utility.yul\":10406:10415   */\n      dup3\n        /* \"#utility.yul\":10402:10420   */\n      add\n        /* \"#utility.yul\":10394:10420   */\n      swap1\n      pop\n        /* \"#utility.yul\":10466:10475   */\n      dup2\n        /* \"#utility.yul\":10460:10464   */\n      dup2\n        /* \"#utility.yul\":10456:10476   */\n      sub\n        /* \"#utility.yul\":10452:10453   */\n      0x00\n        /* \"#utility.yul\":10441:10450   */\n      dup4\n        /* \"#utility.yul\":10437:10454   */\n      add\n        /* \"#utility.yul\":10430:10477   */\n      mstore\n        /* \"#utility.yul\":10494:10625   */\n      tag_312\n        /* \"#utility.yul\":10620:10624   */\n      dup2\n        /* \"#utility.yul\":10494:10625   */\n      tag_173\n      jump\t// in\n    tag_312:\n        /* \"#utility.yul\":10486:10625   */\n      swap1\n      pop\n        /* \"#utility.yul\":10213:10632   */\n      swap2\n      swap1\n      pop\n      jump\t// out\n        /* \"#utility.yul\":10638:10862   */\n    tag_174:\n        /* \"#utility.yul\":10778:10812   */\n      0x596f7520617265206e6f7420616c6c6f77656420746f2073657420616c6c6f77\n        /* \"#utility.yul\":10774:10775   */\n      0x00\n        /* \"#utility.yul\":10766:10772   */\n      dup3\n        /* \"#utility.yul\":10762:10776   */\n      add\n        /* \"#utility.yul\":10755:10813   */\n      mstore\n        /* \"#utility.yul\":10847:10854   */\n      0x616e63652e000000000000000000000000000000000000000000000000000000\n        /* \"#utility.yul\":10842:10844   */\n      0x20\n        /* \"#utility.yul\":10834:10840   */\n      dup3\n        /* \"#utility.yul\":10830:10845   */\n      add\n        /* \"#utility.yul\":10823:10855   */\n      mstore\n        /* \"#utility.yul\":10638:10862   */\n      pop\n      jump\t// out\n        /* \"#utility.yul\":10868:11234   */\n    tag_175:\n        /* \"#utility.yul\":11010:11013   */\n      0x00\n        /* \"#utility.yul\":11031:11098   */\n      tag_315\n        /* \"#utility.yul\":11095:11097   */\n      0x25\n        /* \"#utility.yul\":11090:11093   */\n      dup4\n        /* \"#utility.yul\":11031:11098   */\n      tag_171\n      jump\t// in\n    tag_315:\n        /* \"#utility.yul\":11024:11098   */\n      swap2\n      pop\n        /* \"#utility.yul\":11107:11200   */\n      tag_316\n        /* \"#utility.yul\":11196:11199   */\n      dup3\n        /* \"#utility.yul\":11107:11200   */\n      tag_174\n      jump\t// in\n    tag_316:\n        /* \"#utility.yul\":11225:11227   */\n      0x40\n        /* \"#utility.yul\":11220:11223   */\n      dup3\n        /* \"#utility.yul\":11216:11228   */\n      add\n        /* \"#utility.yul\":11209:11228   */\n      swap1\n      pop\n        /* \"#utility.yul\":10868:11234   */\n      swap2\n      swap1\n      pop\n      jump\t// out\n        /* \"#utility.yul\":11240:11659   */\n    tag_100:\n        /* \"#utility.yul\":11406:11410   */\n      0x00\n        /* \"#utility.yul\":11444:11446   */\n      0x20\n        /* \"#utility.yul\":11433:11442   */\n      dup3\n        /* \"#utility.yul\":11429:11447   */\n      add\n        /* \"#utility.yul\":11421:11447   */\n      swap1\n      pop\n        /* \"#utility.yul\":11493:11502   */\n      dup2\n        /* \"#utility.yul\":11487:11491   */\n      dup2\n        /* \"#utility.yul\":11483:11503   */\n      sub\n        /* \"#utility.yul\":11479:11480   */\n      0x00\n        /* \"#utility.yul\":11468:11477   */\n      dup4\n        /* \"#utility.yul\":11464:11481   */\n      add\n        /* \"#utility.yul\":11457:11504   */\n      mstore\n        /* \"#utility.yul\":11521:11652   */\n      tag_318\n        /* \"#utility.yul\":11647:11651   */\n      dup2\n        /* \"#utility.yul\":11521:11652   */\n      tag_175\n      jump\t// in\n    tag_318:\n        /* \"#utility.yul\":11513:11652   */\n      swap1\n      pop\n        /* \"#utility.yul\":11240:11659   */\n      swap2\n      swap1\n      pop\n      jump\t// out\n        /* \"#utility.yul\":11665:11898   */\n    tag_176:\n        /* \"#utility.yul\":11805:11839   */\n      0x596f7520617265206e6f7420616c6c6f77656420746f2064656e7920616e7920\n        /* \"#utility.yul\":11801:11802   */\n      0x00\n        /* \"#utility.yul\":11793:11799   */\n      dup3\n        /* \"#utility.yul\":11789:11803   */\n      add\n        /* \"#utility.yul\":11782:11840   */\n      mstore\n        /* \"#utility.yul\":11874:11890   */\n      0x66756e6374696f6e616c6974792e000000000000000000000000000000000000\n        /* \"#utility.yul\":11869:11871   */\n      0x20\n        /* \"#utility.yul\":11861:11867   */\n      dup3\n        /* \"#utility.yul\":11857:11872   */\n      add\n        /* \"#utility.yul\":11850:11891   */\n      mstore\n        /* \"#utility.yul\":11665:11898   */\n      pop\n      jump\t// out\n        /* \"#utility.yul\":11904:12270   */\n    tag_177:\n        /* \"#utility.yul\":12046:12049   */\n      0x00\n        /* \"#utility.yul\":12067:12134   */\n      tag_321\n        /* \"#utility.yul\":12131:12133   */\n      0x2e\n        /* \"#utility.yul\":12126:12129   */\n      dup4\n        /* \"#utility.yul\":12067:12134   */\n      tag_171\n      jump\t// in\n    tag_321:\n        /* \"#utility.yul\":12060:12134   */\n      swap2\n      pop\n        /* \"#utility.yul\":12143:12236   */\n      tag_322\n        /* \"#utility.yul\":12232:12235   */\n      dup3\n        /* \"#utility.yul\":12143:12236   */\n      tag_176\n      jump\t// in\n    tag_322:\n        /* \"#utility.yul\":12261:12263   */\n      0x40\n        /* \"#utility.yul\":12256:12259   */\n      dup3\n        /* \"#utility.yul\":12252:12264   */\n      add\n        /* \"#utility.yul\":12245:12264   */\n      swap1\n      pop\n        /* \"#utility.yul\":11904:12270   */\n      swap2\n      swap1\n      pop\n      jump\t// out\n        /* \"#utility.yul\":12276:12695   */\n    tag_104:\n        /* \"#utility.yul\":12442:12446   */\n      0x00\n        /* \"#utility.yul\":12480:12482   */\n      0x20\n        /* \"#utility.yul\":12469:12478   */\n      dup3\n        /* \"#utility.yul\":12465:12483   */\n      add\n        /* \"#utility.yul\":12457:12483   */\n      swap1\n      pop\n        /* \"#utility.yul\":12529:12538   */\n      dup2\n        /* \"#utility.yul\":12523:12527   */\n      dup2\n        /* \"#utility.yul\":12519:12539   */\n      sub\n        /* \"#utility.yul\":12515:12516   */\n      0x00\n        /* \"#utility.yul\":12504:12513   */\n      dup4\n        /* \"#utility.yul\":12500:12517   */\n      add\n        /* \"#utility.yul\":12493:12540   */\n      mstore\n        /* \"#utility.yul\":12557:12688   */\n      tag_324\n        /* \"#utility.yul\":12683:12687   */\n      dup2\n        /* \"#utility.yul\":12557:12688   */\n      tag_177\n      jump\t// in\n    tag_324:\n        /* \"#utility.yul\":12549:12688   */\n      swap1\n      pop\n        /* \"#utility.yul\":12276:12695   */\n      swap2\n      swap1\n      pop\n      jump\t// out\n        /* \"#utility.yul\":12701:12928   */\n    tag_178:\n        /* \"#utility.yul\":12841:12875   */\n      0x43616e27742073656e64206d6f7265207468616e2073746f72656420696e2063\n        /* \"#utility.yul\":12837:12838   */\n      0x00\n        /* \"#utility.yul\":12829:12835   */\n      dup3\n        /* \"#utility.yul\":12825:12839   */\n      add\n        /* \"#utility.yul\":12818:12876   */\n      mstore\n        /* \"#utility.yul\":12910:12920   */\n      0x6f6e74726163742e000000000000000000000000000000000000000000000000\n        /* \"#utility.yul\":12905:12907   */\n      0x20\n        /* \"#utility.yul\":12897:12903   */\n      dup3\n        /* \"#utility.yul\":12893:12908   */\n      add\n        /* \"#utility.yul\":12886:12921   */\n      mstore\n        /* \"#utility.yul\":12701:12928   */\n      pop\n      jump\t// out\n        /* \"#utility.yul\":12934:13300   */\n    tag_179:\n        /* \"#utility.yul\":13076:13079   */\n      0x00\n        /* \"#utility.yul\":13097:13164   */\n      tag_327\n        /* \"#utility.yul\":13161:13163   */\n      0x28\n        /* \"#utility.yul\":13156:13159   */\n      dup4\n        /* \"#utility.yul\":13097:13164   */\n      tag_171\n      jump\t// in\n    tag_327:\n        /* \"#utility.yul\":13090:13164   */\n      swap2\n      pop\n        /* \"#utility.yul\":13173:13266   */\n      tag_328\n        /* \"#utility.yul\":13262:13265   */\n      dup3\n        /* \"#utility.yul\":13173:13266   */\n      tag_178\n      jump\t// in\n    tag_328:\n        /* \"#utility.yul\":13291:13293   */\n      0x40\n        /* \"#utility.yul\":13286:13289   */\n      dup3\n        /* \"#utility.yul\":13282:13294   */\n      add\n        /* \"#utility.yul\":13275:13294   */\n      swap1\n      pop\n        /* \"#utility.yul\":12934:13300   */\n      swap2\n      swap1\n      pop\n      jump\t// out\n        /* \"#utility.yul\":13306:13725   */\n    tag_108:\n        /* \"#utility.yul\":13472:13476   */\n      0x00\n        /* \"#utility.yul\":13510:13512   */\n      0x20\n        /* \"#utility.yul\":13499:13508   */\n      dup3\n        /* \"#utility.yul\":13495:13513   */\n      add\n        /* \"#utility.yul\":13487:13513   */\n      swap1\n      pop\n        /* \"#utility.yul\":13559:13568   */\n      dup2\n        /* \"#utility.yul\":13553:13557   */\n      dup2\n        /* \"#utility.yul\":13549:13569   */\n      sub\n        /* \"#utility.yul\":13545:13546   */\n      0x00\n        /* \"#utility.yul\":13534:13543   */\n      dup4\n        /* \"#utility.yul\":13530:13547   */\n      add\n        /* \"#utility.yul\":13523:13570   */\n      mstore\n        /* \"#utility.yul\":13587:13718   */\n      tag_330\n        /* \"#utility.yul\":13713:13717   */\n      dup2\n        /* \"#utility.yul\":13587:13718   */\n      tag_179\n      jump\t// in\n    tag_330:\n        /* \"#utility.yul\":13579:13718   */\n      swap1\n      pop\n        /* \"#utility.yul\":13306:13725   */\n      swap2\n      swap1\n      pop\n      jump\t// out\n        /* \"#utility.yul\":13731:13909   */\n    tag_180:\n        /* \"#utility.yul\":13871:13901   */\n      0x596f7520617265206e6f7420616c6c6f77656420746f2073656e642e00000000\n        /* \"#utility.yul\":13867:13868   */\n      0x00\n        /* \"#utility.yul\":13859:13865   */\n      dup3\n        /* \"#utility.yul\":13855:13869   */\n      add\n        /* \"#utility.yul\":13848:13902   */\n      mstore\n        /* \"#utility.yul\":13731:13909   */\n      pop\n      jump\t// out\n        /* \"#utility.yul\":13915:14281   */\n    tag_181:\n        /* \"#utility.yul\":14057:14060   */\n      0x00\n        /* \"#utility.yul\":14078:14145   */\n      tag_333\n        /* \"#utility.yul\":14142:14144   */\n      0x1c\n        /* \"#utility.yul\":14137:14140   */\n      dup4\n        /* \"#utility.yul\":14078:14145   */\n      tag_171\n      jump\t// in\n    tag_333:\n        /* \"#utility.yul\":14071:14145   */\n      swap2\n      pop\n        /* \"#utility.yul\":14154:14247   */\n      tag_334\n        /* \"#utility.yul\":14243:14246   */\n      dup3\n        /* \"#utility.yul\":14154:14247   */\n      tag_180\n      jump\t// in\n    tag_334:\n        /* \"#utility.yul\":14272:14274   */\n      0x20\n        /* \"#utility.yul\":14267:14270   */\n      dup3\n        /* \"#utility.yul\":14263:14275   */\n      add\n        /* \"#utility.yul\":14256:14275   */\n      swap1\n      pop\n        /* \"#utility.yul\":13915:14281   */\n      swap2\n      swap1\n      pop\n      jump\t// out\n        /* \"#utility.yul\":14287:14706   */\n    tag_112:\n        /* \"#utility.yul\":14453:14457   */\n      0x00\n        /* \"#utility.yul\":14491:14493   */\n      0x20\n        /* \"#utility.yul\":14480:14489   */\n      dup3\n        /* \"#utility.yul\":14476:14494   */\n      add\n        /* \"#utility.yul\":14468:14494   */\n      swap1\n      pop\n        /* \"#utility.yul\":14540:14549   */\n      dup2\n        /* \"#utility.yul\":14534:14538   */\n      dup2\n        /* \"#utility.yul\":14530:14550   */\n      sub\n        /* \"#utility.yul\":14526:14527   */\n      0x00\n        /* \"#utility.yul\":14515:14524   */\n      dup4\n        /* \"#utility.yul\":14511:14528   */\n      add\n        /* \"#utility.yul\":14504:14551   */\n      mstore\n        /* \"#utility.yul\":14568:14699   */\n      tag_336\n        /* \"#utility.yul\":14694:14698   */\n      dup2\n        /* \"#utility.yul\":14568:14699   */\n      tag_181\n      jump\t// in\n    tag_336:\n        /* \"#utility.yul\":14560:14699   */\n      swap1\n      pop\n        /* \"#utility.yul\":14287:14706   */\n      swap2\n      swap1\n      pop\n      jump\t// out\n        /* \"#utility.yul\":14712:14948   */\n    tag_182:\n        /* \"#utility.yul\":14852:14886   */\n      0x596f752061726520747279696e6720746f2073656e64206d6f7265207468616e\n        /* \"#utility.yul\":14848:14849   */\n      0x00\n        /* \"#utility.yul\":14840:14846   */\n      dup3\n        /* \"#utility.yul\":14836:14850   */\n      add\n        /* \"#utility.yul\":14829:14887   */\n      mstore\n        /* \"#utility.yul\":14921:14940   */\n      0x20796f752061726520616c6c6f7765642e000000000000000000000000000000\n        /* \"#utility.yul\":14916:14918   */\n      0x20\n        /* \"#utility.yul\":14908:14914   */\n      dup3\n        /* \"#utility.yul\":14904:14919   */\n      add\n        /* \"#utility.yul\":14897:14941   */\n      mstore\n        /* \"#utility.yul\":14712:14948   */\n      pop\n      jump\t// out\n        /* \"#utility.yul\":14954:15320   */\n    tag_183:\n        /* \"#utility.yul\":15096:15099   */\n      0x00\n        /* \"#utility.yul\":15117:15184   */\n      tag_339\n        /* \"#utility.yul\":15181:15183   */\n      0x31\n        /* \"#utility.yul\":15176:15179   */\n      dup4\n        /* \"#utility.yul\":15117:15184   */\n      tag_171\n      jump\t// in\n    tag_339:\n        /* \"#utility.yul\":15110:15184   */\n      swap2\n      pop\n        /* \"#utility.yul\":15193:15286   */\n      tag_340\n        /* \"#utility.yul\":15282:15285   */\n      dup3\n        /* \"#utility.yul\":15193:15286   */\n      tag_182\n      jump\t// in\n    tag_340:\n        /* \"#utility.yul\":15311:15313   */\n      0x40\n        /* \"#utility.yul\":15306:15309   */\n      dup3\n        /* \"#utility.yul\":15302:15314   */\n      add\n        /* \"#utility.yul\":15295:15314   */\n      swap1\n      pop\n        /* \"#utility.yul\":14954:15320   */\n      swap2\n      swap1\n      pop\n      jump\t// out\n        /* \"#utility.yul\":15326:15745   */\n    tag_115:\n        /* \"#utility.yul\":15492:15496   */\n      0x00\n        /* \"#utility.yul\":15530:15532   */\n      0x20\n        /* \"#utility.yul\":15519:15528   */\n      dup3\n        /* \"#utility.yul\":15515:15533   */\n      add\n        /* \"#utility.yul\":15507:15533   */\n      swap1\n      pop\n        /* \"#utility.yul\":15579:15588   */\n      dup2\n        /* \"#utility.yul\":15573:15577   */\n      dup2\n        /* \"#utility.yul\":15569:15589   */\n      sub\n        /* \"#utility.yul\":15565:15566   */\n      0x00\n        /* \"#utility.yul\":15554:15563   */\n      dup4\n        /* \"#utility.yul\":15550:15567   */\n      add\n        /* \"#utility.yul\":15543:15590   */\n      mstore\n        /* \"#utility.yul\":15607:15738   */\n      tag_342\n        /* \"#utility.yul\":15733:15737   */\n      dup2\n        /* \"#utility.yul\":15607:15738   */\n      tag_183\n      jump\t// in\n    tag_342:\n        /* \"#utility.yul\":15599:15738   */\n      swap1\n      pop\n        /* \"#utility.yul\":15326:15745   */\n      swap2\n      swap1\n      pop\n      jump\t// out\n        /* \"#utility.yul\":15751:15931   */\n    tag_184:\n        /* \"#utility.yul\":15799:15876   */\n      0x4e487b7100000000000000000000000000000000000000000000000000000000\n        /* \"#utility.yul\":15796:15797   */\n      0x00\n        /* \"#utility.yul\":15789:15877   */\n      mstore\n        /* \"#utility.yul\":15896:15900   */\n      0x11\n        /* \"#utility.yul\":15893:15894   */\n      0x04\n        /* \"#utility.yul\":15886:15901   */\n      mstore\n        /* \"#utility.yul\":15920:15924   */\n      0x24\n        /* \"#utility.yul\":15917:15918   */\n      0x00\n        /* \"#utility.yul\":15910:15925   */\n      revert\n        /* \"#utility.yul\":15937:16131   */\n    tag_117:\n        /* \"#utility.yul\":15977:15981   */\n      0x00\n        /* \"#utility.yul\":15997:16017   */\n      tag_345\n        /* \"#utility.yul\":16015:16016   */\n      dup3\n        /* \"#utility.yul\":15997:16017   */\n      tag_147\n      jump\t// in\n    tag_345:\n        /* \"#utility.yul\":15992:16017   */\n      swap2\n      pop\n        /* \"#utility.yul\":16031:16051   */\n      tag_346\n        /* \"#utility.yul\":16049:16050   */\n      dup4\n        /* \"#utility.yul\":16031:16051   */\n      tag_147\n      jump\t// in\n    tag_346:\n        /* \"#utility.yul\":16026:16051   */\n      swap3\n      pop\n        /* \"#utility.yul\":16075:16076   */\n      dup3\n        /* \"#utility.yul\":16072:16073   */\n      dup3\n        /* \"#utility.yul\":16068:16077   */\n      sub\n        /* \"#utility.yul\":16060:16077   */\n      swap1\n      pop\n        /* \"#utility.yul\":16099:16100   */\n      dup2\n        /* \"#utility.yul\":16093:16097   */\n      dup2\n        /* \"#utility.yul\":16090:16101   */\n      gt\n        /* \"#utility.yul\":16087:16124   */\n      iszero\n      tag_347\n      jumpi\n        /* \"#utility.yul\":16104:16122   */\n      tag_348\n      tag_184\n      jump\t// in\n    tag_348:\n        /* \"#utility.yul\":16087:16124   */\n    tag_347:\n        /* \"#utility.yul\":15937:16131   */\n      swap3\n      swap2\n      pop\n      pop\n      jump\t// out\n        /* \"#utility.yul\":16137:16284   */\n    tag_185:\n        /* \"#utility.yul\":16238:16249   */\n      0x00\n        /* \"#utility.yul\":16275:16278   */\n      dup2\n        /* \"#utility.yul\":16260:16278   */\n      swap1\n      pop\n        /* \"#utility.yul\":16137:16284   */\n      swap3\n      swap2\n      pop\n      pop\n      jump\t// out\n        /* \"#utility.yul\":16290:16676   */\n    tag_186:\n        /* \"#utility.yul\":16394:16397   */\n      0x00\n        /* \"#utility.yul\":16422:16460   */\n      tag_351\n        /* \"#utility.yul\":16454:16459   */\n      dup3\n        /* \"#utility.yul\":16422:16460   */\n      tag_167\n      jump\t// in\n    tag_351:\n        /* \"#utility.yul\":16476:16564   */\n      tag_352\n        /* \"#utility.yul\":16557:16563   */\n      dup2\n        /* \"#utility.yul\":16552:16555   */\n      dup6\n        /* \"#utility.yul\":16476:16564   */\n      tag_185\n      jump\t// in\n    tag_352:\n        /* \"#utility.yul\":16469:16564   */\n      swap4\n      pop\n        /* \"#utility.yul\":16573:16638   */\n      tag_353\n        /* \"#utility.yul\":16631:16637   */\n      dup2\n        /* \"#utility.yul\":16626:16629   */\n      dup6\n        /* \"#utility.yul\":16619:16623   */\n      0x20\n        /* \"#utility.yul\":16612:16617   */\n      dup7\n        /* \"#utility.yul\":16608:16624   */\n      add\n        /* \"#utility.yul\":16573:16638   */\n      tag_169\n      jump\t// in\n    tag_353:\n        /* \"#utility.yul\":16663:16669   */\n      dup1\n        /* \"#utility.yul\":16658:16661   */\n      dup5\n        /* \"#utility.yul\":16654:16670   */\n      add\n        /* \"#utility.yul\":16647:16670   */\n      swap2\n      pop\n        /* \"#utility.yul\":16398:16676   */\n      pop\n        /* \"#utility.yul\":16290:16676   */\n      swap3\n      swap2\n      pop\n      pop\n      jump\t// out\n        /* \"#utility.yul\":16682:16953   */\n    tag_119:\n        /* \"#utility.yul\":16812:16815   */\n      0x00\n        /* \"#utility.yul\":16834:16927   */\n      tag_355\n        /* \"#utility.yul\":16923:16926   */\n      dup3\n        /* \"#utility.yul\":16914:16920   */\n      dup5\n        /* \"#utility.yul\":16834:16927   */\n      tag_186\n      jump\t// in\n    tag_355:\n        /* \"#utility.yul\":16827:16927   */\n      swap2\n      pop\n        /* \"#utility.yul\":16944:16947   */\n      dup2\n        /* \"#utility.yul\":16937:16947   */\n      swap1\n      pop\n        /* \"#utility.yul\":16682:16953   */\n      swap3\n      swap2\n      pop\n      pop\n      jump\t// out\n        /* \"#utility.yul\":16959:17180   */\n    tag_187:\n        /* \"#utility.yul\":17099:17133   */\n      0x41626f7274696e672c2063616c6c20776173206e6f7420737563636573736675\n        /* \"#utility.yul\":17095:17096   */\n      0x00\n        /* \"#utility.yul\":17087:17093   */\n      dup3\n        /* \"#utility.yul\":17083:17097   */\n      add\n        /* \"#utility.yul\":17076:17134   */\n      mstore\n        /* \"#utility.yul\":17168:17172   */\n      0x6c21000000000000000000000000000000000000000000000000000000000000\n        /* \"#utility.yul\":17163:17165   */\n      0x20\n        /* \"#utility.yul\":17155:17161   */\n      dup3\n        /* \"#utility.yul\":17151:17166   */\n      add\n        /* \"#utility.yul\":17144:17173   */\n      mstore\n        /* \"#utility.yul\":16959:17180   */\n      pop\n      jump\t// out\n        /* \"#utility.yul\":17186:17552   */\n    tag_188:\n        /* \"#utility.yul\":17328:17331   */\n      0x00\n        /* \"#utility.yul\":17349:17416   */\n      tag_358\n        /* \"#utility.yul\":17413:17415   */\n      0x22\n        /* \"#utility.yul\":17408:17411   */\n      dup4\n        /* \"#utility.yul\":17349:17416   */\n      tag_171\n      jump\t// in\n    tag_358:\n        /* \"#utility.yul\":17342:17416   */\n      swap2\n      pop\n        /* \"#utility.yul\":17425:17518   */\n      tag_359\n        /* \"#utility.yul\":17514:17517   */\n      dup3\n        /* \"#utility.yul\":17425:17518   */\n      tag_187\n      jump\t// in\n    tag_359:\n        /* \"#utility.yul\":17543:17545   */\n      0x40\n        /* \"#utility.yul\":17538:17541   */\n      dup3\n        /* \"#utility.yul\":17534:17546   */\n      add\n        /* \"#utility.yul\":17527:17546   */\n      swap1\n      pop\n        /* \"#utility.yul\":17186:17552   */\n      swap2\n      swap1\n      pop\n      jump\t// out\n        /* \"#utility.yul\":17558:17977   */\n    tag_125:\n        /* \"#utility.yul\":17724:17728   */\n      0x00\n        /* \"#utility.yul\":17762:17764   */\n      0x20\n        /* \"#utility.yul\":17751:17760   */\n      dup3\n        /* \"#utility.yul\":17747:17765   */\n      add\n        /* \"#utility.yul\":17739:17765   */\n      swap1\n      pop\n        /* \"#utility.yul\":17811:17820   */\n      dup2\n        /* \"#utility.yul\":17805:17809   */\n      dup2\n        /* \"#utility.yul\":17801:17821   */\n      sub\n        /* \"#utility.yul\":17797:17798   */\n      0x00\n        /* \"#utility.yul\":17786:17795   */\n      dup4\n        /* \"#utility.yul\":17782:17799   */\n      add\n        /* \"#utility.yul\":17775:17822   */\n      mstore\n        /* \"#utility.yul\":17839:17970   */\n      tag_361\n        /* \"#utility.yul\":17965:17969   */\n      dup2\n        /* \"#utility.yul\":17839:17970   */\n      tag_188\n      jump\t// in\n    tag_361:\n        /* \"#utility.yul\":17831:17970   */\n      swap1\n      pop\n        /* \"#utility.yul\":17558:17977   */\n      swap2\n      swap1\n      pop\n      jump\t// out\n        /* \"#utility.yul\":17983:18214   */\n    tag_189:\n        /* \"#utility.yul\":18123:18157   */\n      0x596f7520617265206e6f74206120677561726469616e21204e6f7420616c6c6f\n        /* \"#utility.yul\":18119:18120   */\n      0x00\n        /* \"#utility.yul\":18111:18117   */\n      dup3\n        /* \"#utility.yul\":18107:18121   */\n      add\n        /* \"#utility.yul\":18100:18158   */\n      mstore\n        /* \"#utility.yul\":18192:18206   */\n      0x77656420746f20766f74652e0000000000000000000000000000000000000000\n        /* \"#utility.yul\":18187:18189   */\n      0x20\n        /* \"#utility.yul\":18179:18185   */\n      dup3\n        /* \"#utility.yul\":18175:18190   */\n      add\n        /* \"#utility.yul\":18168:18207   */\n      mstore\n        /* \"#utility.yul\":17983:18214   */\n      pop\n      jump\t// out\n        /* \"#utility.yul\":18220:18586   */\n    tag_190:\n        /* \"#utility.yul\":18362:18365   */\n      0x00\n        /* \"#utility.yul\":18383:18450   */\n      tag_364\n        /* \"#utility.yul\":18447:18449   */\n      0x2c\n        /* \"#utility.yul\":18442:18445   */\n      dup4\n        /* \"#utility.yul\":18383:18450   */\n      tag_171\n      jump\t// in\n    tag_364:\n        /* \"#utility.yul\":18376:18450   */\n      swap2\n      pop\n        /* \"#utility.yul\":18459:18552   */\n      tag_365\n        /* \"#utility.yul\":18548:18551   */\n      dup3\n        /* \"#utility.yul\":18459:18552   */\n      tag_189\n      jump\t// in\n    tag_365:\n        /* \"#utility.yul\":18577:18579   */\n      0x40\n        /* \"#utility.yul\":18572:18575   */\n      dup3\n        /* \"#utility.yul\":18568:18580   */\n      add\n        /* \"#utility.yul\":18561:18580   */\n      swap1\n      pop\n        /* \"#utility.yul\":18220:18586   */\n      swap2\n      swap1\n      pop\n      jump\t// out\n        /* \"#utility.yul\":18592:19011   */\n    tag_130:\n        /* \"#utility.yul\":18758:18762   */\n      0x00\n        /* \"#utility.yul\":18796:18798   */\n      0x20\n        /* \"#utility.yul\":18785:18794   */\n      dup3\n        /* \"#utility.yul\":18781:18799   */\n      add\n        /* \"#utility.yul\":18773:18799   */\n      swap1\n      pop\n        /* \"#utility.yul\":18845:18854   */\n      dup2\n        /* \"#utility.yul\":18839:18843   */\n      dup2\n        /* \"#utility.yul\":18835:18855   */\n      sub\n        /* \"#utility.yul\":18831:18832   */\n      0x00\n        /* \"#utility.yul\":18820:18829   */\n      dup4\n        /* \"#utility.yul\":18816:18833   */\n      add\n        /* \"#utility.yul\":18809:18856   */\n      mstore\n        /* \"#utility.yul\":18873:19004   */\n      tag_367\n        /* \"#utility.yul\":18999:19003   */\n      dup2\n        /* \"#utility.yul\":18873:19004   */\n      tag_190\n      jump\t// in\n    tag_367:\n        /* \"#utility.yul\":18865:19004   */\n      swap1\n      pop\n        /* \"#utility.yul\":18592:19011   */\n      swap2\n      swap1\n      pop\n      jump\t// out\n        /* \"#utility.yul\":19017:19185   */\n    tag_191:\n        /* \"#utility.yul\":19157:19177   */\n      0x596f7520616c726561647920766f746564210000000000000000000000000000\n        /* \"#utility.yul\":19153:19154   */\n      0x00\n        /* \"#utility.yul\":19145:19151   */\n      dup3\n        /* \"#utility.yul\":19141:19155   */\n      add\n        /* \"#utility.yul\":19134:19178   */\n      mstore\n        /* \"#utility.yul\":19017:19185   */\n      pop\n      jump\t// out\n        /* \"#utility.yul\":19191:19557   */\n    tag_192:\n        /* \"#utility.yul\":19333:19336   */\n      0x00\n        /* \"#utility.yul\":19354:19421   */\n      tag_370\n        /* \"#utility.yul\":19418:19420   */\n      0x12\n        /* \"#utility.yul\":19413:19416   */\n      dup4\n        /* \"#utility.yul\":19354:19421   */\n      tag_171\n      jump\t// in\n    tag_370:\n        /* \"#utility.yul\":19347:19421   */\n      swap2\n      pop\n        /* \"#utility.yul\":19430:19523   */\n      tag_371\n        /* \"#utility.yul\":19519:19522   */\n      dup3\n        /* \"#utility.yul\":19430:19523   */\n      tag_191\n      jump\t// in\n    tag_371:\n        /* \"#utility.yul\":19548:19550   */\n      0x20\n        /* \"#utility.yul\":19543:19546   */\n      dup3\n        /* \"#utility.yul\":19539:19551   */\n      add\n        /* \"#utility.yul\":19532:19551   */\n      swap1\n      pop\n        /* \"#utility.yul\":19191:19557   */\n      swap2\n      swap1\n      pop\n      jump\t// out\n        /* \"#utility.yul\":19563:19982   */\n    tag_133:\n        /* \"#utility.yul\":19729:19733   */\n      0x00\n        /* \"#utility.yul\":19767:19769   */\n      0x20\n        /* \"#utility.yul\":19756:19765   */\n      dup3\n        /* \"#utility.yul\":19752:19770   */\n      add\n        /* \"#utility.yul\":19744:19770   */\n      swap1\n      pop\n        /* \"#utility.yul\":19816:19825   */\n      dup2\n        /* \"#utility.yul\":19810:19814   */\n      dup2\n        /* \"#utility.yul\":19806:19826   */\n      sub\n        /* \"#utility.yul\":19802:19803   */\n      0x00\n        /* \"#utility.yul\":19791:19800   */\n      dup4\n        /* \"#utility.yul\":19787:19804   */\n      add\n        /* \"#utility.yul\":19780:19827   */\n      mstore\n        /* \"#utility.yul\":19844:19975   */\n      tag_373\n        /* \"#utility.yul\":19970:19974   */\n      dup2\n        /* \"#utility.yul\":19844:19975   */\n      tag_192\n      jump\t// in\n    tag_373:\n        /* \"#utility.yul\":19836:19975   */\n      swap1\n      pop\n        /* \"#utility.yul\":19563:19982   */\n      swap2\n      swap1\n      pop\n      jump\t// out\n        /* \"#utility.yul\":19988:20221   */\n    tag_136:\n        /* \"#utility.yul\":20027:20030   */\n      0x00\n        /* \"#utility.yul\":20050:20074   */\n      tag_375\n        /* \"#utility.yul\":20068:20073   */\n      dup3\n        /* \"#utility.yul\":20050:20074   */\n      tag_147\n      jump\t// in\n    tag_375:\n        /* \"#utility.yul\":20041:20074   */\n      swap2\n      pop\n        /* \"#utility.yul\":20096:20162   */\n      0xffffffffffffffffffffffffffffffffffffffffffffffffffffffffffffffff\n        /* \"#utility.yul\":20089:20094   */\n      dup3\n        /* \"#utility.yul\":20086:20163   */\n      sub\n        /* \"#utility.yul\":20083:20186   */\n      tag_376\n      jumpi\n        /* \"#utility.yul\":20166:20184   */\n      tag_377\n      tag_184\n      jump\t// in\n    tag_377:\n        /* \"#utility.yul\":20083:20186   */\n    tag_376:\n        /* \"#utility.yul\":20213:20214   */\n      0x01\n        /* \"#utility.yul\":20206:20211   */\n      dup3\n        /* \"#utility.yul\":20202:20215   */\n      add\n        /* \"#utility.yul\":20195:20215   */\n      swap1\n      pop\n        /* \"#utility.yul\":19988:20221   */\n      swap2\n      swap1\n      pop\n      jump\t// out\n\n    auxdata: 0xa2646970667358221220915318efb4241ed2304fa5b97a8f285e97f4e315c73c986bf00e5ea3fb99bc9264736f6c63430008100033\n}\n",
				"bytecode": {
					"linkReferences": {},
					"object": "608060405234801561001057600080fd5b50336000806101000a81548173ffffffffffffffffffffffffffffffffffffffff021916908373ffffffffffffffffffffffffffffffffffffffff1602179055506118b0806100606000396000f3fe6080604052600436106100e15760003560e01c806369f3331d1161007f578063a349d75411610059578063a349d754146102cb578063be45fd6214610308578063cd0a314b14610345578063f30b4db214610370576100e8565b806369f3331d1461024c5780637673de53146102775780638da5cb5b146102a0576100e8565b80632b8a1c5a116100bb5780632b8a1c5a14610192578063310ec4a7146101bb578063383777df146101e45780633e5beab91461020f576100e8565b80630bc605ad146100ed5780630c68ba211461012a5780631710e42814610167576100e8565b366100e857005b600080fd5b3480156100f957600080fd5b50610114600480360381019061010f9190610dfb565b610399565b6040516101219190610e43565b60405180910390f35b34801561013657600080fd5b50610151600480360381019061014c9190610dfb565b6103b9565b60405161015e9190610e43565b60405180910390f35b34801561017357600080fd5b5061017c6103d9565b6040516101899190610e77565b60405180910390f35b34801561019e57600080fd5b506101b960048036038101906101b49190610ebe565b6103df565b005b3480156101c757600080fd5b506101e260048036038101906101dd9190610f2a565b6104c8565b005b3480156101f057600080fd5b506101f96105f5565b6040516102069190610e77565b60405180910390f35b34801561021b57600080fd5b5061023660048036038101906102319190610dfb565b6105fa565b6040516102439190610e77565b60405180910390f35b34801561025857600080fd5b50610261610612565b60405161026e9190610f8b565b60405180910390f35b34801561028357600080fd5b5061029e60048036038101906102999190610dfb565b610638565b005b3480156102ac57600080fd5b506102b5610721565b6040516102c29190610f8b565b60405180910390f35b3480156102d757600080fd5b506102f260048036038101906102ed9190610fa6565b610745565b6040516102ff9190610e43565b60405180910390f35b34801561031457600080fd5b5061032f600480360381019061032a9190611158565b610774565b60405161033c9190611246565b60405180910390f35b34801561035157600080fd5b5061035a610a2d565b6040516103679190610e77565b60405180910390f35b34801561037c57600080fd5b5061039760048036038101906103929190611268565b610a35565b005b60016020528060005260406000206000915054906101000a900460ff1681565b60036020528060005260406000206000915054906101000a900460ff1681565b60065481565b60008054906101000a900473ffffffffffffffffffffffffffffffffffffffff1673ffffffffffffffffffffffffffffffffffffffff163373ffffffffffffffffffffffffffffffffffffffff161461046d576040517f08c379a000000000000000000000000000000000000000000000000000000000815260040161046490611318565b60405180910390fd5b80600360008473ffffffffffffffffffffffffffffffffffffffff1673ffffffffffffffffffffffffffffffffffffffff16815260200190815260200160002060006101000a81548160ff0219169083151502179055505050565b60008054906101000a900473ffffffffffffffffffffffffffffffffffffffff1673ffffffffffffffffffffffffffffffffffffffff163373ffffffffffffffffffffffffffffffffffffffff1614610556576040517f08c379a000000000000000000000000000000000000000000000000000000000815260040161054d906113aa565b60405180910390fd5b80600260008473ffffffffffffffffffffffffffffffffffffffff1673ffffffffffffffffffffffffffffffffffffffff1681526020019081526020016000208190555060018060008473ffffffffffffffffffffffffffffffffffffffff1673ffffffffffffffffffffffffffffffffffffffff16815260200190815260200160002060006101000a81548160ff0219169083151502179055505050565b600381565b60026020528060005260406000206000915090505481565b600560009054906101000a900473ffffffffffffffffffffffffffffffffffffffff1681565b60008054906101000a900473ffffffffffffffffffffffffffffffffffffffff1673ffffffffffffffffffffffffffffffffffffffff163373ffffffffffffffffffffffffffffffffffffffff16146106c6576040517f08c379a00000000000000000000000000000000000000000000000000000000081526004016106bd9061143c565b60405180910390fd5b6000600160008373ffffffffffffffffffffffffffffffffffffffff1673ffffffffffffffffffffffffffffffffffffffff16815260200190815260200160002060006101000a81548160ff02191690831515021790555050565b60008054906101000a900473ffffffffffffffffffffffffffffffffffffffff1681565b60046020528160005260406000206020528060005260406000206000915091509054906101000a900460ff1681565b6060478311156107b9576040517f08c379a00000000000000000000000000000000000000000000000000000000081526004016107b0906114ce565b60405180910390fd5b60008054906101000a900473ffffffffffffffffffffffffffffffffffffffff1673ffffffffffffffffffffffffffffffffffffffff163373ffffffffffffffffffffffffffffffffffffffff161461097157600160003373ffffffffffffffffffffffffffffffffffffffff1673ffffffffffffffffffffffffffffffffffffffff16815260200190815260200160002060009054906101000a900460ff16610898576040517f08c379a000000000000000000000000000000000000000000000000000000000815260040161088f9061153a565b60405180910390fd5b82600260003373ffffffffffffffffffffffffffffffffffffffff1673ffffffffffffffffffffffffffffffffffffffff16815260200190815260200160002054101561091a576040517f08c379a0000000000000000000000000000000000000000000000000000000008152600401610911906115cc565b60405180910390fd5b82600260003373ffffffffffffffffffffffffffffffffffffffff1673ffffffffffffffffffffffffffffffffffffffff1681526020019081526020016000206000828254610969919061161b565b925050819055505b6000808573ffffffffffffffffffffffffffffffffffffffff16858560405161099a919061168b565b60006040518083038185875af1925050503d80600081146109d7576040519150601f19603f3d011682016040523d82523d6000602084013e6109dc565b606091505b509150915081610a21576040517f08c379a0000000000000000000000000000000000000000000000000000000008152600401610a1890611714565b60405180910390fd5b80925050509392505050565b600047905090565b600360003373ffffffffffffffffffffffffffffffffffffffff1673ffffffffffffffffffffffffffffffffffffffff16815260200190815260200160002060009054906101000a900460ff16610ac1576040517f08c379a0000000000000000000000000000000000000000000000000000000008152600401610ab8906117a6565b60405180910390fd5b600460008273ffffffffffffffffffffffffffffffffffffffff1673ffffffffffffffffffffffffffffffffffffffff16815260200190815260200160002060003373ffffffffffffffffffffffffffffffffffffffff1673ffffffffffffffffffffffffffffffffffffffff16815260200190815260200160002060009054906101000a900460ff1615610b8b576040517f08c379a0000000000000000000000000000000000000000000000000000000008152600401610b8290611812565b60405180910390fd5b8073ffffffffffffffffffffffffffffffffffffffff16600560009054906101000a900473ffffffffffffffffffffffffffffffffffffffff1673ffffffffffffffffffffffffffffffffffffffff1614610c2a5780600560006101000a81548173ffffffffffffffffffffffffffffffffffffffff021916908373ffffffffffffffffffffffffffffffffffffffff16021790555060006006819055505b60066000815480929190610c3d90611832565b91905055506001600460008373ffffffffffffffffffffffffffffffffffffffff1673ffffffffffffffffffffffffffffffffffffffff16815260200190815260200160002060003373ffffffffffffffffffffffffffffffffffffffff1673ffffffffffffffffffffffffffffffffffffffff16815260200190815260200160002060006101000a81548160ff021916908315150217905550600360065410610d8657600560009054906101000a900473ffffffffffffffffffffffffffffffffffffffff166000806101000a81548173ffffffffffffffffffffffffffffffffffffffff021916908373ffffffffffffffffffffffffffffffffffffffff1602179055506000600560006101000a81548173ffffffffffffffffffffffffffffffffffffffff021916908373ffffffffffffffffffffffffffffffffffffffff1602179055505b50565b6000604051905090565b600080fd5b600080fd5b600073ffffffffffffffffffffffffffffffffffffffff82169050919050565b6000610dc882610d9d565b9050919050565b610dd881610dbd565b8114610de357600080fd5b50565b600081359050610df581610dcf565b92915050565b600060208284031215610e1157610e10610d93565b5b6000610e1f84828501610de6565b91505092915050565b60008115159050919050565b610e3d81610e28565b82525050565b6000602082019050610e586000830184610e34565b92915050565b6000819050919050565b610e7181610e5e565b82525050565b6000602082019050610e8c6000830184610e68565b92915050565b610e9b81610e28565b8114610ea657600080fd5b50565b600081359050610eb881610e92565b92915050565b60008060408385031215610ed557610ed4610d93565b5b6000610ee385828601610de6565b9250506020610ef485828601610ea9565b9150509250929050565b610f0781610e5e565b8114610f1257600080fd5b50565b600081359050610f2481610efe565b92915050565b60008060408385031215610f4157610f40610d93565b5b6000610f4f85828601610de6565b9250506020610f6085828601610f15565b9150509250929050565b6000610f7582610d9d565b9050919050565b610f8581610f6a565b82525050565b6000602082019050610fa06000830184610f7c565b92915050565b60008060408385031215610fbd57610fbc610d93565b5b6000610fcb85828601610de6565b9250506020610fdc85828601610de6565b9150509250929050565b610fef81610f6a565b8114610ffa57600080fd5b50565b60008135905061100c81610fe6565b92915050565b600080fd5b600080fd5b6000601f19601f8301169050919050565b7f4e487b7100000000000000000000000000000000000000000000000000000000600052604160045260246000fd5b6110658261101c565b810181811067ffffffffffffffff821117156110845761108361102d565b5b80604052505050565b6000611097610d89565b90506110a3828261105c565b919050565b600067ffffffffffffffff8211156110c3576110c261102d565b5b6110cc8261101c565b9050602081019050919050565b82818337600083830152505050565b60006110fb6110f6846110a8565b61108d565b90508281526020810184848401111561111757611116611017565b5b6111228482856110d9565b509392505050565b600082601f83011261113f5761113e611012565b5b813561114f8482602086016110e8565b91505092915050565b60008060006060848603121561117157611170610d93565b5b600061117f86828701610ffd565b935050602061119086828701610f15565b925050604084013567ffffffffffffffff8111156111b1576111b0610d98565b5b6111bd8682870161112a565b9150509250925092565b600081519050919050565b600082825260208201905092915050565b60005b838110156112015780820151818401526020810190506111e6565b60008484015250505050565b6000611218826111c7565b61122281856111d2565b93506112328185602086016111e3565b61123b8161101c565b840191505092915050565b60006020820190508181036000830152611260818461120d565b905092915050565b60006020828403121561127e5761127d610d93565b5b600061128c84828501610ffd565b91505092915050565b600082825260208201905092915050565b7f596f7520617265206e6f7420616c6c6f77656420746f2073657420677561726460008201527f69616e732e000000000000000000000000000000000000000000000000000000602082015250565b6000611302602583611295565b915061130d826112a6565b604082019050919050565b60006020820190508181036000830152611331816112f5565b9050919050565b7f596f7520617265206e6f7420616c6c6f77656420746f2073657420616c6c6f7760008201527f616e63652e000000000000000000000000000000000000000000000000000000602082015250565b6000611394602583611295565b915061139f82611338565b604082019050919050565b600060208201905081810360008301526113c381611387565b9050919050565b7f596f7520617265206e6f7420616c6c6f77656420746f2064656e7920616e792060008201527f66756e6374696f6e616c6974792e000000000000000000000000000000000000602082015250565b6000611426602e83611295565b9150611431826113ca565b604082019050919050565b6000602082019050818103600083015261145581611419565b9050919050565b7f43616e27742073656e64206d6f7265207468616e2073746f72656420696e206360008201527f6f6e74726163742e000000000000000000000000000000000000000000000000602082015250565b60006114b8602883611295565b91506114c38261145c565b604082019050919050565b600060208201905081810360008301526114e7816114ab565b9050919050565b7f596f7520617265206e6f7420616c6c6f77656420746f2073656e642e00000000600082015250565b6000611524601c83611295565b915061152f826114ee565b602082019050919050565b6000602082019050818103600083015261155381611517565b9050919050565b7f596f752061726520747279696e6720746f2073656e64206d6f7265207468616e60008201527f20796f752061726520616c6c6f7765642e000000000000000000000000000000602082015250565b60006115b6603183611295565b91506115c18261155a565b604082019050919050565b600060208201905081810360008301526115e5816115a9565b9050919050565b7f4e487b7100000000000000000000000000000000000000000000000000000000600052601160045260246000fd5b600061162682610e5e565b915061163183610e5e565b9250828203905081811115611649576116486115ec565b5b92915050565b600081905092915050565b6000611665826111c7565b61166f818561164f565b935061167f8185602086016111e3565b80840191505092915050565b6000611697828461165a565b915081905092915050565b7f41626f7274696e672c2063616c6c20776173206e6f742073756363657373667560008201527f6c21000000000000000000000000000000000000000000000000000000000000602082015250565b60006116fe602283611295565b9150611709826116a2565b604082019050919050565b6000602082019050818103600083015261172d816116f1565b9050919050565b7f596f7520617265206e6f74206120677561726469616e21204e6f7420616c6c6f60008201527f77656420746f20766f74652e0000000000000000000000000000000000000000602082015250565b6000611790602c83611295565b915061179b82611734565b604082019050919050565b600060208201905081810360008301526117bf81611783565b9050919050565b7f596f7520616c726561647920766f746564210000000000000000000000000000600082015250565b60006117fc601283611295565b9150611807826117c6565b602082019050919050565b6000602082019050818103600083015261182b816117ef565b9050919050565b600061183d82610e5e565b91507fffffffffffffffffffffffffffffffffffffffffffffffffffffffffffffffff820361186f5761186e6115ec565b5b60018201905091905056fea2646970667358221220915318efb4241ed2304fa5b97a8f285e97f4e315c73c986bf00e5ea3fb99bc9264736f6c63430008100033",
					"opcodes": "PUSH1 0x80 PUSH1 0x40 MSTORE CALLVALUE DUP1 ISZERO PUSH2 0x10 JUMPI PUSH1 0x0 DUP1 REVERT JUMPDEST POP CALLER PUSH1 0x0 DUP1 PUSH2 0x100 EXP DUP2 SLOAD DUP2 PUSH20 0xFFFFFFFFFFFFFFFFFFFFFFFFFFFFFFFFFFFFFFFF MUL NOT AND SWAP1 DUP4 PUSH20 0xFFFFFFFFFFFFFFFFFFFFFFFFFFFFFFFFFFFFFFFF AND MUL OR SWAP1 SSTORE POP PUSH2 0x18B0 DUP1 PUSH2 0x60 PUSH1 0x0 CODECOPY PUSH1 0x0 RETURN INVALID PUSH1 0x80 PUSH1 0x40 MSTORE PUSH1 0x4 CALLDATASIZE LT PUSH2 0xE1 JUMPI PUSH1 0x0 CALLDATALOAD PUSH1 0xE0 SHR DUP1 PUSH4 0x69F3331D GT PUSH2 0x7F JUMPI DUP1 PUSH4 0xA349D754 GT PUSH2 0x59 JUMPI DUP1 PUSH4 0xA349D754 EQ PUSH2 0x2CB JUMPI DUP1 PUSH4 0xBE45FD62 EQ PUSH2 0x308 JUMPI DUP1 PUSH4 0xCD0A314B EQ PUSH2 0x345 JUMPI DUP1 PUSH4 0xF30B4DB2 EQ PUSH2 0x370 JUMPI PUSH2 0xE8 JUMP JUMPDEST DUP1 PUSH4 0x69F3331D EQ PUSH2 0x24C JUMPI DUP1 PUSH4 0x7673DE53 EQ PUSH2 0x277 JUMPI DUP1 PUSH4 0x8DA5CB5B EQ PUSH2 0x2A0 JUMPI PUSH2 0xE8 JUMP JUMPDEST DUP1 PUSH4 0x2B8A1C5A GT PUSH2 0xBB JUMPI DUP1 PUSH4 0x2B8A1C5A EQ PUSH2 0x192 JUMPI DUP1 PUSH4 0x310EC4A7 EQ PUSH2 0x1BB JUMPI DUP1 PUSH4 0x383777DF EQ PUSH2 0x1E4 JUMPI DUP1 PUSH4 0x3E5BEAB9 EQ PUSH2 0x20F JUMPI PUSH2 0xE8 JUMP JUMPDEST DUP1 PUSH4 0xBC605AD EQ PUSH2 0xED JUMPI DUP1 PUSH4 0xC68BA21 EQ PUSH2 0x12A JUMPI DUP1 PUSH4 0x1710E428 EQ PUSH2 0x167 JUMPI PUSH2 0xE8 JUMP JUMPDEST CALLDATASIZE PUSH2 0xE8 JUMPI STOP JUMPDEST PUSH1 0x0 DUP1 REVERT JUMPDEST CALLVALUE DUP1 ISZERO PUSH2 0xF9 JUMPI PUSH1 0x0 DUP1 REVERT JUMPDEST POP PUSH2 0x114 PUSH1 0x4 DUP1 CALLDATASIZE SUB DUP2 ADD SWAP1 PUSH2 0x10F SWAP2 SWAP1 PUSH2 0xDFB JUMP JUMPDEST PUSH2 0x399 JUMP JUMPDEST PUSH1 0x40 MLOAD PUSH2 0x121 SWAP2 SWAP1 PUSH2 0xE43 JUMP JUMPDEST PUSH1 0x40 MLOAD DUP1 SWAP2 SUB SWAP1 RETURN JUMPDEST CALLVALUE DUP1 ISZERO PUSH2 0x136 JUMPI PUSH1 0x0 DUP1 REVERT JUMPDEST POP PUSH2 0x151 PUSH1 0x4 DUP1 CALLDATASIZE SUB DUP2 ADD SWAP1 PUSH2 0x14C SWAP2 SWAP1 PUSH2 0xDFB JUMP JUMPDEST PUSH2 0x3B9 JUMP JUMPDEST PUSH1 0x40 MLOAD PUSH2 0x15E SWAP2 SWAP1 PUSH2 0xE43 JUMP JUMPDEST PUSH1 0x40 MLOAD DUP1 SWAP2 SUB SWAP1 RETURN JUMPDEST CALLVALUE DUP1 ISZERO PUSH2 0x173 JUMPI PUSH1 0x0 DUP1 REVERT JUMPDEST POP PUSH2 0x17C PUSH2 0x3D9 JUMP JUMPDEST PUSH1 0x40 MLOAD PUSH2 0x189 SWAP2 SWAP1 PUSH2 0xE77 JUMP JUMPDEST PUSH1 0x40 MLOAD DUP1 SWAP2 SUB SWAP1 RETURN JUMPDEST CALLVALUE DUP1 ISZERO PUSH2 0x19E JUMPI PUSH1 0x0 DUP1 REVERT JUMPDEST POP PUSH2 0x1B9 PUSH1 0x4 DUP1 CALLDATASIZE SUB DUP2 ADD SWAP1 PUSH2 0x1B4 SWAP2 SWAP1 PUSH2 0xEBE JUMP JUMPDEST PUSH2 0x3DF JUMP JUMPDEST STOP JUMPDEST CALLVALUE DUP1 ISZERO PUSH2 0x1C7 JUMPI PUSH1 0x0 DUP1 REVERT JUMPDEST POP PUSH2 0x1E2 PUSH1 0x4 DUP1 CALLDATASIZE SUB DUP2 ADD SWAP1 PUSH2 0x1DD SWAP2 SWAP1 PUSH2 0xF2A JUMP JUMPDEST PUSH2 0x4C8 JUMP JUMPDEST STOP JUMPDEST CALLVALUE DUP1 ISZERO PUSH2 0x1F0 JUMPI PUSH1 0x0 DUP1 REVERT JUMPDEST POP PUSH2 0x1F9 PUSH2 0x5F5 JUMP JUMPDEST PUSH1 0x40 MLOAD PUSH2 0x206 SWAP2 SWAP1 PUSH2 0xE77 JUMP JUMPDEST PUSH1 0x40 MLOAD DUP1 SWAP2 SUB SWAP1 RETURN JUMPDEST CALLVALUE DUP1 ISZERO PUSH2 0x21B JUMPI PUSH1 0x0 DUP1 REVERT JUMPDEST POP PUSH2 0x236 PUSH1 0x4 DUP1 CALLDATASIZE SUB DUP2 ADD SWAP1 PUSH2 0x231 SWAP2 SWAP1 PUSH2 0xDFB JUMP JUMPDEST PUSH2 0x5FA JUMP JUMPDEST PUSH1 0x40 MLOAD PUSH2 0x243 SWAP2 SWAP1 PUSH2 0xE77 JUMP JUMPDEST PUSH1 0x40 MLOAD DUP1 SWAP2 SUB SWAP1 RETURN JUMPDEST CALLVALUE DUP1 ISZERO PUSH2 0x258 JUMPI PUSH1 0x0 DUP1 REVERT JUMPDEST POP PUSH2 0x261 PUSH2 0x612 JUMP JUMPDEST PUSH1 0x40 MLOAD PUSH2 0x26E SWAP2 SWAP1 PUSH2 0xF8B JUMP JUMPDEST PUSH1 0x40 MLOAD DUP1 SWAP2 SUB SWAP1 RETURN JUMPDEST CALLVALUE DUP1 ISZERO PUSH2 0x283 JUMPI PUSH1 0x0 DUP1 REVERT JUMPDEST POP PUSH2 0x29E PUSH1 0x4 DUP1 CALLDATASIZE SUB DUP2 ADD SWAP1 PUSH2 0x299 SWAP2 SWAP1 PUSH2 0xDFB JUMP JUMPDEST PUSH2 0x638 JUMP JUMPDEST STOP JUMPDEST CALLVALUE DUP1 ISZERO PUSH2 0x2AC JUMPI PUSH1 0x0 DUP1 REVERT JUMPDEST POP PUSH2 0x2B5 PUSH2 0x721 JUMP JUMPDEST PUSH1 0x40 MLOAD PUSH2 0x2C2 SWAP2 SWAP1 PUSH2 0xF8B JUMP JUMPDEST PUSH1 0x40 MLOAD DUP1 SWAP2 SUB SWAP1 RETURN JUMPDEST CALLVALUE DUP1 ISZERO PUSH2 0x2D7 JUMPI PUSH1 0x0 DUP1 REVERT JUMPDEST POP PUSH2 0x2F2 PUSH1 0x4 DUP1 CALLDATASIZE SUB DUP2 ADD SWAP1 PUSH2 0x2ED SWAP2 SWAP1 PUSH2 0xFA6 JUMP JUMPDEST PUSH2 0x745 JUMP JUMPDEST PUSH1 0x40 MLOAD PUSH2 0x2FF SWAP2 SWAP1 PUSH2 0xE43 JUMP JUMPDEST PUSH1 0x40 MLOAD DUP1 SWAP2 SUB SWAP1 RETURN JUMPDEST CALLVALUE DUP1 ISZERO PUSH2 0x314 JUMPI PUSH1 0x0 DUP1 REVERT JUMPDEST POP PUSH2 0x32F PUSH1 0x4 DUP1 CALLDATASIZE SUB DUP2 ADD SWAP1 PUSH2 0x32A SWAP2 SWAP1 PUSH2 0x1158 JUMP JUMPDEST PUSH2 0x774 JUMP JUMPDEST PUSH1 0x40 MLOAD PUSH2 0x33C SWAP2 SWAP1 PUSH2 0x1246 JUMP JUMPDEST PUSH1 0x40 MLOAD DUP1 SWAP2 SUB SWAP1 RETURN JUMPDEST CALLVALUE DUP1 ISZERO PUSH2 0x351 JUMPI PUSH1 0x0 DUP1 REVERT JUMPDEST POP PUSH2 0x35A PUSH2 0xA2D JUMP JUMPDEST PUSH1 0x40 MLOAD PUSH2 0x367 SWAP2 SWAP1 PUSH2 0xE77 JUMP JUMPDEST PUSH1 0x40 MLOAD DUP1 SWAP2 SUB SWAP1 RETURN JUMPDEST CALLVALUE DUP1 ISZERO PUSH2 0x37C JUMPI PUSH1 0x0 DUP1 REVERT JUMPDEST POP PUSH2 0x397 PUSH1 0x4 DUP1 CALLDATASIZE SUB DUP2 ADD SWAP1 PUSH2 0x392 SWAP2 SWAP1 PUSH2 0x1268 JUMP JUMPDEST PUSH2 0xA35 JUMP JUMPDEST STOP JUMPDEST PUSH1 0x1 PUSH1 0x20 MSTORE DUP1 PUSH1 0x0 MSTORE PUSH1 0x40 PUSH1 0x0 KECCAK256 PUSH1 0x0 SWAP2 POP SLOAD SWAP1 PUSH2 0x100 EXP SWAP1 DIV PUSH1 0xFF AND DUP2 JUMP JUMPDEST PUSH1 0x3 PUSH1 0x20 MSTORE DUP1 PUSH1 0x0 MSTORE PUSH1 0x40 PUSH1 0x0 KECCAK256 PUSH1 0x0 SWAP2 POP SLOAD SWAP1 PUSH2 0x100 EXP SWAP1 DIV PUSH1 0xFF AND DUP2 JUMP JUMPDEST PUSH1 0x6 SLOAD DUP2 JUMP JUMPDEST PUSH1 0x0 DUP1 SLOAD SWAP1 PUSH2 0x100 EXP SWAP1 DIV PUSH20 0xFFFFFFFFFFFFFFFFFFFFFFFFFFFFFFFFFFFFFFFF AND PUSH20 0xFFFFFFFFFFFFFFFFFFFFFFFFFFFFFFFFFFFFFFFF AND CALLER PUSH20 0xFFFFFFFFFFFFFFFFFFFFFFFFFFFFFFFFFFFFFFFF AND EQ PUSH2 0x46D JUMPI PUSH1 0x40 MLOAD PUSH32 0x8C379A000000000000000000000000000000000000000000000000000000000 DUP2 MSTORE PUSH1 0x4 ADD PUSH2 0x464 SWAP1 PUSH2 0x1318 JUMP JUMPDEST PUSH1 0x40 MLOAD DUP1 SWAP2 SUB SWAP1 REVERT JUMPDEST DUP1 PUSH1 0x3 PUSH1 0x0 DUP5 PUSH20 0xFFFFFFFFFFFFFFFFFFFFFFFFFFFFFFFFFFFFFFFF AND PUSH20 0xFFFFFFFFFFFFFFFFFFFFFFFFFFFFFFFFFFFFFFFF AND DUP2 MSTORE PUSH1 0x20 ADD SWAP1 DUP2 MSTORE PUSH1 0x20 ADD PUSH1 0x0 KECCAK256 PUSH1 0x0 PUSH2 0x100 EXP DUP2 SLOAD DUP2 PUSH1 0xFF MUL NOT AND SWAP1 DUP4 ISZERO ISZERO MUL OR SWAP1 SSTORE POP POP POP JUMP JUMPDEST PUSH1 0x0 DUP1 SLOAD SWAP1 PUSH2 0x100 EXP SWAP1 DIV PUSH20 0xFFFFFFFFFFFFFFFFFFFFFFFFFFFFFFFFFFFFFFFF AND PUSH20 0xFFFFFFFFFFFFFFFFFFFFFFFFFFFFFFFFFFFFFFFF AND CALLER PUSH20 0xFFFFFFFFFFFFFFFFFFFFFFFFFFFFFFFFFFFFFFFF AND EQ PUSH2 0x556 JUMPI PUSH1 0x40 MLOAD PUSH32 0x8C379A000000000000000000000000000000000000000000000000000000000 DUP2 MSTORE PUSH1 0x4 ADD PUSH2 0x54D SWAP1 PUSH2 0x13AA JUMP JUMPDEST PUSH1 0x40 MLOAD DUP1 SWAP2 SUB SWAP1 REVERT JUMPDEST DUP1 PUSH1 0x2 PUSH1 0x0 DUP5 PUSH20 0xFFFFFFFFFFFFFFFFFFFFFFFFFFFFFFFFFFFFFFFF AND PUSH20 0xFFFFFFFFFFFFFFFFFFFFFFFFFFFFFFFFFFFFFFFF AND DUP2 MSTORE PUSH1 0x20 ADD SWAP1 DUP2 MSTORE PUSH1 0x20 ADD PUSH1 0x0 KECCAK256 DUP2 SWAP1 SSTORE POP PUSH1 0x1 DUP1 PUSH1 0x0 DUP5 PUSH20 0xFFFFFFFFFFFFFFFFFFFFFFFFFFFFFFFFFFFFFFFF AND PUSH20 0xFFFFFFFFFFFFFFFFFFFFFFFFFFFFFFFFFFFFFFFF AND DUP2 MSTORE PUSH1 0x20 ADD SWAP1 DUP2 MSTORE PUSH1 0x20 ADD PUSH1 0x0 KECCAK256 PUSH1 0x0 PUSH2 0x100 EXP DUP2 SLOAD DUP2 PUSH1 0xFF MUL NOT AND SWAP1 DUP4 ISZERO ISZERO MUL OR SWAP1 SSTORE POP POP POP JUMP JUMPDEST PUSH1 0x3 DUP2 JUMP JUMPDEST PUSH1 0x2 PUSH1 0x20 MSTORE DUP1 PUSH1 0x0 MSTORE PUSH1 0x40 PUSH1 0x0 KECCAK256 PUSH1 0x0 SWAP2 POP SWAP1 POP SLOAD DUP2 JUMP JUMPDEST PUSH1 0x5 PUSH1 0x0 SWAP1 SLOAD SWAP1 PUSH2 0x100 EXP SWAP1 DIV PUSH20 0xFFFFFFFFFFFFFFFFFFFFFFFFFFFFFFFFFFFFFFFF AND DUP2 JUMP JUMPDEST PUSH1 0x0 DUP1 SLOAD SWAP1 PUSH2 0x100 EXP SWAP1 DIV PUSH20 0xFFFFFFFFFFFFFFFFFFFFFFFFFFFFFFFFFFFFFFFF AND PUSH20 0xFFFFFFFFFFFFFFFFFFFFFFFFFFFFFFFFFFFFFFFF AND CALLER PUSH20 0xFFFFFFFFFFFFFFFFFFFFFFFFFFFFFFFFFFFFFFFF AND EQ PUSH2 0x6C6 JUMPI PUSH1 0x40 MLOAD PUSH32 0x8C379A000000000000000000000000000000000000000000000000000000000 DUP2 MSTORE PUSH1 0x4 ADD PUSH2 0x6BD SWAP1 PUSH2 0x143C JUMP JUMPDEST PUSH1 0x40 MLOAD DUP1 SWAP2 SUB SWAP1 REVERT JUMPDEST PUSH1 0x0 PUSH1 0x1 PUSH1 0x0 DUP4 PUSH20 0xFFFFFFFFFFFFFFFFFFFFFFFFFFFFFFFFFFFFFFFF AND PUSH20 0xFFFFFFFFFFFFFFFFFFFFFFFFFFFFFFFFFFFFFFFF AND DUP2 MSTORE PUSH1 0x20 ADD SWAP1 DUP2 MSTORE PUSH1 0x20 ADD PUSH1 0x0 KECCAK256 PUSH1 0x0 PUSH2 0x100 EXP DUP2 SLOAD DUP2 PUSH1 0xFF MUL NOT AND SWAP1 DUP4 ISZERO ISZERO MUL OR SWAP1 SSTORE POP POP JUMP JUMPDEST PUSH1 0x0 DUP1 SLOAD SWAP1 PUSH2 0x100 EXP SWAP1 DIV PUSH20 0xFFFFFFFFFFFFFFFFFFFFFFFFFFFFFFFFFFFFFFFF AND DUP2 JUMP JUMPDEST PUSH1 0x4 PUSH1 0x20 MSTORE DUP2 PUSH1 0x0 MSTORE PUSH1 0x40 PUSH1 0x0 KECCAK256 PUSH1 0x20 MSTORE DUP1 PUSH1 0x0 MSTORE PUSH1 0x40 PUSH1 0x0 KECCAK256 PUSH1 0x0 SWAP2 POP SWAP2 POP SWAP1 SLOAD SWAP1 PUSH2 0x100 EXP SWAP1 DIV PUSH1 0xFF AND DUP2 JUMP JUMPDEST PUSH1 0x60 SELFBALANCE DUP4 GT ISZERO PUSH2 0x7B9 JUMPI PUSH1 0x40 MLOAD PUSH32 0x8C379A000000000000000000000000000000000000000000000000000000000 DUP2 MSTORE PUSH1 0x4 ADD PUSH2 0x7B0 SWAP1 PUSH2 0x14CE JUMP JUMPDEST PUSH1 0x40 MLOAD DUP1 SWAP2 SUB SWAP1 REVERT JUMPDEST PUSH1 0x0 DUP1 SLOAD SWAP1 PUSH2 0x100 EXP SWAP1 DIV PUSH20 0xFFFFFFFFFFFFFFFFFFFFFFFFFFFFFFFFFFFFFFFF AND PUSH20 0xFFFFFFFFFFFFFFFFFFFFFFFFFFFFFFFFFFFFFFFF AND CALLER PUSH20 0xFFFFFFFFFFFFFFFFFFFFFFFFFFFFFFFFFFFFFFFF AND EQ PUSH2 0x971 JUMPI PUSH1 0x1 PUSH1 0x0 CALLER PUSH20 0xFFFFFFFFFFFFFFFFFFFFFFFFFFFFFFFFFFFFFFFF AND PUSH20 0xFFFFFFFFFFFFFFFFFFFFFFFFFFFFFFFFFFFFFFFF AND DUP2 MSTORE PUSH1 0x20 ADD SWAP1 DUP2 MSTORE PUSH1 0x20 ADD PUSH1 0x0 KECCAK256 PUSH1 0x0 SWAP1 SLOAD SWAP1 PUSH2 0x100 EXP SWAP1 DIV PUSH1 0xFF AND PUSH2 0x898 JUMPI PUSH1 0x40 MLOAD PUSH32 0x8C379A000000000000000000000000000000000000000000000000000000000 DUP2 MSTORE PUSH1 0x4 ADD PUSH2 0x88F SWAP1 PUSH2 0x153A JUMP JUMPDEST PUSH1 0x40 MLOAD DUP1 SWAP2 SUB SWAP1 REVERT JUMPDEST DUP3 PUSH1 0x2 PUSH1 0x0 CALLER PUSH20 0xFFFFFFFFFFFFFFFFFFFFFFFFFFFFFFFFFFFFFFFF AND PUSH20 0xFFFFFFFFFFFFFFFFFFFFFFFFFFFFFFFFFFFFFFFF AND DUP2 MSTORE PUSH1 0x20 ADD SWAP1 DUP2 MSTORE PUSH1 0x20 ADD PUSH1 0x0 KECCAK256 SLOAD LT ISZERO PUSH2 0x91A JUMPI PUSH1 0x40 MLOAD PUSH32 0x8C379A000000000000000000000000000000000000000000000000000000000 DUP2 MSTORE PUSH1 0x4 ADD PUSH2 0x911 SWAP1 PUSH2 0x15CC JUMP JUMPDEST PUSH1 0x40 MLOAD DUP1 SWAP2 SUB SWAP1 REVERT JUMPDEST DUP3 PUSH1 0x2 PUSH1 0x0 CALLER PUSH20 0xFFFFFFFFFFFFFFFFFFFFFFFFFFFFFFFFFFFFFFFF AND PUSH20 0xFFFFFFFFFFFFFFFFFFFFFFFFFFFFFFFFFFFFFFFF AND DUP2 MSTORE PUSH1 0x20 ADD SWAP1 DUP2 MSTORE PUSH1 0x20 ADD PUSH1 0x0 KECCAK256 PUSH1 0x0 DUP3 DUP3 SLOAD PUSH2 0x969 SWAP2 SWAP1 PUSH2 0x161B JUMP JUMPDEST SWAP3 POP POP DUP2 SWAP1 SSTORE POP JUMPDEST PUSH1 0x0 DUP1 DUP6 PUSH20 0xFFFFFFFFFFFFFFFFFFFFFFFFFFFFFFFFFFFFFFFF AND DUP6 DUP6 PUSH1 0x40 MLOAD PUSH2 0x99A SWAP2 SWAP1 PUSH2 0x168B JUMP JUMPDEST PUSH1 0x0 PUSH1 0x40 MLOAD DUP1 DUP4 SUB DUP2 DUP6 DUP8 GAS CALL SWAP3 POP POP POP RETURNDATASIZE DUP1 PUSH1 0x0 DUP2 EQ PUSH2 0x9D7 JUMPI PUSH1 0x40 MLOAD SWAP2 POP PUSH1 0x1F NOT PUSH1 0x3F RETURNDATASIZE ADD AND DUP3 ADD PUSH1 0x40 MSTORE RETURNDATASIZE DUP3 MSTORE RETURNDATASIZE PUSH1 0x0 PUSH1 0x20 DUP5 ADD RETURNDATACOPY PUSH2 0x9DC JUMP JUMPDEST PUSH1 0x60 SWAP2 POP JUMPDEST POP SWAP2 POP SWAP2 POP DUP2 PUSH2 0xA21 JUMPI PUSH1 0x40 MLOAD PUSH32 0x8C379A000000000000000000000000000000000000000000000000000000000 DUP2 MSTORE PUSH1 0x4 ADD PUSH2 0xA18 SWAP1 PUSH2 0x1714 JUMP JUMPDEST PUSH1 0x40 MLOAD DUP1 SWAP2 SUB SWAP1 REVERT JUMPDEST DUP1 SWAP3 POP POP POP SWAP4 SWAP3 POP POP POP JUMP JUMPDEST PUSH1 0x0 SELFBALANCE SWAP1 POP SWAP1 JUMP JUMPDEST PUSH1 0x3 PUSH1 0x0 CALLER PUSH20 0xFFFFFFFFFFFFFFFFFFFFFFFFFFFFFFFFFFFFFFFF AND PUSH20 0xFFFFFFFFFFFFFFFFFFFFFFFFFFFFFFFFFFFFFFFF AND DUP2 MSTORE PUSH1 0x20 ADD SWAP1 DUP2 MSTORE PUSH1 0x20 ADD PUSH1 0x0 KECCAK256 PUSH1 0x0 SWAP1 SLOAD SWAP1 PUSH2 0x100 EXP SWAP1 DIV PUSH1 0xFF AND PUSH2 0xAC1 JUMPI PUSH1 0x40 MLOAD PUSH32 0x8C379A000000000000000000000000000000000000000000000000000000000 DUP2 MSTORE PUSH1 0x4 ADD PUSH2 0xAB8 SWAP1 PUSH2 0x17A6 JUMP JUMPDEST PUSH1 0x40 MLOAD DUP1 SWAP2 SUB SWAP1 REVERT JUMPDEST PUSH1 0x4 PUSH1 0x0 DUP3 PUSH20 0xFFFFFFFFFFFFFFFFFFFFFFFFFFFFFFFFFFFFFFFF AND PUSH20 0xFFFFFFFFFFFFFFFFFFFFFFFFFFFFFFFFFFFFFFFF AND DUP2 MSTORE PUSH1 0x20 ADD SWAP1 DUP2 MSTORE PUSH1 0x20 ADD PUSH1 0x0 KECCAK256 PUSH1 0x0 CALLER PUSH20 0xFFFFFFFFFFFFFFFFFFFFFFFFFFFFFFFFFFFFFFFF AND PUSH20 0xFFFFFFFFFFFFFFFFFFFFFFFFFFFFFFFFFFFFFFFF AND DUP2 MSTORE PUSH1 0x20 ADD SWAP1 DUP2 MSTORE PUSH1 0x20 ADD PUSH1 0x0 KECCAK256 PUSH1 0x0 SWAP1 SLOAD SWAP1 PUSH2 0x100 EXP SWAP1 DIV PUSH1 0xFF AND ISZERO PUSH2 0xB8B JUMPI PUSH1 0x40 MLOAD PUSH32 0x8C379A000000000000000000000000000000000000000000000000000000000 DUP2 MSTORE PUSH1 0x4 ADD PUSH2 0xB82 SWAP1 PUSH2 0x1812 JUMP JUMPDEST PUSH1 0x40 MLOAD DUP1 SWAP2 SUB SWAP1 REVERT JUMPDEST DUP1 PUSH20 0xFFFFFFFFFFFFFFFFFFFFFFFFFFFFFFFFFFFFFFFF AND PUSH1 0x5 PUSH1 0x0 SWAP1 SLOAD SWAP1 PUSH2 0x100 EXP SWAP1 DIV PUSH20 0xFFFFFFFFFFFFFFFFFFFFFFFFFFFFFFFFFFFFFFFF AND PUSH20 0xFFFFFFFFFFFFFFFFFFFFFFFFFFFFFFFFFFFFFFFF AND EQ PUSH2 0xC2A JUMPI DUP1 PUSH1 0x5 PUSH1 0x0 PUSH2 0x100 EXP DUP2 SLOAD DUP2 PUSH20 0xFFFFFFFFFFFFFFFFFFFFFFFFFFFFFFFFFFFFFFFF MUL NOT AND SWAP1 DUP4 PUSH20 0xFFFFFFFFFFFFFFFFFFFFFFFFFFFFFFFFFFFFFFFF AND MUL OR SWAP1 SSTORE POP PUSH1 0x0 PUSH1 0x6 DUP2 SWAP1 SSTORE POP JUMPDEST PUSH1 0x6 PUSH1 0x0 DUP2 SLOAD DUP1 SWAP3 SWAP2 SWAP1 PUSH2 0xC3D SWAP1 PUSH2 0x1832 JUMP JUMPDEST SWAP2 SWAP1 POP SSTORE POP PUSH1 0x1 PUSH1 0x4 PUSH1 0x0 DUP4 PUSH20 0xFFFFFFFFFFFFFFFFFFFFFFFFFFFFFFFFFFFFFFFF AND PUSH20 0xFFFFFFFFFFFFFFFFFFFFFFFFFFFFFFFFFFFFFFFF AND DUP2 MSTORE PUSH1 0x20 ADD SWAP1 DUP2 MSTORE PUSH1 0x20 ADD PUSH1 0x0 KECCAK256 PUSH1 0x0 CALLER PUSH20 0xFFFFFFFFFFFFFFFFFFFFFFFFFFFFFFFFFFFFFFFF AND PUSH20 0xFFFFFFFFFFFFFFFFFFFFFFFFFFFFFFFFFFFFFFFF AND DUP2 MSTORE PUSH1 0x20 ADD SWAP1 DUP2 MSTORE PUSH1 0x20 ADD PUSH1 0x0 KECCAK256 PUSH1 0x0 PUSH2 0x100 EXP DUP2 SLOAD DUP2 PUSH1 0xFF MUL NOT AND SWAP1 DUP4 ISZERO ISZERO MUL OR SWAP1 SSTORE POP PUSH1 0x3 PUSH1 0x6 SLOAD LT PUSH2 0xD86 JUMPI PUSH1 0x5 PUSH1 0x0 SWAP1 SLOAD SWAP1 PUSH2 0x100 EXP SWAP1 DIV PUSH20 0xFFFFFFFFFFFFFFFFFFFFFFFFFFFFFFFFFFFFFFFF AND PUSH1 0x0 DUP1 PUSH2 0x100 EXP DUP2 SLOAD DUP2 PUSH20 0xFFFFFFFFFFFFFFFFFFFFFFFFFFFFFFFFFFFFFFFF MUL NOT AND SWAP1 DUP4 PUSH20 0xFFFFFFFFFFFFFFFFFFFFFFFFFFFFFFFFFFFFFFFF AND MUL OR SWAP1 SSTORE POP PUSH1 0x0 PUSH1 0x5 PUSH1 0x0 PUSH2 0x100 EXP DUP2 SLOAD DUP2 PUSH20 0xFFFFFFFFFFFFFFFFFFFFFFFFFFFFFFFFFFFFFFFF MUL NOT AND SWAP1 DUP4 PUSH20 0xFFFFFFFFFFFFFFFFFFFFFFFFFFFFFFFFFFFFFFFF AND MUL OR SWAP1 SSTORE POP JUMPDEST POP JUMP JUMPDEST PUSH1 0x0 PUSH1 0x40 MLOAD SWAP1 POP SWAP1 JUMP JUMPDEST PUSH1 0x0 DUP1 REVERT JUMPDEST PUSH1 0x0 DUP1 REVERT JUMPDEST PUSH1 0x0 PUSH20 0xFFFFFFFFFFFFFFFFFFFFFFFFFFFFFFFFFFFFFFFF DUP3 AND SWAP1 POP SWAP2 SWAP1 POP JUMP JUMPDEST PUSH1 0x0 PUSH2 0xDC8 DUP3 PUSH2 0xD9D JUMP JUMPDEST SWAP1 POP SWAP2 SWAP1 POP JUMP JUMPDEST PUSH2 0xDD8 DUP2 PUSH2 0xDBD JUMP JUMPDEST DUP2 EQ PUSH2 0xDE3 JUMPI PUSH1 0x0 DUP1 REVERT JUMPDEST POP JUMP JUMPDEST PUSH1 0x0 DUP2 CALLDATALOAD SWAP1 POP PUSH2 0xDF5 DUP2 PUSH2 0xDCF JUMP JUMPDEST SWAP3 SWAP2 POP POP JUMP JUMPDEST PUSH1 0x0 PUSH1 0x20 DUP3 DUP5 SUB SLT ISZERO PUSH2 0xE11 JUMPI PUSH2 0xE10 PUSH2 0xD93 JUMP JUMPDEST JUMPDEST PUSH1 0x0 PUSH2 0xE1F DUP5 DUP3 DUP6 ADD PUSH2 0xDE6 JUMP JUMPDEST SWAP2 POP POP SWAP3 SWAP2 POP POP JUMP JUMPDEST PUSH1 0x0 DUP2 ISZERO ISZERO SWAP1 POP SWAP2 SWAP1 POP JUMP JUMPDEST PUSH2 0xE3D DUP2 PUSH2 0xE28 JUMP JUMPDEST DUP3 MSTORE POP POP JUMP JUMPDEST PUSH1 0x0 PUSH1 0x20 DUP3 ADD SWAP1 POP PUSH2 0xE58 PUSH1 0x0 DUP4 ADD DUP5 PUSH2 0xE34 JUMP JUMPDEST SWAP3 SWAP2 POP POP JUMP JUMPDEST PUSH1 0x0 DUP2 SWAP1 POP SWAP2 SWAP1 POP JUMP JUMPDEST PUSH2 0xE71 DUP2 PUSH2 0xE5E JUMP JUMPDEST DUP3 MSTORE POP POP JUMP JUMPDEST PUSH1 0x0 PUSH1 0x20 DUP3 ADD SWAP1 POP PUSH2 0xE8C PUSH1 0x0 DUP4 ADD DUP5 PUSH2 0xE68 JUMP JUMPDEST SWAP3 SWAP2 POP POP JUMP JUMPDEST PUSH2 0xE9B DUP2 PUSH2 0xE28 JUMP JUMPDEST DUP2 EQ PUSH2 0xEA6 JUMPI PUSH1 0x0 DUP1 REVERT JUMPDEST POP JUMP JUMPDEST PUSH1 0x0 DUP2 CALLDATALOAD SWAP1 POP PUSH2 0xEB8 DUP2 PUSH2 0xE92 JUMP JUMPDEST SWAP3 SWAP2 POP POP JUMP JUMPDEST PUSH1 0x0 DUP1 PUSH1 0x40 DUP4 DUP6 SUB SLT ISZERO PUSH2 0xED5 JUMPI PUSH2 0xED4 PUSH2 0xD93 JUMP JUMPDEST JUMPDEST PUSH1 0x0 PUSH2 0xEE3 DUP6 DUP3 DUP7 ADD PUSH2 0xDE6 JUMP JUMPDEST SWAP3 POP POP PUSH1 0x20 PUSH2 0xEF4 DUP6 DUP3 DUP7 ADD PUSH2 0xEA9 JUMP JUMPDEST SWAP2 POP POP SWAP3 POP SWAP3 SWAP1 POP JUMP JUMPDEST PUSH2 0xF07 DUP2 PUSH2 0xE5E JUMP JUMPDEST DUP2 EQ PUSH2 0xF12 JUMPI PUSH1 0x0 DUP1 REVERT JUMPDEST POP JUMP JUMPDEST PUSH1 0x0 DUP2 CALLDATALOAD SWAP1 POP PUSH2 0xF24 DUP2 PUSH2 0xEFE JUMP JUMPDEST SWAP3 SWAP2 POP POP JUMP JUMPDEST PUSH1 0x0 DUP1 PUSH1 0x40 DUP4 DUP6 SUB SLT ISZERO PUSH2 0xF41 JUMPI PUSH2 0xF40 PUSH2 0xD93 JUMP JUMPDEST JUMPDEST PUSH1 0x0 PUSH2 0xF4F DUP6 DUP3 DUP7 ADD PUSH2 0xDE6 JUMP JUMPDEST SWAP3 POP POP PUSH1 0x20 PUSH2 0xF60 DUP6 DUP3 DUP7 ADD PUSH2 0xF15 JUMP JUMPDEST SWAP2 POP POP SWAP3 POP SWAP3 SWAP1 POP JUMP JUMPDEST PUSH1 0x0 PUSH2 0xF75 DUP3 PUSH2 0xD9D JUMP JUMPDEST SWAP1 POP SWAP2 SWAP1 POP JUMP JUMPDEST PUSH2 0xF85 DUP2 PUSH2 0xF6A JUMP JUMPDEST DUP3 MSTORE POP POP JUMP JUMPDEST PUSH1 0x0 PUSH1 0x20 DUP3 ADD SWAP1 POP PUSH2 0xFA0 PUSH1 0x0 DUP4 ADD DUP5 PUSH2 0xF7C JUMP JUMPDEST SWAP3 SWAP2 POP POP JUMP JUMPDEST PUSH1 0x0 DUP1 PUSH1 0x40 DUP4 DUP6 SUB SLT ISZERO PUSH2 0xFBD JUMPI PUSH2 0xFBC PUSH2 0xD93 JUMP JUMPDEST JUMPDEST PUSH1 0x0 PUSH2 0xFCB DUP6 DUP3 DUP7 ADD PUSH2 0xDE6 JUMP JUMPDEST SWAP3 POP POP PUSH1 0x20 PUSH2 0xFDC DUP6 DUP3 DUP7 ADD PUSH2 0xDE6 JUMP JUMPDEST SWAP2 POP POP SWAP3 POP SWAP3 SWAP1 POP JUMP JUMPDEST PUSH2 0xFEF DUP2 PUSH2 0xF6A JUMP JUMPDEST DUP2 EQ PUSH2 0xFFA JUMPI PUSH1 0x0 DUP1 REVERT JUMPDEST POP JUMP JUMPDEST PUSH1 0x0 DUP2 CALLDATALOAD SWAP1 POP PUSH2 0x100C DUP2 PUSH2 0xFE6 JUMP JUMPDEST SWAP3 SWAP2 POP POP JUMP JUMPDEST PUSH1 0x0 DUP1 REVERT JUMPDEST PUSH1 0x0 DUP1 REVERT JUMPDEST PUSH1 0x0 PUSH1 0x1F NOT PUSH1 0x1F DUP4 ADD AND SWAP1 POP SWAP2 SWAP1 POP JUMP JUMPDEST PUSH32 0x4E487B7100000000000000000000000000000000000000000000000000000000 PUSH1 0x0 MSTORE PUSH1 0x41 PUSH1 0x4 MSTORE PUSH1 0x24 PUSH1 0x0 REVERT JUMPDEST PUSH2 0x1065 DUP3 PUSH2 0x101C JUMP JUMPDEST DUP2 ADD DUP2 DUP2 LT PUSH8 0xFFFFFFFFFFFFFFFF DUP3 GT OR ISZERO PUSH2 0x1084 JUMPI PUSH2 0x1083 PUSH2 0x102D JUMP JUMPDEST JUMPDEST DUP1 PUSH1 0x40 MSTORE POP POP POP JUMP JUMPDEST PUSH1 0x0 PUSH2 0x1097 PUSH2 0xD89 JUMP JUMPDEST SWAP1 POP PUSH2 0x10A3 DUP3 DUP3 PUSH2 0x105C JUMP JUMPDEST SWAP2 SWAP1 POP JUMP JUMPDEST PUSH1 0x0 PUSH8 0xFFFFFFFFFFFFFFFF DUP3 GT ISZERO PUSH2 0x10C3 JUMPI PUSH2 0x10C2 PUSH2 0x102D JUMP JUMPDEST JUMPDEST PUSH2 0x10CC DUP3 PUSH2 0x101C JUMP JUMPDEST SWAP1 POP PUSH1 0x20 DUP2 ADD SWAP1 POP SWAP2 SWAP1 POP JUMP JUMPDEST DUP3 DUP2 DUP4 CALLDATACOPY PUSH1 0x0 DUP4 DUP4 ADD MSTORE POP POP POP JUMP JUMPDEST PUSH1 0x0 PUSH2 0x10FB PUSH2 0x10F6 DUP5 PUSH2 0x10A8 JUMP JUMPDEST PUSH2 0x108D JUMP JUMPDEST SWAP1 POP DUP3 DUP2 MSTORE PUSH1 0x20 DUP2 ADD DUP5 DUP5 DUP5 ADD GT ISZERO PUSH2 0x1117 JUMPI PUSH2 0x1116 PUSH2 0x1017 JUMP JUMPDEST JUMPDEST PUSH2 0x1122 DUP5 DUP3 DUP6 PUSH2 0x10D9 JUMP JUMPDEST POP SWAP4 SWAP3 POP POP POP JUMP JUMPDEST PUSH1 0x0 DUP3 PUSH1 0x1F DUP4 ADD SLT PUSH2 0x113F JUMPI PUSH2 0x113E PUSH2 0x1012 JUMP JUMPDEST JUMPDEST DUP2 CALLDATALOAD PUSH2 0x114F DUP5 DUP3 PUSH1 0x20 DUP7 ADD PUSH2 0x10E8 JUMP JUMPDEST SWAP2 POP POP SWAP3 SWAP2 POP POP JUMP JUMPDEST PUSH1 0x0 DUP1 PUSH1 0x0 PUSH1 0x60 DUP5 DUP7 SUB SLT ISZERO PUSH2 0x1171 JUMPI PUSH2 0x1170 PUSH2 0xD93 JUMP JUMPDEST JUMPDEST PUSH1 0x0 PUSH2 0x117F DUP7 DUP3 DUP8 ADD PUSH2 0xFFD JUMP JUMPDEST SWAP4 POP POP PUSH1 0x20 PUSH2 0x1190 DUP7 DUP3 DUP8 ADD PUSH2 0xF15 JUMP JUMPDEST SWAP3 POP POP PUSH1 0x40 DUP5 ADD CALLDATALOAD PUSH8 0xFFFFFFFFFFFFFFFF DUP2 GT ISZERO PUSH2 0x11B1 JUMPI PUSH2 0x11B0 PUSH2 0xD98 JUMP JUMPDEST JUMPDEST PUSH2 0x11BD DUP7 DUP3 DUP8 ADD PUSH2 0x112A JUMP JUMPDEST SWAP2 POP POP SWAP3 POP SWAP3 POP SWAP3 JUMP JUMPDEST PUSH1 0x0 DUP2 MLOAD SWAP1 POP SWAP2 SWAP1 POP JUMP JUMPDEST PUSH1 0x0 DUP3 DUP3 MSTORE PUSH1 0x20 DUP3 ADD SWAP1 POP SWAP3 SWAP2 POP POP JUMP JUMPDEST PUSH1 0x0 JUMPDEST DUP4 DUP2 LT ISZERO PUSH2 0x1201 JUMPI DUP1 DUP3 ADD MLOAD DUP2 DUP5 ADD MSTORE PUSH1 0x20 DUP2 ADD SWAP1 POP PUSH2 0x11E6 JUMP JUMPDEST PUSH1 0x0 DUP5 DUP5 ADD MSTORE POP POP POP POP JUMP JUMPDEST PUSH1 0x0 PUSH2 0x1218 DUP3 PUSH2 0x11C7 JUMP JUMPDEST PUSH2 0x1222 DUP2 DUP6 PUSH2 0x11D2 JUMP JUMPDEST SWAP4 POP PUSH2 0x1232 DUP2 DUP6 PUSH1 0x20 DUP7 ADD PUSH2 0x11E3 JUMP JUMPDEST PUSH2 0x123B DUP2 PUSH2 0x101C JUMP JUMPDEST DUP5 ADD SWAP2 POP POP SWAP3 SWAP2 POP POP JUMP JUMPDEST PUSH1 0x0 PUSH1 0x20 DUP3 ADD SWAP1 POP DUP2 DUP2 SUB PUSH1 0x0 DUP4 ADD MSTORE PUSH2 0x1260 DUP2 DUP5 PUSH2 0x120D JUMP JUMPDEST SWAP1 POP SWAP3 SWAP2 POP POP JUMP JUMPDEST PUSH1 0x0 PUSH1 0x20 DUP3 DUP5 SUB SLT ISZERO PUSH2 0x127E JUMPI PUSH2 0x127D PUSH2 0xD93 JUMP JUMPDEST JUMPDEST PUSH1 0x0 PUSH2 0x128C DUP5 DUP3 DUP6 ADD PUSH2 0xFFD JUMP JUMPDEST SWAP2 POP POP SWAP3 SWAP2 POP POP JUMP JUMPDEST PUSH1 0x0 DUP3 DUP3 MSTORE PUSH1 0x20 DUP3 ADD SWAP1 POP SWAP3 SWAP2 POP POP JUMP JUMPDEST PUSH32 0x596F7520617265206E6F7420616C6C6F77656420746F20736574206775617264 PUSH1 0x0 DUP3 ADD MSTORE PUSH32 0x69616E732E000000000000000000000000000000000000000000000000000000 PUSH1 0x20 DUP3 ADD MSTORE POP JUMP JUMPDEST PUSH1 0x0 PUSH2 0x1302 PUSH1 0x25 DUP4 PUSH2 0x1295 JUMP JUMPDEST SWAP2 POP PUSH2 0x130D DUP3 PUSH2 0x12A6 JUMP JUMPDEST PUSH1 0x40 DUP3 ADD SWAP1 POP SWAP2 SWAP1 POP JUMP JUMPDEST PUSH1 0x0 PUSH1 0x20 DUP3 ADD SWAP1 POP DUP2 DUP2 SUB PUSH1 0x0 DUP4 ADD MSTORE PUSH2 0x1331 DUP2 PUSH2 0x12F5 JUMP JUMPDEST SWAP1 POP SWAP2 SWAP1 POP JUMP JUMPDEST PUSH32 0x596F7520617265206E6F7420616C6C6F77656420746F2073657420616C6C6F77 PUSH1 0x0 DUP3 ADD MSTORE PUSH32 0x616E63652E000000000000000000000000000000000000000000000000000000 PUSH1 0x20 DUP3 ADD MSTORE POP JUMP JUMPDEST PUSH1 0x0 PUSH2 0x1394 PUSH1 0x25 DUP4 PUSH2 0x1295 JUMP JUMPDEST SWAP2 POP PUSH2 0x139F DUP3 PUSH2 0x1338 JUMP JUMPDEST PUSH1 0x40 DUP3 ADD SWAP1 POP SWAP2 SWAP1 POP JUMP JUMPDEST PUSH1 0x0 PUSH1 0x20 DUP3 ADD SWAP1 POP DUP2 DUP2 SUB PUSH1 0x0 DUP4 ADD MSTORE PUSH2 0x13C3 DUP2 PUSH2 0x1387 JUMP JUMPDEST SWAP1 POP SWAP2 SWAP1 POP JUMP JUMPDEST PUSH32 0x596F7520617265206E6F7420616C6C6F77656420746F2064656E7920616E7920 PUSH1 0x0 DUP3 ADD MSTORE PUSH32 0x66756E6374696F6E616C6974792E000000000000000000000000000000000000 PUSH1 0x20 DUP3 ADD MSTORE POP JUMP JUMPDEST PUSH1 0x0 PUSH2 0x1426 PUSH1 0x2E DUP4 PUSH2 0x1295 JUMP JUMPDEST SWAP2 POP PUSH2 0x1431 DUP3 PUSH2 0x13CA JUMP JUMPDEST PUSH1 0x40 DUP3 ADD SWAP1 POP SWAP2 SWAP1 POP JUMP JUMPDEST PUSH1 0x0 PUSH1 0x20 DUP3 ADD SWAP1 POP DUP2 DUP2 SUB PUSH1 0x0 DUP4 ADD MSTORE PUSH2 0x1455 DUP2 PUSH2 0x1419 JUMP JUMPDEST SWAP1 POP SWAP2 SWAP1 POP JUMP JUMPDEST PUSH32 0x43616E27742073656E64206D6F7265207468616E2073746F72656420696E2063 PUSH1 0x0 DUP3 ADD MSTORE PUSH32 0x6F6E74726163742E000000000000000000000000000000000000000000000000 PUSH1 0x20 DUP3 ADD MSTORE POP JUMP JUMPDEST PUSH1 0x0 PUSH2 0x14B8 PUSH1 0x28 DUP4 PUSH2 0x1295 JUMP JUMPDEST SWAP2 POP PUSH2 0x14C3 DUP3 PUSH2 0x145C JUMP JUMPDEST PUSH1 0x40 DUP3 ADD SWAP1 POP SWAP2 SWAP1 POP JUMP JUMPDEST PUSH1 0x0 PUSH1 0x20 DUP3 ADD SWAP1 POP DUP2 DUP2 SUB PUSH1 0x0 DUP4 ADD MSTORE PUSH2 0x14E7 DUP2 PUSH2 0x14AB JUMP JUMPDEST SWAP1 POP SWAP2 SWAP1 POP JUMP JUMPDEST PUSH32 0x596F7520617265206E6F7420616C6C6F77656420746F2073656E642E00000000 PUSH1 0x0 DUP3 ADD MSTORE POP JUMP JUMPDEST PUSH1 0x0 PUSH2 0x1524 PUSH1 0x1C DUP4 PUSH2 0x1295 JUMP JUMPDEST SWAP2 POP PUSH2 0x152F DUP3 PUSH2 0x14EE JUMP JUMPDEST PUSH1 0x20 DUP3 ADD SWAP1 POP SWAP2 SWAP1 POP JUMP JUMPDEST PUSH1 0x0 PUSH1 0x20 DUP3 ADD SWAP1 POP DUP2 DUP2 SUB PUSH1 0x0 DUP4 ADD MSTORE PUSH2 0x1553 DUP2 PUSH2 0x1517 JUMP JUMPDEST SWAP1 POP SWAP2 SWAP1 POP JUMP JUMPDEST PUSH32 0x596F752061726520747279696E6720746F2073656E64206D6F7265207468616E PUSH1 0x0 DUP3 ADD MSTORE PUSH32 0x20796F752061726520616C6C6F7765642E000000000000000000000000000000 PUSH1 0x20 DUP3 ADD MSTORE POP JUMP JUMPDEST PUSH1 0x0 PUSH2 0x15B6 PUSH1 0x31 DUP4 PUSH2 0x1295 JUMP JUMPDEST SWAP2 POP PUSH2 0x15C1 DUP3 PUSH2 0x155A JUMP JUMPDEST PUSH1 0x40 DUP3 ADD SWAP1 POP SWAP2 SWAP1 POP JUMP JUMPDEST PUSH1 0x0 PUSH1 0x20 DUP3 ADD SWAP1 POP DUP2 DUP2 SUB PUSH1 0x0 DUP4 ADD MSTORE PUSH2 0x15E5 DUP2 PUSH2 0x15A9 JUMP JUMPDEST SWAP1 POP SWAP2 SWAP1 POP JUMP JUMPDEST PUSH32 0x4E487B7100000000000000000000000000000000000000000000000000000000 PUSH1 0x0 MSTORE PUSH1 0x11 PUSH1 0x4 MSTORE PUSH1 0x24 PUSH1 0x0 REVERT JUMPDEST PUSH1 0x0 PUSH2 0x1626 DUP3 PUSH2 0xE5E JUMP JUMPDEST SWAP2 POP PUSH2 0x1631 DUP4 PUSH2 0xE5E JUMP JUMPDEST SWAP3 POP DUP3 DUP3 SUB SWAP1 POP DUP2 DUP2 GT ISZERO PUSH2 0x1649 JUMPI PUSH2 0x1648 PUSH2 0x15EC JUMP JUMPDEST JUMPDEST SWAP3 SWAP2 POP POP JUMP JUMPDEST PUSH1 0x0 DUP2 SWAP1 POP SWAP3 SWAP2 POP POP JUMP JUMPDEST PUSH1 0x0 PUSH2 0x1665 DUP3 PUSH2 0x11C7 JUMP JUMPDEST PUSH2 0x166F DUP2 DUP6 PUSH2 0x164F JUMP JUMPDEST SWAP4 POP PUSH2 0x167F DUP2 DUP6 PUSH1 0x20 DUP7 ADD PUSH2 0x11E3 JUMP JUMPDEST DUP1 DUP5 ADD SWAP2 POP POP SWAP3 SWAP2 POP POP JUMP JUMPDEST PUSH1 0x0 PUSH2 0x1697 DUP3 DUP5 PUSH2 0x165A JUMP JUMPDEST SWAP2 POP DUP2 SWAP1 POP SWAP3 SWAP2 POP POP JUMP JUMPDEST PUSH32 0x41626F7274696E672C2063616C6C20776173206E6F7420737563636573736675 PUSH1 0x0 DUP3 ADD MSTORE PUSH32 0x6C21000000000000000000000000000000000000000000000000000000000000 PUSH1 0x20 DUP3 ADD MSTORE POP JUMP JUMPDEST PUSH1 0x0 PUSH2 0x16FE PUSH1 0x22 DUP4 PUSH2 0x1295 JUMP JUMPDEST SWAP2 POP PUSH2 0x1709 DUP3 PUSH2 0x16A2 JUMP JUMPDEST PUSH1 0x40 DUP3 ADD SWAP1 POP SWAP2 SWAP1 POP JUMP JUMPDEST PUSH1 0x0 PUSH1 0x20 DUP3 ADD SWAP1 POP DUP2 DUP2 SUB PUSH1 0x0 DUP4 ADD MSTORE PUSH2 0x172D DUP2 PUSH2 0x16F1 JUMP JUMPDEST SWAP1 POP SWAP2 SWAP1 POP JUMP JUMPDEST PUSH32 0x596F7520617265206E6F74206120677561726469616E21204E6F7420616C6C6F PUSH1 0x0 DUP3 ADD MSTORE PUSH32 0x77656420746F20766F74652E0000000000000000000000000000000000000000 PUSH1 0x20 DUP3 ADD MSTORE POP JUMP JUMPDEST PUSH1 0x0 PUSH2 0x1790 PUSH1 0x2C DUP4 PUSH2 0x1295 JUMP JUMPDEST SWAP2 POP PUSH2 0x179B DUP3 PUSH2 0x1734 JUMP JUMPDEST PUSH1 0x40 DUP3 ADD SWAP1 POP SWAP2 SWAP1 POP JUMP JUMPDEST PUSH1 0x0 PUSH1 0x20 DUP3 ADD SWAP1 POP DUP2 DUP2 SUB PUSH1 0x0 DUP4 ADD MSTORE PUSH2 0x17BF DUP2 PUSH2 0x1783 JUMP JUMPDEST SWAP1 POP SWAP2 SWAP1 POP JUMP JUMPDEST PUSH32 0x596F7520616C726561647920766F746564210000000000000000000000000000 PUSH1 0x0 DUP3 ADD MSTORE POP JUMP JUMPDEST PUSH1 0x0 PUSH2 0x17FC PUSH1 0x12 DUP4 PUSH2 0x1295 JUMP JUMPDEST SWAP2 POP PUSH2 0x1807 DUP3 PUSH2 0x17C6 JUMP JUMPDEST PUSH1 0x20 DUP3 ADD SWAP1 POP SWAP2 SWAP1 POP JUMP JUMPDEST PUSH1 0x0 PUSH1 0x20 DUP3 ADD SWAP1 POP DUP2 DUP2 SUB PUSH1 0x0 DUP4 ADD MSTORE PUSH2 0x182B DUP2 PUSH2 0x17EF JUMP JUMPDEST SWAP1 POP SWAP2 SWAP1 POP JUMP JUMPDEST PUSH1 0x0 PUSH2 0x183D DUP3 PUSH2 0xE5E JUMP JUMPDEST SWAP2 POP PUSH32 0xFFFFFFFFFFFFFFFFFFFFFFFFFFFFFFFFFFFFFFFFFFFFFFFFFFFFFFFFFFFFFFFF DUP3 SUB PUSH2 0x186F JUMPI PUSH2 0x186E PUSH2 0x15EC JUMP JUMPDEST JUMPDEST PUSH1 0x1 DUP3 ADD SWAP1 POP SWAP2 SWAP1 POP JUMP INVALID LOG2 PUSH5 0x6970667358 0x22 SLT KECCAK256 SWAP2 MSTORE8 XOR 0xEF 0xB4 0x24 0x1E 0xD2 ADDRESS 0x4F 0xA5 0xB9 PUSH27 0x8F285E97F4E315C73C986BF00E5EA3FB99BC9264736F6C63430008 LT STOP CALLER "
				},
				"gasEstimates": {
					"creation": {
						"codeDepositCost": "1264000",
						"executionCost": "25581",
						"totalCost": "1289581"
					},
					"external": {
						"allowance(address)": "2903",
						"denySending(address)": "27024",
						"isAllowedToSend(address)": "2869",
						"isGuardian(address)": "2891",
						"isVotedAlready(address,address)": "infinite",
						"newOwnerVoting(address)": "138168",
						"nextOwner()": "2537",
						"owner()": "2578",
						"setAllowance(address,uint256)": "49401",
						"setGuardian(address,bool)": "27181",
						"transfer(address,uint256,bytes)": "infinite",
						"votesNeededForNewOwner()": "396",
						"votesRecieved()": "2497",
						"walletBalance()": "405"
					}
				},
				"methodIdentifiers": {
					"allowance(address)": "3e5beab9",
					"denySending(address)": "7673de53",
					"isAllowedToSend(address)": "0bc605ad",
					"isGuardian(address)": "0c68ba21",
					"isVotedAlready(address,address)": "a349d754",
					"newOwnerVoting(address)": "f30b4db2",
					"nextOwner()": "69f3331d",
					"owner()": "8da5cb5b",
					"setAllowance(address,uint256)": "310ec4a7",
					"setGuardian(address,bool)": "2b8a1c5a",
					"transfer(address,uint256,bytes)": "be45fd62",
					"votesNeededForNewOwner()": "383777df",
					"votesRecieved()": "1710e428",
					"walletBalance()": "cd0a314b"
				}
			},
			"storageLayout": {
				"storage": [
					{
						"astId": 20,
						"contract": "contracts/importantContracts/WalletFinal.sol:WalletFinal",
						"label": "owner",
						"offset": 0,
						"slot": "0",
						"type": "t_address_payable"
					},
					{
						"astId": 24,
						"contract": "contracts/importantContracts/WalletFinal.sol:WalletFinal",
						"label": "isAllowedToSend",
						"offset": 0,
						"slot": "1",
						"type": "t_mapping(t_address,t_bool)"
					},
					{
						"astId": 28,
						"contract": "contracts/importantContracts/WalletFinal.sol:WalletFinal",
						"label": "allowance",
						"offset": 0,
						"slot": "2",
						"type": "t_mapping(t_address,t_uint256)"
					},
					{
						"astId": 32,
						"contract": "contracts/importantContracts/WalletFinal.sol:WalletFinal",
						"label": "isGuardian",
						"offset": 0,
						"slot": "3",
						"type": "t_mapping(t_address,t_bool)"
					},
					{
						"astId": 38,
						"contract": "contracts/importantContracts/WalletFinal.sol:WalletFinal",
						"label": "isVotedAlready",
						"offset": 0,
						"slot": "4",
						"type": "t_mapping(t_address,t_mapping(t_address,t_bool))"
					},
					{
						"astId": 40,
						"contract": "contracts/importantContracts/WalletFinal.sol:WalletFinal",
						"label": "nextOwner",
						"offset": 0,
						"slot": "5",
						"type": "t_address_payable"
					},
					{
						"astId": 45,
						"contract": "contracts/importantContracts/WalletFinal.sol:WalletFinal",
						"label": "votesRecieved",
						"offset": 0,
						"slot": "6",
						"type": "t_uint256"
					}
				],
				"types": {
					"t_address": {
						"encoding": "inplace",
						"label": "address",
						"numberOfBytes": "20"
					},
					"t_address_payable": {
						"encoding": "inplace",
						"label": "address payable",
						"numberOfBytes": "20"
					},
					"t_bool": {
						"encoding": "inplace",
						"label": "bool",
						"numberOfBytes": "1"
					},
					"t_mapping(t_address,t_bool)": {
						"encoding": "mapping",
						"key": "t_address",
						"label": "mapping(address => bool)",
						"numberOfBytes": "32",
						"value": "t_bool"
					},
					"t_mapping(t_address,t_mapping(t_address,t_bool))": {
						"encoding": "mapping",
						"key": "t_address",
						"label": "mapping(address => mapping(address => bool))",
						"numberOfBytes": "32",
						"value": "t_mapping(t_address,t_bool)"
					},
					"t_mapping(t_address,t_uint256)": {
						"encoding": "mapping",
						"key": "t_address",
						"label": "mapping(address => uint256)",
						"numberOfBytes": "32",
						"value": "t_uint256"
					},
					"t_uint256": {
						"encoding": "inplace",
						"label": "uint256",
						"numberOfBytes": "32"
					}
				}
			},
			"userdoc": {
				"kind": "user",
				"methods": {},
				"version": 1
			}
		}
	}
}