{
	"contracts/ExampleTryCatch.sol": {
		"ErrorHandling": {
			"abi": [
				{
					"anonymous": false,
					"inputs": [
						{
							"indexed": false,
							"internalType": "string",
							"name": "reason",
							"type": "string"
						}
					],
					"name": "ErrorLog",
					"type": "event"
				},
				{
					"anonymous": false,
					"inputs": [
						{
							"indexed": false,
							"internalType": "uint256",
							"name": "eCode",
							"type": "uint256"
						}
					],
					"name": "ErrorLog2",
					"type": "event"
				},
				{
					"inputs": [],
					"name": "catchError",
					"outputs": [],
					"stateMutability": "nonpayable",
					"type": "function"
				}
			],
			"devdoc": {
				"kind": "dev",
				"methods": {},
				"version": 1
			},
			"evm": {
				"assembly": "    /* \"contracts/ExampleTryCatch.sol\":267:935  contract ErrorHandling{... */\n  mstore(0x40, 0x80)\n  callvalue\n  dup1\n  iszero\n  tag_1\n  jumpi\n  0x00\n  dup1\n  revert\ntag_1:\n  pop\n  dataSize(sub_0)\n  dup1\n  dataOffset(sub_0)\n  0x00\n  codecopy\n  0x00\n  return\nstop\n\nsub_0: assembly {\n        /* \"contracts/ExampleTryCatch.sol\":267:935  contract ErrorHandling{... */\n      mstore(0x40, 0x80)\n      callvalue\n      dup1\n      iszero\n      tag_1\n      jumpi\n      0x00\n      dup1\n      revert\n    tag_1:\n      pop\n      jumpi(tag_2, lt(calldatasize, 0x04))\n      shr(0xe0, calldataload(0x00))\n      dup1\n      0x8b188516\n      eq\n      tag_3\n      jumpi\n    tag_2:\n      0x00\n      dup1\n      revert\n        /* \"contracts/ExampleTryCatch.sol\":368:932  function catchError() public {... */\n    tag_3:\n      tag_4\n      tag_5\n      jump\t// in\n    tag_4:\n      stop\n    tag_5:\n        /* \"contracts/ExampleTryCatch.sol\":408:428  WillThrowException e */\n      0x00\n        /* \"contracts/ExampleTryCatch.sol\":431:455  new WillThrowException() */\n      mload(0x40)\n      tag_7\n      swap1\n      tag_8\n      jump\t// in\n    tag_7:\n      mload(0x40)\n      dup1\n      swap2\n      sub\n      swap1\n      0x00\n      create\n      dup1\n      iszero\n      dup1\n      iszero\n      tag_9\n      jumpi\n      returndatasize\n      0x00\n      dup1\n      returndatacopy\n      revert(0x00, returndatasize)\n    tag_9:\n      pop\n        /* \"contracts/ExampleTryCatch.sol\":408:455  WillThrowException e = new WillThrowException() */\n      swap1\n      pop\n        /* \"contracts/ExampleTryCatch.sol\":470:471  e */\n      dup1\n        /* \"contracts/ExampleTryCatch.sol\":470:488  e.ProblematicFunc1 */\n      0xffffffffffffffffffffffffffffffffffffffff\n      and\n      0xad2c6e53\n        /* \"contracts/ExampleTryCatch.sol\":470:490  e.ProblematicFunc1() */\n      mload(0x40)\n      dup2\n      0xffffffff\n      and\n      0xe0\n      shl\n      dup2\n      mstore\n      0x04\n      add\n      0x00\n      mload(0x40)\n      dup1\n      dup4\n      sub\n      dup2\n      dup7\n      dup1\n      extcodesize\n      iszero\n      dup1\n      iszero\n      tag_10\n      jumpi\n      0x00\n      dup1\n      revert\n    tag_10:\n      pop\n      gas\n      staticcall\n      swap3\n      pop\n      pop\n      pop\n      dup1\n      iszero\n      tag_11\n      jumpi\n      pop\n      0x01\n    tag_11:\n        /* \"contracts/ExampleTryCatch.sol\":466:686  try e.ProblematicFunc1(){... */\n      tag_12\n      jumpi\n      tag_16\n      tag_17\n      jump\t// in\n    tag_16:\n      dup1\n      0x08c379a0\n      sub\n      tag_15\n      jumpi\n      pop\n      tag_18\n      tag_19\n      jump\t// in\n    tag_18:\n      dup1\n      tag_20\n      jumpi\n      pop\n      jump(tag_14)\n    tag_20:\n        /* \"contracts/ExampleTryCatch.sol\":658:674  ErrorLog(reason) */\n      0xfe46ad7cf507184ab42d7a2576647d779ff7bc7f831bfbead75fbe056c1adb63\n        /* \"contracts/ExampleTryCatch.sol\":667:673  reason */\n      dup2\n        /* \"contracts/ExampleTryCatch.sol\":658:674  ErrorLog(reason) */\n      mload(0x40)\n      tag_21\n      swap2\n      swap1\n      tag_22\n      jump\t// in\n    tag_21:\n      mload(0x40)\n      dup1\n      swap2\n      sub\n      swap1\n      log1\n        /* \"contracts/ExampleTryCatch.sol\":541:686  catch Error(string memory reason){  // `catch Error` is used to catch exceptions caused by require... */\n      pop\n        /* \"contracts/ExampleTryCatch.sol\":466:686  try e.ProblematicFunc1(){... */\n      jump(tag_13)\n    tag_15:\n      pop\n    tag_14:\n      returndatasize\n      0x00\n      dup1\n      returndatacopy\n      revert(0x00, returndatasize)\n    tag_13:\n      jump(tag_23)\n    tag_12:\n    tag_23:\n        /* \"contracts/ExampleTryCatch.sol\":710:711  e */\n      dup1\n        /* \"contracts/ExampleTryCatch.sol\":710:728  e.ProblematicFunc2 */\n      0xffffffffffffffffffffffffffffffffffffffff\n      and\n      0x698ebba7\n        /* \"contracts/ExampleTryCatch.sol\":710:730  e.ProblematicFunc2() */\n      mload(0x40)\n      dup2\n      0xffffffff\n      and\n      0xe0\n      shl\n      dup2\n      mstore\n      0x04\n      add\n      0x00\n      mload(0x40)\n      dup1\n      dup4\n      sub\n      dup2\n      dup7\n      dup1\n      extcodesize\n      iszero\n      dup1\n      iszero\n      tag_24\n      jumpi\n      0x00\n      dup1\n      revert\n    tag_24:\n      pop\n      gas\n      staticcall\n      swap3\n      pop\n      pop\n      pop\n      dup1\n      iszero\n      tag_25\n      jumpi\n      pop\n      0x01\n    tag_25:\n        /* \"contracts/ExampleTryCatch.sol\":706:924  try e.ProblematicFunc2(){... */\n      tag_26\n      jumpi\n      tag_30\n      tag_17\n      jump\t// in\n    tag_30:\n      0x4e487b71\n      sub\n      tag_28\n      jumpi\n      tag_31\n      tag_32\n      jump\t// in\n    tag_31:\n      swap1\n      tag_33\n      jumpi\n      pop\n      jump(tag_28)\n    tag_33:\n        /* \"contracts/ExampleTryCatch.sol\":892:912  ErrorLog2(errorCode) */\n      0x2595c462e647e99712858bdaf3fb9047e1ad78054cf01875442fdea6ecb21819\n        /* \"contracts/ExampleTryCatch.sol\":902:911  errorCode */\n      dup2\n        /* \"contracts/ExampleTryCatch.sol\":892:912  ErrorLog2(errorCode) */\n      mload(0x40)\n      tag_34\n      swap2\n      swap1\n      tag_35\n      jump\t// in\n    tag_34:\n      mload(0x40)\n      dup1\n      swap2\n      sub\n      swap1\n      log1\n        /* \"contracts/ExampleTryCatch.sol\":781:924  catch Panic(uint errorCode){  // `catch Panic` is used to catch exceptions caused by assert.... */\n      pop\n        /* \"contracts/ExampleTryCatch.sol\":706:924  try e.ProblematicFunc2(){... */\n      jump(tag_27)\n    tag_28:\n      returndatasize\n      0x00\n      dup1\n      returndatacopy\n      revert(0x00, returndatasize)\n    tag_27:\n      jump(tag_36)\n    tag_26:\n    tag_36:\n        /* \"contracts/ExampleTryCatch.sol\":397:932  {... */\n      pop\n        /* \"contracts/ExampleTryCatch.sol\":368:932  function catchError() public {... */\n      jump\t// out\n    tag_8:\n      dataSize(sub_0)\n      dup1\n      dataOffset(sub_0)\n      dup4\n      codecopy\n      add\n      swap1\n      jump\t// out\n        /* \"#utility.yul\":7:113   */\n    tag_37:\n        /* \"#utility.yul\":51:59   */\n      0x00\n        /* \"#utility.yul\":100:105   */\n      dup2\n        /* \"#utility.yul\":95:98   */\n      0xe0\n        /* \"#utility.yul\":91:106   */\n      shr\n        /* \"#utility.yul\":70:106   */\n      swap1\n      pop\n        /* \"#utility.yul\":7:113   */\n      swap2\n      swap1\n      pop\n      jump\t// out\n        /* \"#utility.yul\":119:302   */\n    tag_17:\n        /* \"#utility.yul\":154:157   */\n      0x00\n        /* \"#utility.yul\":192:193   */\n      0x03\n        /* \"#utility.yul\":174:190   */\n      returndatasize\n        /* \"#utility.yul\":171:194   */\n      gt\n        /* \"#utility.yul\":168:296   */\n      iszero\n      tag_51\n      jumpi\n        /* \"#utility.yul\":230:231   */\n      0x04\n        /* \"#utility.yul\":227:228   */\n      0x00\n        /* \"#utility.yul\":224:225   */\n      dup1\n        /* \"#utility.yul\":209:232   */\n      returndatacopy\n        /* \"#utility.yul\":252:286   */\n      tag_52\n        /* \"#utility.yul\":283:284   */\n      0x00\n        /* \"#utility.yul\":277:285   */\n      mload\n        /* \"#utility.yul\":252:286   */\n      tag_37\n      jump\t// in\n    tag_52:\n        /* \"#utility.yul\":245:286   */\n      swap1\n      pop\n        /* \"#utility.yul\":168:296   */\n    tag_51:\n        /* \"#utility.yul\":119:302   */\n      swap1\n      jump\t// out\n        /* \"#utility.yul\":308:383   */\n    tag_38:\n        /* \"#utility.yul\":341:347   */\n      0x00\n        /* \"#utility.yul\":374:376   */\n      0x40\n        /* \"#utility.yul\":368:377   */\n      mload\n        /* \"#utility.yul\":358:377   */\n      swap1\n      pop\n        /* \"#utility.yul\":308:383   */\n      swap1\n      jump\t// out\n        /* \"#utility.yul\":389:491   */\n    tag_39:\n        /* \"#utility.yul\":430:436   */\n      0x00\n        /* \"#utility.yul\":481:483   */\n      0x1f\n        /* \"#utility.yul\":477:484   */\n      not\n        /* \"#utility.yul\":472:474   */\n      0x1f\n        /* \"#utility.yul\":465:470   */\n      dup4\n        /* \"#utility.yul\":461:475   */\n      add\n        /* \"#utility.yul\":457:485   */\n      and\n        /* \"#utility.yul\":447:485   */\n      swap1\n      pop\n        /* \"#utility.yul\":389:491   */\n      swap2\n      swap1\n      pop\n      jump\t// out\n        /* \"#utility.yul\":497:677   */\n    tag_40:\n        /* \"#utility.yul\":545:622   */\n      0x4e487b7100000000000000000000000000000000000000000000000000000000\n        /* \"#utility.yul\":542:543   */\n      0x00\n        /* \"#utility.yul\":535:623   */\n      mstore\n        /* \"#utility.yul\":642:646   */\n      0x41\n        /* \"#utility.yul\":639:640   */\n      0x04\n        /* \"#utility.yul\":632:647   */\n      mstore\n        /* \"#utility.yul\":666:670   */\n      0x24\n        /* \"#utility.yul\":663:664   */\n      0x00\n        /* \"#utility.yul\":656:671   */\n      revert\n        /* \"#utility.yul\":683:964   */\n    tag_41:\n        /* \"#utility.yul\":766:793   */\n      tag_57\n        /* \"#utility.yul\":788:792   */\n      dup3\n        /* \"#utility.yul\":766:793   */\n      tag_39\n      jump\t// in\n    tag_57:\n        /* \"#utility.yul\":758:764   */\n      dup2\n        /* \"#utility.yul\":754:794   */\n      add\n        /* \"#utility.yul\":896:902   */\n      dup2\n        /* \"#utility.yul\":884:894   */\n      dup2\n        /* \"#utility.yul\":881:903   */\n      lt\n        /* \"#utility.yul\":860:878   */\n      0xffffffffffffffff\n        /* \"#utility.yul\":848:858   */\n      dup3\n        /* \"#utility.yul\":845:879   */\n      gt\n        /* \"#utility.yul\":842:904   */\n      or\n        /* \"#utility.yul\":839:927   */\n      iszero\n      tag_58\n      jumpi\n        /* \"#utility.yul\":907:925   */\n      tag_59\n      tag_40\n      jump\t// in\n    tag_59:\n        /* \"#utility.yul\":839:927   */\n    tag_58:\n        /* \"#utility.yul\":947:957   */\n      dup1\n        /* \"#utility.yul\":943:945   */\n      0x40\n        /* \"#utility.yul\":936:958   */\n      mstore\n        /* \"#utility.yul\":726:964   */\n      pop\n        /* \"#utility.yul\":683:964   */\n      pop\n      pop\n      jump\t// out\n        /* \"#utility.yul\":970:1681   */\n    tag_19:\n        /* \"#utility.yul\":1009:1012   */\n      0x00\n        /* \"#utility.yul\":1047:1051   */\n      0x44\n        /* \"#utility.yul\":1029:1045   */\n      returndatasize\n        /* \"#utility.yul\":1026:1052   */\n      lt\n        /* \"#utility.yul\":1055:1060   */\n      tag_60\n        /* \"#utility.yul\":1023:1062   */\n      jumpi\n        /* \"#utility.yul\":1084:1104   */\n      tag_62\n      tag_38\n      jump\t// in\n    tag_62:\n        /* \"#utility.yul\":1159:1160   */\n      0x04\n        /* \"#utility.yul\":1141:1157   */\n      returndatasize\n        /* \"#utility.yul\":1137:1161   */\n      sub\n        /* \"#utility.yul\":1134:1135   */\n      0x04\n        /* \"#utility.yul\":1128:1132   */\n      dup3\n        /* \"#utility.yul\":1113:1162   */\n      returndatacopy\n        /* \"#utility.yul\":1192:1196   */\n      dup1\n        /* \"#utility.yul\":1186:1197   */\n      mload\n        /* \"#utility.yul\":1291:1307   */\n      returndatasize\n        /* \"#utility.yul\":1284:1288   */\n      0x24\n        /* \"#utility.yul\":1276:1282   */\n      dup3\n        /* \"#utility.yul\":1272:1289   */\n      add\n        /* \"#utility.yul\":1269:1308   */\n      gt\n        /* \"#utility.yul\":1236:1254   */\n      0xffffffffffffffff\n        /* \"#utility.yul\":1228:1234   */\n      dup3\n        /* \"#utility.yul\":1225:1255   */\n      gt\n        /* \"#utility.yul\":1209:1322   */\n      or\n        /* \"#utility.yul\":1206:1352   */\n      iszero\n      tag_63\n      jumpi\n        /* \"#utility.yul\":1337:1342   */\n      pop\n      pop\n      jump(tag_60)\n        /* \"#utility.yul\":1206:1352   */\n    tag_63:\n        /* \"#utility.yul\":1383:1389   */\n      dup1\n        /* \"#utility.yul\":1377:1381   */\n      dup3\n        /* \"#utility.yul\":1373:1390   */\n      add\n        /* \"#utility.yul\":1419:1422   */\n      dup1\n        /* \"#utility.yul\":1413:1423   */\n      mload\n        /* \"#utility.yul\":1446:1464   */\n      0xffffffffffffffff\n        /* \"#utility.yul\":1438:1444   */\n      dup2\n        /* \"#utility.yul\":1435:1465   */\n      gt\n        /* \"#utility.yul\":1432:1475   */\n      iszero\n      tag_64\n      jumpi\n        /* \"#utility.yul\":1468:1473   */\n      pop\n      pop\n      pop\n      pop\n      jump(tag_60)\n        /* \"#utility.yul\":1432:1475   */\n    tag_64:\n        /* \"#utility.yul\":1516:1522   */\n      dup1\n        /* \"#utility.yul\":1509:1513   */\n      0x20\n        /* \"#utility.yul\":1504:1507   */\n      dup4\n        /* \"#utility.yul\":1500:1514   */\n      add\n        /* \"#utility.yul\":1496:1523   */\n      add\n        /* \"#utility.yul\":1575:1576   */\n      0x04\n        /* \"#utility.yul\":1557:1573   */\n      returndatasize\n        /* \"#utility.yul\":1553:1577   */\n      sub\n        /* \"#utility.yul\":1547:1551   */\n      dup6\n        /* \"#utility.yul\":1543:1578   */\n      add\n        /* \"#utility.yul\":1538:1541   */\n      dup2\n        /* \"#utility.yul\":1535:1579   */\n      gt\n        /* \"#utility.yul\":1532:1589   */\n      iszero\n      tag_65\n      jumpi\n        /* \"#utility.yul\":1582:1587   */\n      pop\n      pop\n      pop\n      pop\n      pop\n      jump(tag_60)\n        /* \"#utility.yul\":1532:1589   */\n    tag_65:\n        /* \"#utility.yul\":1599:1656   */\n      tag_66\n        /* \"#utility.yul\":1647:1653   */\n      dup3\n        /* \"#utility.yul\":1641:1645   */\n      0x20\n        /* \"#utility.yul\":1637:1654   */\n      add\n        /* \"#utility.yul\":1629:1635   */\n      dup6\n        /* \"#utility.yul\":1625:1655   */\n      add\n        /* \"#utility.yul\":1619:1623   */\n      dup7\n        /* \"#utility.yul\":1599:1656   */\n      tag_41\n      jump\t// in\n    tag_66:\n        /* \"#utility.yul\":1672:1675   */\n      dup3\n        /* \"#utility.yul\":1665:1675   */\n      swap6\n      pop\n        /* \"#utility.yul\":1013:1681   */\n      pop\n      pop\n      pop\n      pop\n      pop\n        /* \"#utility.yul\":970:1681   */\n    tag_60:\n      swap1\n      jump\t// out\n        /* \"#utility.yul\":1687:1786   */\n    tag_42:\n        /* \"#utility.yul\":1739:1745   */\n      0x00\n        /* \"#utility.yul\":1773:1778   */\n      dup2\n        /* \"#utility.yul\":1767:1779   */\n      mload\n        /* \"#utility.yul\":1757:1779   */\n      swap1\n      pop\n        /* \"#utility.yul\":1687:1786   */\n      swap2\n      swap1\n      pop\n      jump\t// out\n        /* \"#utility.yul\":1792:1961   */\n    tag_43:\n        /* \"#utility.yul\":1876:1887   */\n      0x00\n        /* \"#utility.yul\":1910:1916   */\n      dup3\n        /* \"#utility.yul\":1905:1908   */\n      dup3\n        /* \"#utility.yul\":1898:1917   */\n      mstore\n        /* \"#utility.yul\":1950:1954   */\n      0x20\n        /* \"#utility.yul\":1945:1948   */\n      dup3\n        /* \"#utility.yul\":1941:1955   */\n      add\n        /* \"#utility.yul\":1926:1955   */\n      swap1\n      pop\n        /* \"#utility.yul\":1792:1961   */\n      swap3\n      swap2\n      pop\n      pop\n      jump\t// out\n        /* \"#utility.yul\":1967:2274   */\n    tag_44:\n        /* \"#utility.yul\":2035:2036   */\n      0x00\n        /* \"#utility.yul\":2045:2158   */\n    tag_70:\n        /* \"#utility.yul\":2059:2065   */\n      dup4\n        /* \"#utility.yul\":2056:2057   */\n      dup2\n        /* \"#utility.yul\":2053:2066   */\n      lt\n        /* \"#utility.yul\":2045:2158   */\n      iszero\n      tag_72\n      jumpi\n        /* \"#utility.yul\":2144:2145   */\n      dup1\n        /* \"#utility.yul\":2139:2142   */\n      dup3\n        /* \"#utility.yul\":2135:2146   */\n      add\n        /* \"#utility.yul\":2129:2147   */\n      mload\n        /* \"#utility.yul\":2125:2126   */\n      dup2\n        /* \"#utility.yul\":2120:2123   */\n      dup5\n        /* \"#utility.yul\":2116:2127   */\n      add\n        /* \"#utility.yul\":2109:2148   */\n      mstore\n        /* \"#utility.yul\":2081:2083   */\n      0x20\n        /* \"#utility.yul\":2078:2079   */\n      dup2\n        /* \"#utility.yul\":2074:2084   */\n      add\n        /* \"#utility.yul\":2069:2084   */\n      swap1\n      pop\n        /* \"#utility.yul\":2045:2158   */\n      jump(tag_70)\n    tag_72:\n        /* \"#utility.yul\":2176:2182   */\n      dup4\n        /* \"#utility.yul\":2173:2174   */\n      dup2\n        /* \"#utility.yul\":2170:2183   */\n      gt\n        /* \"#utility.yul\":2167:2268   */\n      iszero\n      tag_73\n      jumpi\n        /* \"#utility.yul\":2256:2257   */\n      0x00\n        /* \"#utility.yul\":2247:2253   */\n      dup5\n        /* \"#utility.yul\":2242:2245   */\n      dup5\n        /* \"#utility.yul\":2238:2254   */\n      add\n        /* \"#utility.yul\":2231:2258   */\n      mstore\n        /* \"#utility.yul\":2167:2268   */\n    tag_73:\n        /* \"#utility.yul\":2016:2274   */\n      pop\n        /* \"#utility.yul\":1967:2274   */\n      pop\n      pop\n      pop\n      jump\t// out\n        /* \"#utility.yul\":2280:2644   */\n    tag_45:\n        /* \"#utility.yul\":2368:2371   */\n      0x00\n        /* \"#utility.yul\":2396:2435   */\n      tag_75\n        /* \"#utility.yul\":2429:2434   */\n      dup3\n        /* \"#utility.yul\":2396:2435   */\n      tag_42\n      jump\t// in\n    tag_75:\n        /* \"#utility.yul\":2451:2522   */\n      tag_76\n        /* \"#utility.yul\":2515:2521   */\n      dup2\n        /* \"#utility.yul\":2510:2513   */\n      dup6\n        /* \"#utility.yul\":2451:2522   */\n      tag_43\n      jump\t// in\n    tag_76:\n        /* \"#utility.yul\":2444:2522   */\n      swap4\n      pop\n        /* \"#utility.yul\":2531:2583   */\n      tag_77\n        /* \"#utility.yul\":2576:2582   */\n      dup2\n        /* \"#utility.yul\":2571:2574   */\n      dup6\n        /* \"#utility.yul\":2564:2568   */\n      0x20\n        /* \"#utility.yul\":2557:2562   */\n      dup7\n        /* \"#utility.yul\":2553:2569   */\n      add\n        /* \"#utility.yul\":2531:2583   */\n      tag_44\n      jump\t// in\n    tag_77:\n        /* \"#utility.yul\":2608:2637   */\n      tag_78\n        /* \"#utility.yul\":2630:2636   */\n      dup2\n        /* \"#utility.yul\":2608:2637   */\n      tag_39\n      jump\t// in\n    tag_78:\n        /* \"#utility.yul\":2603:2606   */\n      dup5\n        /* \"#utility.yul\":2599:2638   */\n      add\n        /* \"#utility.yul\":2592:2638   */\n      swap2\n      pop\n        /* \"#utility.yul\":2372:2644   */\n      pop\n        /* \"#utility.yul\":2280:2644   */\n      swap3\n      swap2\n      pop\n      pop\n      jump\t// out\n        /* \"#utility.yul\":2650:2963   */\n    tag_22:\n        /* \"#utility.yul\":2763:2767   */\n      0x00\n        /* \"#utility.yul\":2801:2803   */\n      0x20\n        /* \"#utility.yul\":2790:2799   */\n      dup3\n        /* \"#utility.yul\":2786:2804   */\n      add\n        /* \"#utility.yul\":2778:2804   */\n      swap1\n      pop\n        /* \"#utility.yul\":2850:2859   */\n      dup2\n        /* \"#utility.yul\":2844:2848   */\n      dup2\n        /* \"#utility.yul\":2840:2860   */\n      sub\n        /* \"#utility.yul\":2836:2837   */\n      0x00\n        /* \"#utility.yul\":2825:2834   */\n      dup4\n        /* \"#utility.yul\":2821:2838   */\n      add\n        /* \"#utility.yul\":2814:2861   */\n      mstore\n        /* \"#utility.yul\":2878:2956   */\n      tag_80\n        /* \"#utility.yul\":2951:2955   */\n      dup2\n        /* \"#utility.yul\":2942:2948   */\n      dup5\n        /* \"#utility.yul\":2878:2956   */\n      tag_45\n      jump\t// in\n    tag_80:\n        /* \"#utility.yul\":2870:2956   */\n      swap1\n      pop\n        /* \"#utility.yul\":2650:2963   */\n      swap3\n      swap2\n      pop\n      pop\n      jump\t// out\n        /* \"#utility.yul\":2969:3169   */\n    tag_32:\n        /* \"#utility.yul\":3005:3012   */\n      0x00\n        /* \"#utility.yul\":3014:3018   */\n      dup1\n        /* \"#utility.yul\":3053:3057   */\n      0x23\n        /* \"#utility.yul\":3035:3051   */\n      returndatasize\n        /* \"#utility.yul\":3032:3058   */\n      gt\n        /* \"#utility.yul\":3029:3163   */\n      iszero\n      tag_82\n      jumpi\n        /* \"#utility.yul\":3094:3098   */\n      0x20\n        /* \"#utility.yul\":3091:3092   */\n      0x04\n        /* \"#utility.yul\":3088:3089   */\n      0x00\n        /* \"#utility.yul\":3073:3099   */\n      returndatacopy\n        /* \"#utility.yul\":3123:3124   */\n      0x01\n        /* \"#utility.yul\":3112:3124   */\n      swap2\n      pop\n        /* \"#utility.yul\":3151:3152   */\n      0x00\n        /* \"#utility.yul\":3145:3153   */\n      mload\n        /* \"#utility.yul\":3137:3153   */\n      swap1\n      pop\n        /* \"#utility.yul\":3029:3163   */\n    tag_82:\n        /* \"#utility.yul\":2969:3169   */\n      swap1\n      swap2\n      jump\t// out\n        /* \"#utility.yul\":3175:3252   */\n    tag_46:\n        /* \"#utility.yul\":3212:3219   */\n      0x00\n        /* \"#utility.yul\":3241:3246   */\n      dup2\n        /* \"#utility.yul\":3230:3246   */\n      swap1\n      pop\n        /* \"#utility.yul\":3175:3252   */\n      swap2\n      swap1\n      pop\n      jump\t// out\n        /* \"#utility.yul\":3258:3376   */\n    tag_47:\n        /* \"#utility.yul\":3345:3369   */\n      tag_85\n        /* \"#utility.yul\":3363:3368   */\n      dup2\n        /* \"#utility.yul\":3345:3369   */\n      tag_46\n      jump\t// in\n    tag_85:\n        /* \"#utility.yul\":3340:3343   */\n      dup3\n        /* \"#utility.yul\":3333:3370   */\n      mstore\n        /* \"#utility.yul\":3258:3376   */\n      pop\n      pop\n      jump\t// out\n        /* \"#utility.yul\":3382:3604   */\n    tag_35:\n        /* \"#utility.yul\":3475:3479   */\n      0x00\n        /* \"#utility.yul\":3513:3515   */\n      0x20\n        /* \"#utility.yul\":3502:3511   */\n      dup3\n        /* \"#utility.yul\":3498:3516   */\n      add\n        /* \"#utility.yul\":3490:3516   */\n      swap1\n      pop\n        /* \"#utility.yul\":3526:3597   */\n      tag_87\n        /* \"#utility.yul\":3594:3595   */\n      0x00\n        /* \"#utility.yul\":3583:3592   */\n      dup4\n        /* \"#utility.yul\":3579:3596   */\n      add\n        /* \"#utility.yul\":3570:3576   */\n      dup5\n        /* \"#utility.yul\":3526:3597   */\n      tag_47\n      jump\t// in\n    tag_87:\n        /* \"#utility.yul\":3382:3604   */\n      swap3\n      swap2\n      pop\n      pop\n      jump\t// out\n    stop\n\n    sub_0: assembly {\n            /* \"contracts/ExampleTryCatch.sol\":59:263  contract WillThrowException{... */\n          mstore(0x40, 0x80)\n          callvalue\n          dup1\n          iszero\n          tag_1\n          jumpi\n          0x00\n          dup1\n          revert\n        tag_1:\n          pop\n          dataSize(sub_0)\n          dup1\n          dataOffset(sub_0)\n          0x00\n          codecopy\n          0x00\n          return\n        stop\n\n        sub_0: assembly {\n                /* \"contracts/ExampleTryCatch.sol\":59:263  contract WillThrowException{... */\n              mstore(0x40, 0x80)\n              callvalue\n              dup1\n              iszero\n              tag_1\n              jumpi\n              0x00\n              dup1\n              revert\n            tag_1:\n              pop\n              jumpi(tag_2, lt(calldatasize, 0x04))\n              shr(0xe0, calldataload(0x00))\n              dup1\n              0x698ebba7\n              eq\n              tag_3\n              jumpi\n              dup1\n              0xad2c6e53\n              eq\n              tag_4\n              jumpi\n            tag_2:\n              0x00\n              dup1\n              revert\n                /* \"contracts/ExampleTryCatch.sol\":189:260  function ProblematicFunc2() public pure{... */\n            tag_3:\n              tag_5\n              tag_6\n              jump\t// in\n            tag_5:\n              stop\n                /* \"contracts/ExampleTryCatch.sol\":95:183  function ProblematicFunc1() public pure{... */\n            tag_4:\n              tag_7\n              tag_8\n              jump\t// in\n            tag_7:\n              stop\n                /* \"contracts/ExampleTryCatch.sol\":189:260  function ProblematicFunc2() public pure{... */\n            tag_6:\n                /* \"contracts/ExampleTryCatch.sol\":246:251  false */\n              0x00\n                /* \"contracts/ExampleTryCatch.sol\":239:252  assert(false) */\n              tag_10\n              jumpi\n              tag_11\n              tag_12\n              jump\t// in\n            tag_11:\n            tag_10:\n                /* \"contracts/ExampleTryCatch.sol\":189:260  function ProblematicFunc2() public pure{... */\n              jump\t// out\n                /* \"contracts/ExampleTryCatch.sol\":95:183  function ProblematicFunc1() public pure{... */\n            tag_8:\n                /* \"contracts/ExampleTryCatch.sol\":153:158  false */\n              0x00\n                /* \"contracts/ExampleTryCatch.sol\":145:175  require(false,\"Error Message\") */\n              tag_14\n              jumpi\n              mload(0x40)\n              0x08c379a000000000000000000000000000000000000000000000000000000000\n              dup2\n              mstore\n              0x04\n              add\n              tag_15\n              swap1\n              tag_16\n              jump\t// in\n            tag_15:\n              mload(0x40)\n              dup1\n              swap2\n              sub\n              swap1\n              revert\n            tag_14:\n                /* \"contracts/ExampleTryCatch.sol\":95:183  function ProblematicFunc1() public pure{... */\n              jump\t// out\n                /* \"#utility.yul\":7:187   */\n            tag_12:\n                /* \"#utility.yul\":55:132   */\n              0x4e487b7100000000000000000000000000000000000000000000000000000000\n                /* \"#utility.yul\":52:53   */\n              0x00\n                /* \"#utility.yul\":45:133   */\n              mstore\n                /* \"#utility.yul\":152:156   */\n              0x01\n                /* \"#utility.yul\":149:150   */\n              0x04\n                /* \"#utility.yul\":142:157   */\n              mstore\n                /* \"#utility.yul\":176:180   */\n              0x24\n                /* \"#utility.yul\":173:174   */\n              0x00\n                /* \"#utility.yul\":166:181   */\n              revert\n                /* \"#utility.yul\":193:362   */\n            tag_17:\n                /* \"#utility.yul\":277:288   */\n              0x00\n                /* \"#utility.yul\":311:317   */\n              dup3\n                /* \"#utility.yul\":306:309   */\n              dup3\n                /* \"#utility.yul\":299:318   */\n              mstore\n                /* \"#utility.yul\":351:355   */\n              0x20\n                /* \"#utility.yul\":346:349   */\n              dup3\n                /* \"#utility.yul\":342:356   */\n              add\n                /* \"#utility.yul\":327:356   */\n              swap1\n              pop\n                /* \"#utility.yul\":193:362   */\n              swap3\n              swap2\n              pop\n              pop\n              jump\t// out\n                /* \"#utility.yul\":368:531   */\n            tag_18:\n                /* \"#utility.yul\":508:523   */\n              0x4572726f72204d65737361676500000000000000000000000000000000000000\n                /* \"#utility.yul\":504:505   */\n              0x00\n                /* \"#utility.yul\":496:502   */\n              dup3\n                /* \"#utility.yul\":492:506   */\n              add\n                /* \"#utility.yul\":485:524   */\n              mstore\n                /* \"#utility.yul\":368:531   */\n              pop\n              jump\t// out\n                /* \"#utility.yul\":537:903   */\n            tag_19:\n                /* \"#utility.yul\":679:682   */\n              0x00\n                /* \"#utility.yul\":700:767   */\n              tag_25\n                /* \"#utility.yul\":764:766   */\n              0x0d\n                /* \"#utility.yul\":759:762   */\n              dup4\n                /* \"#utility.yul\":700:767   */\n              tag_17\n              jump\t// in\n            tag_25:\n                /* \"#utility.yul\":693:767   */\n              swap2\n              pop\n                /* \"#utility.yul\":776:869   */\n              tag_26\n                /* \"#utility.yul\":865:868   */\n              dup3\n                /* \"#utility.yul\":776:869   */\n              tag_18\n              jump\t// in\n            tag_26:\n                /* \"#utility.yul\":894:896   */\n              0x20\n                /* \"#utility.yul\":889:892   */\n              dup3\n                /* \"#utility.yul\":885:897   */\n              add\n                /* \"#utility.yul\":878:897   */\n              swap1\n              pop\n                /* \"#utility.yul\":537:903   */\n              swap2\n              swap1\n              pop\n              jump\t// out\n                /* \"#utility.yul\":909:1328   */\n            tag_16:\n                /* \"#utility.yul\":1075:1079   */\n              0x00\n                /* \"#utility.yul\":1113:1115   */\n              0x20\n                /* \"#utility.yul\":1102:1111   */\n              dup3\n                /* \"#utility.yul\":1098:1116   */\n              add\n                /* \"#utility.yul\":1090:1116   */\n              swap1\n              pop\n                /* \"#utility.yul\":1162:1171   */\n              dup2\n                /* \"#utility.yul\":1156:1160   */\n              dup2\n                /* \"#utility.yul\":1152:1172   */\n              sub\n                /* \"#utility.yul\":1148:1149   */\n              0x00\n                /* \"#utility.yul\":1137:1146   */\n              dup4\n                /* \"#utility.yul\":1133:1150   */\n              add\n                /* \"#utility.yul\":1126:1173   */\n              mstore\n                /* \"#utility.yul\":1190:1321   */\n              tag_28\n                /* \"#utility.yul\":1316:1320   */\n              dup2\n                /* \"#utility.yul\":1190:1321   */\n              tag_19\n              jump\t// in\n            tag_28:\n                /* \"#utility.yul\":1182:1321   */\n              swap1\n              pop\n                /* \"#utility.yul\":909:1328   */\n              swap2\n              swap1\n              pop\n              jump\t// out\n\n            auxdata: 0xa264697066735822122054e2931e4c092e266c762ac045734cb76ea2071b2a8a96b7361ad9be2c3331f064736f6c634300080f0033\n        }\n    }\n\n    auxdata: 0xa264697066735822122000535c2f47b5972355548d55d2e41d8b99915f50394fb03bfbefe255fe81a1b364736f6c634300080f0033\n}\n",
				"bytecode": {
					"linkReferences": {},
					"object": "608060405234801561001057600080fd5b50610629806100206000396000f3fe608060405234801561001057600080fd5b506004361061002b5760003560e01c80638b18851614610030575b600080fd5b61003861003a565b005b600060405161004890610208565b604051809103906000f080158015610064573d6000803e3d6000fd5b5090508073ffffffffffffffffffffffffffffffffffffffff1663ad2c6e536040518163ffffffff1660e01b815260040160006040518083038186803b1580156100ad57600080fd5b505afa9250505080156100be575060015b610137576100ca610222565b806308c379a00361012657506100de6102bf565b806100e95750610128565b7ffe46ad7cf507184ab42d7a2576647d779ff7bc7f831bfbead75fbe056c1adb638160405161011891906103d7565b60405180910390a150610132565b505b3d6000803e3d6000fd5b610138565b5b8073ffffffffffffffffffffffffffffffffffffffff1663698ebba76040518163ffffffff1660e01b815260040160006040518083038186803b15801561017e57600080fd5b505afa92505050801561018f575060015b6102045761019b610222565b634e487b71036101f5576101ad6103f9565b906101b857506101f5565b7f2595c462e647e99712858bdaf3fb9047e1ad78054cf01875442fdea6ecb21819816040516101e79190610433565b60405180910390a1506101ff565b3d6000803e3d6000fd5b610205565b5b50565b6101a58061044f83390190565b60008160e01c9050919050565b600060033d11156102415760046000803e61023e600051610215565b90505b90565b6000604051905090565b6000601f19601f8301169050919050565b7f4e487b7100000000000000000000000000000000000000000000000000000000600052604160045260246000fd5b6102978261024e565b810181811067ffffffffffffffff821117156102b6576102b561025f565b5b80604052505050565b600060443d1061034c576102d1610244565b60043d036004823e80513d602482011167ffffffffffffffff821117156102f957505061034c565b808201805167ffffffffffffffff811115610317575050505061034c565b80602083010160043d03850181111561033457505050505061034c565b6103438260200185018661028e565b82955050505050505b90565b600081519050919050565b600082825260208201905092915050565b60005b8381101561038957808201518184015260208101905061036e565b83811115610398576000848401525b50505050565b60006103a98261034f565b6103b3818561035a565b93506103c381856020860161036b565b6103cc8161024e565b840191505092915050565b600060208201905081810360008301526103f1818461039e565b905092915050565b60008060233d1115610416576020600460003e6001915060005190505b9091565b6000819050919050565b61042d8161041a565b82525050565b60006020820190506104486000830184610424565b9291505056fe608060405234801561001057600080fd5b50610185806100206000396000f3fe608060405234801561001057600080fd5b50600436106100365760003560e01c8063698ebba71461003b578063ad2c6e5314610045575b600080fd5b61004361004f565b005b61004d610060565b005b600061005e5761005d6100a3565b5b565b60006100a1576040517f08c379a00000000000000000000000000000000000000000000000000000000081526004016100989061012f565b60405180910390fd5b565b7f4e487b7100000000000000000000000000000000000000000000000000000000600052600160045260246000fd5b600082825260208201905092915050565b7f4572726f72204d65737361676500000000000000000000000000000000000000600082015250565b6000610119600d836100d2565b9150610124826100e3565b602082019050919050565b600060208201905081810360008301526101488161010c565b905091905056fea264697066735822122054e2931e4c092e266c762ac045734cb76ea2071b2a8a96b7361ad9be2c3331f064736f6c634300080f0033a264697066735822122000535c2f47b5972355548d55d2e41d8b99915f50394fb03bfbefe255fe81a1b364736f6c634300080f0033",
					"opcodes": "PUSH1 0x80 PUSH1 0x40 MSTORE CALLVALUE DUP1 ISZERO PUSH2 0x10 JUMPI PUSH1 0x0 DUP1 REVERT JUMPDEST POP PUSH2 0x629 DUP1 PUSH2 0x20 PUSH1 0x0 CODECOPY PUSH1 0x0 RETURN INVALID PUSH1 0x80 PUSH1 0x40 MSTORE CALLVALUE DUP1 ISZERO PUSH2 0x10 JUMPI PUSH1 0x0 DUP1 REVERT JUMPDEST POP PUSH1 0x4 CALLDATASIZE LT PUSH2 0x2B JUMPI PUSH1 0x0 CALLDATALOAD PUSH1 0xE0 SHR DUP1 PUSH4 0x8B188516 EQ PUSH2 0x30 JUMPI JUMPDEST PUSH1 0x0 DUP1 REVERT JUMPDEST PUSH2 0x38 PUSH2 0x3A JUMP JUMPDEST STOP JUMPDEST PUSH1 0x0 PUSH1 0x40 MLOAD PUSH2 0x48 SWAP1 PUSH2 0x208 JUMP JUMPDEST PUSH1 0x40 MLOAD DUP1 SWAP2 SUB SWAP1 PUSH1 0x0 CREATE DUP1 ISZERO DUP1 ISZERO PUSH2 0x64 JUMPI RETURNDATASIZE PUSH1 0x0 DUP1 RETURNDATACOPY RETURNDATASIZE PUSH1 0x0 REVERT JUMPDEST POP SWAP1 POP DUP1 PUSH20 0xFFFFFFFFFFFFFFFFFFFFFFFFFFFFFFFFFFFFFFFF AND PUSH4 0xAD2C6E53 PUSH1 0x40 MLOAD DUP2 PUSH4 0xFFFFFFFF AND PUSH1 0xE0 SHL DUP2 MSTORE PUSH1 0x4 ADD PUSH1 0x0 PUSH1 0x40 MLOAD DUP1 DUP4 SUB DUP2 DUP7 DUP1 EXTCODESIZE ISZERO DUP1 ISZERO PUSH2 0xAD JUMPI PUSH1 0x0 DUP1 REVERT JUMPDEST POP GAS STATICCALL SWAP3 POP POP POP DUP1 ISZERO PUSH2 0xBE JUMPI POP PUSH1 0x1 JUMPDEST PUSH2 0x137 JUMPI PUSH2 0xCA PUSH2 0x222 JUMP JUMPDEST DUP1 PUSH4 0x8C379A0 SUB PUSH2 0x126 JUMPI POP PUSH2 0xDE PUSH2 0x2BF JUMP JUMPDEST DUP1 PUSH2 0xE9 JUMPI POP PUSH2 0x128 JUMP JUMPDEST PUSH32 0xFE46AD7CF507184AB42D7A2576647D779FF7BC7F831BFBEAD75FBE056C1ADB63 DUP2 PUSH1 0x40 MLOAD PUSH2 0x118 SWAP2 SWAP1 PUSH2 0x3D7 JUMP JUMPDEST PUSH1 0x40 MLOAD DUP1 SWAP2 SUB SWAP1 LOG1 POP PUSH2 0x132 JUMP JUMPDEST POP JUMPDEST RETURNDATASIZE PUSH1 0x0 DUP1 RETURNDATACOPY RETURNDATASIZE PUSH1 0x0 REVERT JUMPDEST PUSH2 0x138 JUMP JUMPDEST JUMPDEST DUP1 PUSH20 0xFFFFFFFFFFFFFFFFFFFFFFFFFFFFFFFFFFFFFFFF AND PUSH4 0x698EBBA7 PUSH1 0x40 MLOAD DUP2 PUSH4 0xFFFFFFFF AND PUSH1 0xE0 SHL DUP2 MSTORE PUSH1 0x4 ADD PUSH1 0x0 PUSH1 0x40 MLOAD DUP1 DUP4 SUB DUP2 DUP7 DUP1 EXTCODESIZE ISZERO DUP1 ISZERO PUSH2 0x17E JUMPI PUSH1 0x0 DUP1 REVERT JUMPDEST POP GAS STATICCALL SWAP3 POP POP POP DUP1 ISZERO PUSH2 0x18F JUMPI POP PUSH1 0x1 JUMPDEST PUSH2 0x204 JUMPI PUSH2 0x19B PUSH2 0x222 JUMP JUMPDEST PUSH4 0x4E487B71 SUB PUSH2 0x1F5 JUMPI PUSH2 0x1AD PUSH2 0x3F9 JUMP JUMPDEST SWAP1 PUSH2 0x1B8 JUMPI POP PUSH2 0x1F5 JUMP JUMPDEST PUSH32 0x2595C462E647E99712858BDAF3FB9047E1AD78054CF01875442FDEA6ECB21819 DUP2 PUSH1 0x40 MLOAD PUSH2 0x1E7 SWAP2 SWAP1 PUSH2 0x433 JUMP JUMPDEST PUSH1 0x40 MLOAD DUP1 SWAP2 SUB SWAP1 LOG1 POP PUSH2 0x1FF JUMP JUMPDEST RETURNDATASIZE PUSH1 0x0 DUP1 RETURNDATACOPY RETURNDATASIZE PUSH1 0x0 REVERT JUMPDEST PUSH2 0x205 JUMP JUMPDEST JUMPDEST POP JUMP JUMPDEST PUSH2 0x1A5 DUP1 PUSH2 0x44F DUP4 CODECOPY ADD SWAP1 JUMP JUMPDEST PUSH1 0x0 DUP2 PUSH1 0xE0 SHR SWAP1 POP SWAP2 SWAP1 POP JUMP JUMPDEST PUSH1 0x0 PUSH1 0x3 RETURNDATASIZE GT ISZERO PUSH2 0x241 JUMPI PUSH1 0x4 PUSH1 0x0 DUP1 RETURNDATACOPY PUSH2 0x23E PUSH1 0x0 MLOAD PUSH2 0x215 JUMP JUMPDEST SWAP1 POP JUMPDEST SWAP1 JUMP JUMPDEST PUSH1 0x0 PUSH1 0x40 MLOAD SWAP1 POP SWAP1 JUMP JUMPDEST PUSH1 0x0 PUSH1 0x1F NOT PUSH1 0x1F DUP4 ADD AND SWAP1 POP SWAP2 SWAP1 POP JUMP JUMPDEST PUSH32 0x4E487B7100000000000000000000000000000000000000000000000000000000 PUSH1 0x0 MSTORE PUSH1 0x41 PUSH1 0x4 MSTORE PUSH1 0x24 PUSH1 0x0 REVERT JUMPDEST PUSH2 0x297 DUP3 PUSH2 0x24E JUMP JUMPDEST DUP2 ADD DUP2 DUP2 LT PUSH8 0xFFFFFFFFFFFFFFFF DUP3 GT OR ISZERO PUSH2 0x2B6 JUMPI PUSH2 0x2B5 PUSH2 0x25F JUMP JUMPDEST JUMPDEST DUP1 PUSH1 0x40 MSTORE POP POP POP JUMP JUMPDEST PUSH1 0x0 PUSH1 0x44 RETURNDATASIZE LT PUSH2 0x34C JUMPI PUSH2 0x2D1 PUSH2 0x244 JUMP JUMPDEST PUSH1 0x4 RETURNDATASIZE SUB PUSH1 0x4 DUP3 RETURNDATACOPY DUP1 MLOAD RETURNDATASIZE PUSH1 0x24 DUP3 ADD GT PUSH8 0xFFFFFFFFFFFFFFFF DUP3 GT OR ISZERO PUSH2 0x2F9 JUMPI POP POP PUSH2 0x34C JUMP JUMPDEST DUP1 DUP3 ADD DUP1 MLOAD PUSH8 0xFFFFFFFFFFFFFFFF DUP2 GT ISZERO PUSH2 0x317 JUMPI POP POP POP POP PUSH2 0x34C JUMP JUMPDEST DUP1 PUSH1 0x20 DUP4 ADD ADD PUSH1 0x4 RETURNDATASIZE SUB DUP6 ADD DUP2 GT ISZERO PUSH2 0x334 JUMPI POP POP POP POP POP PUSH2 0x34C JUMP JUMPDEST PUSH2 0x343 DUP3 PUSH1 0x20 ADD DUP6 ADD DUP7 PUSH2 0x28E JUMP JUMPDEST DUP3 SWAP6 POP POP POP POP POP POP JUMPDEST SWAP1 JUMP JUMPDEST PUSH1 0x0 DUP2 MLOAD SWAP1 POP SWAP2 SWAP1 POP JUMP JUMPDEST PUSH1 0x0 DUP3 DUP3 MSTORE PUSH1 0x20 DUP3 ADD SWAP1 POP SWAP3 SWAP2 POP POP JUMP JUMPDEST PUSH1 0x0 JUMPDEST DUP4 DUP2 LT ISZERO PUSH2 0x389 JUMPI DUP1 DUP3 ADD MLOAD DUP2 DUP5 ADD MSTORE PUSH1 0x20 DUP2 ADD SWAP1 POP PUSH2 0x36E JUMP JUMPDEST DUP4 DUP2 GT ISZERO PUSH2 0x398 JUMPI PUSH1 0x0 DUP5 DUP5 ADD MSTORE JUMPDEST POP POP POP POP JUMP JUMPDEST PUSH1 0x0 PUSH2 0x3A9 DUP3 PUSH2 0x34F JUMP JUMPDEST PUSH2 0x3B3 DUP2 DUP6 PUSH2 0x35A JUMP JUMPDEST SWAP4 POP PUSH2 0x3C3 DUP2 DUP6 PUSH1 0x20 DUP7 ADD PUSH2 0x36B JUMP JUMPDEST PUSH2 0x3CC DUP2 PUSH2 0x24E JUMP JUMPDEST DUP5 ADD SWAP2 POP POP SWAP3 SWAP2 POP POP JUMP JUMPDEST PUSH1 0x0 PUSH1 0x20 DUP3 ADD SWAP1 POP DUP2 DUP2 SUB PUSH1 0x0 DUP4 ADD MSTORE PUSH2 0x3F1 DUP2 DUP5 PUSH2 0x39E JUMP JUMPDEST SWAP1 POP SWAP3 SWAP2 POP POP JUMP JUMPDEST PUSH1 0x0 DUP1 PUSH1 0x23 RETURNDATASIZE GT ISZERO PUSH2 0x416 JUMPI PUSH1 0x20 PUSH1 0x4 PUSH1 0x0 RETURNDATACOPY PUSH1 0x1 SWAP2 POP PUSH1 0x0 MLOAD SWAP1 POP JUMPDEST SWAP1 SWAP2 JUMP JUMPDEST PUSH1 0x0 DUP2 SWAP1 POP SWAP2 SWAP1 POP JUMP JUMPDEST PUSH2 0x42D DUP2 PUSH2 0x41A JUMP JUMPDEST DUP3 MSTORE POP POP JUMP JUMPDEST PUSH1 0x0 PUSH1 0x20 DUP3 ADD SWAP1 POP PUSH2 0x448 PUSH1 0x0 DUP4 ADD DUP5 PUSH2 0x424 JUMP JUMPDEST SWAP3 SWAP2 POP POP JUMP INVALID PUSH1 0x80 PUSH1 0x40 MSTORE CALLVALUE DUP1 ISZERO PUSH2 0x10 JUMPI PUSH1 0x0 DUP1 REVERT JUMPDEST POP PUSH2 0x185 DUP1 PUSH2 0x20 PUSH1 0x0 CODECOPY PUSH1 0x0 RETURN INVALID PUSH1 0x80 PUSH1 0x40 MSTORE CALLVALUE DUP1 ISZERO PUSH2 0x10 JUMPI PUSH1 0x0 DUP1 REVERT JUMPDEST POP PUSH1 0x4 CALLDATASIZE LT PUSH2 0x36 JUMPI PUSH1 0x0 CALLDATALOAD PUSH1 0xE0 SHR DUP1 PUSH4 0x698EBBA7 EQ PUSH2 0x3B JUMPI DUP1 PUSH4 0xAD2C6E53 EQ PUSH2 0x45 JUMPI JUMPDEST PUSH1 0x0 DUP1 REVERT JUMPDEST PUSH2 0x43 PUSH2 0x4F JUMP JUMPDEST STOP JUMPDEST PUSH2 0x4D PUSH2 0x60 JUMP JUMPDEST STOP JUMPDEST PUSH1 0x0 PUSH2 0x5E JUMPI PUSH2 0x5D PUSH2 0xA3 JUMP JUMPDEST JUMPDEST JUMP JUMPDEST PUSH1 0x0 PUSH2 0xA1 JUMPI PUSH1 0x40 MLOAD PUSH32 0x8C379A000000000000000000000000000000000000000000000000000000000 DUP2 MSTORE PUSH1 0x4 ADD PUSH2 0x98 SWAP1 PUSH2 0x12F JUMP JUMPDEST PUSH1 0x40 MLOAD DUP1 SWAP2 SUB SWAP1 REVERT JUMPDEST JUMP JUMPDEST PUSH32 0x4E487B7100000000000000000000000000000000000000000000000000000000 PUSH1 0x0 MSTORE PUSH1 0x1 PUSH1 0x4 MSTORE PUSH1 0x24 PUSH1 0x0 REVERT JUMPDEST PUSH1 0x0 DUP3 DUP3 MSTORE PUSH1 0x20 DUP3 ADD SWAP1 POP SWAP3 SWAP2 POP POP JUMP JUMPDEST PUSH32 0x4572726F72204D65737361676500000000000000000000000000000000000000 PUSH1 0x0 DUP3 ADD MSTORE POP JUMP JUMPDEST PUSH1 0x0 PUSH2 0x119 PUSH1 0xD DUP4 PUSH2 0xD2 JUMP JUMPDEST SWAP2 POP PUSH2 0x124 DUP3 PUSH2 0xE3 JUMP JUMPDEST PUSH1 0x20 DUP3 ADD SWAP1 POP SWAP2 SWAP1 POP JUMP JUMPDEST PUSH1 0x0 PUSH1 0x20 DUP3 ADD SWAP1 POP DUP2 DUP2 SUB PUSH1 0x0 DUP4 ADD MSTORE PUSH2 0x148 DUP2 PUSH2 0x10C JUMP JUMPDEST SWAP1 POP SWAP2 SWAP1 POP JUMP INVALID LOG2 PUSH5 0x6970667358 0x22 SLT KECCAK256 SLOAD 0xE2 SWAP4 0x1E 0x4C MULMOD 0x2E 0x26 PUSH13 0x762AC045734CB76EA2071B2A8A SWAP7 0xB7 CALLDATASIZE BYTE 0xD9 0xBE 0x2C CALLER BALANCE CREATE PUSH5 0x736F6C6343 STOP ADDMOD 0xF STOP CALLER LOG2 PUSH5 0x6970667358 0x22 SLT KECCAK256 STOP MSTORE8 0x5C 0x2F SELFBALANCE 0xB5 SWAP8 0x23 SSTORE SLOAD DUP14 SSTORE 0xD2 0xE4 SAR DUP12 SWAP10 SWAP2 0x5F POP CODECOPY 0x4F 0xB0 EXTCODESIZE 0xFB 0xEF 0xE2 SSTORE INVALID DUP2 LOG1 0xB3 PUSH5 0x736F6C6343 STOP ADDMOD 0xF STOP CALLER "
				},
				"gasEstimates": {
					"creation": {
						"codeDepositCost": "315400",
						"executionCost": "355",
						"totalCost": "315755"
					},
					"external": {
						"catchError()": "infinite"
					}
				},
				"methodIdentifiers": {
					"catchError()": "8b188516"
				}
			},
			"storageLayout": {
				"storage": [],
				"types": null
			},
			"userdoc": {
				"kind": "user",
				"methods": {},
				"version": 1
			}
		}
	}
}