{
	"contracts/ExampleTryCatch.sol": {
		"WillThrowException": {
			"abi": [
				{
					"inputs": [],
					"name": "ProblematicFunc1",
					"outputs": [],
					"stateMutability": "pure",
					"type": "function"
				},
				{
					"inputs": [],
					"name": "ProblematicFunc2",
					"outputs": [],
					"stateMutability": "pure",
					"type": "function"
				}
			],
			"devdoc": {
				"kind": "dev",
				"methods": {},
				"version": 1
			},
			"evm": {
				"assembly": "    /* \"contracts/ExampleTryCatch.sol\":59:263  contract WillThrowException{... */\n  mstore(0x40, 0x80)\n  callvalue\n  dup1\n  iszero\n  tag_1\n  jumpi\n  0x00\n  dup1\n  revert\ntag_1:\n  pop\n  dataSize(sub_0)\n  dup1\n  dataOffset(sub_0)\n  0x00\n  codecopy\n  0x00\n  return\nstop\n\nsub_0: assembly {\n        /* \"contracts/ExampleTryCatch.sol\":59:263  contract WillThrowException{... */\n      mstore(0x40, 0x80)\n      callvalue\n      dup1\n      iszero\n      tag_1\n      jumpi\n      0x00\n      dup1\n      revert\n    tag_1:\n      pop\n      jumpi(tag_2, lt(calldatasize, 0x04))\n      shr(0xe0, calldataload(0x00))\n      dup1\n      0x698ebba7\n      eq\n      tag_3\n      jumpi\n      dup1\n      0xad2c6e53\n      eq\n      tag_4\n      jumpi\n    tag_2:\n      0x00\n      dup1\n      revert\n        /* \"contracts/ExampleTryCatch.sol\":189:260  function ProblematicFunc2() public pure{... */\n    tag_3:\n      tag_5\n      tag_6\n      jump\t// in\n    tag_5:\n      stop\n        /* \"contracts/ExampleTryCatch.sol\":95:183  function ProblematicFunc1() public pure{... */\n    tag_4:\n      tag_7\n      tag_8\n      jump\t// in\n    tag_7:\n      stop\n        /* \"contracts/ExampleTryCatch.sol\":189:260  function ProblematicFunc2() public pure{... */\n    tag_6:\n        /* \"contracts/ExampleTryCatch.sol\":246:251  false */\n      0x00\n        /* \"contracts/ExampleTryCatch.sol\":239:252  assert(false) */\n      tag_10\n      jumpi\n      tag_11\n      tag_12\n      jump\t// in\n    tag_11:\n    tag_10:\n        /* \"contracts/ExampleTryCatch.sol\":189:260  function ProblematicFunc2() public pure{... */\n      jump\t// out\n        /* \"contracts/ExampleTryCatch.sol\":95:183  function ProblematicFunc1() public pure{... */\n    tag_8:\n        /* \"contracts/ExampleTryCatch.sol\":153:158  false */\n      0x00\n        /* \"contracts/ExampleTryCatch.sol\":145:175  require(false,\"Error Message\") */\n      tag_14\n      jumpi\n      mload(0x40)\n      0x08c379a000000000000000000000000000000000000000000000000000000000\n      dup2\n      mstore\n      0x04\n      add\n      tag_15\n      swap1\n      tag_16\n      jump\t// in\n    tag_15:\n      mload(0x40)\n      dup1\n      swap2\n      sub\n      swap1\n      revert\n    tag_14:\n        /* \"contracts/ExampleTryCatch.sol\":95:183  function ProblematicFunc1() public pure{... */\n      jump\t// out\n        /* \"#utility.yul\":7:187   */\n    tag_12:\n        /* \"#utility.yul\":55:132   */\n      0x4e487b7100000000000000000000000000000000000000000000000000000000\n        /* \"#utility.yul\":52:53   */\n      0x00\n        /* \"#utility.yul\":45:133   */\n      mstore\n        /* \"#utility.yul\":152:156   */\n      0x01\n        /* \"#utility.yul\":149:150   */\n      0x04\n        /* \"#utility.yul\":142:157   */\n      mstore\n        /* \"#utility.yul\":176:180   */\n      0x24\n        /* \"#utility.yul\":173:174   */\n      0x00\n        /* \"#utility.yul\":166:181   */\n      revert\n        /* \"#utility.yul\":193:362   */\n    tag_17:\n        /* \"#utility.yul\":277:288   */\n      0x00\n        /* \"#utility.yul\":311:317   */\n      dup3\n        /* \"#utility.yul\":306:309   */\n      dup3\n        /* \"#utility.yul\":299:318   */\n      mstore\n        /* \"#utility.yul\":351:355   */\n      0x20\n        /* \"#utility.yul\":346:349   */\n      dup3\n        /* \"#utility.yul\":342:356   */\n      add\n        /* \"#utility.yul\":327:356   */\n      swap1\n      pop\n        /* \"#utility.yul\":193:362   */\n      swap3\n      swap2\n      pop\n      pop\n      jump\t// out\n        /* \"#utility.yul\":368:531   */\n    tag_18:\n        /* \"#utility.yul\":508:523   */\n      0x4572726f72204d65737361676500000000000000000000000000000000000000\n        /* \"#utility.yul\":504:505   */\n      0x00\n        /* \"#utility.yul\":496:502   */\n      dup3\n        /* \"#utility.yul\":492:506   */\n      add\n        /* \"#utility.yul\":485:524   */\n      mstore\n        /* \"#utility.yul\":368:531   */\n      pop\n      jump\t// out\n        /* \"#utility.yul\":537:903   */\n    tag_19:\n        /* \"#utility.yul\":679:682   */\n      0x00\n        /* \"#utility.yul\":700:767   */\n      tag_25\n        /* \"#utility.yul\":764:766   */\n      0x0d\n        /* \"#utility.yul\":759:762   */\n      dup4\n        /* \"#utility.yul\":700:767   */\n      tag_17\n      jump\t// in\n    tag_25:\n        /* \"#utility.yul\":693:767   */\n      swap2\n      pop\n        /* \"#utility.yul\":776:869   */\n      tag_26\n        /* \"#utility.yul\":865:868   */\n      dup3\n        /* \"#utility.yul\":776:869   */\n      tag_18\n      jump\t// in\n    tag_26:\n        /* \"#utility.yul\":894:896   */\n      0x20\n        /* \"#utility.yul\":889:892   */\n      dup3\n        /* \"#utility.yul\":885:897   */\n      add\n        /* \"#utility.yul\":878:897   */\n      swap1\n      pop\n        /* \"#utility.yul\":537:903   */\n      swap2\n      swap1\n      pop\n      jump\t// out\n        /* \"#utility.yul\":909:1328   */\n    tag_16:\n        /* \"#utility.yul\":1075:1079   */\n      0x00\n        /* \"#utility.yul\":1113:1115   */\n      0x20\n        /* \"#utility.yul\":1102:1111   */\n      dup3\n        /* \"#utility.yul\":1098:1116   */\n      add\n        /* \"#utility.yul\":1090:1116   */\n      swap1\n      pop\n        /* \"#utility.yul\":1162:1171   */\n      dup2\n        /* \"#utility.yul\":1156:1160   */\n      dup2\n        /* \"#utility.yul\":1152:1172   */\n      sub\n        /* \"#utility.yul\":1148:1149   */\n      0x00\n        /* \"#utility.yul\":1137:1146   */\n      dup4\n        /* \"#utility.yul\":1133:1150   */\n      add\n        /* \"#utility.yul\":1126:1173   */\n      mstore\n        /* \"#utility.yul\":1190:1321   */\n      tag_28\n        /* \"#utility.yul\":1316:1320   */\n      dup2\n        /* \"#utility.yul\":1190:1321   */\n      tag_19\n      jump\t// in\n    tag_28:\n        /* \"#utility.yul\":1182:1321   */\n      swap1\n      pop\n        /* \"#utility.yul\":909:1328   */\n      swap2\n      swap1\n      pop\n      jump\t// out\n\n    auxdata: 0xa264697066735822122054e2931e4c092e266c762ac045734cb76ea2071b2a8a96b7361ad9be2c3331f064736f6c634300080f0033\n}\n",
				"bytecode": {
					"linkReferences": {},
					"object": "608060405234801561001057600080fd5b50610185806100206000396000f3fe608060405234801561001057600080fd5b50600436106100365760003560e01c8063698ebba71461003b578063ad2c6e5314610045575b600080fd5b61004361004f565b005b61004d610060565b005b600061005e5761005d6100a3565b5b565b60006100a1576040517f08c379a00000000000000000000000000000000000000000000000000000000081526004016100989061012f565b60405180910390fd5b565b7f4e487b7100000000000000000000000000000000000000000000000000000000600052600160045260246000fd5b600082825260208201905092915050565b7f4572726f72204d65737361676500000000000000000000000000000000000000600082015250565b6000610119600d836100d2565b9150610124826100e3565b602082019050919050565b600060208201905081810360008301526101488161010c565b905091905056fea264697066735822122054e2931e4c092e266c762ac045734cb76ea2071b2a8a96b7361ad9be2c3331f064736f6c634300080f0033",
					"opcodes": "PUSH1 0x80 PUSH1 0x40 MSTORE CALLVALUE DUP1 ISZERO PUSH2 0x10 JUMPI PUSH1 0x0 DUP1 REVERT JUMPDEST POP PUSH2 0x185 DUP1 PUSH2 0x20 PUSH1 0x0 CODECOPY PUSH1 0x0 RETURN INVALID PUSH1 0x80 PUSH1 0x40 MSTORE CALLVALUE DUP1 ISZERO PUSH2 0x10 JUMPI PUSH1 0x0 DUP1 REVERT JUMPDEST POP PUSH1 0x4 CALLDATASIZE LT PUSH2 0x36 JUMPI PUSH1 0x0 CALLDATALOAD PUSH1 0xE0 SHR DUP1 PUSH4 0x698EBBA7 EQ PUSH2 0x3B JUMPI DUP1 PUSH4 0xAD2C6E53 EQ PUSH2 0x45 JUMPI JUMPDEST PUSH1 0x0 DUP1 REVERT JUMPDEST PUSH2 0x43 PUSH2 0x4F JUMP JUMPDEST STOP JUMPDEST PUSH2 0x4D PUSH2 0x60 JUMP JUMPDEST STOP JUMPDEST PUSH1 0x0 PUSH2 0x5E JUMPI PUSH2 0x5D PUSH2 0xA3 JUMP JUMPDEST JUMPDEST JUMP JUMPDEST PUSH1 0x0 PUSH2 0xA1 JUMPI PUSH1 0x40 MLOAD PUSH32 0x8C379A000000000000000000000000000000000000000000000000000000000 DUP2 MSTORE PUSH1 0x4 ADD PUSH2 0x98 SWAP1 PUSH2 0x12F JUMP JUMPDEST PUSH1 0x40 MLOAD DUP1 SWAP2 SUB SWAP1 REVERT JUMPDEST JUMP JUMPDEST PUSH32 0x4E487B7100000000000000000000000000000000000000000000000000000000 PUSH1 0x0 MSTORE PUSH1 0x1 PUSH1 0x4 MSTORE PUSH1 0x24 PUSH1 0x0 REVERT JUMPDEST PUSH1 0x0 DUP3 DUP3 MSTORE PUSH1 0x20 DUP3 ADD SWAP1 POP SWAP3 SWAP2 POP POP JUMP JUMPDEST PUSH32 0x4572726F72204D65737361676500000000000000000000000000000000000000 PUSH1 0x0 DUP3 ADD MSTORE POP JUMP JUMPDEST PUSH1 0x0 PUSH2 0x119 PUSH1 0xD DUP4 PUSH2 0xD2 JUMP JUMPDEST SWAP2 POP PUSH2 0x124 DUP3 PUSH2 0xE3 JUMP JUMPDEST PUSH1 0x20 DUP3 ADD SWAP1 POP SWAP2 SWAP1 POP JUMP JUMPDEST PUSH1 0x0 PUSH1 0x20 DUP3 ADD SWAP1 POP DUP2 DUP2 SUB PUSH1 0x0 DUP4 ADD MSTORE PUSH2 0x148 DUP2 PUSH2 0x10C JUMP JUMPDEST SWAP1 POP SWAP2 SWAP1 POP JUMP INVALID LOG2 PUSH5 0x6970667358 0x22 SLT KECCAK256 SLOAD 0xE2 SWAP4 0x1E 0x4C MULMOD 0x2E 0x26 PUSH13 0x762AC045734CB76EA2071B2A8A SWAP7 0xB7 CALLDATASIZE BYTE 0xD9 0xBE 0x2C CALLER BALANCE CREATE PUSH5 0x736F6C6343 STOP ADDMOD 0xF STOP CALLER "
				},
				"gasEstimates": {
					"creation": {
						"codeDepositCost": "77800",
						"executionCost": "129",
						"totalCost": "77929"
					},
					"external": {
						"ProblematicFunc1()": "450",
						"ProblematicFunc2()": "168"
					}
				},
				"methodIdentifiers": {
					"ProblematicFunc1()": "ad2c6e53",
					"ProblematicFunc2()": "698ebba7"
				}
			},
			"storageLayout": {
				"storage": [],
				"types": null
			},
			"userdoc": {
				"kind": "user",
				"methods": {},
				"version": 1
			}
		}
	}
}