{
	"contracts/integerContract.sol": {
		"boolContract": {
			"abi": [
				{
					"inputs": [],
					"name": "decMyuint",
					"outputs": [],
					"stateMutability": "nonpayable",
					"type": "function"
				},
				{
					"inputs": [],
					"name": "decMyuint8",
					"outputs": [],
					"stateMutability": "nonpayable",
					"type": "function"
				},
				{
					"inputs": [],
					"name": "decNint",
					"outputs": [],
					"stateMutability": "nonpayable",
					"type": "function"
				},
				{
					"inputs": [],
					"name": "incMyuint",
					"outputs": [],
					"stateMutability": "nonpayable",
					"type": "function"
				},
				{
					"inputs": [],
					"name": "incMyuint8",
					"outputs": [],
					"stateMutability": "nonpayable",
					"type": "function"
				},
				{
					"inputs": [],
					"name": "incNint",
					"outputs": [],
					"stateMutability": "nonpayable",
					"type": "function"
				},
				{
					"inputs": [],
					"name": "myUnit",
					"outputs": [
						{
							"internalType": "uint256",
							"name": "",
							"type": "uint256"
						}
					],
					"stateMutability": "view",
					"type": "function"
				},
				{
					"inputs": [],
					"name": "nint",
					"outputs": [
						{
							"internalType": "int256",
							"name": "",
							"type": "int256"
						}
					],
					"stateMutability": "view",
					"type": "function"
				},
				{
					"inputs": [
						{
							"internalType": "uint256",
							"name": "_myNewUint",
							"type": "uint256"
						}
					],
					"name": "setMyuint",
					"outputs": [],
					"stateMutability": "nonpayable",
					"type": "function"
				},
				{
					"inputs": [],
					"name": "vuint8",
					"outputs": [
						{
							"internalType": "uint8",
							"name": "",
							"type": "uint8"
						}
					],
					"stateMutability": "view",
					"type": "function"
				}
			],
			"devdoc": {
				"kind": "dev",
				"methods": {},
				"version": 1
			},
			"evm": {
				"assembly": "    /* \"contracts/integerContract.sol\":61:696  contract boolContract{... */\n  mstore(0x40, 0x80)\n    /* \"contracts/integerContract.sol\":109:111  -3 */\n  0xfffffffffffffffffffffffffffffffffffffffffffffffffffffffffffffffd\n    /* \"contracts/integerContract.sol\":91:111  int public nint = -3 */\n  0x00\n  sstore\n    /* \"contracts/integerContract.sol\":139:142  250 */\n  0xfa\n    /* \"contracts/integerContract.sol\":118:142  uint public myUnit = 250 */\n  0x01\n  sstore\n    /* \"contracts/integerContract.sol\":212:215  250 */\n  0xfa\n    /* \"contracts/integerContract.sol\":190:215  uint8 public vuint8 = 250 */\n  0x02\n  exp(0x0100, 0x00)\n  dup2\n  sload\n  dup2\n  0xff\n  mul\n  not\n  and\n  swap1\n  dup4\n  0xff\n  and\n  mul\n  or\n  swap1\n  sstore\n  pop\n    /* \"contracts/integerContract.sol\":61:696  contract boolContract{... */\n  callvalue\n  dup1\n  iszero\n  tag_1\n  jumpi\n  0x00\n  dup1\n  revert\ntag_1:\n  pop\n  dataSize(sub_0)\n  dup1\n  dataOffset(sub_0)\n  0x00\n  codecopy\n  0x00\n  return\nstop\n\nsub_0: assembly {\n        /* \"contracts/integerContract.sol\":61:696  contract boolContract{... */\n      mstore(0x40, 0x80)\n      callvalue\n      dup1\n      iszero\n      tag_1\n      jumpi\n      0x00\n      dup1\n      revert\n    tag_1:\n      pop\n      jumpi(tag_2, lt(calldatasize, 0x04))\n      shr(0xe0, calldataload(0x00))\n      dup1\n      0x960dabd8\n      gt\n      tag_13\n      jumpi\n      dup1\n      0x960dabd8\n      eq\n      tag_8\n      jumpi\n      dup1\n      0xc6d642d6\n      eq\n      tag_9\n      jumpi\n      dup1\n      0xcea47ab8\n      eq\n      tag_10\n      jumpi\n      dup1\n      0xee21a7fe\n      eq\n      tag_11\n      jumpi\n      dup1\n      0xf674d830\n      eq\n      tag_12\n      jumpi\n      jump(tag_2)\n    tag_13:\n      dup1\n      0x2ac90ef8\n      eq\n      tag_3\n      jumpi\n      dup1\n      0x2be495c6\n      eq\n      tag_4\n      jumpi\n      dup1\n      0x66335767\n      eq\n      tag_5\n      jumpi\n      dup1\n      0x6a345bb4\n      eq\n      tag_6\n      jumpi\n      dup1\n      0x8d418141\n      eq\n      tag_7\n      jumpi\n    tag_2:\n      0x00\n      dup1\n      revert\n        /* \"contracts/integerContract.sol\":464:518  function decMyuint() public{... */\n    tag_3:\n      tag_14\n      tag_15\n      jump\t// in\n    tag_14:\n      stop\n        /* \"contracts/integerContract.sol\":342:396  function incMyuint() public{... */\n    tag_4:\n      tag_16\n      tag_17\n      jump\t// in\n    tag_16:\n      stop\n        /* \"contracts/integerContract.sol\":256:336  function setMyuint(uint _myNewUint) public{... */\n    tag_5:\n      tag_18\n      0x04\n      dup1\n      calldatasize\n      sub\n      dup2\n      add\n      swap1\n      tag_19\n      swap2\n      swap1\n      tag_20\n      jump\t// in\n    tag_19:\n      tag_21\n      jump\t// in\n    tag_18:\n      stop\n        /* \"contracts/integerContract.sol\":118:142  uint public myUnit = 250 */\n    tag_6:\n      tag_22\n      tag_23\n      jump\t// in\n    tag_22:\n      mload(0x40)\n      tag_24\n      swap2\n      swap1\n      tag_25\n      jump\t// in\n    tag_24:\n      mload(0x40)\n      dup1\n      swap2\n      sub\n      swap1\n      return\n        /* \"contracts/integerContract.sol\":91:111  int public nint = -3 */\n    tag_7:\n      tag_26\n      tag_27\n      jump\t// in\n    tag_26:\n      mload(0x40)\n      tag_28\n      swap2\n      swap1\n      tag_29\n      jump\t// in\n    tag_28:\n      mload(0x40)\n      dup1\n      swap2\n      sub\n      swap1\n      return\n        /* \"contracts/integerContract.sol\":402:457  function incMyuint8() public{... */\n    tag_8:\n      tag_30\n      tag_31\n      jump\t// in\n    tag_30:\n      stop\n        /* \"contracts/integerContract.sol\":641:691  function decNint() public{... */\n    tag_9:\n      tag_32\n      tag_33\n      jump\t// in\n    tag_32:\n      stop\n        /* \"contracts/integerContract.sol\":190:215  uint8 public vuint8 = 250 */\n    tag_10:\n      tag_34\n      tag_35\n      jump\t// in\n    tag_34:\n      mload(0x40)\n      tag_36\n      swap2\n      swap1\n      tag_37\n      jump\t// in\n    tag_36:\n      mload(0x40)\n      dup1\n      swap2\n      sub\n      swap1\n      return\n        /* \"contracts/integerContract.sol\":524:579  function decMyuint8() public{... */\n    tag_11:\n      tag_38\n      tag_39\n      jump\t// in\n    tag_38:\n      stop\n        /* \"contracts/integerContract.sol\":585:635  function incNint() public{... */\n    tag_12:\n      tag_40\n      tag_41\n      jump\t// in\n    tag_40:\n      stop\n        /* \"contracts/integerContract.sol\":464:518  function decMyuint() public{... */\n    tag_15:\n        /* \"contracts/integerContract.sol\":502:508  myUnit */\n      0x01\n      0x00\n        /* \"contracts/integerContract.sol\":502:510  myUnit-- */\n      dup2\n      sload\n      dup1\n      swap3\n      swap2\n      swap1\n      tag_43\n      swap1\n      tag_44\n      jump\t// in\n    tag_43:\n      swap2\n      swap1\n      pop\n      sstore\n      pop\n        /* \"contracts/integerContract.sol\":464:518  function decMyuint() public{... */\n      jump\t// out\n        /* \"contracts/integerContract.sol\":342:396  function incMyuint() public{... */\n    tag_17:\n        /* \"contracts/integerContract.sol\":380:386  myUnit */\n      0x01\n      0x00\n        /* \"contracts/integerContract.sol\":380:388  myUnit++ */\n      dup2\n      sload\n      dup1\n      swap3\n      swap2\n      swap1\n      tag_46\n      swap1\n      tag_47\n      jump\t// in\n    tag_46:\n      swap2\n      swap1\n      pop\n      sstore\n      pop\n        /* \"contracts/integerContract.sol\":342:396  function incMyuint() public{... */\n      jump\t// out\n        /* \"contracts/integerContract.sol\":256:336  function setMyuint(uint _myNewUint) public{... */\n    tag_21:\n        /* \"contracts/integerContract.sol\":318:328  _myNewUint */\n      dup1\n        /* \"contracts/integerContract.sol\":309:315  myUnit */\n      0x01\n        /* \"contracts/integerContract.sol\":309:328  myUnit = _myNewUint */\n      dup2\n      swap1\n      sstore\n      pop\n        /* \"contracts/integerContract.sol\":256:336  function setMyuint(uint _myNewUint) public{... */\n      pop\n      jump\t// out\n        /* \"contracts/integerContract.sol\":118:142  uint public myUnit = 250 */\n    tag_23:\n      sload(0x01)\n      dup2\n      jump\t// out\n        /* \"contracts/integerContract.sol\":91:111  int public nint = -3 */\n    tag_27:\n      sload(0x00)\n      dup2\n      jump\t// out\n        /* \"contracts/integerContract.sol\":402:457  function incMyuint8() public{... */\n    tag_31:\n        /* \"contracts/integerContract.sol\":441:447  vuint8 */\n      0x02\n      0x00\n        /* \"contracts/integerContract.sol\":441:449  vuint8++ */\n      dup2\n      dup2\n      swap1\n      sload\n      swap1\n      0x0100\n      exp\n      swap1\n      div\n      0xff\n      and\n      dup1\n      swap3\n      swap2\n      swap1\n      tag_50\n      swap1\n      tag_51\n      jump\t// in\n    tag_50:\n      swap2\n      swap1\n      0x0100\n      exp\n      dup2\n      sload\n      dup2\n      0xff\n      mul\n      not\n      and\n      swap1\n      dup4\n      0xff\n      and\n      mul\n      or\n      swap1\n      sstore\n      pop\n      pop\n        /* \"contracts/integerContract.sol\":402:457  function incMyuint8() public{... */\n      jump\t// out\n        /* \"contracts/integerContract.sol\":641:691  function decNint() public{... */\n    tag_33:\n        /* \"contracts/integerContract.sol\":677:681  nint */\n      0x00\n      dup1\n        /* \"contracts/integerContract.sol\":677:683  nint-- */\n      dup2\n      sload\n      dup1\n      swap3\n      swap2\n      swap1\n      tag_53\n      swap1\n      tag_54\n      jump\t// in\n    tag_53:\n      swap2\n      swap1\n      pop\n      sstore\n      pop\n        /* \"contracts/integerContract.sol\":641:691  function decNint() public{... */\n      jump\t// out\n        /* \"contracts/integerContract.sol\":190:215  uint8 public vuint8 = 250 */\n    tag_35:\n      0x02\n      0x00\n      swap1\n      sload\n      swap1\n      0x0100\n      exp\n      swap1\n      div\n      0xff\n      and\n      dup2\n      jump\t// out\n        /* \"contracts/integerContract.sol\":524:579  function decMyuint8() public{... */\n    tag_39:\n        /* \"contracts/integerContract.sol\":563:569  vuint8 */\n      0x02\n      0x00\n        /* \"contracts/integerContract.sol\":563:571  vuint8-- */\n      dup2\n      dup2\n      swap1\n      sload\n      swap1\n      0x0100\n      exp\n      swap1\n      div\n      0xff\n      and\n      dup1\n      swap3\n      swap2\n      swap1\n      tag_56\n      swap1\n      tag_57\n      jump\t// in\n    tag_56:\n      swap2\n      swap1\n      0x0100\n      exp\n      dup2\n      sload\n      dup2\n      0xff\n      mul\n      not\n      and\n      swap1\n      dup4\n      0xff\n      and\n      mul\n      or\n      swap1\n      sstore\n      pop\n      pop\n        /* \"contracts/integerContract.sol\":524:579  function decMyuint8() public{... */\n      jump\t// out\n        /* \"contracts/integerContract.sol\":585:635  function incNint() public{... */\n    tag_41:\n        /* \"contracts/integerContract.sol\":621:625  nint */\n      0x00\n      dup1\n        /* \"contracts/integerContract.sol\":621:627  nint++ */\n      dup2\n      sload\n      dup1\n      swap3\n      swap2\n      swap1\n      tag_59\n      swap1\n      tag_60\n      jump\t// in\n    tag_59:\n      swap2\n      swap1\n      pop\n      sstore\n      pop\n        /* \"contracts/integerContract.sol\":585:635  function incNint() public{... */\n      jump\t// out\n        /* \"#utility.yul\":88:205   */\n    tag_62:\n        /* \"#utility.yul\":197:198   */\n      0x00\n        /* \"#utility.yul\":194:195   */\n      dup1\n        /* \"#utility.yul\":187:199   */\n      revert\n        /* \"#utility.yul\":334:411   */\n    tag_64:\n        /* \"#utility.yul\":371:378   */\n      0x00\n        /* \"#utility.yul\":400:405   */\n      dup2\n        /* \"#utility.yul\":389:405   */\n      swap1\n      pop\n        /* \"#utility.yul\":334:411   */\n      swap2\n      swap1\n      pop\n      jump\t// out\n        /* \"#utility.yul\":417:539   */\n    tag_65:\n        /* \"#utility.yul\":490:514   */\n      tag_79\n        /* \"#utility.yul\":508:513   */\n      dup2\n        /* \"#utility.yul\":490:514   */\n      tag_64\n      jump\t// in\n    tag_79:\n        /* \"#utility.yul\":483:488   */\n      dup2\n        /* \"#utility.yul\":480:515   */\n      eq\n        /* \"#utility.yul\":470:533   */\n      tag_80\n      jumpi\n        /* \"#utility.yul\":529:530   */\n      0x00\n        /* \"#utility.yul\":526:527   */\n      dup1\n        /* \"#utility.yul\":519:531   */\n      revert\n        /* \"#utility.yul\":470:533   */\n    tag_80:\n        /* \"#utility.yul\":417:539   */\n      pop\n      jump\t// out\n        /* \"#utility.yul\":545:684   */\n    tag_66:\n        /* \"#utility.yul\":591:596   */\n      0x00\n        /* \"#utility.yul\":629:635   */\n      dup2\n        /* \"#utility.yul\":616:636   */\n      calldataload\n        /* \"#utility.yul\":607:636   */\n      swap1\n      pop\n        /* \"#utility.yul\":645:678   */\n      tag_82\n        /* \"#utility.yul\":672:677   */\n      dup2\n        /* \"#utility.yul\":645:678   */\n      tag_65\n      jump\t// in\n    tag_82:\n        /* \"#utility.yul\":545:684   */\n      swap3\n      swap2\n      pop\n      pop\n      jump\t// out\n        /* \"#utility.yul\":690:1019   */\n    tag_20:\n        /* \"#utility.yul\":749:755   */\n      0x00\n        /* \"#utility.yul\":798:800   */\n      0x20\n        /* \"#utility.yul\":786:795   */\n      dup3\n        /* \"#utility.yul\":777:784   */\n      dup5\n        /* \"#utility.yul\":773:796   */\n      sub\n        /* \"#utility.yul\":769:801   */\n      slt\n        /* \"#utility.yul\":766:885   */\n      iszero\n      tag_84\n      jumpi\n        /* \"#utility.yul\":804:883   */\n      tag_85\n      tag_62\n      jump\t// in\n    tag_85:\n        /* \"#utility.yul\":766:885   */\n    tag_84:\n        /* \"#utility.yul\":924:925   */\n      0x00\n        /* \"#utility.yul\":949:1002   */\n      tag_86\n        /* \"#utility.yul\":994:1001   */\n      dup5\n        /* \"#utility.yul\":985:991   */\n      dup3\n        /* \"#utility.yul\":974:983   */\n      dup6\n        /* \"#utility.yul\":970:992   */\n      add\n        /* \"#utility.yul\":949:1002   */\n      tag_66\n      jump\t// in\n    tag_86:\n        /* \"#utility.yul\":939:1002   */\n      swap2\n      pop\n        /* \"#utility.yul\":895:1012   */\n      pop\n        /* \"#utility.yul\":690:1019   */\n      swap3\n      swap2\n      pop\n      pop\n      jump\t// out\n        /* \"#utility.yul\":1025:1143   */\n    tag_67:\n        /* \"#utility.yul\":1112:1136   */\n      tag_88\n        /* \"#utility.yul\":1130:1135   */\n      dup2\n        /* \"#utility.yul\":1112:1136   */\n      tag_64\n      jump\t// in\n    tag_88:\n        /* \"#utility.yul\":1107:1110   */\n      dup3\n        /* \"#utility.yul\":1100:1137   */\n      mstore\n        /* \"#utility.yul\":1025:1143   */\n      pop\n      pop\n      jump\t// out\n        /* \"#utility.yul\":1149:1371   */\n    tag_25:\n        /* \"#utility.yul\":1242:1246   */\n      0x00\n        /* \"#utility.yul\":1280:1282   */\n      0x20\n        /* \"#utility.yul\":1269:1278   */\n      dup3\n        /* \"#utility.yul\":1265:1283   */\n      add\n        /* \"#utility.yul\":1257:1283   */\n      swap1\n      pop\n        /* \"#utility.yul\":1293:1364   */\n      tag_90\n        /* \"#utility.yul\":1361:1362   */\n      0x00\n        /* \"#utility.yul\":1350:1359   */\n      dup4\n        /* \"#utility.yul\":1346:1363   */\n      add\n        /* \"#utility.yul\":1337:1343   */\n      dup5\n        /* \"#utility.yul\":1293:1364   */\n      tag_67\n      jump\t// in\n    tag_90:\n        /* \"#utility.yul\":1149:1371   */\n      swap3\n      swap2\n      pop\n      pop\n      jump\t// out\n        /* \"#utility.yul\":1377:1453   */\n    tag_68:\n        /* \"#utility.yul\":1413:1420   */\n      0x00\n        /* \"#utility.yul\":1442:1447   */\n      dup2\n        /* \"#utility.yul\":1431:1447   */\n      swap1\n      pop\n        /* \"#utility.yul\":1377:1453   */\n      swap2\n      swap1\n      pop\n      jump\t// out\n        /* \"#utility.yul\":1459:1574   */\n    tag_69:\n        /* \"#utility.yul\":1544:1567   */\n      tag_93\n        /* \"#utility.yul\":1561:1566   */\n      dup2\n        /* \"#utility.yul\":1544:1567   */\n      tag_68\n      jump\t// in\n    tag_93:\n        /* \"#utility.yul\":1539:1542   */\n      dup3\n        /* \"#utility.yul\":1532:1568   */\n      mstore\n        /* \"#utility.yul\":1459:1574   */\n      pop\n      pop\n      jump\t// out\n        /* \"#utility.yul\":1580:1798   */\n    tag_29:\n        /* \"#utility.yul\":1671:1675   */\n      0x00\n        /* \"#utility.yul\":1709:1711   */\n      0x20\n        /* \"#utility.yul\":1698:1707   */\n      dup3\n        /* \"#utility.yul\":1694:1712   */\n      add\n        /* \"#utility.yul\":1686:1712   */\n      swap1\n      pop\n        /* \"#utility.yul\":1722:1791   */\n      tag_95\n        /* \"#utility.yul\":1788:1789   */\n      0x00\n        /* \"#utility.yul\":1777:1786   */\n      dup4\n        /* \"#utility.yul\":1773:1790   */\n      add\n        /* \"#utility.yul\":1764:1770   */\n      dup5\n        /* \"#utility.yul\":1722:1791   */\n      tag_69\n      jump\t// in\n    tag_95:\n        /* \"#utility.yul\":1580:1798   */\n      swap3\n      swap2\n      pop\n      pop\n      jump\t// out\n        /* \"#utility.yul\":1804:1890   */\n    tag_70:\n        /* \"#utility.yul\":1839:1846   */\n      0x00\n        /* \"#utility.yul\":1879:1883   */\n      0xff\n        /* \"#utility.yul\":1872:1877   */\n      dup3\n        /* \"#utility.yul\":1868:1884   */\n      and\n        /* \"#utility.yul\":1857:1884   */\n      swap1\n      pop\n        /* \"#utility.yul\":1804:1890   */\n      swap2\n      swap1\n      pop\n      jump\t// out\n        /* \"#utility.yul\":1896:2008   */\n    tag_71:\n        /* \"#utility.yul\":1979:2001   */\n      tag_98\n        /* \"#utility.yul\":1995:2000   */\n      dup2\n        /* \"#utility.yul\":1979:2001   */\n      tag_70\n      jump\t// in\n    tag_98:\n        /* \"#utility.yul\":1974:1977   */\n      dup3\n        /* \"#utility.yul\":1967:2002   */\n      mstore\n        /* \"#utility.yul\":1896:2008   */\n      pop\n      pop\n      jump\t// out\n        /* \"#utility.yul\":2014:2228   */\n    tag_37:\n        /* \"#utility.yul\":2103:2107   */\n      0x00\n        /* \"#utility.yul\":2141:2143   */\n      0x20\n        /* \"#utility.yul\":2130:2139   */\n      dup3\n        /* \"#utility.yul\":2126:2144   */\n      add\n        /* \"#utility.yul\":2118:2144   */\n      swap1\n      pop\n        /* \"#utility.yul\":2154:2221   */\n      tag_100\n        /* \"#utility.yul\":2218:2219   */\n      0x00\n        /* \"#utility.yul\":2207:2216   */\n      dup4\n        /* \"#utility.yul\":2203:2220   */\n      add\n        /* \"#utility.yul\":2194:2200   */\n      dup5\n        /* \"#utility.yul\":2154:2221   */\n      tag_71\n      jump\t// in\n    tag_100:\n        /* \"#utility.yul\":2014:2228   */\n      swap3\n      swap2\n      pop\n      pop\n      jump\t// out\n        /* \"#utility.yul\":2234:2414   */\n    tag_72:\n        /* \"#utility.yul\":2282:2359   */\n      0x4e487b7100000000000000000000000000000000000000000000000000000000\n        /* \"#utility.yul\":2279:2280   */\n      0x00\n        /* \"#utility.yul\":2272:2360   */\n      mstore\n        /* \"#utility.yul\":2379:2383   */\n      0x11\n        /* \"#utility.yul\":2376:2377   */\n      0x04\n        /* \"#utility.yul\":2369:2384   */\n      mstore\n        /* \"#utility.yul\":2403:2407   */\n      0x24\n        /* \"#utility.yul\":2400:2401   */\n      0x00\n        /* \"#utility.yul\":2393:2408   */\n      revert\n        /* \"#utility.yul\":2420:2591   */\n    tag_44:\n        /* \"#utility.yul\":2459:2462   */\n      0x00\n        /* \"#utility.yul\":2482:2506   */\n      tag_103\n        /* \"#utility.yul\":2500:2505   */\n      dup3\n        /* \"#utility.yul\":2482:2506   */\n      tag_64\n      jump\t// in\n    tag_103:\n        /* \"#utility.yul\":2473:2506   */\n      swap2\n      pop\n        /* \"#utility.yul\":2528:2532   */\n      0x00\n        /* \"#utility.yul\":2521:2526   */\n      dup3\n        /* \"#utility.yul\":2518:2533   */\n      sub\n        /* \"#utility.yul\":2515:2556   */\n      tag_104\n      jumpi\n        /* \"#utility.yul\":2536:2554   */\n      tag_105\n      tag_72\n      jump\t// in\n    tag_105:\n        /* \"#utility.yul\":2515:2556   */\n    tag_104:\n        /* \"#utility.yul\":2583:2584   */\n      0x01\n        /* \"#utility.yul\":2576:2581   */\n      dup3\n        /* \"#utility.yul\":2572:2585   */\n      sub\n        /* \"#utility.yul\":2565:2585   */\n      swap1\n      pop\n        /* \"#utility.yul\":2420:2591   */\n      swap2\n      swap1\n      pop\n      jump\t// out\n        /* \"#utility.yul\":2597:2830   */\n    tag_47:\n        /* \"#utility.yul\":2636:2639   */\n      0x00\n        /* \"#utility.yul\":2659:2683   */\n      tag_107\n        /* \"#utility.yul\":2677:2682   */\n      dup3\n        /* \"#utility.yul\":2659:2683   */\n      tag_64\n      jump\t// in\n    tag_107:\n        /* \"#utility.yul\":2650:2683   */\n      swap2\n      pop\n        /* \"#utility.yul\":2705:2771   */\n      0xffffffffffffffffffffffffffffffffffffffffffffffffffffffffffffffff\n        /* \"#utility.yul\":2698:2703   */\n      dup3\n        /* \"#utility.yul\":2695:2772   */\n      sub\n        /* \"#utility.yul\":2692:2795   */\n      tag_108\n      jumpi\n        /* \"#utility.yul\":2775:2793   */\n      tag_109\n      tag_72\n      jump\t// in\n    tag_109:\n        /* \"#utility.yul\":2692:2795   */\n    tag_108:\n        /* \"#utility.yul\":2822:2823   */\n      0x01\n        /* \"#utility.yul\":2815:2820   */\n      dup3\n        /* \"#utility.yul\":2811:2824   */\n      add\n        /* \"#utility.yul\":2804:2824   */\n      swap1\n      pop\n        /* \"#utility.yul\":2597:2830   */\n      swap2\n      swap1\n      pop\n      jump\t// out\n        /* \"#utility.yul\":2836:3003   */\n    tag_51:\n        /* \"#utility.yul\":2873:2876   */\n      0x00\n        /* \"#utility.yul\":2896:2918   */\n      tag_111\n        /* \"#utility.yul\":2912:2917   */\n      dup3\n        /* \"#utility.yul\":2896:2918   */\n      tag_70\n      jump\t// in\n    tag_111:\n        /* \"#utility.yul\":2887:2918   */\n      swap2\n      pop\n        /* \"#utility.yul\":2940:2944   */\n      0xff\n        /* \"#utility.yul\":2933:2938   */\n      dup3\n        /* \"#utility.yul\":2930:2945   */\n      sub\n        /* \"#utility.yul\":2927:2968   */\n      tag_112\n      jumpi\n        /* \"#utility.yul\":2948:2966   */\n      tag_113\n      tag_72\n      jump\t// in\n    tag_113:\n        /* \"#utility.yul\":2927:2968   */\n    tag_112:\n        /* \"#utility.yul\":2995:2996   */\n      0x01\n        /* \"#utility.yul\":2988:2993   */\n      dup3\n        /* \"#utility.yul\":2984:2997   */\n      add\n        /* \"#utility.yul\":2977:2997   */\n      swap1\n      pop\n        /* \"#utility.yul\":2836:3003   */\n      swap2\n      swap1\n      pop\n      jump\t// out\n        /* \"#utility.yul\":3009:3240   */\n    tag_54:\n        /* \"#utility.yul\":3047:3050   */\n      0x00\n        /* \"#utility.yul\":3070:3093   */\n      tag_115\n        /* \"#utility.yul\":3087:3092   */\n      dup3\n        /* \"#utility.yul\":3070:3093   */\n      tag_68\n      jump\t// in\n    tag_115:\n        /* \"#utility.yul\":3061:3093   */\n      swap2\n      pop\n        /* \"#utility.yul\":3115:3181   */\n      0x8000000000000000000000000000000000000000000000000000000000000000\n        /* \"#utility.yul\":3108:3113   */\n      dup3\n        /* \"#utility.yul\":3105:3182   */\n      sub\n        /* \"#utility.yul\":3102:3205   */\n      tag_116\n      jumpi\n        /* \"#utility.yul\":3185:3203   */\n      tag_117\n      tag_72\n      jump\t// in\n    tag_117:\n        /* \"#utility.yul\":3102:3205   */\n    tag_116:\n        /* \"#utility.yul\":3232:3233   */\n      0x01\n        /* \"#utility.yul\":3225:3230   */\n      dup3\n        /* \"#utility.yul\":3221:3234   */\n      sub\n        /* \"#utility.yul\":3214:3234   */\n      swap1\n      pop\n        /* \"#utility.yul\":3009:3240   */\n      swap2\n      swap1\n      pop\n      jump\t// out\n        /* \"#utility.yul\":3246:3413   */\n    tag_57:\n        /* \"#utility.yul\":3283:3286   */\n      0x00\n        /* \"#utility.yul\":3306:3328   */\n      tag_119\n        /* \"#utility.yul\":3322:3327   */\n      dup3\n        /* \"#utility.yul\":3306:3328   */\n      tag_70\n      jump\t// in\n    tag_119:\n        /* \"#utility.yul\":3297:3328   */\n      swap2\n      pop\n        /* \"#utility.yul\":3350:3354   */\n      0x00\n        /* \"#utility.yul\":3343:3348   */\n      dup3\n        /* \"#utility.yul\":3340:3355   */\n      sub\n        /* \"#utility.yul\":3337:3378   */\n      tag_120\n      jumpi\n        /* \"#utility.yul\":3358:3376   */\n      tag_121\n      tag_72\n      jump\t// in\n    tag_121:\n        /* \"#utility.yul\":3337:3378   */\n    tag_120:\n        /* \"#utility.yul\":3405:3406   */\n      0x01\n        /* \"#utility.yul\":3398:3403   */\n      dup3\n        /* \"#utility.yul\":3394:3407   */\n      sub\n        /* \"#utility.yul\":3387:3407   */\n      swap1\n      pop\n        /* \"#utility.yul\":3246:3413   */\n      swap2\n      swap1\n      pop\n      jump\t// out\n        /* \"#utility.yul\":3419:3650   */\n    tag_60:\n        /* \"#utility.yul\":3457:3460   */\n      0x00\n        /* \"#utility.yul\":3480:3503   */\n      tag_123\n        /* \"#utility.yul\":3497:3502   */\n      dup3\n        /* \"#utility.yul\":3480:3503   */\n      tag_68\n      jump\t// in\n    tag_123:\n        /* \"#utility.yul\":3471:3503   */\n      swap2\n      pop\n        /* \"#utility.yul\":3525:3591   */\n      0x7fffffffffffffffffffffffffffffffffffffffffffffffffffffffffffffff\n        /* \"#utility.yul\":3518:3523   */\n      dup3\n        /* \"#utility.yul\":3515:3592   */\n      sub\n        /* \"#utility.yul\":3512:3615   */\n      tag_124\n      jumpi\n        /* \"#utility.yul\":3595:3613   */\n      tag_125\n      tag_72\n      jump\t// in\n    tag_125:\n        /* \"#utility.yul\":3512:3615   */\n    tag_124:\n        /* \"#utility.yul\":3642:3643   */\n      0x01\n        /* \"#utility.yul\":3635:3640   */\n      dup3\n        /* \"#utility.yul\":3631:3644   */\n      add\n        /* \"#utility.yul\":3624:3644   */\n      swap1\n      pop\n        /* \"#utility.yul\":3419:3650   */\n      swap2\n      swap1\n      pop\n      jump\t// out\n\n    auxdata: 0xa264697066735822122077b3fadea1ed853d2285f9baf899cee0cf5ae75f09b3f8d4fe0a66d432affaf564736f6c634300080e0033\n}\n",
				"bytecode": {
					"linkReferences": {},
					"object": "60806040527ffffffffffffffffffffffffffffffffffffffffffffffffffffffffffffffffd60005560fa60015560fa600260006101000a81548160ff021916908360ff16021790555034801561005557600080fd5b5061050d806100656000396000f3fe608060405234801561001057600080fd5b506004361061009e5760003560e01c8063960dabd811610066578063960dabd81461010f578063c6d642d614610119578063cea47ab814610123578063ee21a7fe14610141578063f674d8301461014b5761009e565b80632ac90ef8146100a35780632be495c6146100ad57806366335767146100b75780636a345bb4146100d35780638d418141146100f1575b600080fd5b6100ab610155565b005b6100b561016f565b005b6100d160048036038101906100cc9190610293565b610189565b005b6100db610193565b6040516100e891906102cf565b60405180910390f35b6100f9610199565b6040516101069190610303565b60405180910390f35b61011761019f565b005b6101216101d9565b005b61012b6101f2565b604051610138919061033a565b60405180910390f35b610149610205565b005b61015361023f565b005b6001600081548092919061016890610384565b9190505550565b60016000815480929190610182906103ad565b9190505550565b8060018190555050565b60015481565b60005481565b6002600081819054906101000a900460ff16809291906101be906103f5565b91906101000a81548160ff021916908360ff16021790555050565b6000808154809291906101eb9061041e565b9190505550565b600260009054906101000a900460ff1681565b6002600081819054906101000a900460ff168092919061022490610466565b91906101000a81548160ff021916908360ff16021790555050565b6000808154809291906102519061048f565b9190505550565b600080fd5b6000819050919050565b6102708161025d565b811461027b57600080fd5b50565b60008135905061028d81610267565b92915050565b6000602082840312156102a9576102a8610258565b5b60006102b78482850161027e565b91505092915050565b6102c98161025d565b82525050565b60006020820190506102e460008301846102c0565b92915050565b6000819050919050565b6102fd816102ea565b82525050565b600060208201905061031860008301846102f4565b92915050565b600060ff82169050919050565b6103348161031e565b82525050565b600060208201905061034f600083018461032b565b92915050565b7f4e487b7100000000000000000000000000000000000000000000000000000000600052601160045260246000fd5b600061038f8261025d565b9150600082036103a2576103a1610355565b5b600182039050919050565b60006103b88261025d565b91507fffffffffffffffffffffffffffffffffffffffffffffffffffffffffffffffff82036103ea576103e9610355565b5b600182019050919050565b60006104008261031e565b915060ff820361041357610412610355565b5b600182019050919050565b6000610429826102ea565b91507f8000000000000000000000000000000000000000000000000000000000000000820361045b5761045a610355565b5b600182039050919050565b60006104718261031e565b91506000820361048457610483610355565b5b600182039050919050565b600061049a826102ea565b91507f7fffffffffffffffffffffffffffffffffffffffffffffffffffffffffffffff82036104cc576104cb610355565b5b60018201905091905056fea264697066735822122077b3fadea1ed853d2285f9baf899cee0cf5ae75f09b3f8d4fe0a66d432affaf564736f6c634300080e0033",
					"opcodes": "PUSH1 0x80 PUSH1 0x40 MSTORE PUSH32 0xFFFFFFFFFFFFFFFFFFFFFFFFFFFFFFFFFFFFFFFFFFFFFFFFFFFFFFFFFFFFFFFD PUSH1 0x0 SSTORE PUSH1 0xFA PUSH1 0x1 SSTORE PUSH1 0xFA PUSH1 0x2 PUSH1 0x0 PUSH2 0x100 EXP DUP2 SLOAD DUP2 PUSH1 0xFF MUL NOT AND SWAP1 DUP4 PUSH1 0xFF AND MUL OR SWAP1 SSTORE POP CALLVALUE DUP1 ISZERO PUSH2 0x55 JUMPI PUSH1 0x0 DUP1 REVERT JUMPDEST POP PUSH2 0x50D DUP1 PUSH2 0x65 PUSH1 0x0 CODECOPY PUSH1 0x0 RETURN INVALID PUSH1 0x80 PUSH1 0x40 MSTORE CALLVALUE DUP1 ISZERO PUSH2 0x10 JUMPI PUSH1 0x0 DUP1 REVERT JUMPDEST POP PUSH1 0x4 CALLDATASIZE LT PUSH2 0x9E JUMPI PUSH1 0x0 CALLDATALOAD PUSH1 0xE0 SHR DUP1 PUSH4 0x960DABD8 GT PUSH2 0x66 JUMPI DUP1 PUSH4 0x960DABD8 EQ PUSH2 0x10F JUMPI DUP1 PUSH4 0xC6D642D6 EQ PUSH2 0x119 JUMPI DUP1 PUSH4 0xCEA47AB8 EQ PUSH2 0x123 JUMPI DUP1 PUSH4 0xEE21A7FE EQ PUSH2 0x141 JUMPI DUP1 PUSH4 0xF674D830 EQ PUSH2 0x14B JUMPI PUSH2 0x9E JUMP JUMPDEST DUP1 PUSH4 0x2AC90EF8 EQ PUSH2 0xA3 JUMPI DUP1 PUSH4 0x2BE495C6 EQ PUSH2 0xAD JUMPI DUP1 PUSH4 0x66335767 EQ PUSH2 0xB7 JUMPI DUP1 PUSH4 0x6A345BB4 EQ PUSH2 0xD3 JUMPI DUP1 PUSH4 0x8D418141 EQ PUSH2 0xF1 JUMPI JUMPDEST PUSH1 0x0 DUP1 REVERT JUMPDEST PUSH2 0xAB PUSH2 0x155 JUMP JUMPDEST STOP JUMPDEST PUSH2 0xB5 PUSH2 0x16F JUMP JUMPDEST STOP JUMPDEST PUSH2 0xD1 PUSH1 0x4 DUP1 CALLDATASIZE SUB DUP2 ADD SWAP1 PUSH2 0xCC SWAP2 SWAP1 PUSH2 0x293 JUMP JUMPDEST PUSH2 0x189 JUMP JUMPDEST STOP JUMPDEST PUSH2 0xDB PUSH2 0x193 JUMP JUMPDEST PUSH1 0x40 MLOAD PUSH2 0xE8 SWAP2 SWAP1 PUSH2 0x2CF JUMP JUMPDEST PUSH1 0x40 MLOAD DUP1 SWAP2 SUB SWAP1 RETURN JUMPDEST PUSH2 0xF9 PUSH2 0x199 JUMP JUMPDEST PUSH1 0x40 MLOAD PUSH2 0x106 SWAP2 SWAP1 PUSH2 0x303 JUMP JUMPDEST PUSH1 0x40 MLOAD DUP1 SWAP2 SUB SWAP1 RETURN JUMPDEST PUSH2 0x117 PUSH2 0x19F JUMP JUMPDEST STOP JUMPDEST PUSH2 0x121 PUSH2 0x1D9 JUMP JUMPDEST STOP JUMPDEST PUSH2 0x12B PUSH2 0x1F2 JUMP JUMPDEST PUSH1 0x40 MLOAD PUSH2 0x138 SWAP2 SWAP1 PUSH2 0x33A JUMP JUMPDEST PUSH1 0x40 MLOAD DUP1 SWAP2 SUB SWAP1 RETURN JUMPDEST PUSH2 0x149 PUSH2 0x205 JUMP JUMPDEST STOP JUMPDEST PUSH2 0x153 PUSH2 0x23F JUMP JUMPDEST STOP JUMPDEST PUSH1 0x1 PUSH1 0x0 DUP2 SLOAD DUP1 SWAP3 SWAP2 SWAP1 PUSH2 0x168 SWAP1 PUSH2 0x384 JUMP JUMPDEST SWAP2 SWAP1 POP SSTORE POP JUMP JUMPDEST PUSH1 0x1 PUSH1 0x0 DUP2 SLOAD DUP1 SWAP3 SWAP2 SWAP1 PUSH2 0x182 SWAP1 PUSH2 0x3AD JUMP JUMPDEST SWAP2 SWAP1 POP SSTORE POP JUMP JUMPDEST DUP1 PUSH1 0x1 DUP2 SWAP1 SSTORE POP POP JUMP JUMPDEST PUSH1 0x1 SLOAD DUP2 JUMP JUMPDEST PUSH1 0x0 SLOAD DUP2 JUMP JUMPDEST PUSH1 0x2 PUSH1 0x0 DUP2 DUP2 SWAP1 SLOAD SWAP1 PUSH2 0x100 EXP SWAP1 DIV PUSH1 0xFF AND DUP1 SWAP3 SWAP2 SWAP1 PUSH2 0x1BE SWAP1 PUSH2 0x3F5 JUMP JUMPDEST SWAP2 SWAP1 PUSH2 0x100 EXP DUP2 SLOAD DUP2 PUSH1 0xFF MUL NOT AND SWAP1 DUP4 PUSH1 0xFF AND MUL OR SWAP1 SSTORE POP POP JUMP JUMPDEST PUSH1 0x0 DUP1 DUP2 SLOAD DUP1 SWAP3 SWAP2 SWAP1 PUSH2 0x1EB SWAP1 PUSH2 0x41E JUMP JUMPDEST SWAP2 SWAP1 POP SSTORE POP JUMP JUMPDEST PUSH1 0x2 PUSH1 0x0 SWAP1 SLOAD SWAP1 PUSH2 0x100 EXP SWAP1 DIV PUSH1 0xFF AND DUP2 JUMP JUMPDEST PUSH1 0x2 PUSH1 0x0 DUP2 DUP2 SWAP1 SLOAD SWAP1 PUSH2 0x100 EXP SWAP1 DIV PUSH1 0xFF AND DUP1 SWAP3 SWAP2 SWAP1 PUSH2 0x224 SWAP1 PUSH2 0x466 JUMP JUMPDEST SWAP2 SWAP1 PUSH2 0x100 EXP DUP2 SLOAD DUP2 PUSH1 0xFF MUL NOT AND SWAP1 DUP4 PUSH1 0xFF AND MUL OR SWAP1 SSTORE POP POP JUMP JUMPDEST PUSH1 0x0 DUP1 DUP2 SLOAD DUP1 SWAP3 SWAP2 SWAP1 PUSH2 0x251 SWAP1 PUSH2 0x48F JUMP JUMPDEST SWAP2 SWAP1 POP SSTORE POP JUMP JUMPDEST PUSH1 0x0 DUP1 REVERT JUMPDEST PUSH1 0x0 DUP2 SWAP1 POP SWAP2 SWAP1 POP JUMP JUMPDEST PUSH2 0x270 DUP2 PUSH2 0x25D JUMP JUMPDEST DUP2 EQ PUSH2 0x27B JUMPI PUSH1 0x0 DUP1 REVERT JUMPDEST POP JUMP JUMPDEST PUSH1 0x0 DUP2 CALLDATALOAD SWAP1 POP PUSH2 0x28D DUP2 PUSH2 0x267 JUMP JUMPDEST SWAP3 SWAP2 POP POP JUMP JUMPDEST PUSH1 0x0 PUSH1 0x20 DUP3 DUP5 SUB SLT ISZERO PUSH2 0x2A9 JUMPI PUSH2 0x2A8 PUSH2 0x258 JUMP JUMPDEST JUMPDEST PUSH1 0x0 PUSH2 0x2B7 DUP5 DUP3 DUP6 ADD PUSH2 0x27E JUMP JUMPDEST SWAP2 POP POP SWAP3 SWAP2 POP POP JUMP JUMPDEST PUSH2 0x2C9 DUP2 PUSH2 0x25D JUMP JUMPDEST DUP3 MSTORE POP POP JUMP JUMPDEST PUSH1 0x0 PUSH1 0x20 DUP3 ADD SWAP1 POP PUSH2 0x2E4 PUSH1 0x0 DUP4 ADD DUP5 PUSH2 0x2C0 JUMP JUMPDEST SWAP3 SWAP2 POP POP JUMP JUMPDEST PUSH1 0x0 DUP2 SWAP1 POP SWAP2 SWAP1 POP JUMP JUMPDEST PUSH2 0x2FD DUP2 PUSH2 0x2EA JUMP JUMPDEST DUP3 MSTORE POP POP JUMP JUMPDEST PUSH1 0x0 PUSH1 0x20 DUP3 ADD SWAP1 POP PUSH2 0x318 PUSH1 0x0 DUP4 ADD DUP5 PUSH2 0x2F4 JUMP JUMPDEST SWAP3 SWAP2 POP POP JUMP JUMPDEST PUSH1 0x0 PUSH1 0xFF DUP3 AND SWAP1 POP SWAP2 SWAP1 POP JUMP JUMPDEST PUSH2 0x334 DUP2 PUSH2 0x31E JUMP JUMPDEST DUP3 MSTORE POP POP JUMP JUMPDEST PUSH1 0x0 PUSH1 0x20 DUP3 ADD SWAP1 POP PUSH2 0x34F PUSH1 0x0 DUP4 ADD DUP5 PUSH2 0x32B JUMP JUMPDEST SWAP3 SWAP2 POP POP JUMP JUMPDEST PUSH32 0x4E487B7100000000000000000000000000000000000000000000000000000000 PUSH1 0x0 MSTORE PUSH1 0x11 PUSH1 0x4 MSTORE PUSH1 0x24 PUSH1 0x0 REVERT JUMPDEST PUSH1 0x0 PUSH2 0x38F DUP3 PUSH2 0x25D JUMP JUMPDEST SWAP2 POP PUSH1 0x0 DUP3 SUB PUSH2 0x3A2 JUMPI PUSH2 0x3A1 PUSH2 0x355 JUMP JUMPDEST JUMPDEST PUSH1 0x1 DUP3 SUB SWAP1 POP SWAP2 SWAP1 POP JUMP JUMPDEST PUSH1 0x0 PUSH2 0x3B8 DUP3 PUSH2 0x25D JUMP JUMPDEST SWAP2 POP PUSH32 0xFFFFFFFFFFFFFFFFFFFFFFFFFFFFFFFFFFFFFFFFFFFFFFFFFFFFFFFFFFFFFFFF DUP3 SUB PUSH2 0x3EA JUMPI PUSH2 0x3E9 PUSH2 0x355 JUMP JUMPDEST JUMPDEST PUSH1 0x1 DUP3 ADD SWAP1 POP SWAP2 SWAP1 POP JUMP JUMPDEST PUSH1 0x0 PUSH2 0x400 DUP3 PUSH2 0x31E JUMP JUMPDEST SWAP2 POP PUSH1 0xFF DUP3 SUB PUSH2 0x413 JUMPI PUSH2 0x412 PUSH2 0x355 JUMP JUMPDEST JUMPDEST PUSH1 0x1 DUP3 ADD SWAP1 POP SWAP2 SWAP1 POP JUMP JUMPDEST PUSH1 0x0 PUSH2 0x429 DUP3 PUSH2 0x2EA JUMP JUMPDEST SWAP2 POP PUSH32 0x8000000000000000000000000000000000000000000000000000000000000000 DUP3 SUB PUSH2 0x45B JUMPI PUSH2 0x45A PUSH2 0x355 JUMP JUMPDEST JUMPDEST PUSH1 0x1 DUP3 SUB SWAP1 POP SWAP2 SWAP1 POP JUMP JUMPDEST PUSH1 0x0 PUSH2 0x471 DUP3 PUSH2 0x31E JUMP JUMPDEST SWAP2 POP PUSH1 0x0 DUP3 SUB PUSH2 0x484 JUMPI PUSH2 0x483 PUSH2 0x355 JUMP JUMPDEST JUMPDEST PUSH1 0x1 DUP3 SUB SWAP1 POP SWAP2 SWAP1 POP JUMP JUMPDEST PUSH1 0x0 PUSH2 0x49A DUP3 PUSH2 0x2EA JUMP JUMPDEST SWAP2 POP PUSH32 0x7FFFFFFFFFFFFFFFFFFFFFFFFFFFFFFFFFFFFFFFFFFFFFFFFFFFFFFFFFFFFFFF DUP3 SUB PUSH2 0x4CC JUMPI PUSH2 0x4CB PUSH2 0x355 JUMP JUMPDEST JUMPDEST PUSH1 0x1 DUP3 ADD SWAP1 POP SWAP2 SWAP1 POP JUMP INVALID LOG2 PUSH5 0x6970667358 0x22 SLT KECCAK256 PUSH24 0xB3FADEA1ED853D2285F9BAF899CEE0CF5AE75F09B3F8D4FE EXP PUSH7 0xD432AFFAF56473 PUSH16 0x6C634300080E00330000000000000000 "
				},
				"gasEstimates": {
					"creation": {
						"codeDepositCost": "258600",
						"executionCost": "68779",
						"totalCost": "327379"
					},
					"external": {
						"decMyuint()": "24502",
						"decMyuint8()": "26765",
						"decNint()": "24523",
						"incMyuint()": "24524",
						"incMyuint8()": "26699",
						"incNint()": "24589",
						"myUnit()": "2496",
						"nint()": "2518",
						"setMyuint(uint256)": "22565",
						"vuint8()": "2515"
					}
				},
				"methodIdentifiers": {
					"decMyuint()": "2ac90ef8",
					"decMyuint8()": "ee21a7fe",
					"decNint()": "c6d642d6",
					"incMyuint()": "2be495c6",
					"incMyuint8()": "960dabd8",
					"incNint()": "f674d830",
					"myUnit()": "6a345bb4",
					"nint()": "8d418141",
					"setMyuint(uint256)": "66335767",
					"vuint8()": "cea47ab8"
				}
			},
			"storageLayout": {
				"storage": [
					{
						"astId": 5,
						"contract": "contracts/integerContract.sol:boolContract",
						"label": "nint",
						"offset": 0,
						"slot": "0",
						"type": "t_int256"
					},
					{
						"astId": 8,
						"contract": "contracts/integerContract.sol:boolContract",
						"label": "myUnit",
						"offset": 0,
						"slot": "1",
						"type": "t_uint256"
					},
					{
						"astId": 11,
						"contract": "contracts/integerContract.sol:boolContract",
						"label": "vuint8",
						"offset": 0,
						"slot": "2",
						"type": "t_uint8"
					}
				],
				"types": {
					"t_int256": {
						"encoding": "inplace",
						"label": "int256",
						"numberOfBytes": "32"
					},
					"t_uint256": {
						"encoding": "inplace",
						"label": "uint256",
						"numberOfBytes": "32"
					},
					"t_uint8": {
						"encoding": "inplace",
						"label": "uint8",
						"numberOfBytes": "1"
					}
				}
			},
			"userdoc": {
				"kind": "user",
				"methods": {},
				"version": 1
			}
		}
	}
}