{
	"contracts/ExampleContract.sol": {
		"ExampleConstructor": {
			"abi": [
				{
					"inputs": [
						{
							"internalType": "address",
							"name": "_someAddress",
							"type": "address"
						}
					],
					"stateMutability": "nonpayable",
					"type": "constructor"
				},
				{
					"inputs": [],
					"name": "myAddress",
					"outputs": [
						{
							"internalType": "address",
							"name": "",
							"type": "address"
						}
					],
					"stateMutability": "view",
					"type": "function"
				},
				{
					"inputs": [],
					"name": "myString",
					"outputs": [
						{
							"internalType": "string",
							"name": "",
							"type": "string"
						}
					],
					"stateMutability": "view",
					"type": "function"
				},
				{
					"inputs": [],
					"name": "setAddress",
					"outputs": [],
					"stateMutability": "nonpayable",
					"type": "function"
				},
				{
					"inputs": [
						{
							"internalType": "string",
							"name": "_newString",
							"type": "string"
						}
					],
					"name": "updateString",
					"outputs": [],
					"stateMutability": "payable",
					"type": "function"
				}
			],
			"devdoc": {
				"kind": "dev",
				"methods": {},
				"version": 1
			},
			"evm": {
				"assembly": "    /* \"contracts/ExampleContract.sol\":59:458  contract ExampleConstructor{... */\n  mstore(0x40, 0x80)\n    /* \"contracts/ExampleContract.sol\":133:171  string public myString = \"Hello World\" */\n  mload(0x40)\n  dup1\n  0x40\n  add\n  0x40\n  mstore\n  dup1\n  0x0b\n  dup2\n  mstore\n  0x20\n  add\n  0x48656c6c6f20576f726c64000000000000000000000000000000000000000000\n  dup2\n  mstore\n  pop\n  0x01\n  swap1\n  dup1\n  mload\n  swap1\n  0x20\n  add\n  swap1\n  tag_1\n  swap3\n  swap2\n  swap1\n  tag_2\n  jump\t// in\ntag_1:\n  pop\n    /* \"contracts/ExampleContract.sol\":180:259  constructor(address _someAddress){... */\n  callvalue\n  dup1\n  iszero\n  tag_3\n  jumpi\n  0x00\n  dup1\n  revert\ntag_3:\n  pop\n  mload(0x40)\n  sub(codesize, bytecodeSize)\n  dup1\n  bytecodeSize\n  dup4\n  codecopy\n  dup2\n  dup2\n  add\n  0x40\n  mstore\n  dup2\n  add\n  swap1\n  tag_4\n  swap2\n  swap1\n  tag_5\n  jump\t// in\ntag_4:\n    /* \"contracts/ExampleContract.sol\":236:248  _someAddress */\n  dup1\n    /* \"contracts/ExampleContract.sol\":224:233  myAddress */\n  0x00\n  dup1\n    /* \"contracts/ExampleContract.sol\":224:248  myAddress = _someAddress */\n  0x0100\n  exp\n  dup2\n  sload\n  dup2\n  0xffffffffffffffffffffffffffffffffffffffff\n  mul\n  not\n  and\n  swap1\n  dup4\n  0xffffffffffffffffffffffffffffffffffffffff\n  and\n  mul\n  or\n  swap1\n  sstore\n  pop\n    /* \"contracts/ExampleContract.sol\":180:259  constructor(address _someAddress){... */\n  pop\n    /* \"contracts/ExampleContract.sol\":59:458  contract ExampleConstructor{... */\n  jump(tag_8)\ntag_2:\n  dup3\n  dup1\n  sload\n  tag_9\n  swap1\n  tag_10\n  jump\t// in\ntag_9:\n  swap1\n  0x00\n  mstore\n  keccak256(0x00, 0x20)\n  swap1\n  0x1f\n  add\n  0x20\n  swap1\n  div\n  dup2\n  add\n  swap3\n  dup3\n  tag_12\n  jumpi\n  0x00\n  dup6\n  sstore\n  jump(tag_11)\ntag_12:\n  dup3\n  0x1f\n  lt\n  tag_13\n  jumpi\n  dup1\n  mload\n  not(0xff)\n  and\n  dup4\n  dup1\n  add\n  or\n  dup6\n  sstore\n  jump(tag_11)\ntag_13:\n  dup3\n  dup1\n  add\n  0x01\n  add\n  dup6\n  sstore\n  dup3\n  iszero\n  tag_11\n  jumpi\n  swap2\n  dup3\n  add\ntag_14:\n  dup3\n  dup2\n  gt\n  iszero\n  tag_15\n  jumpi\n  dup3\n  mload\n  dup3\n  sstore\n  swap2\n  0x20\n  add\n  swap2\n  swap1\n  0x01\n  add\n  swap1\n  jump(tag_14)\ntag_15:\ntag_11:\n  pop\n  swap1\n  pop\n  tag_16\n  swap2\n  swap1\n  tag_17\n  jump\t// in\ntag_16:\n  pop\n  swap1\n  jump\t// out\ntag_17:\ntag_18:\n  dup1\n  dup3\n  gt\n  iszero\n  tag_19\n  jumpi\n  0x00\n  dup2\n  0x00\n  swap1\n  sstore\n  pop\n  0x01\n  add\n  jump(tag_18)\ntag_19:\n  pop\n  swap1\n  jump\t// out\n    /* \"#utility.yul\":88:205   */\ntag_21:\n    /* \"#utility.yul\":197:198   */\n  0x00\n    /* \"#utility.yul\":194:195   */\n  dup1\n    /* \"#utility.yul\":187:199   */\n  revert\n    /* \"#utility.yul\":334:460   */\ntag_23:\n    /* \"#utility.yul\":371:378   */\n  0x00\n    /* \"#utility.yul\":411:453   */\n  0xffffffffffffffffffffffffffffffffffffffff\n    /* \"#utility.yul\":404:409   */\n  dup3\n    /* \"#utility.yul\":400:454   */\n  and\n    /* \"#utility.yul\":389:454   */\n  swap1\n  pop\n    /* \"#utility.yul\":334:460   */\n  swap2\n  swap1\n  pop\n  jump\t// out\n    /* \"#utility.yul\":466:562   */\ntag_24:\n    /* \"#utility.yul\":503:510   */\n  0x00\n    /* \"#utility.yul\":532:556   */\n  tag_34\n    /* \"#utility.yul\":550:555   */\n  dup3\n    /* \"#utility.yul\":532:556   */\n  tag_23\n  jump\t// in\ntag_34:\n    /* \"#utility.yul\":521:556   */\n  swap1\n  pop\n    /* \"#utility.yul\":466:562   */\n  swap2\n  swap1\n  pop\n  jump\t// out\n    /* \"#utility.yul\":568:690   */\ntag_25:\n    /* \"#utility.yul\":641:665   */\n  tag_36\n    /* \"#utility.yul\":659:664   */\n  dup2\n    /* \"#utility.yul\":641:665   */\n  tag_24\n  jump\t// in\ntag_36:\n    /* \"#utility.yul\":634:639   */\n  dup2\n    /* \"#utility.yul\":631:666   */\n  eq\n    /* \"#utility.yul\":621:684   */\n  tag_37\n  jumpi\n    /* \"#utility.yul\":680:681   */\n  0x00\n    /* \"#utility.yul\":677:678   */\n  dup1\n    /* \"#utility.yul\":670:682   */\n  revert\n    /* \"#utility.yul\":621:684   */\ntag_37:\n    /* \"#utility.yul\":568:690   */\n  pop\n  jump\t// out\n    /* \"#utility.yul\":696:839   */\ntag_26:\n    /* \"#utility.yul\":753:758   */\n  0x00\n    /* \"#utility.yul\":784:790   */\n  dup2\n    /* \"#utility.yul\":778:791   */\n  mload\n    /* \"#utility.yul\":769:791   */\n  swap1\n  pop\n    /* \"#utility.yul\":800:833   */\n  tag_39\n    /* \"#utility.yul\":827:832   */\n  dup2\n    /* \"#utility.yul\":800:833   */\n  tag_25\n  jump\t// in\ntag_39:\n    /* \"#utility.yul\":696:839   */\n  swap3\n  swap2\n  pop\n  pop\n  jump\t// out\n    /* \"#utility.yul\":845:1196   */\ntag_5:\n    /* \"#utility.yul\":915:921   */\n  0x00\n    /* \"#utility.yul\":964:966   */\n  0x20\n    /* \"#utility.yul\":952:961   */\n  dup3\n    /* \"#utility.yul\":943:950   */\n  dup5\n    /* \"#utility.yul\":939:962   */\n  sub\n    /* \"#utility.yul\":935:967   */\n  slt\n    /* \"#utility.yul\":932:1051   */\n  iszero\n  tag_41\n  jumpi\n    /* \"#utility.yul\":970:1049   */\n  tag_42\n  tag_21\n  jump\t// in\ntag_42:\n    /* \"#utility.yul\":932:1051   */\ntag_41:\n    /* \"#utility.yul\":1090:1091   */\n  0x00\n    /* \"#utility.yul\":1115:1179   */\n  tag_43\n    /* \"#utility.yul\":1171:1178   */\n  dup5\n    /* \"#utility.yul\":1162:1168   */\n  dup3\n    /* \"#utility.yul\":1151:1160   */\n  dup6\n    /* \"#utility.yul\":1147:1169   */\n  add\n    /* \"#utility.yul\":1115:1179   */\n  tag_26\n  jump\t// in\ntag_43:\n    /* \"#utility.yul\":1105:1179   */\n  swap2\n  pop\n    /* \"#utility.yul\":1061:1189   */\n  pop\n    /* \"#utility.yul\":845:1196   */\n  swap3\n  swap2\n  pop\n  pop\n  jump\t// out\n    /* \"#utility.yul\":1202:1382   */\ntag_27:\n    /* \"#utility.yul\":1250:1327   */\n  0x4e487b7100000000000000000000000000000000000000000000000000000000\n    /* \"#utility.yul\":1247:1248   */\n  0x00\n    /* \"#utility.yul\":1240:1328   */\n  mstore\n    /* \"#utility.yul\":1347:1351   */\n  0x22\n    /* \"#utility.yul\":1344:1345   */\n  0x04\n    /* \"#utility.yul\":1337:1352   */\n  mstore\n    /* \"#utility.yul\":1371:1375   */\n  0x24\n    /* \"#utility.yul\":1368:1369   */\n  0x00\n    /* \"#utility.yul\":1361:1376   */\n  revert\n    /* \"#utility.yul\":1388:1708   */\ntag_10:\n    /* \"#utility.yul\":1432:1438   */\n  0x00\n    /* \"#utility.yul\":1469:1470   */\n  0x02\n    /* \"#utility.yul\":1463:1467   */\n  dup3\n    /* \"#utility.yul\":1459:1471   */\n  div\n    /* \"#utility.yul\":1449:1471   */\n  swap1\n  pop\n    /* \"#utility.yul\":1516:1517   */\n  0x01\n    /* \"#utility.yul\":1510:1514   */\n  dup3\n    /* \"#utility.yul\":1506:1518   */\n  and\n    /* \"#utility.yul\":1537:1555   */\n  dup1\n    /* \"#utility.yul\":1527:1608   */\n  tag_46\n  jumpi\n    /* \"#utility.yul\":1593:1597   */\n  0x7f\n    /* \"#utility.yul\":1585:1591   */\n  dup3\n    /* \"#utility.yul\":1581:1598   */\n  and\n    /* \"#utility.yul\":1571:1598   */\n  swap2\n  pop\n    /* \"#utility.yul\":1527:1608   */\ntag_46:\n    /* \"#utility.yul\":1655:1657   */\n  0x20\n    /* \"#utility.yul\":1647:1653   */\n  dup3\n    /* \"#utility.yul\":1644:1658   */\n  lt\n    /* \"#utility.yul\":1624:1642   */\n  dup2\n    /* \"#utility.yul\":1621:1659   */\n  sub\n    /* \"#utility.yul\":1618:1702   */\n  tag_47\n  jumpi\n    /* \"#utility.yul\":1674:1692   */\n  tag_48\n  tag_27\n  jump\t// in\ntag_48:\n    /* \"#utility.yul\":1618:1702   */\ntag_47:\n    /* \"#utility.yul\":1439:1708   */\n  pop\n    /* \"#utility.yul\":1388:1708   */\n  swap2\n  swap1\n  pop\n  jump\t// out\n    /* \"contracts/ExampleContract.sol\":59:458  contract ExampleConstructor{... */\ntag_8:\n  dataSize(sub_0)\n  dup1\n  dataOffset(sub_0)\n  0x00\n  codecopy\n  0x00\n  return\nstop\n\nsub_0: assembly {\n        /* \"contracts/ExampleContract.sol\":59:458  contract ExampleConstructor{... */\n      mstore(0x40, 0x80)\n      jumpi(tag_1, lt(calldatasize, 0x04))\n      shr(0xe0, calldataload(0x00))\n      dup1\n      0x26b85ee1\n      eq\n      tag_2\n      jumpi\n      dup1\n      0x492bfa18\n      eq\n      tag_3\n      jumpi\n      dup1\n      0xc3ccf402\n      eq\n      tag_4\n      jumpi\n      dup1\n      0xe6569275\n      eq\n      tag_5\n      jumpi\n    tag_1:\n      0x00\n      dup1\n      revert\n        /* \"contracts/ExampleContract.sol\":102:126  address public myAddress */\n    tag_2:\n      callvalue\n      dup1\n      iszero\n      tag_6\n      jumpi\n      0x00\n      dup1\n      revert\n    tag_6:\n      pop\n      tag_7\n      tag_8\n      jump\t// in\n    tag_7:\n      mload(0x40)\n      tag_9\n      swap2\n      swap1\n      tag_10\n      jump\t// in\n    tag_9:\n      mload(0x40)\n      dup1\n      swap2\n      sub\n      swap1\n      return\n        /* \"contracts/ExampleContract.sol\":133:171  string public myString = \"Hello World\" */\n    tag_3:\n      callvalue\n      dup1\n      iszero\n      tag_11\n      jumpi\n      0x00\n      dup1\n      revert\n    tag_11:\n      pop\n      tag_12\n      tag_13\n      jump\t// in\n    tag_12:\n      mload(0x40)\n      tag_14\n      swap2\n      swap1\n      tag_15\n      jump\t// in\n    tag_14:\n      mload(0x40)\n      dup1\n      swap2\n      sub\n      swap1\n      return\n        /* \"contracts/ExampleContract.sol\":343:446  function updateString(string memory _newString) public payable {... */\n    tag_4:\n      tag_16\n      0x04\n      dup1\n      calldatasize\n      sub\n      dup2\n      add\n      swap1\n      tag_17\n      swap2\n      swap1\n      tag_18\n      jump\t// in\n    tag_17:\n      tag_19\n      jump\t// in\n    tag_16:\n      stop\n        /* \"contracts/ExampleContract.sol\":267:337  function setAddress() public {... */\n    tag_5:\n      callvalue\n      dup1\n      iszero\n      tag_20\n      jumpi\n      0x00\n      dup1\n      revert\n    tag_20:\n      pop\n      tag_21\n      tag_22\n      jump\t// in\n    tag_21:\n      stop\n        /* \"contracts/ExampleContract.sol\":102:126  address public myAddress */\n    tag_8:\n      0x00\n      dup1\n      sload\n      swap1\n      0x0100\n      exp\n      swap1\n      div\n      0xffffffffffffffffffffffffffffffffffffffff\n      and\n      dup2\n      jump\t// out\n        /* \"contracts/ExampleContract.sol\":133:171  string public myString = \"Hello World\" */\n    tag_13:\n      0x01\n      dup1\n      sload\n      tag_23\n      swap1\n      tag_24\n      jump\t// in\n    tag_23:\n      dup1\n      0x1f\n      add\n      0x20\n      dup1\n      swap2\n      div\n      mul\n      0x20\n      add\n      mload(0x40)\n      swap1\n      dup2\n      add\n      0x40\n      mstore\n      dup1\n      swap3\n      swap2\n      swap1\n      dup2\n      dup2\n      mstore\n      0x20\n      add\n      dup3\n      dup1\n      sload\n      tag_25\n      swap1\n      tag_24\n      jump\t// in\n    tag_25:\n      dup1\n      iszero\n      tag_26\n      jumpi\n      dup1\n      0x1f\n      lt\n      tag_27\n      jumpi\n      0x0100\n      dup1\n      dup4\n      sload\n      div\n      mul\n      dup4\n      mstore\n      swap2\n      0x20\n      add\n      swap2\n      jump(tag_26)\n    tag_27:\n      dup3\n      add\n      swap2\n      swap1\n      0x00\n      mstore\n      keccak256(0x00, 0x20)\n      swap1\n    tag_28:\n      dup2\n      sload\n      dup2\n      mstore\n      swap1\n      0x01\n      add\n      swap1\n      0x20\n      add\n      dup1\n      dup4\n      gt\n      tag_28\n      jumpi\n      dup3\n      swap1\n      sub\n      0x1f\n      and\n      dup3\n      add\n      swap2\n    tag_26:\n      pop\n      pop\n      pop\n      pop\n      pop\n      dup2\n      jump\t// out\n        /* \"contracts/ExampleContract.sol\":343:446  function updateString(string memory _newString) public payable {... */\n    tag_19:\n        /* \"contracts/ExampleContract.sol\":428:438  _newString */\n      dup1\n        /* \"contracts/ExampleContract.sol\":417:425  myString */\n      0x01\n        /* \"contracts/ExampleContract.sol\":417:438  myString = _newString */\n      swap1\n      dup1\n      mload\n      swap1\n      0x20\n      add\n      swap1\n      tag_30\n      swap3\n      swap2\n      swap1\n      tag_31\n      jump\t// in\n    tag_30:\n      pop\n        /* \"contracts/ExampleContract.sol\":343:446  function updateString(string memory _newString) public payable {... */\n      pop\n      jump\t// out\n        /* \"contracts/ExampleContract.sol\":267:337  function setAddress() public {... */\n    tag_22:\n        /* \"contracts/ExampleContract.sol\":319:329  msg.sender */\n      caller\n        /* \"contracts/ExampleContract.sol\":307:316  myAddress */\n      0x00\n      dup1\n        /* \"contracts/ExampleContract.sol\":307:329  myAddress = msg.sender */\n      0x0100\n      exp\n      dup2\n      sload\n      dup2\n      0xffffffffffffffffffffffffffffffffffffffff\n      mul\n      not\n      and\n      swap1\n      dup4\n      0xffffffffffffffffffffffffffffffffffffffff\n      and\n      mul\n      or\n      swap1\n      sstore\n      pop\n        /* \"contracts/ExampleContract.sol\":267:337  function setAddress() public {... */\n      jump\t// out\n    tag_31:\n      dup3\n      dup1\n      sload\n      tag_33\n      swap1\n      tag_24\n      jump\t// in\n    tag_33:\n      swap1\n      0x00\n      mstore\n      keccak256(0x00, 0x20)\n      swap1\n      0x1f\n      add\n      0x20\n      swap1\n      div\n      dup2\n      add\n      swap3\n      dup3\n      tag_35\n      jumpi\n      0x00\n      dup6\n      sstore\n      jump(tag_34)\n    tag_35:\n      dup3\n      0x1f\n      lt\n      tag_36\n      jumpi\n      dup1\n      mload\n      not(0xff)\n      and\n      dup4\n      dup1\n      add\n      or\n      dup6\n      sstore\n      jump(tag_34)\n    tag_36:\n      dup3\n      dup1\n      add\n      0x01\n      add\n      dup6\n      sstore\n      dup3\n      iszero\n      tag_34\n      jumpi\n      swap2\n      dup3\n      add\n    tag_37:\n      dup3\n      dup2\n      gt\n      iszero\n      tag_38\n      jumpi\n      dup3\n      mload\n      dup3\n      sstore\n      swap2\n      0x20\n      add\n      swap2\n      swap1\n      0x01\n      add\n      swap1\n      jump(tag_37)\n    tag_38:\n    tag_34:\n      pop\n      swap1\n      pop\n      tag_39\n      swap2\n      swap1\n      tag_40\n      jump\t// in\n    tag_39:\n      pop\n      swap1\n      jump\t// out\n    tag_40:\n    tag_41:\n      dup1\n      dup3\n      gt\n      iszero\n      tag_42\n      jumpi\n      0x00\n      dup2\n      0x00\n      swap1\n      sstore\n      pop\n      0x01\n      add\n      jump(tag_41)\n    tag_42:\n      pop\n      swap1\n      jump\t// out\n        /* \"#utility.yul\":7:133   */\n    tag_43:\n        /* \"#utility.yul\":44:51   */\n      0x00\n        /* \"#utility.yul\":84:126   */\n      0xffffffffffffffffffffffffffffffffffffffff\n        /* \"#utility.yul\":77:82   */\n      dup3\n        /* \"#utility.yul\":73:127   */\n      and\n        /* \"#utility.yul\":62:127   */\n      swap1\n      pop\n        /* \"#utility.yul\":7:133   */\n      swap2\n      swap1\n      pop\n      jump\t// out\n        /* \"#utility.yul\":139:235   */\n    tag_44:\n        /* \"#utility.yul\":176:183   */\n      0x00\n        /* \"#utility.yul\":205:229   */\n      tag_67\n        /* \"#utility.yul\":223:228   */\n      dup3\n        /* \"#utility.yul\":205:229   */\n      tag_43\n      jump\t// in\n    tag_67:\n        /* \"#utility.yul\":194:229   */\n      swap1\n      pop\n        /* \"#utility.yul\":139:235   */\n      swap2\n      swap1\n      pop\n      jump\t// out\n        /* \"#utility.yul\":241:359   */\n    tag_45:\n        /* \"#utility.yul\":328:352   */\n      tag_69\n        /* \"#utility.yul\":346:351   */\n      dup2\n        /* \"#utility.yul\":328:352   */\n      tag_44\n      jump\t// in\n    tag_69:\n        /* \"#utility.yul\":323:326   */\n      dup3\n        /* \"#utility.yul\":316:353   */\n      mstore\n        /* \"#utility.yul\":241:359   */\n      pop\n      pop\n      jump\t// out\n        /* \"#utility.yul\":365:587   */\n    tag_10:\n        /* \"#utility.yul\":458:462   */\n      0x00\n        /* \"#utility.yul\":496:498   */\n      0x20\n        /* \"#utility.yul\":485:494   */\n      dup3\n        /* \"#utility.yul\":481:499   */\n      add\n        /* \"#utility.yul\":473:499   */\n      swap1\n      pop\n        /* \"#utility.yul\":509:580   */\n      tag_71\n        /* \"#utility.yul\":577:578   */\n      0x00\n        /* \"#utility.yul\":566:575   */\n      dup4\n        /* \"#utility.yul\":562:579   */\n      add\n        /* \"#utility.yul\":553:559   */\n      dup5\n        /* \"#utility.yul\":509:580   */\n      tag_45\n      jump\t// in\n    tag_71:\n        /* \"#utility.yul\":365:587   */\n      swap3\n      swap2\n      pop\n      pop\n      jump\t// out\n        /* \"#utility.yul\":593:692   */\n    tag_46:\n        /* \"#utility.yul\":645:651   */\n      0x00\n        /* \"#utility.yul\":679:684   */\n      dup2\n        /* \"#utility.yul\":673:685   */\n      mload\n        /* \"#utility.yul\":663:685   */\n      swap1\n      pop\n        /* \"#utility.yul\":593:692   */\n      swap2\n      swap1\n      pop\n      jump\t// out\n        /* \"#utility.yul\":698:867   */\n    tag_47:\n        /* \"#utility.yul\":782:793   */\n      0x00\n        /* \"#utility.yul\":816:822   */\n      dup3\n        /* \"#utility.yul\":811:814   */\n      dup3\n        /* \"#utility.yul\":804:823   */\n      mstore\n        /* \"#utility.yul\":856:860   */\n      0x20\n        /* \"#utility.yul\":851:854   */\n      dup3\n        /* \"#utility.yul\":847:861   */\n      add\n        /* \"#utility.yul\":832:861   */\n      swap1\n      pop\n        /* \"#utility.yul\":698:867   */\n      swap3\n      swap2\n      pop\n      pop\n      jump\t// out\n        /* \"#utility.yul\":873:1180   */\n    tag_48:\n        /* \"#utility.yul\":941:942   */\n      0x00\n        /* \"#utility.yul\":951:1064   */\n    tag_75:\n        /* \"#utility.yul\":965:971   */\n      dup4\n        /* \"#utility.yul\":962:963   */\n      dup2\n        /* \"#utility.yul\":959:972   */\n      lt\n        /* \"#utility.yul\":951:1064   */\n      iszero\n      tag_77\n      jumpi\n        /* \"#utility.yul\":1050:1051   */\n      dup1\n        /* \"#utility.yul\":1045:1048   */\n      dup3\n        /* \"#utility.yul\":1041:1052   */\n      add\n        /* \"#utility.yul\":1035:1053   */\n      mload\n        /* \"#utility.yul\":1031:1032   */\n      dup2\n        /* \"#utility.yul\":1026:1029   */\n      dup5\n        /* \"#utility.yul\":1022:1033   */\n      add\n        /* \"#utility.yul\":1015:1054   */\n      mstore\n        /* \"#utility.yul\":987:989   */\n      0x20\n        /* \"#utility.yul\":984:985   */\n      dup2\n        /* \"#utility.yul\":980:990   */\n      add\n        /* \"#utility.yul\":975:990   */\n      swap1\n      pop\n        /* \"#utility.yul\":951:1064   */\n      jump(tag_75)\n    tag_77:\n        /* \"#utility.yul\":1082:1088   */\n      dup4\n        /* \"#utility.yul\":1079:1080   */\n      dup2\n        /* \"#utility.yul\":1076:1089   */\n      gt\n        /* \"#utility.yul\":1073:1174   */\n      iszero\n      tag_78\n      jumpi\n        /* \"#utility.yul\":1162:1163   */\n      0x00\n        /* \"#utility.yul\":1153:1159   */\n      dup5\n        /* \"#utility.yul\":1148:1151   */\n      dup5\n        /* \"#utility.yul\":1144:1160   */\n      add\n        /* \"#utility.yul\":1137:1164   */\n      mstore\n        /* \"#utility.yul\":1073:1174   */\n    tag_78:\n        /* \"#utility.yul\":922:1180   */\n      pop\n        /* \"#utility.yul\":873:1180   */\n      pop\n      pop\n      pop\n      jump\t// out\n        /* \"#utility.yul\":1186:1288   */\n    tag_49:\n        /* \"#utility.yul\":1227:1233   */\n      0x00\n        /* \"#utility.yul\":1278:1280   */\n      0x1f\n        /* \"#utility.yul\":1274:1281   */\n      not\n        /* \"#utility.yul\":1269:1271   */\n      0x1f\n        /* \"#utility.yul\":1262:1267   */\n      dup4\n        /* \"#utility.yul\":1258:1272   */\n      add\n        /* \"#utility.yul\":1254:1282   */\n      and\n        /* \"#utility.yul\":1244:1282   */\n      swap1\n      pop\n        /* \"#utility.yul\":1186:1288   */\n      swap2\n      swap1\n      pop\n      jump\t// out\n        /* \"#utility.yul\":1294:1658   */\n    tag_50:\n        /* \"#utility.yul\":1382:1385   */\n      0x00\n        /* \"#utility.yul\":1410:1449   */\n      tag_81\n        /* \"#utility.yul\":1443:1448   */\n      dup3\n        /* \"#utility.yul\":1410:1449   */\n      tag_46\n      jump\t// in\n    tag_81:\n        /* \"#utility.yul\":1465:1536   */\n      tag_82\n        /* \"#utility.yul\":1529:1535   */\n      dup2\n        /* \"#utility.yul\":1524:1527   */\n      dup6\n        /* \"#utility.yul\":1465:1536   */\n      tag_47\n      jump\t// in\n    tag_82:\n        /* \"#utility.yul\":1458:1536   */\n      swap4\n      pop\n        /* \"#utility.yul\":1545:1597   */\n      tag_83\n        /* \"#utility.yul\":1590:1596   */\n      dup2\n        /* \"#utility.yul\":1585:1588   */\n      dup6\n        /* \"#utility.yul\":1578:1582   */\n      0x20\n        /* \"#utility.yul\":1571:1576   */\n      dup7\n        /* \"#utility.yul\":1567:1583   */\n      add\n        /* \"#utility.yul\":1545:1597   */\n      tag_48\n      jump\t// in\n    tag_83:\n        /* \"#utility.yul\":1622:1651   */\n      tag_84\n        /* \"#utility.yul\":1644:1650   */\n      dup2\n        /* \"#utility.yul\":1622:1651   */\n      tag_49\n      jump\t// in\n    tag_84:\n        /* \"#utility.yul\":1617:1620   */\n      dup5\n        /* \"#utility.yul\":1613:1652   */\n      add\n        /* \"#utility.yul\":1606:1652   */\n      swap2\n      pop\n        /* \"#utility.yul\":1386:1658   */\n      pop\n        /* \"#utility.yul\":1294:1658   */\n      swap3\n      swap2\n      pop\n      pop\n      jump\t// out\n        /* \"#utility.yul\":1664:1977   */\n    tag_15:\n        /* \"#utility.yul\":1777:1781   */\n      0x00\n        /* \"#utility.yul\":1815:1817   */\n      0x20\n        /* \"#utility.yul\":1804:1813   */\n      dup3\n        /* \"#utility.yul\":1800:1818   */\n      add\n        /* \"#utility.yul\":1792:1818   */\n      swap1\n      pop\n        /* \"#utility.yul\":1864:1873   */\n      dup2\n        /* \"#utility.yul\":1858:1862   */\n      dup2\n        /* \"#utility.yul\":1854:1874   */\n      sub\n        /* \"#utility.yul\":1850:1851   */\n      0x00\n        /* \"#utility.yul\":1839:1848   */\n      dup4\n        /* \"#utility.yul\":1835:1852   */\n      add\n        /* \"#utility.yul\":1828:1875   */\n      mstore\n        /* \"#utility.yul\":1892:1970   */\n      tag_86\n        /* \"#utility.yul\":1965:1969   */\n      dup2\n        /* \"#utility.yul\":1956:1962   */\n      dup5\n        /* \"#utility.yul\":1892:1970   */\n      tag_50\n      jump\t// in\n    tag_86:\n        /* \"#utility.yul\":1884:1970   */\n      swap1\n      pop\n        /* \"#utility.yul\":1664:1977   */\n      swap3\n      swap2\n      pop\n      pop\n      jump\t// out\n        /* \"#utility.yul\":1983:2058   */\n    tag_51:\n        /* \"#utility.yul\":2016:2022   */\n      0x00\n        /* \"#utility.yul\":2049:2051   */\n      0x40\n        /* \"#utility.yul\":2043:2052   */\n      mload\n        /* \"#utility.yul\":2033:2052   */\n      swap1\n      pop\n        /* \"#utility.yul\":1983:2058   */\n      swap1\n      jump\t// out\n        /* \"#utility.yul\":2064:2181   */\n    tag_52:\n        /* \"#utility.yul\":2173:2174   */\n      0x00\n        /* \"#utility.yul\":2170:2171   */\n      dup1\n        /* \"#utility.yul\":2163:2175   */\n      revert\n        /* \"#utility.yul\":2187:2304   */\n    tag_53:\n        /* \"#utility.yul\":2296:2297   */\n      0x00\n        /* \"#utility.yul\":2293:2294   */\n      dup1\n        /* \"#utility.yul\":2286:2298   */\n      revert\n        /* \"#utility.yul\":2310:2427   */\n    tag_54:\n        /* \"#utility.yul\":2419:2420   */\n      0x00\n        /* \"#utility.yul\":2416:2417   */\n      dup1\n        /* \"#utility.yul\":2409:2421   */\n      revert\n        /* \"#utility.yul\":2433:2550   */\n    tag_55:\n        /* \"#utility.yul\":2542:2543   */\n      0x00\n        /* \"#utility.yul\":2539:2540   */\n      dup1\n        /* \"#utility.yul\":2532:2544   */\n      revert\n        /* \"#utility.yul\":2556:2736   */\n    tag_56:\n        /* \"#utility.yul\":2604:2681   */\n      0x4e487b7100000000000000000000000000000000000000000000000000000000\n        /* \"#utility.yul\":2601:2602   */\n      0x00\n        /* \"#utility.yul\":2594:2682   */\n      mstore\n        /* \"#utility.yul\":2701:2705   */\n      0x41\n        /* \"#utility.yul\":2698:2699   */\n      0x04\n        /* \"#utility.yul\":2691:2706   */\n      mstore\n        /* \"#utility.yul\":2725:2729   */\n      0x24\n        /* \"#utility.yul\":2722:2723   */\n      0x00\n        /* \"#utility.yul\":2715:2730   */\n      revert\n        /* \"#utility.yul\":2742:3023   */\n    tag_57:\n        /* \"#utility.yul\":2825:2852   */\n      tag_94\n        /* \"#utility.yul\":2847:2851   */\n      dup3\n        /* \"#utility.yul\":2825:2852   */\n      tag_49\n      jump\t// in\n    tag_94:\n        /* \"#utility.yul\":2817:2823   */\n      dup2\n        /* \"#utility.yul\":2813:2853   */\n      add\n        /* \"#utility.yul\":2955:2961   */\n      dup2\n        /* \"#utility.yul\":2943:2953   */\n      dup2\n        /* \"#utility.yul\":2940:2962   */\n      lt\n        /* \"#utility.yul\":2919:2937   */\n      0xffffffffffffffff\n        /* \"#utility.yul\":2907:2917   */\n      dup3\n        /* \"#utility.yul\":2904:2938   */\n      gt\n        /* \"#utility.yul\":2901:2963   */\n      or\n        /* \"#utility.yul\":2898:2986   */\n      iszero\n      tag_95\n      jumpi\n        /* \"#utility.yul\":2966:2984   */\n      tag_96\n      tag_56\n      jump\t// in\n    tag_96:\n        /* \"#utility.yul\":2898:2986   */\n    tag_95:\n        /* \"#utility.yul\":3006:3016   */\n      dup1\n        /* \"#utility.yul\":3002:3004   */\n      0x40\n        /* \"#utility.yul\":2995:3017   */\n      mstore\n        /* \"#utility.yul\":2785:3023   */\n      pop\n        /* \"#utility.yul\":2742:3023   */\n      pop\n      pop\n      jump\t// out\n        /* \"#utility.yul\":3029:3158   */\n    tag_58:\n        /* \"#utility.yul\":3063:3069   */\n      0x00\n        /* \"#utility.yul\":3090:3110   */\n      tag_98\n      tag_51\n      jump\t// in\n    tag_98:\n        /* \"#utility.yul\":3080:3110   */\n      swap1\n      pop\n        /* \"#utility.yul\":3119:3152   */\n      tag_99\n        /* \"#utility.yul\":3147:3151   */\n      dup3\n        /* \"#utility.yul\":3139:3145   */\n      dup3\n        /* \"#utility.yul\":3119:3152   */\n      tag_57\n      jump\t// in\n    tag_99:\n        /* \"#utility.yul\":3029:3158   */\n      swap2\n      swap1\n      pop\n      jump\t// out\n        /* \"#utility.yul\":3164:3472   */\n    tag_59:\n        /* \"#utility.yul\":3226:3230   */\n      0x00\n        /* \"#utility.yul\":3316:3334   */\n      0xffffffffffffffff\n        /* \"#utility.yul\":3308:3314   */\n      dup3\n        /* \"#utility.yul\":3305:3335   */\n      gt\n        /* \"#utility.yul\":3302:3358   */\n      iszero\n      tag_101\n      jumpi\n        /* \"#utility.yul\":3338:3356   */\n      tag_102\n      tag_56\n      jump\t// in\n    tag_102:\n        /* \"#utility.yul\":3302:3358   */\n    tag_101:\n        /* \"#utility.yul\":3376:3405   */\n      tag_103\n        /* \"#utility.yul\":3398:3404   */\n      dup3\n        /* \"#utility.yul\":3376:3405   */\n      tag_49\n      jump\t// in\n    tag_103:\n        /* \"#utility.yul\":3368:3405   */\n      swap1\n      pop\n        /* \"#utility.yul\":3460:3464   */\n      0x20\n        /* \"#utility.yul\":3454:3458   */\n      dup2\n        /* \"#utility.yul\":3450:3465   */\n      add\n        /* \"#utility.yul\":3442:3465   */\n      swap1\n      pop\n        /* \"#utility.yul\":3164:3472   */\n      swap2\n      swap1\n      pop\n      jump\t// out\n        /* \"#utility.yul\":3478:3632   */\n    tag_60:\n        /* \"#utility.yul\":3562:3568   */\n      dup3\n        /* \"#utility.yul\":3557:3560   */\n      dup2\n        /* \"#utility.yul\":3552:3555   */\n      dup4\n        /* \"#utility.yul\":3539:3569   */\n      calldatacopy\n        /* \"#utility.yul\":3624:3625   */\n      0x00\n        /* \"#utility.yul\":3615:3621   */\n      dup4\n        /* \"#utility.yul\":3610:3613   */\n      dup4\n        /* \"#utility.yul\":3606:3622   */\n      add\n        /* \"#utility.yul\":3599:3626   */\n      mstore\n        /* \"#utility.yul\":3478:3632   */\n      pop\n      pop\n      pop\n      jump\t// out\n        /* \"#utility.yul\":3638:4050   */\n    tag_61:\n        /* \"#utility.yul\":3716:3721   */\n      0x00\n        /* \"#utility.yul\":3741:3807   */\n      tag_106\n        /* \"#utility.yul\":3757:3806   */\n      tag_107\n        /* \"#utility.yul\":3799:3805   */\n      dup5\n        /* \"#utility.yul\":3757:3806   */\n      tag_59\n      jump\t// in\n    tag_107:\n        /* \"#utility.yul\":3741:3807   */\n      tag_58\n      jump\t// in\n    tag_106:\n        /* \"#utility.yul\":3732:3807   */\n      swap1\n      pop\n        /* \"#utility.yul\":3830:3836   */\n      dup3\n        /* \"#utility.yul\":3823:3828   */\n      dup2\n        /* \"#utility.yul\":3816:3837   */\n      mstore\n        /* \"#utility.yul\":3868:3872   */\n      0x20\n        /* \"#utility.yul\":3861:3866   */\n      dup2\n        /* \"#utility.yul\":3857:3873   */\n      add\n        /* \"#utility.yul\":3906:3909   */\n      dup5\n        /* \"#utility.yul\":3897:3903   */\n      dup5\n        /* \"#utility.yul\":3892:3895   */\n      dup5\n        /* \"#utility.yul\":3888:3904   */\n      add\n        /* \"#utility.yul\":3885:3910   */\n      gt\n        /* \"#utility.yul\":3882:3994   */\n      iszero\n      tag_108\n      jumpi\n        /* \"#utility.yul\":3913:3992   */\n      tag_109\n      tag_55\n      jump\t// in\n    tag_109:\n        /* \"#utility.yul\":3882:3994   */\n    tag_108:\n        /* \"#utility.yul\":4003:4044   */\n      tag_110\n        /* \"#utility.yul\":4037:4043   */\n      dup5\n        /* \"#utility.yul\":4032:4035   */\n      dup3\n        /* \"#utility.yul\":4027:4030   */\n      dup6\n        /* \"#utility.yul\":4003:4044   */\n      tag_60\n      jump\t// in\n    tag_110:\n        /* \"#utility.yul\":3722:4050   */\n      pop\n        /* \"#utility.yul\":3638:4050   */\n      swap4\n      swap3\n      pop\n      pop\n      pop\n      jump\t// out\n        /* \"#utility.yul\":4070:4410   */\n    tag_62:\n        /* \"#utility.yul\":4126:4131   */\n      0x00\n        /* \"#utility.yul\":4175:4178   */\n      dup3\n        /* \"#utility.yul\":4168:4172   */\n      0x1f\n        /* \"#utility.yul\":4160:4166   */\n      dup4\n        /* \"#utility.yul\":4156:4173   */\n      add\n        /* \"#utility.yul\":4152:4179   */\n      slt\n        /* \"#utility.yul\":4142:4264   */\n      tag_112\n      jumpi\n        /* \"#utility.yul\":4183:4262   */\n      tag_113\n      tag_54\n      jump\t// in\n    tag_113:\n        /* \"#utility.yul\":4142:4264   */\n    tag_112:\n        /* \"#utility.yul\":4300:4306   */\n      dup2\n        /* \"#utility.yul\":4287:4307   */\n      calldataload\n        /* \"#utility.yul\":4325:4404   */\n      tag_114\n        /* \"#utility.yul\":4400:4403   */\n      dup5\n        /* \"#utility.yul\":4392:4398   */\n      dup3\n        /* \"#utility.yul\":4385:4389   */\n      0x20\n        /* \"#utility.yul\":4377:4383   */\n      dup7\n        /* \"#utility.yul\":4373:4390   */\n      add\n        /* \"#utility.yul\":4325:4404   */\n      tag_61\n      jump\t// in\n    tag_114:\n        /* \"#utility.yul\":4316:4404   */\n      swap2\n      pop\n        /* \"#utility.yul\":4132:4410   */\n      pop\n        /* \"#utility.yul\":4070:4410   */\n      swap3\n      swap2\n      pop\n      pop\n      jump\t// out\n        /* \"#utility.yul\":4416:4925   */\n    tag_18:\n        /* \"#utility.yul\":4485:4491   */\n      0x00\n        /* \"#utility.yul\":4534:4536   */\n      0x20\n        /* \"#utility.yul\":4522:4531   */\n      dup3\n        /* \"#utility.yul\":4513:4520   */\n      dup5\n        /* \"#utility.yul\":4509:4532   */\n      sub\n        /* \"#utility.yul\":4505:4537   */\n      slt\n        /* \"#utility.yul\":4502:4621   */\n      iszero\n      tag_116\n      jumpi\n        /* \"#utility.yul\":4540:4619   */\n      tag_117\n      tag_52\n      jump\t// in\n    tag_117:\n        /* \"#utility.yul\":4502:4621   */\n    tag_116:\n        /* \"#utility.yul\":4688:4689   */\n      0x00\n        /* \"#utility.yul\":4677:4686   */\n      dup3\n        /* \"#utility.yul\":4673:4690   */\n      add\n        /* \"#utility.yul\":4660:4691   */\n      calldataload\n        /* \"#utility.yul\":4718:4736   */\n      0xffffffffffffffff\n        /* \"#utility.yul\":4710:4716   */\n      dup2\n        /* \"#utility.yul\":4707:4737   */\n      gt\n        /* \"#utility.yul\":4704:4821   */\n      iszero\n      tag_118\n      jumpi\n        /* \"#utility.yul\":4740:4819   */\n      tag_119\n      tag_53\n      jump\t// in\n    tag_119:\n        /* \"#utility.yul\":4704:4821   */\n    tag_118:\n        /* \"#utility.yul\":4845:4908   */\n      tag_120\n        /* \"#utility.yul\":4900:4907   */\n      dup5\n        /* \"#utility.yul\":4891:4897   */\n      dup3\n        /* \"#utility.yul\":4880:4889   */\n      dup6\n        /* \"#utility.yul\":4876:4898   */\n      add\n        /* \"#utility.yul\":4845:4908   */\n      tag_62\n      jump\t// in\n    tag_120:\n        /* \"#utility.yul\":4835:4908   */\n      swap2\n      pop\n        /* \"#utility.yul\":4631:4918   */\n      pop\n        /* \"#utility.yul\":4416:4925   */\n      swap3\n      swap2\n      pop\n      pop\n      jump\t// out\n        /* \"#utility.yul\":4931:5111   */\n    tag_63:\n        /* \"#utility.yul\":4979:5056   */\n      0x4e487b7100000000000000000000000000000000000000000000000000000000\n        /* \"#utility.yul\":4976:4977   */\n      0x00\n        /* \"#utility.yul\":4969:5057   */\n      mstore\n        /* \"#utility.yul\":5076:5080   */\n      0x22\n        /* \"#utility.yul\":5073:5074   */\n      0x04\n        /* \"#utility.yul\":5066:5081   */\n      mstore\n        /* \"#utility.yul\":5100:5104   */\n      0x24\n        /* \"#utility.yul\":5097:5098   */\n      0x00\n        /* \"#utility.yul\":5090:5105   */\n      revert\n        /* \"#utility.yul\":5117:5437   */\n    tag_24:\n        /* \"#utility.yul\":5161:5167   */\n      0x00\n        /* \"#utility.yul\":5198:5199   */\n      0x02\n        /* \"#utility.yul\":5192:5196   */\n      dup3\n        /* \"#utility.yul\":5188:5200   */\n      div\n        /* \"#utility.yul\":5178:5200   */\n      swap1\n      pop\n        /* \"#utility.yul\":5245:5246   */\n      0x01\n        /* \"#utility.yul\":5239:5243   */\n      dup3\n        /* \"#utility.yul\":5235:5247   */\n      and\n        /* \"#utility.yul\":5266:5284   */\n      dup1\n        /* \"#utility.yul\":5256:5337   */\n      tag_123\n      jumpi\n        /* \"#utility.yul\":5322:5326   */\n      0x7f\n        /* \"#utility.yul\":5314:5320   */\n      dup3\n        /* \"#utility.yul\":5310:5327   */\n      and\n        /* \"#utility.yul\":5300:5327   */\n      swap2\n      pop\n        /* \"#utility.yul\":5256:5337   */\n    tag_123:\n        /* \"#utility.yul\":5384:5386   */\n      0x20\n        /* \"#utility.yul\":5376:5382   */\n      dup3\n        /* \"#utility.yul\":5373:5387   */\n      lt\n        /* \"#utility.yul\":5353:5371   */\n      dup2\n        /* \"#utility.yul\":5350:5388   */\n      sub\n        /* \"#utility.yul\":5347:5431   */\n      tag_124\n      jumpi\n        /* \"#utility.yul\":5403:5421   */\n      tag_125\n      tag_63\n      jump\t// in\n    tag_125:\n        /* \"#utility.yul\":5347:5431   */\n    tag_124:\n        /* \"#utility.yul\":5168:5437   */\n      pop\n        /* \"#utility.yul\":5117:5437   */\n      swap2\n      swap1\n      pop\n      jump\t// out\n\n    auxdata: 0xa2646970667358221220966f13eb4e229ecff9a5b464e9898a422bc51273a6ecbea3e9554800b7e5002464736f6c634300080e0033\n}\n",
				"bytecode": {
					"linkReferences": {},
					"object": "60806040526040518060400160405280600b81526020017f48656c6c6f20576f726c640000000000000000000000000000000000000000008152506001908051906020019061004f9291906100c4565b5034801561005c57600080fd5b50604051610823380380610823833981810160405281019061007e91906101ca565b806000806101000a81548173ffffffffffffffffffffffffffffffffffffffff021916908373ffffffffffffffffffffffffffffffffffffffff16021790555050610257565b8280546100d090610226565b90600052602060002090601f0160209004810192826100f25760008555610139565b82601f1061010b57805160ff1916838001178555610139565b82800160010185558215610139579182015b8281111561013857825182559160200191906001019061011d565b5b509050610146919061014a565b5090565b5b8082111561016357600081600090555060010161014b565b5090565b600080fd5b600073ffffffffffffffffffffffffffffffffffffffff82169050919050565b60006101978261016c565b9050919050565b6101a78161018c565b81146101b257600080fd5b50565b6000815190506101c48161019e565b92915050565b6000602082840312156101e0576101df610167565b5b60006101ee848285016101b5565b91505092915050565b7f4e487b7100000000000000000000000000000000000000000000000000000000600052602260045260246000fd5b6000600282049050600182168061023e57607f821691505b602082108103610251576102506101f7565b5b50919050565b6105bd806102666000396000f3fe60806040526004361061003f5760003560e01c806326b85ee114610044578063492bfa181461006f578063c3ccf4021461009a578063e6569275146100b6575b600080fd5b34801561005057600080fd5b506100596100cd565b60405161006691906102bf565b60405180910390f35b34801561007b57600080fd5b506100846100f1565b6040516100919190610373565b60405180910390f35b6100b460048036038101906100af91906104de565b61017f565b005b3480156100c257600080fd5b506100cb610199565b005b60008054906101000a900473ffffffffffffffffffffffffffffffffffffffff1681565b600180546100fe90610556565b80601f016020809104026020016040519081016040528092919081815260200182805461012a90610556565b80156101775780601f1061014c57610100808354040283529160200191610177565b820191906000526020600020905b81548152906001019060200180831161015a57829003601f168201915b505050505081565b80600190805190602001906101959291906101db565b5050565b336000806101000a81548173ffffffffffffffffffffffffffffffffffffffff021916908373ffffffffffffffffffffffffffffffffffffffff160217905550565b8280546101e790610556565b90600052602060002090601f0160209004810192826102095760008555610250565b82601f1061022257805160ff1916838001178555610250565b82800160010185558215610250579182015b8281111561024f578251825591602001919060010190610234565b5b50905061025d9190610261565b5090565b5b8082111561027a576000816000905550600101610262565b5090565b600073ffffffffffffffffffffffffffffffffffffffff82169050919050565b60006102a98261027e565b9050919050565b6102b98161029e565b82525050565b60006020820190506102d460008301846102b0565b92915050565b600081519050919050565b600082825260208201905092915050565b60005b838110156103145780820151818401526020810190506102f9565b83811115610323576000848401525b50505050565b6000601f19601f8301169050919050565b6000610345826102da565b61034f81856102e5565b935061035f8185602086016102f6565b61036881610329565b840191505092915050565b6000602082019050818103600083015261038d818461033a565b905092915050565b6000604051905090565b600080fd5b600080fd5b600080fd5b600080fd5b7f4e487b7100000000000000000000000000000000000000000000000000000000600052604160045260246000fd5b6103eb82610329565b810181811067ffffffffffffffff8211171561040a576104096103b3565b5b80604052505050565b600061041d610395565b905061042982826103e2565b919050565b600067ffffffffffffffff821115610449576104486103b3565b5b61045282610329565b9050602081019050919050565b82818337600083830152505050565b600061048161047c8461042e565b610413565b90508281526020810184848401111561049d5761049c6103ae565b5b6104a884828561045f565b509392505050565b600082601f8301126104c5576104c46103a9565b5b81356104d584826020860161046e565b91505092915050565b6000602082840312156104f4576104f361039f565b5b600082013567ffffffffffffffff811115610512576105116103a4565b5b61051e848285016104b0565b91505092915050565b7f4e487b7100000000000000000000000000000000000000000000000000000000600052602260045260246000fd5b6000600282049050600182168061056e57607f821691505b60208210810361058157610580610527565b5b5091905056fea2646970667358221220966f13eb4e229ecff9a5b464e9898a422bc51273a6ecbea3e9554800b7e5002464736f6c634300080e0033",
					"opcodes": "PUSH1 0x80 PUSH1 0x40 MSTORE PUSH1 0x40 MLOAD DUP1 PUSH1 0x40 ADD PUSH1 0x40 MSTORE DUP1 PUSH1 0xB DUP2 MSTORE PUSH1 0x20 ADD PUSH32 0x48656C6C6F20576F726C64000000000000000000000000000000000000000000 DUP2 MSTORE POP PUSH1 0x1 SWAP1 DUP1 MLOAD SWAP1 PUSH1 0x20 ADD SWAP1 PUSH2 0x4F SWAP3 SWAP2 SWAP1 PUSH2 0xC4 JUMP JUMPDEST POP CALLVALUE DUP1 ISZERO PUSH2 0x5C JUMPI PUSH1 0x0 DUP1 REVERT JUMPDEST POP PUSH1 0x40 MLOAD PUSH2 0x823 CODESIZE SUB DUP1 PUSH2 0x823 DUP4 CODECOPY DUP2 DUP2 ADD PUSH1 0x40 MSTORE DUP2 ADD SWAP1 PUSH2 0x7E SWAP2 SWAP1 PUSH2 0x1CA JUMP JUMPDEST DUP1 PUSH1 0x0 DUP1 PUSH2 0x100 EXP DUP2 SLOAD DUP2 PUSH20 0xFFFFFFFFFFFFFFFFFFFFFFFFFFFFFFFFFFFFFFFF MUL NOT AND SWAP1 DUP4 PUSH20 0xFFFFFFFFFFFFFFFFFFFFFFFFFFFFFFFFFFFFFFFF AND MUL OR SWAP1 SSTORE POP POP PUSH2 0x257 JUMP JUMPDEST DUP3 DUP1 SLOAD PUSH2 0xD0 SWAP1 PUSH2 0x226 JUMP JUMPDEST SWAP1 PUSH1 0x0 MSTORE PUSH1 0x20 PUSH1 0x0 KECCAK256 SWAP1 PUSH1 0x1F ADD PUSH1 0x20 SWAP1 DIV DUP2 ADD SWAP3 DUP3 PUSH2 0xF2 JUMPI PUSH1 0x0 DUP6 SSTORE PUSH2 0x139 JUMP JUMPDEST DUP3 PUSH1 0x1F LT PUSH2 0x10B JUMPI DUP1 MLOAD PUSH1 0xFF NOT AND DUP4 DUP1 ADD OR DUP6 SSTORE PUSH2 0x139 JUMP JUMPDEST DUP3 DUP1 ADD PUSH1 0x1 ADD DUP6 SSTORE DUP3 ISZERO PUSH2 0x139 JUMPI SWAP2 DUP3 ADD JUMPDEST DUP3 DUP2 GT ISZERO PUSH2 0x138 JUMPI DUP3 MLOAD DUP3 SSTORE SWAP2 PUSH1 0x20 ADD SWAP2 SWAP1 PUSH1 0x1 ADD SWAP1 PUSH2 0x11D JUMP JUMPDEST JUMPDEST POP SWAP1 POP PUSH2 0x146 SWAP2 SWAP1 PUSH2 0x14A JUMP JUMPDEST POP SWAP1 JUMP JUMPDEST JUMPDEST DUP1 DUP3 GT ISZERO PUSH2 0x163 JUMPI PUSH1 0x0 DUP2 PUSH1 0x0 SWAP1 SSTORE POP PUSH1 0x1 ADD PUSH2 0x14B JUMP JUMPDEST POP SWAP1 JUMP JUMPDEST PUSH1 0x0 DUP1 REVERT JUMPDEST PUSH1 0x0 PUSH20 0xFFFFFFFFFFFFFFFFFFFFFFFFFFFFFFFFFFFFFFFF DUP3 AND SWAP1 POP SWAP2 SWAP1 POP JUMP JUMPDEST PUSH1 0x0 PUSH2 0x197 DUP3 PUSH2 0x16C JUMP JUMPDEST SWAP1 POP SWAP2 SWAP1 POP JUMP JUMPDEST PUSH2 0x1A7 DUP2 PUSH2 0x18C JUMP JUMPDEST DUP2 EQ PUSH2 0x1B2 JUMPI PUSH1 0x0 DUP1 REVERT JUMPDEST POP JUMP JUMPDEST PUSH1 0x0 DUP2 MLOAD SWAP1 POP PUSH2 0x1C4 DUP2 PUSH2 0x19E JUMP JUMPDEST SWAP3 SWAP2 POP POP JUMP JUMPDEST PUSH1 0x0 PUSH1 0x20 DUP3 DUP5 SUB SLT ISZERO PUSH2 0x1E0 JUMPI PUSH2 0x1DF PUSH2 0x167 JUMP JUMPDEST JUMPDEST PUSH1 0x0 PUSH2 0x1EE DUP5 DUP3 DUP6 ADD PUSH2 0x1B5 JUMP JUMPDEST SWAP2 POP POP SWAP3 SWAP2 POP POP JUMP JUMPDEST PUSH32 0x4E487B7100000000000000000000000000000000000000000000000000000000 PUSH1 0x0 MSTORE PUSH1 0x22 PUSH1 0x4 MSTORE PUSH1 0x24 PUSH1 0x0 REVERT JUMPDEST PUSH1 0x0 PUSH1 0x2 DUP3 DIV SWAP1 POP PUSH1 0x1 DUP3 AND DUP1 PUSH2 0x23E JUMPI PUSH1 0x7F DUP3 AND SWAP2 POP JUMPDEST PUSH1 0x20 DUP3 LT DUP2 SUB PUSH2 0x251 JUMPI PUSH2 0x250 PUSH2 0x1F7 JUMP JUMPDEST JUMPDEST POP SWAP2 SWAP1 POP JUMP JUMPDEST PUSH2 0x5BD DUP1 PUSH2 0x266 PUSH1 0x0 CODECOPY PUSH1 0x0 RETURN INVALID PUSH1 0x80 PUSH1 0x40 MSTORE PUSH1 0x4 CALLDATASIZE LT PUSH2 0x3F JUMPI PUSH1 0x0 CALLDATALOAD PUSH1 0xE0 SHR DUP1 PUSH4 0x26B85EE1 EQ PUSH2 0x44 JUMPI DUP1 PUSH4 0x492BFA18 EQ PUSH2 0x6F JUMPI DUP1 PUSH4 0xC3CCF402 EQ PUSH2 0x9A JUMPI DUP1 PUSH4 0xE6569275 EQ PUSH2 0xB6 JUMPI JUMPDEST PUSH1 0x0 DUP1 REVERT JUMPDEST CALLVALUE DUP1 ISZERO PUSH2 0x50 JUMPI PUSH1 0x0 DUP1 REVERT JUMPDEST POP PUSH2 0x59 PUSH2 0xCD JUMP JUMPDEST PUSH1 0x40 MLOAD PUSH2 0x66 SWAP2 SWAP1 PUSH2 0x2BF JUMP JUMPDEST PUSH1 0x40 MLOAD DUP1 SWAP2 SUB SWAP1 RETURN JUMPDEST CALLVALUE DUP1 ISZERO PUSH2 0x7B JUMPI PUSH1 0x0 DUP1 REVERT JUMPDEST POP PUSH2 0x84 PUSH2 0xF1 JUMP JUMPDEST PUSH1 0x40 MLOAD PUSH2 0x91 SWAP2 SWAP1 PUSH2 0x373 JUMP JUMPDEST PUSH1 0x40 MLOAD DUP1 SWAP2 SUB SWAP1 RETURN JUMPDEST PUSH2 0xB4 PUSH1 0x4 DUP1 CALLDATASIZE SUB DUP2 ADD SWAP1 PUSH2 0xAF SWAP2 SWAP1 PUSH2 0x4DE JUMP JUMPDEST PUSH2 0x17F JUMP JUMPDEST STOP JUMPDEST CALLVALUE DUP1 ISZERO PUSH2 0xC2 JUMPI PUSH1 0x0 DUP1 REVERT JUMPDEST POP PUSH2 0xCB PUSH2 0x199 JUMP JUMPDEST STOP JUMPDEST PUSH1 0x0 DUP1 SLOAD SWAP1 PUSH2 0x100 EXP SWAP1 DIV PUSH20 0xFFFFFFFFFFFFFFFFFFFFFFFFFFFFFFFFFFFFFFFF AND DUP2 JUMP JUMPDEST PUSH1 0x1 DUP1 SLOAD PUSH2 0xFE SWAP1 PUSH2 0x556 JUMP JUMPDEST DUP1 PUSH1 0x1F ADD PUSH1 0x20 DUP1 SWAP2 DIV MUL PUSH1 0x20 ADD PUSH1 0x40 MLOAD SWAP1 DUP2 ADD PUSH1 0x40 MSTORE DUP1 SWAP3 SWAP2 SWAP1 DUP2 DUP2 MSTORE PUSH1 0x20 ADD DUP3 DUP1 SLOAD PUSH2 0x12A SWAP1 PUSH2 0x556 JUMP JUMPDEST DUP1 ISZERO PUSH2 0x177 JUMPI DUP1 PUSH1 0x1F LT PUSH2 0x14C JUMPI PUSH2 0x100 DUP1 DUP4 SLOAD DIV MUL DUP4 MSTORE SWAP2 PUSH1 0x20 ADD SWAP2 PUSH2 0x177 JUMP JUMPDEST DUP3 ADD SWAP2 SWAP1 PUSH1 0x0 MSTORE PUSH1 0x20 PUSH1 0x0 KECCAK256 SWAP1 JUMPDEST DUP2 SLOAD DUP2 MSTORE SWAP1 PUSH1 0x1 ADD SWAP1 PUSH1 0x20 ADD DUP1 DUP4 GT PUSH2 0x15A JUMPI DUP3 SWAP1 SUB PUSH1 0x1F AND DUP3 ADD SWAP2 JUMPDEST POP POP POP POP POP DUP2 JUMP JUMPDEST DUP1 PUSH1 0x1 SWAP1 DUP1 MLOAD SWAP1 PUSH1 0x20 ADD SWAP1 PUSH2 0x195 SWAP3 SWAP2 SWAP1 PUSH2 0x1DB JUMP JUMPDEST POP POP JUMP JUMPDEST CALLER PUSH1 0x0 DUP1 PUSH2 0x100 EXP DUP2 SLOAD DUP2 PUSH20 0xFFFFFFFFFFFFFFFFFFFFFFFFFFFFFFFFFFFFFFFF MUL NOT AND SWAP1 DUP4 PUSH20 0xFFFFFFFFFFFFFFFFFFFFFFFFFFFFFFFFFFFFFFFF AND MUL OR SWAP1 SSTORE POP JUMP JUMPDEST DUP3 DUP1 SLOAD PUSH2 0x1E7 SWAP1 PUSH2 0x556 JUMP JUMPDEST SWAP1 PUSH1 0x0 MSTORE PUSH1 0x20 PUSH1 0x0 KECCAK256 SWAP1 PUSH1 0x1F ADD PUSH1 0x20 SWAP1 DIV DUP2 ADD SWAP3 DUP3 PUSH2 0x209 JUMPI PUSH1 0x0 DUP6 SSTORE PUSH2 0x250 JUMP JUMPDEST DUP3 PUSH1 0x1F LT PUSH2 0x222 JUMPI DUP1 MLOAD PUSH1 0xFF NOT AND DUP4 DUP1 ADD OR DUP6 SSTORE PUSH2 0x250 JUMP JUMPDEST DUP3 DUP1 ADD PUSH1 0x1 ADD DUP6 SSTORE DUP3 ISZERO PUSH2 0x250 JUMPI SWAP2 DUP3 ADD JUMPDEST DUP3 DUP2 GT ISZERO PUSH2 0x24F JUMPI DUP3 MLOAD DUP3 SSTORE SWAP2 PUSH1 0x20 ADD SWAP2 SWAP1 PUSH1 0x1 ADD SWAP1 PUSH2 0x234 JUMP JUMPDEST JUMPDEST POP SWAP1 POP PUSH2 0x25D SWAP2 SWAP1 PUSH2 0x261 JUMP JUMPDEST POP SWAP1 JUMP JUMPDEST JUMPDEST DUP1 DUP3 GT ISZERO PUSH2 0x27A JUMPI PUSH1 0x0 DUP2 PUSH1 0x0 SWAP1 SSTORE POP PUSH1 0x1 ADD PUSH2 0x262 JUMP JUMPDEST POP SWAP1 JUMP JUMPDEST PUSH1 0x0 PUSH20 0xFFFFFFFFFFFFFFFFFFFFFFFFFFFFFFFFFFFFFFFF DUP3 AND SWAP1 POP SWAP2 SWAP1 POP JUMP JUMPDEST PUSH1 0x0 PUSH2 0x2A9 DUP3 PUSH2 0x27E JUMP JUMPDEST SWAP1 POP SWAP2 SWAP1 POP JUMP JUMPDEST PUSH2 0x2B9 DUP2 PUSH2 0x29E JUMP JUMPDEST DUP3 MSTORE POP POP JUMP JUMPDEST PUSH1 0x0 PUSH1 0x20 DUP3 ADD SWAP1 POP PUSH2 0x2D4 PUSH1 0x0 DUP4 ADD DUP5 PUSH2 0x2B0 JUMP JUMPDEST SWAP3 SWAP2 POP POP JUMP JUMPDEST PUSH1 0x0 DUP2 MLOAD SWAP1 POP SWAP2 SWAP1 POP JUMP JUMPDEST PUSH1 0x0 DUP3 DUP3 MSTORE PUSH1 0x20 DUP3 ADD SWAP1 POP SWAP3 SWAP2 POP POP JUMP JUMPDEST PUSH1 0x0 JUMPDEST DUP4 DUP2 LT ISZERO PUSH2 0x314 JUMPI DUP1 DUP3 ADD MLOAD DUP2 DUP5 ADD MSTORE PUSH1 0x20 DUP2 ADD SWAP1 POP PUSH2 0x2F9 JUMP JUMPDEST DUP4 DUP2 GT ISZERO PUSH2 0x323 JUMPI PUSH1 0x0 DUP5 DUP5 ADD MSTORE JUMPDEST POP POP POP POP JUMP JUMPDEST PUSH1 0x0 PUSH1 0x1F NOT PUSH1 0x1F DUP4 ADD AND SWAP1 POP SWAP2 SWAP1 POP JUMP JUMPDEST PUSH1 0x0 PUSH2 0x345 DUP3 PUSH2 0x2DA JUMP JUMPDEST PUSH2 0x34F DUP2 DUP6 PUSH2 0x2E5 JUMP JUMPDEST SWAP4 POP PUSH2 0x35F DUP2 DUP6 PUSH1 0x20 DUP7 ADD PUSH2 0x2F6 JUMP JUMPDEST PUSH2 0x368 DUP2 PUSH2 0x329 JUMP JUMPDEST DUP5 ADD SWAP2 POP POP SWAP3 SWAP2 POP POP JUMP JUMPDEST PUSH1 0x0 PUSH1 0x20 DUP3 ADD SWAP1 POP DUP2 DUP2 SUB PUSH1 0x0 DUP4 ADD MSTORE PUSH2 0x38D DUP2 DUP5 PUSH2 0x33A JUMP JUMPDEST SWAP1 POP SWAP3 SWAP2 POP POP JUMP JUMPDEST PUSH1 0x0 PUSH1 0x40 MLOAD SWAP1 POP SWAP1 JUMP JUMPDEST PUSH1 0x0 DUP1 REVERT JUMPDEST PUSH1 0x0 DUP1 REVERT JUMPDEST PUSH1 0x0 DUP1 REVERT JUMPDEST PUSH1 0x0 DUP1 REVERT JUMPDEST PUSH32 0x4E487B7100000000000000000000000000000000000000000000000000000000 PUSH1 0x0 MSTORE PUSH1 0x41 PUSH1 0x4 MSTORE PUSH1 0x24 PUSH1 0x0 REVERT JUMPDEST PUSH2 0x3EB DUP3 PUSH2 0x329 JUMP JUMPDEST DUP2 ADD DUP2 DUP2 LT PUSH8 0xFFFFFFFFFFFFFFFF DUP3 GT OR ISZERO PUSH2 0x40A JUMPI PUSH2 0x409 PUSH2 0x3B3 JUMP JUMPDEST JUMPDEST DUP1 PUSH1 0x40 MSTORE POP POP POP JUMP JUMPDEST PUSH1 0x0 PUSH2 0x41D PUSH2 0x395 JUMP JUMPDEST SWAP1 POP PUSH2 0x429 DUP3 DUP3 PUSH2 0x3E2 JUMP JUMPDEST SWAP2 SWAP1 POP JUMP JUMPDEST PUSH1 0x0 PUSH8 0xFFFFFFFFFFFFFFFF DUP3 GT ISZERO PUSH2 0x449 JUMPI PUSH2 0x448 PUSH2 0x3B3 JUMP JUMPDEST JUMPDEST PUSH2 0x452 DUP3 PUSH2 0x329 JUMP JUMPDEST SWAP1 POP PUSH1 0x20 DUP2 ADD SWAP1 POP SWAP2 SWAP1 POP JUMP JUMPDEST DUP3 DUP2 DUP4 CALLDATACOPY PUSH1 0x0 DUP4 DUP4 ADD MSTORE POP POP POP JUMP JUMPDEST PUSH1 0x0 PUSH2 0x481 PUSH2 0x47C DUP5 PUSH2 0x42E JUMP JUMPDEST PUSH2 0x413 JUMP JUMPDEST SWAP1 POP DUP3 DUP2 MSTORE PUSH1 0x20 DUP2 ADD DUP5 DUP5 DUP5 ADD GT ISZERO PUSH2 0x49D JUMPI PUSH2 0x49C PUSH2 0x3AE JUMP JUMPDEST JUMPDEST PUSH2 0x4A8 DUP5 DUP3 DUP6 PUSH2 0x45F JUMP JUMPDEST POP SWAP4 SWAP3 POP POP POP JUMP JUMPDEST PUSH1 0x0 DUP3 PUSH1 0x1F DUP4 ADD SLT PUSH2 0x4C5 JUMPI PUSH2 0x4C4 PUSH2 0x3A9 JUMP JUMPDEST JUMPDEST DUP2 CALLDATALOAD PUSH2 0x4D5 DUP5 DUP3 PUSH1 0x20 DUP7 ADD PUSH2 0x46E JUMP JUMPDEST SWAP2 POP POP SWAP3 SWAP2 POP POP JUMP JUMPDEST PUSH1 0x0 PUSH1 0x20 DUP3 DUP5 SUB SLT ISZERO PUSH2 0x4F4 JUMPI PUSH2 0x4F3 PUSH2 0x39F JUMP JUMPDEST JUMPDEST PUSH1 0x0 DUP3 ADD CALLDATALOAD PUSH8 0xFFFFFFFFFFFFFFFF DUP2 GT ISZERO PUSH2 0x512 JUMPI PUSH2 0x511 PUSH2 0x3A4 JUMP JUMPDEST JUMPDEST PUSH2 0x51E DUP5 DUP3 DUP6 ADD PUSH2 0x4B0 JUMP JUMPDEST SWAP2 POP POP SWAP3 SWAP2 POP POP JUMP JUMPDEST PUSH32 0x4E487B7100000000000000000000000000000000000000000000000000000000 PUSH1 0x0 MSTORE PUSH1 0x22 PUSH1 0x4 MSTORE PUSH1 0x24 PUSH1 0x0 REVERT JUMPDEST PUSH1 0x0 PUSH1 0x2 DUP3 DIV SWAP1 POP PUSH1 0x1 DUP3 AND DUP1 PUSH2 0x56E JUMPI PUSH1 0x7F DUP3 AND SWAP2 POP JUMPDEST PUSH1 0x20 DUP3 LT DUP2 SUB PUSH2 0x581 JUMPI PUSH2 0x580 PUSH2 0x527 JUMP JUMPDEST JUMPDEST POP SWAP2 SWAP1 POP JUMP INVALID LOG2 PUSH5 0x6970667358 0x22 SLT KECCAK256 SWAP7 PUSH16 0x13EB4E229ECFF9A5B464E9898A422BC5 SLT PUSH20 0xA6ECBEA3E9554800B7E5002464736F6C63430008 0xE STOP CALLER "
				},
				"gasEstimates": {
					"creation": {
						"codeDepositCost": "293800",
						"executionCost": "infinite",
						"totalCost": "infinite"
					},
					"external": {
						"myAddress()": "2489",
						"myString()": "infinite",
						"setAddress()": "24454",
						"updateString(string)": "infinite"
					}
				},
				"methodIdentifiers": {
					"myAddress()": "26b85ee1",
					"myString()": "492bfa18",
					"setAddress()": "e6569275",
					"updateString(string)": "c3ccf402"
				}
			},
			"storageLayout": {
				"storage": [
					{
						"astId": 3,
						"contract": "contracts/ExampleContract.sol:ExampleConstructor",
						"label": "myAddress",
						"offset": 0,
						"slot": "0",
						"type": "t_address"
					},
					{
						"astId": 6,
						"contract": "contracts/ExampleContract.sol:ExampleConstructor",
						"label": "myString",
						"offset": 0,
						"slot": "1",
						"type": "t_string_storage"
					}
				],
				"types": {
					"t_address": {
						"encoding": "inplace",
						"label": "address",
						"numberOfBytes": "20"
					},
					"t_string_storage": {
						"encoding": "bytes",
						"label": "string",
						"numberOfBytes": "32"
					}
				}
			},
			"userdoc": {
				"kind": "user",
				"methods": {},
				"version": 1
			}
		}
	}
}